{
  "abi": [
    {
      "anonymous": false,
      "inputs": [
        {
          "indexed": true,
          "internalType": "address",
          "name": "account",
          "type": "address"
        }
      ],
      "name": "AccountBlacklisted",
      "type": "event"
    },
    {
      "anonymous": false,
      "inputs": [
        {
          "indexed": true,
          "internalType": "address",
          "name": "account",
          "type": "address"
        }
      ],
      "name": "AccountWhitelisted",
      "type": "event"
    },
    {
      "anonymous": false,
      "inputs": [],
      "name": "AllTokensFrozen",
      "type": "event"
    },
    {
      "anonymous": false,
      "inputs": [],
      "name": "AllTokensUnfrozen",
      "type": "event"
    },
    {
      "anonymous": false,
      "inputs": [
        {
          "indexed": true,
          "internalType": "bytes32",
          "name": "commandId",
          "type": "bytes32"
        }
      ],
      "name": "Executed",
      "type": "event"
    },
    {
      "anonymous": false,
      "inputs": [
        {
          "indexed": false,
          "internalType": "address[]",
          "name": "preOperators",
          "type": "address[]"
        },
        {
          "indexed": false,
          "internalType": "uint256",
          "name": "prevThreshold",
          "type": "uint256"
        },
        {
          "indexed": false,
          "internalType": "address[]",
          "name": "newOperators",
          "type": "address[]"
        },
        {
          "indexed": false,
          "internalType": "uint256",
          "name": "newThreshold",
          "type": "uint256"
        }
      ],
      "name": "OperatorshipTransferred",
      "type": "event"
    },
    {
      "anonymous": false,
      "inputs": [
        {
          "indexed": false,
          "internalType": "address[]",
          "name": "preOwners",
          "type": "address[]"
        },
        {
          "indexed": false,
          "internalType": "uint256",
          "name": "prevThreshold",
          "type": "uint256"
        },
        {
          "indexed": false,
          "internalType": "address[]",
          "name": "newOwners",
          "type": "address[]"
        },
        {
          "indexed": false,
          "internalType": "uint256",
          "name": "newThreshold",
          "type": "uint256"
        }
      ],
      "name": "OwnershipTransferred",
      "type": "event"
    },
    {
      "anonymous": false,
      "inputs": [
        {
          "indexed": false,
          "internalType": "string",
          "name": "symbol",
          "type": "string"
        },
        {
          "indexed": false,
          "internalType": "address",
          "name": "tokenAddresses",
          "type": "address"
        }
      ],
      "name": "TokenDeployed",
      "type": "event"
    },
    {
      "anonymous": false,
      "inputs": [
        {
          "indexed": true,
          "internalType": "string",
          "name": "symbol",
          "type": "string"
        }
      ],
      "name": "TokenFrozen",
      "type": "event"
    },
    {
      "anonymous": false,
      "inputs": [
        {
          "indexed": true,
          "internalType": "string",
          "name": "symbol",
          "type": "string"
        }
      ],
      "name": "TokenUnfrozen",
      "type": "event"
    },
    {
      "anonymous": false,
      "inputs": [
        {
          "indexed": true,
          "internalType": "address",
          "name": "implementation",
          "type": "address"
        }
      ],
      "name": "Upgraded",
      "type": "event"
    },
    {
      "inputs": [],
      "name": "allTokensFrozen",
      "outputs": [
        {
          "internalType": "bool",
          "name": "",
          "type": "bool"
        }
      ],
      "stateMutability": "view",
      "type": "function"
    },
    {
      "inputs": [
        {
          "internalType": "bytes",
          "name": "params",
          "type": "bytes"
        }
      ],
      "name": "burnToken",
      "outputs": [],
      "stateMutability": "nonpayable",
      "type": "function"
    },
    {
      "inputs": [
        {
          "internalType": "bytes",
          "name": "params",
          "type": "bytes"
        }
      ],
      "name": "deployToken",
      "outputs": [],
      "stateMutability": "nonpayable",
      "type": "function"
    },
    {
      "inputs": [
        {
          "internalType": "bytes",
          "name": "input",
          "type": "bytes"
        }
      ],
      "name": "execute",
      "outputs": [],
      "stateMutability": "nonpayable",
      "type": "function"
    },
    {
      "inputs": [],
      "name": "freezeAllTokens",
      "outputs": [],
      "stateMutability": "nonpayable",
      "type": "function"
    },
    {
      "inputs": [
        {
          "internalType": "string",
          "name": "symbol",
          "type": "string"
        }
      ],
      "name": "freezeToken",
      "outputs": [],
      "stateMutability": "nonpayable",
      "type": "function"
    },
    {
      "inputs": [
        {
          "internalType": "bytes32",
          "name": "key",
          "type": "bytes32"
        }
      ],
      "name": "getAddress",
      "outputs": [
        {
          "internalType": "address",
          "name": "",
          "type": "address"
        }
      ],
      "stateMutability": "view",
      "type": "function"
    },
    {
      "inputs": [
        {
          "internalType": "bytes32",
          "name": "key",
          "type": "bytes32"
        }
      ],
      "name": "getBool",
      "outputs": [
        {
          "internalType": "bool",
          "name": "",
          "type": "bool"
        }
      ],
      "stateMutability": "view",
      "type": "function"
    },
    {
      "inputs": [
        {
          "internalType": "bytes32",
          "name": "key",
          "type": "bytes32"
        }
      ],
      "name": "getBytes",
      "outputs": [
        {
          "internalType": "bytes",
          "name": "",
          "type": "bytes"
        }
      ],
      "stateMutability": "view",
      "type": "function"
    },
    {
      "inputs": [
        {
          "internalType": "bytes32",
          "name": "key",
          "type": "bytes32"
        }
      ],
      "name": "getInt",
      "outputs": [
        {
          "internalType": "int256",
          "name": "",
          "type": "int256"
        }
      ],
      "stateMutability": "view",
      "type": "function"
    },
    {
      "inputs": [
        {
          "internalType": "bytes32",
          "name": "key",
          "type": "bytes32"
        }
      ],
      "name": "getString",
      "outputs": [
        {
          "internalType": "string",
          "name": "",
          "type": "string"
        }
      ],
      "stateMutability": "view",
      "type": "function"
    },
    {
      "inputs": [
        {
          "internalType": "bytes32",
          "name": "key",
          "type": "bytes32"
        }
      ],
      "name": "getUint",
      "outputs": [
        {
          "internalType": "uint256",
          "name": "",
          "type": "uint256"
        }
      ],
      "stateMutability": "view",
      "type": "function"
    },
    {
      "inputs": [],
      "name": "implementation",
      "outputs": [
        {
          "internalType": "address",
          "name": "",
          "type": "address"
        }
      ],
      "stateMutability": "view",
      "type": "function"
    },
    {
      "inputs": [
        {
          "internalType": "bytes32",
          "name": "commandId",
          "type": "bytes32"
        }
      ],
      "name": "isCommandExecuted",
      "outputs": [
        {
          "internalType": "bool",
          "name": "",
          "type": "bool"
        }
      ],
      "stateMutability": "view",
      "type": "function"
    },
    {
      "inputs": [
        {
          "internalType": "bytes",
          "name": "params",
          "type": "bytes"
        }
      ],
      "name": "mintToken",
      "outputs": [],
      "stateMutability": "nonpayable",
      "type": "function"
    },
    {
      "inputs": [],
      "name": "operators",
      "outputs": [
        {
          "internalType": "address[]",
          "name": "results",
          "type": "address[]"
        }
      ],
      "stateMutability": "view",
      "type": "function"
    },
    {
      "inputs": [],
      "name": "owners",
      "outputs": [
        {
          "internalType": "address[]",
          "name": "results",
          "type": "address[]"
        }
      ],
      "stateMutability": "view",
      "type": "function"
    },
    {
      "inputs": [
        {
          "internalType": "bytes",
          "name": "params",
          "type": "bytes"
        }
      ],
      "name": "setup",
      "outputs": [],
      "stateMutability": "nonpayable",
      "type": "function"
    },
    {
      "inputs": [
        {
          "internalType": "string",
          "name": "symbol",
          "type": "string"
        }
      ],
      "name": "tokenAddresses",
      "outputs": [
        {
          "internalType": "address",
          "name": "",
          "type": "address"
        }
      ],
      "stateMutability": "view",
      "type": "function"
    },
    {
      "inputs": [
        {
          "internalType": "string",
          "name": "symbol",
          "type": "string"
        }
      ],
      "name": "tokenFrozen",
      "outputs": [
        {
          "internalType": "bool",
          "name": "",
          "type": "bool"
        }
      ],
      "stateMutability": "view",
      "type": "function"
    },
    {
      "inputs": [
        {
          "internalType": "bytes",
          "name": "params",
          "type": "bytes"
        }
      ],
      "name": "transferOperatorship",
      "outputs": [],
      "stateMutability": "nonpayable",
      "type": "function"
    },
    {
      "inputs": [
        {
          "internalType": "bytes",
          "name": "params",
          "type": "bytes"
        }
      ],
      "name": "transferOwnership",
      "outputs": [],
      "stateMutability": "nonpayable",
      "type": "function"
    },
    {
      "inputs": [],
      "name": "unfreezeAllTokens",
      "outputs": [],
      "stateMutability": "nonpayable",
      "type": "function"
    },
    {
      "inputs": [
        {
          "internalType": "string",
          "name": "symbol",
          "type": "string"
        }
      ],
      "name": "unfreezeToken",
      "outputs": [],
      "stateMutability": "nonpayable",
      "type": "function"
    },
    {
      "inputs": [
        {
          "internalType": "address",
          "name": "newImplementation",
          "type": "address"
        },
        {
          "internalType": "bytes32",
          "name": "newImplementationCodeHash",
          "type": "bytes32"
        },
        {
          "internalType": "bytes",
          "name": "setupParams",
          "type": "bytes"
        }
      ],
      "name": "upgrade",
      "outputs": [],
      "stateMutability": "nonpayable",
      "type": "function"
    }
  ],
  "evm": {
    "bytecode": {
      "linkReferences": {},
      "object": "608060405234801561001057600080fd5b50615329806100206000396000f3fe60806040523480156200001157600080fd5b5060043610620001925760003560e01c80639ded06df11620000f0578063d1cf834f11620000a3578063d2bc37f8116200007a578063d2bc37f8146200042a578063dc97d9621462000434578063e3dfa2991462000457578063e673df8a146200046157600080fd5b8063d1cf834f14620003e5578063d26ff21014620003fc578063d289d1cb146200041357600080fd5b80639ded06df1462000301578063a3499c731462000318578063aa1e1f0a146200032f578063affe39c11462000383578063bd02d0f5146200039c578063c031a18014620003ce57600080fd5b806360c6ff43116200014957806360c6ff431462000248578063646c5d34146200025f5780637ae1cfca14620002765780637b1b769e14620002ad578063935b13f614620002c4578063986e791a14620002db57600080fd5b8063037699c1146200019757806309c5eabe14620001b057806321f8a72114620001c757806334ff698314620002105780633cd6ee6d14620002275780635c60da1b146200023e575b600080fd5b620001ae620001a836600462002d2c565b6200046b565b005b620001ae620001c136600462002d2c565b6200049f565b620001f3620001d836600462002d71565b6000908152600260205260409020546001600160a01b031690565b6040516001600160a01b0390911681526020015b60405180910390f35b620001ae6200022136600462002e5a565b620004c0565b620001ae6200023836600462002d2c565b62000624565b620001f362000667565b620001ae6200025936600462002d2c565b620006be565b620001ae6200027036600462002e5a565b620006f7565b6200029c6200028736600462002d71565b60009081526004602052604090205460ff1690565b604051901515815260200162000207565b6200029c620002be36600462002e5a565b6200084b565b620001f3620002d536600462002e5a565b62000862565b620002f2620002ec36600462002d71565b62000873565b60405162000207919062002eef565b620001ae6200031236600462002d2c565b6200091d565b620001ae6200032936600462002f1a565b62000ae7565b7f75a31d1ce8e5f9892188befc328d3b9bd3fa5037457e881abc21f388471b8d9660005260046020527fa0b596b8942d6ef5cc77ce0ad89a75f0bfcc7f0132cd8db58e8449dcf04a858a5460ff166200029c565b6200038d62000d0b565b60405162000207919062002fc1565b620003bf620003ad36600462002d71565b60009081526020819052604090205490565b60405190815260200162000207565b620002f2620003df36600462002d71565b62000dd2565b620001ae620003f636600462002d2c565b62000df1565b6200029c6200040d36600462002d71565b62000e98565b620001ae6200042436600462002d2c565b62000ea9565b620001ae62000f5e565b620003bf6200044536600462002d71565b60009081526005602052604090205490565b620001ae620010b0565b6200038d62001202565b3330146200047857600080fd5b600080620004898385018562002fd6565b91509150620004998282620012c3565b50505050565b600080620004b08385018562003044565b915091506200049982826200158f565b6000620004cc62001a9e565b9050620004da813362001aec565b620004e457600080fd5b60008036604051620004f892919062003127565b604051809103902090506200050f82823362001b05565b156200051a57600080fd5b62000529828233600162001b20565b6000600162000539848462001b38565b6200054591906200314d565b90506200055483838362001b4a565b6200055f8362001b6d565b8110156200056d5750505050565b620005846200057c8562001b7e565b600062001bd2565b8360405162000594919062003168565b604051908190038120907f5327e3af9cd2d5c19a8dff23ef487d7a4d5f6fc985464f1792a33c212057598990600090a2620005d28383600062001b4a565b6000620005df8462001bf2565b905060005b818110156200061c57620006078585620005ff888562001c03565b600062001b20565b80620006138162003186565b915050620005e4565b505050505050565b3330146200063157600080fd5b6000808080806200064586880188620031a4565b945094509450945094506200065e858585858562001c15565b50505050505050565b7f360894a13ba1a3210667c828492db98dca3e2076cc3735a920a3ca505d382bbc60005260026020527f11141f466c69fd409e1990e063b49cd6d61ed2ecff27a2e402e259ca6b9a01a3546001600160a01b031690565b333014620006cb57600080fd5b60008080620006dd8486018662003248565b925092509250620006f083838362001d3c565b5050505050565b60006200070362001a9e565b905062000711813362001aec565b6200071b57600080fd5b600080366040516200072f92919062003127565b604051809103902090506200074682823362001b05565b156200075157600080fd5b62000760828233600162001b20565b6000600162000770848462001b38565b6200077c91906200314d565b90506200078b83838362001b4a565b620007968362001b6d565b811015620007a45750505050565b620007bb620007b38562001b7e565b600162001bd2565b83604051620007cb919062003168565b604051908190038120907f11260c92ecb021c33706db3a9699410f343d5f2175201a4551fe7634347a0cf190600090a2620008098383600062001b4a565b6000620008168462001bf2565b905060005b818110156200061c57620008368585620005ff888562001c03565b80620008428162003186565b9150506200081b565b60006200085c620002878362001b7e565b92915050565b60006200085c620001d88362001e69565b60008181526001602052604090208054606091906200089290620032a7565b80601f0160208091040260200160405190810160405280929190818152602001828054620008c090620032a7565b8015620009115780601f10620008e55761010080835404028352916020019162000911565b820191906000526020600020905b815481529060010190602001808311620008f357829003601f168201915b50505050509050919050565b60006200092962000667565b6001600160a01b031614156200093e57600080fd5b6000808080808062000953878901896200335c565b955095509550955095509550600060016200096d62001a9e565b6200097991906200314d565b9050620009cd817fd51dc9b187568bb94760866e1d0d066ca470037d2d331afb1a02ec74bfb8990c60009081526020527ff8d0c05cd32e3272241fdc9d5839565f8bcf94139cb4bd09e230e1b57a60ddc255565b620009da81888862001ea3565b60006001620009e862001f4e565b620009f491906200314d565b905062000a018162001f9c565b62000a0e81878762001fe9565b6000600162000a1c62002094565b62000a2891906200314d565b905062000a3581620020e2565b62000a428186866200212f565b60408051600080825260208201928390527fd167b96814cd24898418cc293e8d47d54afe6dcf0631283f0830e1eae621f6bd9262000a869291908b908b9062003409565b60405180910390a160408051600080825260208201928390527fe7475da747ead33c03118a4b2cca5e521e930dd8ddc556751fe12d1e8395db2c9262000ad29291908990899062003409565b60405180910390a15050505050505050505050565b600062000af362001a9e565b905062000b01813362001aec565b62000b0b57600080fd5b6000803660405162000b1f92919062003127565b6040518091039020905062000b3682823362001b05565b1562000b4157600080fd5b62000b50828233600162001b20565b6000600162000b60848462001b38565b62000b6c91906200314d565b905062000b7b83838362001b4a565b62000b868362001b6d565b81101562000b975750505062000499565b866001600160a01b03163f861462000bae57600080fd5b6040516001600160a01b038816907fbc7cd75a20ee27fd9adebab32041f755214dbc6bffa90cc0225b39da2e5c2d3b90600090a2831562000ca5576000876001600160a01b0316639ded06df60e01b878760405160240162000c129291906200344a565b60408051601f198184030181529181526020820180516001600160e01b03166001600160e01b031990941693909317909252905162000c52919062003168565b600060405180830381855af49150503d806000811462000c8f576040519150601f19603f3d011682016040523d82523d6000602084013e62000c94565b606091505b505090508062000ca357600080fd5b505b62000cb087620021da565b62000cbe8383600062001b4a565b600062000ccb8462001bf2565b905060005b8181101562000d005762000ceb8585620005ff888562001c03565b8062000cf78162003186565b91505062000cd0565b505050505050505050565b6060600062000d1962001f4e565b9050600062000d288262002206565b9050806001600160401b0381111562000d455762000d4562002d8b565b60405190808252806020026020018201604052801562000d6f578160200160208202803683370190505b50925060005b8181101562000dcc5762000d8a838262002217565b84828151811062000d9f5762000d9f62003479565b6001600160a01b03909216602092830291909101909101528062000dc38162003186565b91505062000d75565b50505090565b60008181526003602052604090208054606091906200089290620032a7565b33301462000dfe57600080fd5b60008062000e0f838501856200348f565b91509150600062000e1f62001f4e565b90507fd167b96814cd24898418cc293e8d47d54afe6dcf0631283f0830e1eae621f6bd62000e4c62000d0b565b62000e578362002229565b858560405162000e6b949392919062003409565b60405180910390a162000e8b62000e828262003186565b91508162001f9c565b620006f081848462001fe9565b60006200085c62000287836200223a565b33301462000eb657600080fd5b60008062000ec7838501856200348f565b91509150600062000ed762001f4e565b90507fe7475da747ead33c03118a4b2cca5e521e930dd8ddc556751fe12d1e8395db2c62000f0462001202565b62000f0f8362002276565b858560405162000f23949392919062003409565b60405180910390a1600062000f3762002094565b905062000f5162000f488262003186565b915081620020e2565b6200061c8185856200212f565b600062000f6a62001a9e565b905062000f78813362001aec565b62000f8257600080fd5b6000803660405162000f9692919062003127565b6040518091039020905062000fad82823362001b05565b1562000fb857600080fd5b62000fc7828233600162001b20565b6000600162000fd7848462001b38565b62000fe391906200314d565b905062000ff283838362001b4a565b62000ffd8362001b6d565b8110156200100a57505050565b620010377f75a31d1ce8e5f9892188befc328d3b9bd3fa5037457e881abc21f388471b8d96600162001bd2565b6040517f9f428b56ca209118783db391e8a5a62827b6b218add33411061060d308af6ead90600090a16200106e8383600062001b4a565b60006200107b8462001bf2565b905060005b81811015620006f0576200109b8585620005ff888562001c03565b80620010a78162003186565b91505062001080565b6000620010bc62001a9e565b9050620010ca813362001aec565b620010d457600080fd5b60008036604051620010e892919062003127565b60405180910390209050620010ff82823362001b05565b156200110a57600080fd5b62001119828233600162001b20565b6000600162001129848462001b38565b6200113591906200314d565b90506200114483838362001b4a565b6200114f8362001b6d565b8110156200115c57505050565b620011897f75a31d1ce8e5f9892188befc328d3b9bd3fa5037457e881abc21f388471b8d96600062001bd2565b6040517f0e821ff109470f6aa1aebb161aa0e7328b1a8552aa48e09ed2d03184ecece9a690600090a1620011c08383600062001b4a565b6000620011cd8462001bf2565b905060005b81811015620006f057620011ed8585620005ff888562001c03565b80620011f98162003186565b915050620011d2565b606060006200121062002094565b905060006200121f8262002287565b9050806001600160401b038111156200123c576200123c62002d8b565b60405190808252806020026020018201604052801562001266578160200160208202803683370190505b50925060005b8181101562000dcc5762001281838262002298565b84828151811062001296576200129662003479565b6001600160a01b039092166020928302919091019091015280620012ba8162003186565b9150506200126c565b6000620012d08362000862565b90506001600160a01b038116620012e657600080fd5b6002620012f384620022aa565b6002811115620013075762001307620034c8565b141562001532576000826040516200131f9062002cc5565b8190604051809103906000f590508015801562001340573d6000803e3d6000fd5b506040516370a0823160e01b81526001600160a01b038083166004830181905292935060009283929091631cff79cd91879163a9059cbb60e01b9130918416906370a082319060240160206040518083038186803b158015620013a257600080fd5b505afa158015620013b7573d6000803e3d6000fd5b505050506040513d601f19601f82011682018060405250810190620013dd9190620034de565b6040516001600160a01b039092166024830152604482015260640160408051601f198184030181529181526020820180516001600160e01b03166001600160e01b03199485161790525160e085901b9092168252620014409291600401620034f8565b600060405180830381600087803b1580156200145b57600080fd5b505af115801562001470573d6000803e3d6000fd5b505050506040513d6000823e601f3d908101601f191682016040526200149a91908101906200358d565b91509150818015620014c7575080511580620014c7575080806020019051810190620014c79190620035e0565b620014d157600080fd5b60405162f55d9d60e01b81523060048201526001600160a01b0384169062f55d9d90602401600060405180830381600087803b1580156200151157600080fd5b505af115801562001526573d6000803e3d6000fd5b50505050505050505050565b6040516308a1eee160e01b8152600481018390526001600160a01b038216906308a1eee190602401600060405180830381600087803b1580156200157557600080fd5b505af11580156200065e573d6000803e3d6000fd5b505050565b80516000816001600160401b03811115620015ae57620015ae62002d8b565b604051908082528060200260200182016040528015620015d8578160200160208202803683370190505b50905060005b82811015620016625762001620620015fd8680519060200120620022cf565b85838151811062001612576200161262003479565b60200260200101516200230b565b82828151811062001635576200163562003479565b6001600160a01b039092166020928302919091019091015280620016598162003186565b915050620015de565b5060008060008060008880602001905181019062001681919062003726565b945094509450945094504685146200169857600080fd5b620016a386620023fc565b620016ad57600080fd5b8251825181148015620016c05750815181145b620016ca57600080fd5b600080806001886002811115620016e557620016e5620034c8565b14156200171e5762001701620016fa62001f4e565b8b6200249b565b92508280620017165750620017168a6200252f565b91506200174a565b6002886002811115620017355762001735620034c8565b14156200174a57620017478a620025c2565b90505b60005b8481101562001a8e5760008882815181106200176d576200176d62003479565b60200260200101519050620017828162000e98565b156200178f575062001a79565b600080898481518110620017a757620017a762003479565b6020026020010151604051602001620017c1919062003168565b6040516020818303038152906040528051906020012090507f5763814b98a3aa86f212797af3273868b5dd6e2a532d764a79b98ca859e7bbad811415620018215785620018115750505062001a79565b633cd6ee6d60e01b915062001964565b7fec78d9c22c08bb9f0ecd5d95571ae83e3f22219c5a9278c3270691d50abfd91b81141562001876578415801562001857575085155b15620018665750505062001a79565b6360c6ff4360e01b915062001964565b7fda199c0e76f665e0450020791c7f8eacc75f3cdbace313272c28f93e5390b62c811415620018cb5784158015620018ac575085155b15620018bb5750505062001a79565b63037699c160e01b915062001964565b7f1d4a390f291e2e1f29874769efdef47ddad94d76f77ff516fad206a385e8995f811415620019135786620019035750505062001a79565b63d1cf834f60e01b915062001964565b7fb460dcb6fd5797fc0e7ea0f13406c80d30702ba7f73a42bd91394775dcbca7188114156200195b57866200194b5750505062001a79565b63d289d1cb60e01b915062001964565b50505062001a79565b620019718360016200263d565b6000306001600160a01b0316838b878151811062001993576200199362003479565b6020026020010151604051602401620019ad919062002eef565b60408051601f198184030181529181526020820180516001600160e01b03166001600160e01b0319909416939093179092529051620019ed919062003168565b6000604051808303816000865af19150503d806000811462001a2c576040519150601f19603f3d011682016040523d82523d6000602084013e62001a31565b606091505b5050905062001a4184826200263d565b801562001a745760405184907fa74c8847d513feba22a0f0cb38d53081abf97562cdb293926ba243689e7c41ca90600090a25b505050505b8062001a858162003186565b9150506200174d565b5050505050505050505050505050565b7fd51dc9b187568bb94760866e1d0d066ca470037d2d331afb1a02ec74bfb8990c60009081526020527ff8d0c05cd32e3272241fdc9d5839565f8bcf94139cb4bd09e230e1b57a60ddc25490565b600062001afe62000287848462002650565b9392505050565b600062001b1862000287858585620026a7565b949350505050565b6200049962001b31858585620026a7565b8262001bd2565b600062001afe620003ad84846200271b565b6200158a62001b5a84846200271b565b8260009182526020829052604090912055565b60006200085c620003ad836200275e565b60007f1a7261d3a36c4ce4235d10859911c9444a6963a3591ec5725b96871d9810626b8260405160200162001bb592919062003837565b604051602081830303815290604052805190602001209050919050565b600091825260046020526040909120805460ff1916911515919091179055565b60006200085c620003ad836200279a565b600062001afe620001d88484620027d6565b600062001c228562000862565b6001600160a01b03161462001c3657600080fd5b6001600160a01b03811662001ccc5760008460405160200162001c5a919062003168565b604051602081830303815290604052805190602001209050808686868660405162001c859062002cd3565b62001c9494939291906200385f565b8190604051809103906000f590508015801562001cb5573d6000803e3d6000fd5b50915062001cc585600162002819565b5062001cee565b6001600160a01b0381163b62001ce157600080fd5b62001cee84600262002819565b62001cfa84826200284f565b7fbf90b5a1ec9763e8bf4b9245cef0c28db92bab309fc2c5177f17814f38246938848260405162001d2d9291906200389f565b60405180910390a15050505050565b600062001d498462000862565b90506001600160a01b03811662001d5f57600080fd5b600262001d6c85620022aa565b600281111562001d805762001d80620034c8565b141562001dff57604080516001600160a01b038516602482015260448082018590528251808303909101815260649091018252602080820180516001600160e01b031663a9059cbb60e01b179052825180840190935260098352681352539517d190525360ba1b9083015262001df99183919062002865565b62000499565b6040516340c10f1960e01b81526001600160a01b038481166004830152602482018490528216906340c10f1990604401600060405180830381600087803b15801562001e4a57600080fd5b505af115801562001e5f573d6000803e3d6000fd5b5050505050505050565b60007fc4e632779a6a7838736dd7e5e6a0eadf171dd37dfb6230720e265576dfcf42bb8260405160200162001bb592919062003837565b50565b81518181101562001eb357600080fd5b6000821162001ec157600080fd5b62001ecd8483620028fe565b62001ed984826200290d565b60005b81811015620006f057600084828151811062001efc5762001efc62003479565b6020026020010151905062001f12868262001aec565b1562001f1d57600080fd5b62001f2a8683836200291c565b62001f38868260016200292c565b508062001f458162003186565b91505062001edc565b7f67cbdff49954077d2dd5637524b03bfe3e6506d456859017a888fad567e1af0360009081526020527f06f01c2f096e745c2a207fbf93babd5e7ee6acfd26f0f34a0e4ac68373c21d0e5490565b7f67cbdff49954077d2dd5637524b03bfe3e6506d456859017a888fad567e1af0360009081526020527f06f01c2f096e745c2a207fbf93babd5e7ee6acfd26f0f34a0e4ac68373c21d0e55565b81518181101562001ff957600080fd5b600082116200200757600080fd5b6200201384836200293c565b6200201f84826200294b565b60005b81811015620006f057600084828151811062002042576200204262003479565b602002602001015190506200205886826200295a565b156200206357600080fd5b620020708683836200296c565b6200207e8682600162002990565b50806200208b8162003186565b91505062002022565b7f5369fb791f26307f8e69b07625302ccac6930af09ab22d753b17d2042e9992e760009081526020527f07174c149a4f7627ac1dd39b679bd42f12fc4e8d7e850b055662bbee7188da105490565b7f5369fb791f26307f8e69b07625302ccac6930af09ab22d753b17d2042e9992e760009081526020527f07174c149a4f7627ac1dd39b679bd42f12fc4e8d7e850b055662bbee7188da1055565b8151818110156200213f57600080fd5b600082116200214d57600080fd5b620021598483620029a0565b620021658482620029af565b60005b81811015620006f057600084828151811062002188576200218862003479565b602002602001015190506200219e8682620029be565b15620021a957600080fd5b620021b6868383620029d0565b620021c486826001620029e0565b5080620021d18162003186565b91505062002168565b62001ea07f360894a13ba1a3210667c828492db98dca3e2076cc3735a920a3ca505d382bbc82620029f0565b60006200085c620003ad8362002a1e565b600062001afe620001d8848462002a5a565b60006200085c620003ad8362002a9d565b604080517f957705a374326b30f4a1069c936d736cc9993ed6c820b4e0e2fd94a8beca0d1d602082015290810182905260009060600162001bb5565b60006200085c620003ad8362002ad9565b60006200085c620003ad8362002b15565b600062001afe620001d8848462002b51565b6000620022bb620003ad8362002b94565b60028111156200085c576200085c620034c8565b6040517f19457468657265756d205369676e6564204d6573736167653a0a3332000000006020820152603c8101829052600090605c0162001bb5565b600081516041146200231c57600080fd5b60208201516040830151606084015160001a7f7fffffffffffffffffffffffffffffff5d576e7357a4501ddfe92f46681b20a08211156200235c57600080fd5b8060ff16601b14806200237257508060ff16601c145b6200237c57600080fd5b6040805160008082526020820180845289905260ff841692820192909252606081018590526080810184905260019060a0016020604051602081039080840390855afa158015620023d1573d6000803e3d6000fd5b505050602060405103519450846001600160a01b03161415620023f357600080fd5b50505092915050565b6000805b60018351620024109190620038cb565b811015620024925782620024268260016200314d565b8151811062002439576200243962003479565b60200260200101516001600160a01b03168382815181106200245f576200245f62003479565b60200260200101516001600160a01b0316106200247f5750600092915050565b6200248a8162003186565b905062002400565b50600192915050565b600080620024a98462002229565b90506000805b84518110156200252357620024e186868381518110620024d357620024d362003479565b60200260200101516200295a565b8015620024fb575082620024f58362003186565b92508210155b156200250e57600193505050506200085c565b806200251a8162003186565b915050620024af565b50600095945050505050565b6000806200253c62001f4e565b905060006200254e600160106200314d565b90506000818311620025625760006200256e565b6200256e8284620038cb565b90506200257b83620038e5565b92505b80831115620025b757620025a0836200259781620038e5565b9450866200249b565b15620025b157506001949350505050565b6200257e565b506000949350505050565b600080620025cf62002094565b90506000620025e1600160106200314d565b90506000818311620025f557600062002601565b620026018284620038cb565b90505b80831115620025b75762002626836200261d81620038e5565b94508662002bcb565b156200263757506001949350505050565b62002604565b6200264c62001b31836200223a565b5050565b60007f63fa879cb478fddf1de08d49e29115fb768866711bc799ff9ab419a7f16c9afb83836040516020016200268993929190620038ff565b60405160208183030381529060405280519060200120905092915050565b604080517f3ced7a8caf1111e0fbf4b784c5b41aebd0f2389d9f2f64d5c3424aeed3adbd3c6020820152908101849052606080820184905282901b6bffffffffffffffffffffffff191660808201526000906094016040516020818303038152906040528051906020012090509392505050565b604080517fbaea1c6c0f16a0a340b10a9e980806696a68ddbb5e8361fd64630dd21abf515f60208201529081018390526060810182905260009060800162002689565b604080517f79bd914addd90bd67ad800bf0230bb85ffdef5aeba5fd8249f116d3f17f4fb4b602082015290810182905260009060600162001bb5565b604080517f05112ef894367de1270cfae12afcd2285c225830eb8f74e7e938f721bb510cba602082015290810182905260009060600162001bb5565b604080517ff23ec0bb4210edd5cba85afd05127efcd2fc6a781bfed49188da1081670b22d860208201529081018390526060810182905260009060800162002689565b6200264c620028288362002b94565b8260028111156200283d576200283d620034c8565b60009182526020829052604090912055565b6200264c6200285e8362001e69565b82620029f0565b600080846001600160a01b03168460405162002882919062003168565b6000604051808303816000865af19150503d8060008114620028c1576040519150601f19603f3d011682016040523d82523d6000602084013e620028c6565b606091505b5091509150818015620028f4575080511580620028f4575080806020019051810190620028f49190620035e0565b620006f057600080fd5b6200264c62001b5a836200275e565b6200264c62001b5a836200279a565b6200158a6200285e8484620027d6565b6200158a62001b31848462002650565b6200264c62001b5a8362002a9d565b6200264c62001b5a8362002a1e565b600062001afe62000287848462002c53565b6001600160a01b0381166200298057600080fd5b6200158a6200285e848462002a5a565b6200158a62001b31848462002c53565b6200264c62001b5a8362002ad9565b6200264c62001b5a8362002b15565b600062001afe62000287848462002c8c565b6200158a6200285e848462002b51565b6200158a62001b31848462002c8c565b60009182526002602052604090912080546001600160a01b0319166001600160a01b03909216919091179055565b604080517f4ededbb904acd1258c7b9a6b12f5a8a8870a8ec295809cf35dc1f098018d4d20602082015290810182905260009060600162001bb5565b604080517f02016836a56b71f0d02689e69e326f4f4c1b9057164ef592671cf0d37c8040c060208201529081018390526060810182905260009060800162002689565b604080517f2bd864201f87ce8cc2d875453b39cc3e981d8ee12e4b7d4b7492fd9404bd8229602082015290810182905260009060600162001bb5565b604080517fc0e594a04ce768761133f7238cd95a55441f8ee2d50a03e7d5c44fb26c04d76f602082015290810182905260009060600162001bb5565b604080517f6199febc552b750a8cf661862e77cb2dbed9f3fb6fcc10bd34f8ff9e1992362b602082015290810182905260009060600162001bb5565b604080517f46a52cf33029de9f84853745a87af28464c80bf0346df1b32e205fc73319f62260208201529081018390526060810182905260009060800162002689565b60007fa80d2259af55890618ec2eeb3ac72de4bdba22529bb14845d8a3d712d1c3f6218260405160200162001bb592919062003837565b60008062002bd98462002276565b90506000805b8451811015620025235762002c118686838151811062002c035762002c0362003479565b6020026020010151620029be565b801562002c2b57508262002c258362003186565b92508210155b1562002c3e57600193505050506200085c565b8062002c4a8162003186565b91505062002bdf565b60007fffbbd206dad2a77ed223a0ff3d2dcac502bc8c9a91fa18140757561e84f365c083836040516020016200268993929190620038ff565b60007f934404a25b467ba4b73107cf91baadb1313f82988678493324b442216995358683836040516020016200268993929190620038ff565b6102a6806200392883390190565b6117268062003bce83390190565b60008083601f84011262002cf457600080fd5b5081356001600160401b0381111562002d0c57600080fd5b60208301915083602082850101111562002d2557600080fd5b9250929050565b6000806020838503121562002d4057600080fd5b82356001600160401b0381111562002d5757600080fd5b62002d658582860162002ce1565b90969095509350505050565b60006020828403121562002d8457600080fd5b5035919050565b634e487b7160e01b600052604160045260246000fd5b604051601f8201601f191681016001600160401b038111828210171562002dcc5762002dcc62002d8b565b604052919050565b60006001600160401b0382111562002df05762002df062002d8b565b50601f01601f191660200190565b600082601f83011262002e1057600080fd5b813562002e2762002e218262002dd4565b62002da1565b81815284602083860101111562002e3d57600080fd5b816020850160208301376000918101602001919091529392505050565b60006020828403121562002e6d57600080fd5b81356001600160401b0381111562002e8457600080fd5b62001b188482850162002dfe565b60005b8381101562002eaf57818101518382015260200162002e95565b83811115620004995750506000910152565b6000815180845262002edb81602086016020860162002e92565b601f01601f19169290920160200192915050565b60208152600062001afe602083018462002ec1565b6001600160a01b038116811462001ea057600080fd5b6000806000806060858703121562002f3157600080fd5b843562002f3e8162002f04565b93506020850135925060408501356001600160401b0381111562002f6157600080fd5b62002f6f8782880162002ce1565b95989497509550505050565b600081518084526020808501945080840160005b8381101562002fb65781516001600160a01b03168752958201959082019060010162002f8f565b509495945050505050565b60208152600062001afe602083018462002f7b565b6000806040838503121562002fea57600080fd5b82356001600160401b038111156200300157600080fd5b6200300f8582860162002dfe565b95602094909401359450505050565b60006001600160401b038211156200303a576200303a62002d8b565b5060051b60200190565b600080604083850312156200305857600080fd5b82356001600160401b03808211156200307057600080fd5b6200307e8683870162002dfe565b93506020915081850135818111156200309657600080fd5b8501601f81018713620030a857600080fd5b8035620030b962002e21826200301e565b81815260059190911b82018401908481019089831115620030d957600080fd5b8584015b838110156200311657803586811115620030f75760008081fd5b620031078c898389010162002dfe565b845250918601918601620030dd565b508096505050505050509250929050565b8183823760009101908152919050565b634e487b7160e01b600052601160045260246000fd5b6000821982111562003163576200316362003137565b500190565b600082516200317c81846020870162002e92565b9190910192915050565b60006000198214156200319d576200319d62003137565b5060010190565b600080600080600060a08688031215620031bd57600080fd5b85356001600160401b0380821115620031d557600080fd5b620031e389838a0162002dfe565b96506020880135915080821115620031fa57600080fd5b50620032098882890162002dfe565b945050604086013560ff811681146200322157600080fd5b92506060860135915060808601356200323a8162002f04565b809150509295509295909350565b6000806000606084860312156200325e57600080fd5b83356001600160401b038111156200327557600080fd5b620032838682870162002dfe565b9350506020840135620032968162002f04565b929592945050506040919091013590565b600181811c90821680620032bc57607f821691505b60208210811415620032de57634e487b7160e01b600052602260045260246000fd5b50919050565b600082601f830112620032f657600080fd5b813560206200330962002e21836200301e565b82815260059290921b840181019181810190868411156200332957600080fd5b8286015b8481101562003351578035620033438162002f04565b83529183019183016200332d565b509695505050505050565b60008060008060008060c087890312156200337657600080fd5b86356001600160401b03808211156200338e57600080fd5b6200339c8a838b01620032e4565b9750602089013596506040890135915080821115620033ba57600080fd5b620033c88a838b01620032e4565b9550606089013594506080890135915080821115620033e657600080fd5b50620033f589828a01620032e4565b92505060a087013590509295509295509295565b6080815260006200341e608083018762002f7b565b856020840152828103604084015262003438818662002f7b565b91505082606083015295945050505050565b60208152816020820152818360408301376000818301604090810191909152601f909201601f19160101919050565b634e487b7160e01b600052603260045260246000fd5b60008060408385031215620034a357600080fd5b82356001600160401b03811115620034ba57600080fd5b6200300f85828601620032e4565b634e487b7160e01b600052602160045260246000fd5b600060208284031215620034f157600080fd5b5051919050565b6001600160a01b038316815260406020820181905260009062001b189083018462002ec1565b805180151581146200352f57600080fd5b919050565b60006200354562002e218462002dd4565b90508281528383830111156200355a57600080fd5b62001afe83602083018462002e92565b600082601f8301126200357c57600080fd5b62001afe8383516020850162003534565b60008060408385031215620035a157600080fd5b620035ac836200351e565b915060208301516001600160401b03811115620035c857600080fd5b620035d6858286016200356a565b9150509250929050565b600060208284031215620035f357600080fd5b62001afe826200351e565b600082601f8301126200361057600080fd5b815160206200362362002e21836200301e565b82815260059290921b840181019181810190868411156200364357600080fd5b8286015b84811015620033515780516001600160401b03811115620036685760008081fd5b8701603f810189136200367b5760008081fd5b6200368e89868301516040840162003534565b84525091830191830162003647565b600082601f830112620036af57600080fd5b81516020620036c262002e21836200301e565b82815260059290921b84018101918181019086841115620036e257600080fd5b8286015b84811015620033515780516001600160401b03811115620037075760008081fd5b620037178986838b01016200356a565b845250918301918301620036e6565b600080600080600060a086880312156200373f57600080fd5b85519450602080870151600381106200375757600080fd5b60408801519095506001600160401b03808211156200377557600080fd5b818901915089601f8301126200378a57600080fd5b81516200379b62002e21826200301e565b81815260059190911b8301840190848101908c831115620037bb57600080fd5b938501935b82851015620037db57845182529385019390850190620037c0565b60608c01519098509450505080831115620037f557600080fd5b620038038a848b01620035fe565b945060808901519250808311156200381a57600080fd5b50506200382a888289016200369d565b9150509295509295909350565b828152600082516200385181602085016020870162002e92565b919091016020019392505050565b60808152600062003874608083018762002ec1565b828103602084015262003888818762002ec1565b60ff95909516604084015250506060015292915050565b604081526000620038b4604083018562002ec1565b905060018060a01b03831660208301529392505050565b600082821015620038e057620038e062003137565b500390565b600081620038f757620038f762003137565b506000190190565b928352602083019190915260601b6bffffffffffffffffffffffff191660408201526054019056fe60806040526000805534801561001457600080fd5b50610282806100246000396000f3fe608060405234801561001057600080fd5b50600436106100355760003560e01c8062f55d9d1461003a5780631cff79cd1461004f575b600080fd5b61004d610048366004610138565b610079565b005b61006261005d36600461015a565b610097565b6040516100709291906101dd565b60405180910390f35b6000541561008657600080fd5b60016000556001600160a01b038116ff5b6000606060008054146100a957600080fd5b60016000556040516001600160a01b038616906100c9908690869061023c565b6000604051808303816000865af19150503d8060008114610106576040519150601f19603f3d011682016040523d82523d6000602084013e61010b565b606091505b506000805590969095509350505050565b80356001600160a01b038116811461013357600080fd5b919050565b60006020828403121561014a57600080fd5b6101538261011c565b9392505050565b60008060006040848603121561016f57600080fd5b6101788461011c565b9250602084013567ffffffffffffffff8082111561019557600080fd5b818601915086601f8301126101a957600080fd5b8135818111156101b857600080fd5b8760208285010111156101ca57600080fd5b6020830194508093505050509250925092565b821515815260006020604081840152835180604085015260005b81811015610213578581018301518582016060015282016101f7565b81811115610225576000606083870101525b50601f01601f191692909201606001949350505050565b818382376000910190815291905056fea26469706673582212205eae7bcaecffbcd15e04f46b0cf953c1df7d02afc5dc8a3bbf36f7a563d8109d64736f6c6343000809003360a06040523480156200001157600080fd5b5060405162001726380380620017268339810160408190526200003491620002e1565b83838383838484848260039080519060200190620000549291906200016e565b5081516200006a9060049060208501906200016e565b5060ff166080908152835160208086019190912060408051808201825260018152603160f81b9084015280517f8b73c3c69bb8fe3d512ecc4cf759cc79239f7b179b0ffacaa9a75d522b39400f938101939093528201527fc89efdaa54c0f20c7adf612882df0950f5a951637e0307cdcb4c672f298b8bc6606082015246918101919091523060a082015260c0019150620001029050565b60408051601f19818403018152908290528051602090910120600555600780546001600160a01b0319163390811790915591506000907f8be0079c531659141344cd1fd0a4f28419497f9722a3daafe3b4186f6b6457e0908290a360085550620003a995505050505050565b8280546200017c906200036c565b90600052602060002090601f016020900481019282620001a05760008555620001eb565b82601f10620001bb57805160ff1916838001178555620001eb565b82800160010185558215620001eb579182015b82811115620001eb578251825591602001919060010190620001ce565b50620001f9929150620001fd565b5090565b5b80821115620001f95760008155600101620001fe565b634e487b7160e01b600052604160045260246000fd5b600082601f8301126200023c57600080fd5b81516001600160401b038082111562000259576200025962000214565b604051601f8301601f19908116603f0116810190828211818310171562000284576200028462000214565b81604052838152602092508683858801011115620002a157600080fd5b600091505b83821015620002c55785820183015181830184015290820190620002a6565b83821115620002d75760008385830101525b9695505050505050565b60008060008060808587031215620002f857600080fd5b84516001600160401b03808211156200031057600080fd5b6200031e888389016200022a565b955060208701519150808211156200033557600080fd5b5062000344878288016200022a565b935050604085015160ff811681146200035c57600080fd5b6060959095015193969295505050565b600181811c908216806200038157607f821691505b60208210811415620003a357634e487b7160e01b600052602260045260246000fd5b50919050565b608051611361620003c560003960006101c101526113616000f3fe608060405234801561001057600080fd5b50600436106101375760003560e01c806340c10f19116100b857806395d89b411161007c57806395d89b41146102be578063a457c2d7146102c6578063a9059cbb146102d9578063d505accf146102ec578063dd62ed3e146102ff578063f2fde38b1461032a57600080fd5b806340c10f191461024557806370a082311461025857806379cc6790146102785780637ecebe001461028b5780638da5cb5b146102ab57600080fd5b8063313ce567116100ff578063313ce567146101bc57806331eecaf4146101f5578063355274ea146102205780633644e51514610229578063395093511461023257600080fd5b806306fdde031461013c57806308a1eee11461015a578063095ea7b31461016f57806318160ddd1461019257806323b872dd146101a9575b600080fd5b61014461033d565b6040516101519190610d46565b60405180910390f35b61016d610168366004610d79565b6103cb565b005b61018261017d366004610dae565b610418565b6040519015158152602001610151565b61019b60025481565b604051908152602001610151565b6101826101b7366004610dd8565b61042e565b6101e37f000000000000000000000000000000000000000000000000000000000000000081565b60405160ff9091168152602001610151565b610208610203366004610d79565b610480565b6040516001600160a01b039091168152602001610151565b61019b60085481565b61019b60055481565b610182610240366004610dae565b61054a565b61016d610253366004610dae565b610581565b61019b610266366004610e14565b60006020819052908152604090205481565b61016d610286366004610dae565b6105cd565b61019b610299366004610e14565b60066020526000908152604090205481565b600754610208906001600160a01b031681565b61014461062d565b6101826102d4366004610dae565b61063a565b6101826102e7366004610dae565b610671565b61016d6102fa366004610e36565b61067e565b61019b61030d366004610ea9565b600160209081526000928352604080842090915290825290205481565b61016d610338366004610e14565b610861565b6003805461034a90610edc565b80601f016020809104026020016040519081016040528092919081815260200182805461037690610edc565b80156103c35780601f10610398576101008083540402835291602001916103c3565b820191906000526020600020905b8154815290600101906020018083116103a657829003601f168201915b505050505081565b6007546001600160a01b031633146103e257600080fd5b60006103ed82610480565b6001600160a01b0381166000908152602081905260409020549091506104149082906108e7565b5050565b6000610425338484610992565b50600192915050565b600061043b848484610a1a565b6001600160a01b038416600090815260016020908152604080832033808552925290912054610476918691610471908690610f2d565b610992565b5060019392505050565b6007546040516000916001600160f81b0319916001600160a01b039091169084906104ad60208201610d09565b601f1982820381018352601f9091011660408190526104cf9190602001610f44565b6040516020818303038152906040528051906020012060405160200161052c94939291906001600160f81b031994909416845260609290921b6bffffffffffffffffffffffff191660018401526015830152603582015260550190565b60408051601f19818403018152919052805160209091012092915050565b3360008181526001602090815260408083206001600160a01b03871684529091528120549091610425918590610471908690610f60565b6007546001600160a01b0316331461059857600080fd5b6008548015806105b5575080826002546105b29190610f60565b11155b6105be57600080fd5b6105c88383610aec565b505050565b6007546001600160a01b031633146105e457600080fd5b6007546001600160a01b038084166000908152600160209081526040808320939094168083529290529190912054610623918491610471908590610f2d565b61041482826108e7565b6004805461034a90610edc565b3360008181526001602090815260408083206001600160a01b03871684529091528120549091610425918590610471908690610f2d565b6000610425338484610a1a565b83421061068a57600080fd5b7f7fffffffffffffffffffffffffffffff5d576e7357a4501ddfe92f46681b20a08111156106b757600080fd5b8260ff16601b14806106cc57508260ff16601c145b6106d557600080fd5b600060405180604001604052806002815260200161190160f01b8152506005547f6e71edae12b1b97f4d1f60370fef10105fa2faae0126114a169c64845d6126c960001b8a8a8a600660008f6001600160a01b03166001600160a01b03168152602001908152602001600020600081548092919061075290610f78565b909155506040805160208101969096526001600160a01b0394851690860152929091166060840152608083015260a082015260c0810188905260e001604051602081830303815290604052805190602001206040516020016107b693929190610f93565b60408051601f198184030181528282528051602091820120600080855291840180845281905260ff88169284019290925260608301869052608083018590529092509060019060a0016020604051602081039080840390855afa158015610821573d6000803e3d6000fd5b505050602060405103519050886001600160a01b0316816001600160a01b03161461084b57600080fd5b610856898989610992565b505050505050505050565b6007546001600160a01b0316331461087857600080fd5b6001600160a01b03811661088b57600080fd5b6007546040516001600160a01b038084169216907f8be0079c531659141344cd1fd0a4f28419497f9722a3daafe3b4186f6b6457e090600090a3600780546001600160a01b0319166001600160a01b0392909216919091179055565b6001600160a01b0382166108fa57600080fd5b61090682600083610b8d565b6001600160a01b0382166000908152602081905260408120805483929061092e908490610f2d565b9250508190555080600260008282546109479190610f2d565b90915550506040518181526000906001600160a01b038416907fddf252ad1be2c89b69c2b068fc378daa952ba7f163c4a11628f55a4df523b3ef906020015b60405180910390a35050565b6001600160a01b0383166109a557600080fd5b6001600160a01b0382166109b857600080fd5b6001600160a01b0383811660008181526001602090815260408083209487168084529482529182902085905590518481527f8c5be1e5ebec7d5bd14f71427d1e84f3dd0314c0f7b2291e5b200ac8c7c3b92591015b60405180910390a3505050565b6001600160a01b038316610a2d57600080fd5b6001600160a01b038216610a4057600080fd5b610a4b838383610b8d565b6001600160a01b03831660009081526020819052604081208054839290610a73908490610f2d565b90915550506001600160a01b03821660009081526020819052604081208054839290610aa0908490610f60565b92505081905550816001600160a01b0316836001600160a01b03167fddf252ad1be2c89b69c2b068fc378daa952ba7f163c4a11628f55a4df523b3ef83604051610a0d91815260200190565b6001600160a01b038216610aff57600080fd5b610b0b60008383610b8d565b8060026000828254610b1d9190610f60565b90915550506001600160a01b03821660009081526020819052604081208054839290610b4a908490610f60565b90915550506040518181526001600160a01b038316906000907fddf252ad1be2c89b69c2b068fc378daa952ba7f163c4a11628f55a4df523b3ef90602001610986565b600754604051633d70e7e560e11b81527f75a31d1ce8e5f9892188befc328d3b9bd3fa5037457e881abc21f388471b8d9660048201526001600160a01b0390911690637ae1cfca9060240160206040518083038186803b158015610bf057600080fd5b505afa158015610c04573d6000803e3d6000fd5b505050506040513d601f19601f82011682018060405250810190610c289190610fba565b15610c3257600080fd5b6007546040516001600160a01b0390911690637ae1cfca90610c7b907f1a7261d3a36c4ce4235d10859911c9444a6963a3591ec5725b96871d9810626b90600490602001610fdc565b604051602081830303815290604052805190602001206040518263ffffffff1660e01b8152600401610caf91815260200190565b60206040518083038186803b158015610cc757600080fd5b505afa158015610cdb573d6000803e3d6000fd5b505050506040513d601f19601f82011682018060405250810190610cff9190610fba565b156105c857600080fd5b6102a68061108683390190565b60005b83811015610d31578181015183820152602001610d19565b83811115610d40576000848401525b50505050565b6020815260008251806020840152610d65816040850160208701610d16565b601f01601f19169190910160400192915050565b600060208284031215610d8b57600080fd5b5035919050565b80356001600160a01b0381168114610da957600080fd5b919050565b60008060408385031215610dc157600080fd5b610dca83610d92565b946020939093013593505050565b600080600060608486031215610ded57600080fd5b610df684610d92565b9250610e0460208501610d92565b9150604084013590509250925092565b600060208284031215610e2657600080fd5b610e2f82610d92565b9392505050565b600080600080600080600060e0888a031215610e5157600080fd5b610e5a88610d92565b9650610e6860208901610d92565b95506040880135945060608801359350608088013560ff81168114610e8c57600080fd5b9699959850939692959460a0840135945060c09093013592915050565b60008060408385031215610ebc57600080fd5b610ec583610d92565b9150610ed360208401610d92565b90509250929050565b600181811c90821680610ef057607f821691505b60208210811415610f1157634e487b7160e01b600052602260045260246000fd5b50919050565b634e487b7160e01b600052601160045260246000fd5b600082821015610f3f57610f3f610f17565b500390565b60008251610f56818460208701610d16565b9190910192915050565b60008219821115610f7357610f73610f17565b500190565b6000600019821415610f8c57610f8c610f17565b5060010190565b60008451610fa5818460208901610d16565b91909101928352506020820152604001919050565b600060208284031215610fcc57600080fd5b81518015158114610e2f57600080fd5b828152600060206000845481600182811c915080831680610ffe57607f831692505b85831081141561101c57634e487b7160e01b85526022600452602485fd5b808015611030576001811461104557611076565b60ff1985168988015283890187019550611076565b60008a81526020902060005b8581101561106c5781548b82018a0152908401908801611051565b505086848a010195505b5093999850505050505050505056fe60806040526000805534801561001457600080fd5b50610282806100246000396000f3fe608060405234801561001057600080fd5b50600436106100355760003560e01c8062f55d9d1461003a5780631cff79cd1461004f575b600080fd5b61004d610048366004610138565b610079565b005b61006261005d36600461015a565b610097565b6040516100709291906101dd565b60405180910390f35b6000541561008657600080fd5b60016000556001600160a01b038116ff5b6000606060008054146100a957600080fd5b60016000556040516001600160a01b038616906100c9908690869061023c565b6000604051808303816000865af19150503d8060008114610106576040519150601f19603f3d011682016040523d82523d6000602084013e61010b565b606091505b506000805590969095509350505050565b80356001600160a01b038116811461013357600080fd5b919050565b60006020828403121561014a57600080fd5b6101538261011c565b9392505050565b60008060006040848603121561016f57600080fd5b6101788461011c565b9250602084013567ffffffffffffffff8082111561019557600080fd5b818601915086601f8301126101a957600080fd5b8135818111156101b857600080fd5b8760208285010111156101ca57600080fd5b6020830194508093505050509250925092565b821515815260006020604081840152835180604085015260005b81811015610213578581018301518582016060015282016101f7565b81811115610225576000606083870101525b50601f01601f191692909201606001949350505050565b818382376000910190815291905056fea26469706673582212205eae7bcaecffbcd15e04f46b0cf953c1df7d02afc5dc8a3bbf36f7a563d8109d64736f6c63430008090033a2646970667358221220bfbf0b337defe4d8011c1cf32dae1c8522efe8cf7a61187d15f7f28fce193b1964736f6c63430008090033a264697066735822122061744edac69f23ef28d94c706d269a124c6ea67f4ea844b4dc513eb96750606264736f6c63430008090033",
      "opcodes": "PUSH1 0x80 PUSH1 0x40 MSTORE CALLVALUE DUP1 ISZERO PUSH2 0x10 JUMPI PUSH1 0x0 DUP1 REVERT JUMPDEST POP PUSH2 0x5329 DUP1 PUSH2 0x20 PUSH1 0x0 CODECOPY PUSH1 0x0 RETURN INVALID PUSH1 0x80 PUSH1 0x40 MSTORE CALLVALUE DUP1 ISZERO PUSH3 0x11 JUMPI PUSH1 0x0 DUP1 REVERT JUMPDEST POP PUSH1 0x4 CALLDATASIZE LT PUSH3 0x192 JUMPI PUSH1 0x0 CALLDATALOAD PUSH1 0xE0 SHR DUP1 PUSH4 0x9DED06DF GT PUSH3 0xF0 JUMPI DUP1 PUSH4 0xD1CF834F GT PUSH3 0xA3 JUMPI DUP1 PUSH4 0xD2BC37F8 GT PUSH3 0x7A JUMPI DUP1 PUSH4 0xD2BC37F8 EQ PUSH3 0x42A JUMPI DUP1 PUSH4 0xDC97D962 EQ PUSH3 0x434 JUMPI DUP1 PUSH4 0xE3DFA299 EQ PUSH3 0x457 JUMPI DUP1 PUSH4 0xE673DF8A EQ PUSH3 0x461 JUMPI PUSH1 0x0 DUP1 REVERT JUMPDEST DUP1 PUSH4 0xD1CF834F EQ PUSH3 0x3E5 JUMPI DUP1 PUSH4 0xD26FF210 EQ PUSH3 0x3FC JUMPI DUP1 PUSH4 0xD289D1CB EQ PUSH3 0x413 JUMPI PUSH1 0x0 DUP1 REVERT JUMPDEST DUP1 PUSH4 0x9DED06DF EQ PUSH3 0x301 JUMPI DUP1 PUSH4 0xA3499C73 EQ PUSH3 0x318 JUMPI DUP1 PUSH4 0xAA1E1F0A EQ PUSH3 0x32F JUMPI DUP1 PUSH4 0xAFFE39C1 EQ PUSH3 0x383 JUMPI DUP1 PUSH4 0xBD02D0F5 EQ PUSH3 0x39C JUMPI DUP1 PUSH4 0xC031A180 EQ PUSH3 0x3CE JUMPI PUSH1 0x0 DUP1 REVERT JUMPDEST DUP1 PUSH4 0x60C6FF43 GT PUSH3 0x149 JUMPI DUP1 PUSH4 0x60C6FF43 EQ PUSH3 0x248 JUMPI DUP1 PUSH4 0x646C5D34 EQ PUSH3 0x25F JUMPI DUP1 PUSH4 0x7AE1CFCA EQ PUSH3 0x276 JUMPI DUP1 PUSH4 0x7B1B769E EQ PUSH3 0x2AD JUMPI DUP1 PUSH4 0x935B13F6 EQ PUSH3 0x2C4 JUMPI DUP1 PUSH4 0x986E791A EQ PUSH3 0x2DB JUMPI PUSH1 0x0 DUP1 REVERT JUMPDEST DUP1 PUSH4 0x37699C1 EQ PUSH3 0x197 JUMPI DUP1 PUSH4 0x9C5EABE EQ PUSH3 0x1B0 JUMPI DUP1 PUSH4 0x21F8A721 EQ PUSH3 0x1C7 JUMPI DUP1 PUSH4 0x34FF6983 EQ PUSH3 0x210 JUMPI DUP1 PUSH4 0x3CD6EE6D EQ PUSH3 0x227 JUMPI DUP1 PUSH4 0x5C60DA1B EQ PUSH3 0x23E JUMPI JUMPDEST PUSH1 0x0 DUP1 REVERT JUMPDEST PUSH3 0x1AE PUSH3 0x1A8 CALLDATASIZE PUSH1 0x4 PUSH3 0x2D2C JUMP JUMPDEST PUSH3 0x46B JUMP JUMPDEST STOP JUMPDEST PUSH3 0x1AE PUSH3 0x1C1 CALLDATASIZE PUSH1 0x4 PUSH3 0x2D2C JUMP JUMPDEST PUSH3 0x49F JUMP JUMPDEST PUSH3 0x1F3 PUSH3 0x1D8 CALLDATASIZE PUSH1 0x4 PUSH3 0x2D71 JUMP JUMPDEST PUSH1 0x0 SWAP1 DUP2 MSTORE PUSH1 0x2 PUSH1 0x20 MSTORE PUSH1 0x40 SWAP1 KECCAK256 SLOAD PUSH1 0x1 PUSH1 0x1 PUSH1 0xA0 SHL SUB AND SWAP1 JUMP JUMPDEST PUSH1 0x40 MLOAD PUSH1 0x1 PUSH1 0x1 PUSH1 0xA0 SHL SUB SWAP1 SWAP2 AND DUP2 MSTORE PUSH1 0x20 ADD JUMPDEST PUSH1 0x40 MLOAD DUP1 SWAP2 SUB SWAP1 RETURN JUMPDEST PUSH3 0x1AE PUSH3 0x221 CALLDATASIZE PUSH1 0x4 PUSH3 0x2E5A JUMP JUMPDEST PUSH3 0x4C0 JUMP JUMPDEST PUSH3 0x1AE PUSH3 0x238 CALLDATASIZE PUSH1 0x4 PUSH3 0x2D2C JUMP JUMPDEST PUSH3 0x624 JUMP JUMPDEST PUSH3 0x1F3 PUSH3 0x667 JUMP JUMPDEST PUSH3 0x1AE PUSH3 0x259 CALLDATASIZE PUSH1 0x4 PUSH3 0x2D2C JUMP JUMPDEST PUSH3 0x6BE JUMP JUMPDEST PUSH3 0x1AE PUSH3 0x270 CALLDATASIZE PUSH1 0x4 PUSH3 0x2E5A JUMP JUMPDEST PUSH3 0x6F7 JUMP JUMPDEST PUSH3 0x29C PUSH3 0x287 CALLDATASIZE PUSH1 0x4 PUSH3 0x2D71 JUMP JUMPDEST PUSH1 0x0 SWAP1 DUP2 MSTORE PUSH1 0x4 PUSH1 0x20 MSTORE PUSH1 0x40 SWAP1 KECCAK256 SLOAD PUSH1 0xFF AND SWAP1 JUMP JUMPDEST PUSH1 0x40 MLOAD SWAP1 ISZERO ISZERO DUP2 MSTORE PUSH1 0x20 ADD PUSH3 0x207 JUMP JUMPDEST PUSH3 0x29C PUSH3 0x2BE CALLDATASIZE PUSH1 0x4 PUSH3 0x2E5A JUMP JUMPDEST PUSH3 0x84B JUMP JUMPDEST PUSH3 0x1F3 PUSH3 0x2D5 CALLDATASIZE PUSH1 0x4 PUSH3 0x2E5A JUMP JUMPDEST PUSH3 0x862 JUMP JUMPDEST PUSH3 0x2F2 PUSH3 0x2EC CALLDATASIZE PUSH1 0x4 PUSH3 0x2D71 JUMP JUMPDEST PUSH3 0x873 JUMP JUMPDEST PUSH1 0x40 MLOAD PUSH3 0x207 SWAP2 SWAP1 PUSH3 0x2EEF JUMP JUMPDEST PUSH3 0x1AE PUSH3 0x312 CALLDATASIZE PUSH1 0x4 PUSH3 0x2D2C JUMP JUMPDEST PUSH3 0x91D JUMP JUMPDEST PUSH3 0x1AE PUSH3 0x329 CALLDATASIZE PUSH1 0x4 PUSH3 0x2F1A JUMP JUMPDEST PUSH3 0xAE7 JUMP JUMPDEST PUSH32 0x75A31D1CE8E5F9892188BEFC328D3B9BD3FA5037457E881ABC21F388471B8D96 PUSH1 0x0 MSTORE PUSH1 0x4 PUSH1 0x20 MSTORE PUSH32 0xA0B596B8942D6EF5CC77CE0AD89A75F0BFCC7F0132CD8DB58E8449DCF04A858A SLOAD PUSH1 0xFF AND PUSH3 0x29C JUMP JUMPDEST PUSH3 0x38D PUSH3 0xD0B JUMP JUMPDEST PUSH1 0x40 MLOAD PUSH3 0x207 SWAP2 SWAP1 PUSH3 0x2FC1 JUMP JUMPDEST PUSH3 0x3BF PUSH3 0x3AD CALLDATASIZE PUSH1 0x4 PUSH3 0x2D71 JUMP JUMPDEST PUSH1 0x0 SWAP1 DUP2 MSTORE PUSH1 0x20 DUP2 SWAP1 MSTORE PUSH1 0x40 SWAP1 KECCAK256 SLOAD SWAP1 JUMP JUMPDEST PUSH1 0x40 MLOAD SWAP1 DUP2 MSTORE PUSH1 0x20 ADD PUSH3 0x207 JUMP JUMPDEST PUSH3 0x2F2 PUSH3 0x3DF CALLDATASIZE PUSH1 0x4 PUSH3 0x2D71 JUMP JUMPDEST PUSH3 0xDD2 JUMP JUMPDEST PUSH3 0x1AE PUSH3 0x3F6 CALLDATASIZE PUSH1 0x4 PUSH3 0x2D2C JUMP JUMPDEST PUSH3 0xDF1 JUMP JUMPDEST PUSH3 0x29C PUSH3 0x40D CALLDATASIZE PUSH1 0x4 PUSH3 0x2D71 JUMP JUMPDEST PUSH3 0xE98 JUMP JUMPDEST PUSH3 0x1AE PUSH3 0x424 CALLDATASIZE PUSH1 0x4 PUSH3 0x2D2C JUMP JUMPDEST PUSH3 0xEA9 JUMP JUMPDEST PUSH3 0x1AE PUSH3 0xF5E JUMP JUMPDEST PUSH3 0x3BF PUSH3 0x445 CALLDATASIZE PUSH1 0x4 PUSH3 0x2D71 JUMP JUMPDEST PUSH1 0x0 SWAP1 DUP2 MSTORE PUSH1 0x5 PUSH1 0x20 MSTORE PUSH1 0x40 SWAP1 KECCAK256 SLOAD SWAP1 JUMP JUMPDEST PUSH3 0x1AE PUSH3 0x10B0 JUMP JUMPDEST PUSH3 0x38D PUSH3 0x1202 JUMP JUMPDEST CALLER ADDRESS EQ PUSH3 0x478 JUMPI PUSH1 0x0 DUP1 REVERT JUMPDEST PUSH1 0x0 DUP1 PUSH3 0x489 DUP4 DUP6 ADD DUP6 PUSH3 0x2FD6 JUMP JUMPDEST SWAP2 POP SWAP2 POP PUSH3 0x499 DUP3 DUP3 PUSH3 0x12C3 JUMP JUMPDEST POP POP POP POP JUMP JUMPDEST PUSH1 0x0 DUP1 PUSH3 0x4B0 DUP4 DUP6 ADD DUP6 PUSH3 0x3044 JUMP JUMPDEST SWAP2 POP SWAP2 POP PUSH3 0x499 DUP3 DUP3 PUSH3 0x158F JUMP JUMPDEST PUSH1 0x0 PUSH3 0x4CC PUSH3 0x1A9E JUMP JUMPDEST SWAP1 POP PUSH3 0x4DA DUP2 CALLER PUSH3 0x1AEC JUMP JUMPDEST PUSH3 0x4E4 JUMPI PUSH1 0x0 DUP1 REVERT JUMPDEST PUSH1 0x0 DUP1 CALLDATASIZE PUSH1 0x40 MLOAD PUSH3 0x4F8 SWAP3 SWAP2 SWAP1 PUSH3 0x3127 JUMP JUMPDEST PUSH1 0x40 MLOAD DUP1 SWAP2 SUB SWAP1 KECCAK256 SWAP1 POP PUSH3 0x50F DUP3 DUP3 CALLER PUSH3 0x1B05 JUMP JUMPDEST ISZERO PUSH3 0x51A JUMPI PUSH1 0x0 DUP1 REVERT JUMPDEST PUSH3 0x529 DUP3 DUP3 CALLER PUSH1 0x1 PUSH3 0x1B20 JUMP JUMPDEST PUSH1 0x0 PUSH1 0x1 PUSH3 0x539 DUP5 DUP5 PUSH3 0x1B38 JUMP JUMPDEST PUSH3 0x545 SWAP2 SWAP1 PUSH3 0x314D JUMP JUMPDEST SWAP1 POP PUSH3 0x554 DUP4 DUP4 DUP4 PUSH3 0x1B4A JUMP JUMPDEST PUSH3 0x55F DUP4 PUSH3 0x1B6D JUMP JUMPDEST DUP2 LT ISZERO PUSH3 0x56D JUMPI POP POP POP POP JUMP JUMPDEST PUSH3 0x584 PUSH3 0x57C DUP6 PUSH3 0x1B7E JUMP JUMPDEST PUSH1 0x0 PUSH3 0x1BD2 JUMP JUMPDEST DUP4 PUSH1 0x40 MLOAD PUSH3 0x594 SWAP2 SWAP1 PUSH3 0x3168 JUMP JUMPDEST PUSH1 0x40 MLOAD SWAP1 DUP2 SWAP1 SUB DUP2 KECCAK256 SWAP1 PUSH32 0x5327E3AF9CD2D5C19A8DFF23EF487D7A4D5F6FC985464F1792A33C2120575989 SWAP1 PUSH1 0x0 SWAP1 LOG2 PUSH3 0x5D2 DUP4 DUP4 PUSH1 0x0 PUSH3 0x1B4A JUMP JUMPDEST PUSH1 0x0 PUSH3 0x5DF DUP5 PUSH3 0x1BF2 JUMP JUMPDEST SWAP1 POP PUSH1 0x0 JUMPDEST DUP2 DUP2 LT ISZERO PUSH3 0x61C JUMPI PUSH3 0x607 DUP6 DUP6 PUSH3 0x5FF DUP9 DUP6 PUSH3 0x1C03 JUMP JUMPDEST PUSH1 0x0 PUSH3 0x1B20 JUMP JUMPDEST DUP1 PUSH3 0x613 DUP2 PUSH3 0x3186 JUMP JUMPDEST SWAP2 POP POP PUSH3 0x5E4 JUMP JUMPDEST POP POP POP POP POP POP JUMP JUMPDEST CALLER ADDRESS EQ PUSH3 0x631 JUMPI PUSH1 0x0 DUP1 REVERT JUMPDEST PUSH1 0x0 DUP1 DUP1 DUP1 DUP1 PUSH3 0x645 DUP7 DUP9 ADD DUP9 PUSH3 0x31A4 JUMP JUMPDEST SWAP5 POP SWAP5 POP SWAP5 POP SWAP5 POP SWAP5 POP PUSH3 0x65E DUP6 DUP6 DUP6 DUP6 DUP6 PUSH3 0x1C15 JUMP JUMPDEST POP POP POP POP POP POP POP JUMP JUMPDEST PUSH32 0x360894A13BA1A3210667C828492DB98DCA3E2076CC3735A920A3CA505D382BBC PUSH1 0x0 MSTORE PUSH1 0x2 PUSH1 0x20 MSTORE PUSH32 0x11141F466C69FD409E1990E063B49CD6D61ED2ECFF27A2E402E259CA6B9A01A3 SLOAD PUSH1 0x1 PUSH1 0x1 PUSH1 0xA0 SHL SUB AND SWAP1 JUMP JUMPDEST CALLER ADDRESS EQ PUSH3 0x6CB JUMPI PUSH1 0x0 DUP1 REVERT JUMPDEST PUSH1 0x0 DUP1 DUP1 PUSH3 0x6DD DUP5 DUP7 ADD DUP7 PUSH3 0x3248 JUMP JUMPDEST SWAP3 POP SWAP3 POP SWAP3 POP PUSH3 0x6F0 DUP4 DUP4 DUP4 PUSH3 0x1D3C JUMP JUMPDEST POP POP POP POP POP JUMP JUMPDEST PUSH1 0x0 PUSH3 0x703 PUSH3 0x1A9E JUMP JUMPDEST SWAP1 POP PUSH3 0x711 DUP2 CALLER PUSH3 0x1AEC JUMP JUMPDEST PUSH3 0x71B JUMPI PUSH1 0x0 DUP1 REVERT JUMPDEST PUSH1 0x0 DUP1 CALLDATASIZE PUSH1 0x40 MLOAD PUSH3 0x72F SWAP3 SWAP2 SWAP1 PUSH3 0x3127 JUMP JUMPDEST PUSH1 0x40 MLOAD DUP1 SWAP2 SUB SWAP1 KECCAK256 SWAP1 POP PUSH3 0x746 DUP3 DUP3 CALLER PUSH3 0x1B05 JUMP JUMPDEST ISZERO PUSH3 0x751 JUMPI PUSH1 0x0 DUP1 REVERT JUMPDEST PUSH3 0x760 DUP3 DUP3 CALLER PUSH1 0x1 PUSH3 0x1B20 JUMP JUMPDEST PUSH1 0x0 PUSH1 0x1 PUSH3 0x770 DUP5 DUP5 PUSH3 0x1B38 JUMP JUMPDEST PUSH3 0x77C SWAP2 SWAP1 PUSH3 0x314D JUMP JUMPDEST SWAP1 POP PUSH3 0x78B DUP4 DUP4 DUP4 PUSH3 0x1B4A JUMP JUMPDEST PUSH3 0x796 DUP4 PUSH3 0x1B6D JUMP JUMPDEST DUP2 LT ISZERO PUSH3 0x7A4 JUMPI POP POP POP POP JUMP JUMPDEST PUSH3 0x7BB PUSH3 0x7B3 DUP6 PUSH3 0x1B7E JUMP JUMPDEST PUSH1 0x1 PUSH3 0x1BD2 JUMP JUMPDEST DUP4 PUSH1 0x40 MLOAD PUSH3 0x7CB SWAP2 SWAP1 PUSH3 0x3168 JUMP JUMPDEST PUSH1 0x40 MLOAD SWAP1 DUP2 SWAP1 SUB DUP2 KECCAK256 SWAP1 PUSH32 0x11260C92ECB021C33706DB3A9699410F343D5F2175201A4551FE7634347A0CF1 SWAP1 PUSH1 0x0 SWAP1 LOG2 PUSH3 0x809 DUP4 DUP4 PUSH1 0x0 PUSH3 0x1B4A JUMP JUMPDEST PUSH1 0x0 PUSH3 0x816 DUP5 PUSH3 0x1BF2 JUMP JUMPDEST SWAP1 POP PUSH1 0x0 JUMPDEST DUP2 DUP2 LT ISZERO PUSH3 0x61C JUMPI PUSH3 0x836 DUP6 DUP6 PUSH3 0x5FF DUP9 DUP6 PUSH3 0x1C03 JUMP JUMPDEST DUP1 PUSH3 0x842 DUP2 PUSH3 0x3186 JUMP JUMPDEST SWAP2 POP POP PUSH3 0x81B JUMP JUMPDEST PUSH1 0x0 PUSH3 0x85C PUSH3 0x287 DUP4 PUSH3 0x1B7E JUMP JUMPDEST SWAP3 SWAP2 POP POP JUMP JUMPDEST PUSH1 0x0 PUSH3 0x85C PUSH3 0x1D8 DUP4 PUSH3 0x1E69 JUMP JUMPDEST PUSH1 0x0 DUP2 DUP2 MSTORE PUSH1 0x1 PUSH1 0x20 MSTORE PUSH1 0x40 SWAP1 KECCAK256 DUP1 SLOAD PUSH1 0x60 SWAP2 SWAP1 PUSH3 0x892 SWAP1 PUSH3 0x32A7 JUMP JUMPDEST DUP1 PUSH1 0x1F ADD PUSH1 0x20 DUP1 SWAP2 DIV MUL PUSH1 0x20 ADD PUSH1 0x40 MLOAD SWAP1 DUP2 ADD PUSH1 0x40 MSTORE DUP1 SWAP3 SWAP2 SWAP1 DUP2 DUP2 MSTORE PUSH1 0x20 ADD DUP3 DUP1 SLOAD PUSH3 0x8C0 SWAP1 PUSH3 0x32A7 JUMP JUMPDEST DUP1 ISZERO PUSH3 0x911 JUMPI DUP1 PUSH1 0x1F LT PUSH3 0x8E5 JUMPI PUSH2 0x100 DUP1 DUP4 SLOAD DIV MUL DUP4 MSTORE SWAP2 PUSH1 0x20 ADD SWAP2 PUSH3 0x911 JUMP JUMPDEST DUP3 ADD SWAP2 SWAP1 PUSH1 0x0 MSTORE PUSH1 0x20 PUSH1 0x0 KECCAK256 SWAP1 JUMPDEST DUP2 SLOAD DUP2 MSTORE SWAP1 PUSH1 0x1 ADD SWAP1 PUSH1 0x20 ADD DUP1 DUP4 GT PUSH3 0x8F3 JUMPI DUP3 SWAP1 SUB PUSH1 0x1F AND DUP3 ADD SWAP2 JUMPDEST POP POP POP POP POP SWAP1 POP SWAP2 SWAP1 POP JUMP JUMPDEST PUSH1 0x0 PUSH3 0x929 PUSH3 0x667 JUMP JUMPDEST PUSH1 0x1 PUSH1 0x1 PUSH1 0xA0 SHL SUB AND EQ ISZERO PUSH3 0x93E JUMPI PUSH1 0x0 DUP1 REVERT JUMPDEST PUSH1 0x0 DUP1 DUP1 DUP1 DUP1 DUP1 PUSH3 0x953 DUP8 DUP10 ADD DUP10 PUSH3 0x335C JUMP JUMPDEST SWAP6 POP SWAP6 POP SWAP6 POP SWAP6 POP SWAP6 POP SWAP6 POP PUSH1 0x0 PUSH1 0x1 PUSH3 0x96D PUSH3 0x1A9E JUMP JUMPDEST PUSH3 0x979 SWAP2 SWAP1 PUSH3 0x314D JUMP JUMPDEST SWAP1 POP PUSH3 0x9CD DUP2 PUSH32 0xD51DC9B187568BB94760866E1D0D066CA470037D2D331AFB1A02EC74BFB8990C PUSH1 0x0 SWAP1 DUP2 MSTORE PUSH1 0x20 MSTORE PUSH32 0xF8D0C05CD32E3272241FDC9D5839565F8BCF94139CB4BD09E230E1B57A60DDC2 SSTORE JUMP JUMPDEST PUSH3 0x9DA DUP2 DUP9 DUP9 PUSH3 0x1EA3 JUMP JUMPDEST PUSH1 0x0 PUSH1 0x1 PUSH3 0x9E8 PUSH3 0x1F4E JUMP JUMPDEST PUSH3 0x9F4 SWAP2 SWAP1 PUSH3 0x314D JUMP JUMPDEST SWAP1 POP PUSH3 0xA01 DUP2 PUSH3 0x1F9C JUMP JUMPDEST PUSH3 0xA0E DUP2 DUP8 DUP8 PUSH3 0x1FE9 JUMP JUMPDEST PUSH1 0x0 PUSH1 0x1 PUSH3 0xA1C PUSH3 0x2094 JUMP JUMPDEST PUSH3 0xA28 SWAP2 SWAP1 PUSH3 0x314D JUMP JUMPDEST SWAP1 POP PUSH3 0xA35 DUP2 PUSH3 0x20E2 JUMP JUMPDEST PUSH3 0xA42 DUP2 DUP7 DUP7 PUSH3 0x212F JUMP JUMPDEST PUSH1 0x40 DUP1 MLOAD PUSH1 0x0 DUP1 DUP3 MSTORE PUSH1 0x20 DUP3 ADD SWAP3 DUP4 SWAP1 MSTORE PUSH32 0xD167B96814CD24898418CC293E8D47D54AFE6DCF0631283F0830E1EAE621F6BD SWAP3 PUSH3 0xA86 SWAP3 SWAP2 SWAP1 DUP12 SWAP1 DUP12 SWAP1 PUSH3 0x3409 JUMP JUMPDEST PUSH1 0x40 MLOAD DUP1 SWAP2 SUB SWAP1 LOG1 PUSH1 0x40 DUP1 MLOAD PUSH1 0x0 DUP1 DUP3 MSTORE PUSH1 0x20 DUP3 ADD SWAP3 DUP4 SWAP1 MSTORE PUSH32 0xE7475DA747EAD33C03118A4B2CCA5E521E930DD8DDC556751FE12D1E8395DB2C SWAP3 PUSH3 0xAD2 SWAP3 SWAP2 SWAP1 DUP10 SWAP1 DUP10 SWAP1 PUSH3 0x3409 JUMP JUMPDEST PUSH1 0x40 MLOAD DUP1 SWAP2 SUB SWAP1 LOG1 POP POP POP POP POP POP POP POP POP POP POP JUMP JUMPDEST PUSH1 0x0 PUSH3 0xAF3 PUSH3 0x1A9E JUMP JUMPDEST SWAP1 POP PUSH3 0xB01 DUP2 CALLER PUSH3 0x1AEC JUMP JUMPDEST PUSH3 0xB0B JUMPI PUSH1 0x0 DUP1 REVERT JUMPDEST PUSH1 0x0 DUP1 CALLDATASIZE PUSH1 0x40 MLOAD PUSH3 0xB1F SWAP3 SWAP2 SWAP1 PUSH3 0x3127 JUMP JUMPDEST PUSH1 0x40 MLOAD DUP1 SWAP2 SUB SWAP1 KECCAK256 SWAP1 POP PUSH3 0xB36 DUP3 DUP3 CALLER PUSH3 0x1B05 JUMP JUMPDEST ISZERO PUSH3 0xB41 JUMPI PUSH1 0x0 DUP1 REVERT JUMPDEST PUSH3 0xB50 DUP3 DUP3 CALLER PUSH1 0x1 PUSH3 0x1B20 JUMP JUMPDEST PUSH1 0x0 PUSH1 0x1 PUSH3 0xB60 DUP5 DUP5 PUSH3 0x1B38 JUMP JUMPDEST PUSH3 0xB6C SWAP2 SWAP1 PUSH3 0x314D JUMP JUMPDEST SWAP1 POP PUSH3 0xB7B DUP4 DUP4 DUP4 PUSH3 0x1B4A JUMP JUMPDEST PUSH3 0xB86 DUP4 PUSH3 0x1B6D JUMP JUMPDEST DUP2 LT ISZERO PUSH3 0xB97 JUMPI POP POP POP PUSH3 0x499 JUMP JUMPDEST DUP7 PUSH1 0x1 PUSH1 0x1 PUSH1 0xA0 SHL SUB AND EXTCODEHASH DUP7 EQ PUSH3 0xBAE JUMPI PUSH1 0x0 DUP1 REVERT JUMPDEST PUSH1 0x40 MLOAD PUSH1 0x1 PUSH1 0x1 PUSH1 0xA0 SHL SUB DUP9 AND SWAP1 PUSH32 0xBC7CD75A20EE27FD9ADEBAB32041F755214DBC6BFFA90CC0225B39DA2E5C2D3B SWAP1 PUSH1 0x0 SWAP1 LOG2 DUP4 ISZERO PUSH3 0xCA5 JUMPI PUSH1 0x0 DUP8 PUSH1 0x1 PUSH1 0x1 PUSH1 0xA0 SHL SUB AND PUSH4 0x9DED06DF PUSH1 0xE0 SHL DUP8 DUP8 PUSH1 0x40 MLOAD PUSH1 0x24 ADD PUSH3 0xC12 SWAP3 SWAP2 SWAP1 PUSH3 0x344A JUMP JUMPDEST PUSH1 0x40 DUP1 MLOAD PUSH1 0x1F NOT DUP2 DUP5 SUB ADD DUP2 MSTORE SWAP2 DUP2 MSTORE PUSH1 0x20 DUP3 ADD DUP1 MLOAD PUSH1 0x1 PUSH1 0x1 PUSH1 0xE0 SHL SUB AND PUSH1 0x1 PUSH1 0x1 PUSH1 0xE0 SHL SUB NOT SWAP1 SWAP5 AND SWAP4 SWAP1 SWAP4 OR SWAP1 SWAP3 MSTORE SWAP1 MLOAD PUSH3 0xC52 SWAP2 SWAP1 PUSH3 0x3168 JUMP JUMPDEST PUSH1 0x0 PUSH1 0x40 MLOAD DUP1 DUP4 SUB DUP2 DUP6 GAS DELEGATECALL SWAP2 POP POP RETURNDATASIZE DUP1 PUSH1 0x0 DUP2 EQ PUSH3 0xC8F JUMPI PUSH1 0x40 MLOAD SWAP2 POP PUSH1 0x1F NOT PUSH1 0x3F RETURNDATASIZE ADD AND DUP3 ADD PUSH1 0x40 MSTORE RETURNDATASIZE DUP3 MSTORE RETURNDATASIZE PUSH1 0x0 PUSH1 0x20 DUP5 ADD RETURNDATACOPY PUSH3 0xC94 JUMP JUMPDEST PUSH1 0x60 SWAP2 POP JUMPDEST POP POP SWAP1 POP DUP1 PUSH3 0xCA3 JUMPI PUSH1 0x0 DUP1 REVERT JUMPDEST POP JUMPDEST PUSH3 0xCB0 DUP8 PUSH3 0x21DA JUMP JUMPDEST PUSH3 0xCBE DUP4 DUP4 PUSH1 0x0 PUSH3 0x1B4A JUMP JUMPDEST PUSH1 0x0 PUSH3 0xCCB DUP5 PUSH3 0x1BF2 JUMP JUMPDEST SWAP1 POP PUSH1 0x0 JUMPDEST DUP2 DUP2 LT ISZERO PUSH3 0xD00 JUMPI PUSH3 0xCEB DUP6 DUP6 PUSH3 0x5FF DUP9 DUP6 PUSH3 0x1C03 JUMP JUMPDEST DUP1 PUSH3 0xCF7 DUP2 PUSH3 0x3186 JUMP JUMPDEST SWAP2 POP POP PUSH3 0xCD0 JUMP JUMPDEST POP POP POP POP POP POP POP POP POP JUMP JUMPDEST PUSH1 0x60 PUSH1 0x0 PUSH3 0xD19 PUSH3 0x1F4E JUMP JUMPDEST SWAP1 POP PUSH1 0x0 PUSH3 0xD28 DUP3 PUSH3 0x2206 JUMP JUMPDEST SWAP1 POP DUP1 PUSH1 0x1 PUSH1 0x1 PUSH1 0x40 SHL SUB DUP2 GT ISZERO PUSH3 0xD45 JUMPI PUSH3 0xD45 PUSH3 0x2D8B JUMP JUMPDEST PUSH1 0x40 MLOAD SWAP1 DUP1 DUP3 MSTORE DUP1 PUSH1 0x20 MUL PUSH1 0x20 ADD DUP3 ADD PUSH1 0x40 MSTORE DUP1 ISZERO PUSH3 0xD6F JUMPI DUP2 PUSH1 0x20 ADD PUSH1 0x20 DUP3 MUL DUP1 CALLDATASIZE DUP4 CALLDATACOPY ADD SWAP1 POP JUMPDEST POP SWAP3 POP PUSH1 0x0 JUMPDEST DUP2 DUP2 LT ISZERO PUSH3 0xDCC JUMPI PUSH3 0xD8A DUP4 DUP3 PUSH3 0x2217 JUMP JUMPDEST DUP5 DUP3 DUP2 MLOAD DUP2 LT PUSH3 0xD9F JUMPI PUSH3 0xD9F PUSH3 0x3479 JUMP JUMPDEST PUSH1 0x1 PUSH1 0x1 PUSH1 0xA0 SHL SUB SWAP1 SWAP3 AND PUSH1 0x20 SWAP3 DUP4 MUL SWAP2 SWAP1 SWAP2 ADD SWAP1 SWAP2 ADD MSTORE DUP1 PUSH3 0xDC3 DUP2 PUSH3 0x3186 JUMP JUMPDEST SWAP2 POP POP PUSH3 0xD75 JUMP JUMPDEST POP POP POP SWAP1 JUMP JUMPDEST PUSH1 0x0 DUP2 DUP2 MSTORE PUSH1 0x3 PUSH1 0x20 MSTORE PUSH1 0x40 SWAP1 KECCAK256 DUP1 SLOAD PUSH1 0x60 SWAP2 SWAP1 PUSH3 0x892 SWAP1 PUSH3 0x32A7 JUMP JUMPDEST CALLER ADDRESS EQ PUSH3 0xDFE JUMPI PUSH1 0x0 DUP1 REVERT JUMPDEST PUSH1 0x0 DUP1 PUSH3 0xE0F DUP4 DUP6 ADD DUP6 PUSH3 0x348F JUMP JUMPDEST SWAP2 POP SWAP2 POP PUSH1 0x0 PUSH3 0xE1F PUSH3 0x1F4E JUMP JUMPDEST SWAP1 POP PUSH32 0xD167B96814CD24898418CC293E8D47D54AFE6DCF0631283F0830E1EAE621F6BD PUSH3 0xE4C PUSH3 0xD0B JUMP JUMPDEST PUSH3 0xE57 DUP4 PUSH3 0x2229 JUMP JUMPDEST DUP6 DUP6 PUSH1 0x40 MLOAD PUSH3 0xE6B SWAP5 SWAP4 SWAP3 SWAP2 SWAP1 PUSH3 0x3409 JUMP JUMPDEST PUSH1 0x40 MLOAD DUP1 SWAP2 SUB SWAP1 LOG1 PUSH3 0xE8B PUSH3 0xE82 DUP3 PUSH3 0x3186 JUMP JUMPDEST SWAP2 POP DUP2 PUSH3 0x1F9C JUMP JUMPDEST PUSH3 0x6F0 DUP2 DUP5 DUP5 PUSH3 0x1FE9 JUMP JUMPDEST PUSH1 0x0 PUSH3 0x85C PUSH3 0x287 DUP4 PUSH3 0x223A JUMP JUMPDEST CALLER ADDRESS EQ PUSH3 0xEB6 JUMPI PUSH1 0x0 DUP1 REVERT JUMPDEST PUSH1 0x0 DUP1 PUSH3 0xEC7 DUP4 DUP6 ADD DUP6 PUSH3 0x348F JUMP JUMPDEST SWAP2 POP SWAP2 POP PUSH1 0x0 PUSH3 0xED7 PUSH3 0x1F4E JUMP JUMPDEST SWAP1 POP PUSH32 0xE7475DA747EAD33C03118A4B2CCA5E521E930DD8DDC556751FE12D1E8395DB2C PUSH3 0xF04 PUSH3 0x1202 JUMP JUMPDEST PUSH3 0xF0F DUP4 PUSH3 0x2276 JUMP JUMPDEST DUP6 DUP6 PUSH1 0x40 MLOAD PUSH3 0xF23 SWAP5 SWAP4 SWAP3 SWAP2 SWAP1 PUSH3 0x3409 JUMP JUMPDEST PUSH1 0x40 MLOAD DUP1 SWAP2 SUB SWAP1 LOG1 PUSH1 0x0 PUSH3 0xF37 PUSH3 0x2094 JUMP JUMPDEST SWAP1 POP PUSH3 0xF51 PUSH3 0xF48 DUP3 PUSH3 0x3186 JUMP JUMPDEST SWAP2 POP DUP2 PUSH3 0x20E2 JUMP JUMPDEST PUSH3 0x61C DUP2 DUP6 DUP6 PUSH3 0x212F JUMP JUMPDEST PUSH1 0x0 PUSH3 0xF6A PUSH3 0x1A9E JUMP JUMPDEST SWAP1 POP PUSH3 0xF78 DUP2 CALLER PUSH3 0x1AEC JUMP JUMPDEST PUSH3 0xF82 JUMPI PUSH1 0x0 DUP1 REVERT JUMPDEST PUSH1 0x0 DUP1 CALLDATASIZE PUSH1 0x40 MLOAD PUSH3 0xF96 SWAP3 SWAP2 SWAP1 PUSH3 0x3127 JUMP JUMPDEST PUSH1 0x40 MLOAD DUP1 SWAP2 SUB SWAP1 KECCAK256 SWAP1 POP PUSH3 0xFAD DUP3 DUP3 CALLER PUSH3 0x1B05 JUMP JUMPDEST ISZERO PUSH3 0xFB8 JUMPI PUSH1 0x0 DUP1 REVERT JUMPDEST PUSH3 0xFC7 DUP3 DUP3 CALLER PUSH1 0x1 PUSH3 0x1B20 JUMP JUMPDEST PUSH1 0x0 PUSH1 0x1 PUSH3 0xFD7 DUP5 DUP5 PUSH3 0x1B38 JUMP JUMPDEST PUSH3 0xFE3 SWAP2 SWAP1 PUSH3 0x314D JUMP JUMPDEST SWAP1 POP PUSH3 0xFF2 DUP4 DUP4 DUP4 PUSH3 0x1B4A JUMP JUMPDEST PUSH3 0xFFD DUP4 PUSH3 0x1B6D JUMP JUMPDEST DUP2 LT ISZERO PUSH3 0x100A JUMPI POP POP POP JUMP JUMPDEST PUSH3 0x1037 PUSH32 0x75A31D1CE8E5F9892188BEFC328D3B9BD3FA5037457E881ABC21F388471B8D96 PUSH1 0x1 PUSH3 0x1BD2 JUMP JUMPDEST PUSH1 0x40 MLOAD PUSH32 0x9F428B56CA209118783DB391E8A5A62827B6B218ADD33411061060D308AF6EAD SWAP1 PUSH1 0x0 SWAP1 LOG1 PUSH3 0x106E DUP4 DUP4 PUSH1 0x0 PUSH3 0x1B4A JUMP JUMPDEST PUSH1 0x0 PUSH3 0x107B DUP5 PUSH3 0x1BF2 JUMP JUMPDEST SWAP1 POP PUSH1 0x0 JUMPDEST DUP2 DUP2 LT ISZERO PUSH3 0x6F0 JUMPI PUSH3 0x109B DUP6 DUP6 PUSH3 0x5FF DUP9 DUP6 PUSH3 0x1C03 JUMP JUMPDEST DUP1 PUSH3 0x10A7 DUP2 PUSH3 0x3186 JUMP JUMPDEST SWAP2 POP POP PUSH3 0x1080 JUMP JUMPDEST PUSH1 0x0 PUSH3 0x10BC PUSH3 0x1A9E JUMP JUMPDEST SWAP1 POP PUSH3 0x10CA DUP2 CALLER PUSH3 0x1AEC JUMP JUMPDEST PUSH3 0x10D4 JUMPI PUSH1 0x0 DUP1 REVERT JUMPDEST PUSH1 0x0 DUP1 CALLDATASIZE PUSH1 0x40 MLOAD PUSH3 0x10E8 SWAP3 SWAP2 SWAP1 PUSH3 0x3127 JUMP JUMPDEST PUSH1 0x40 MLOAD DUP1 SWAP2 SUB SWAP1 KECCAK256 SWAP1 POP PUSH3 0x10FF DUP3 DUP3 CALLER PUSH3 0x1B05 JUMP JUMPDEST ISZERO PUSH3 0x110A JUMPI PUSH1 0x0 DUP1 REVERT JUMPDEST PUSH3 0x1119 DUP3 DUP3 CALLER PUSH1 0x1 PUSH3 0x1B20 JUMP JUMPDEST PUSH1 0x0 PUSH1 0x1 PUSH3 0x1129 DUP5 DUP5 PUSH3 0x1B38 JUMP JUMPDEST PUSH3 0x1135 SWAP2 SWAP1 PUSH3 0x314D JUMP JUMPDEST SWAP1 POP PUSH3 0x1144 DUP4 DUP4 DUP4 PUSH3 0x1B4A JUMP JUMPDEST PUSH3 0x114F DUP4 PUSH3 0x1B6D JUMP JUMPDEST DUP2 LT ISZERO PUSH3 0x115C JUMPI POP POP POP JUMP JUMPDEST PUSH3 0x1189 PUSH32 0x75A31D1CE8E5F9892188BEFC328D3B9BD3FA5037457E881ABC21F388471B8D96 PUSH1 0x0 PUSH3 0x1BD2 JUMP JUMPDEST PUSH1 0x40 MLOAD PUSH32 0xE821FF109470F6AA1AEBB161AA0E7328B1A8552AA48E09ED2D03184ECECE9A6 SWAP1 PUSH1 0x0 SWAP1 LOG1 PUSH3 0x11C0 DUP4 DUP4 PUSH1 0x0 PUSH3 0x1B4A JUMP JUMPDEST PUSH1 0x0 PUSH3 0x11CD DUP5 PUSH3 0x1BF2 JUMP JUMPDEST SWAP1 POP PUSH1 0x0 JUMPDEST DUP2 DUP2 LT ISZERO PUSH3 0x6F0 JUMPI PUSH3 0x11ED DUP6 DUP6 PUSH3 0x5FF DUP9 DUP6 PUSH3 0x1C03 JUMP JUMPDEST DUP1 PUSH3 0x11F9 DUP2 PUSH3 0x3186 JUMP JUMPDEST SWAP2 POP POP PUSH3 0x11D2 JUMP JUMPDEST PUSH1 0x60 PUSH1 0x0 PUSH3 0x1210 PUSH3 0x2094 JUMP JUMPDEST SWAP1 POP PUSH1 0x0 PUSH3 0x121F DUP3 PUSH3 0x2287 JUMP JUMPDEST SWAP1 POP DUP1 PUSH1 0x1 PUSH1 0x1 PUSH1 0x40 SHL SUB DUP2 GT ISZERO PUSH3 0x123C JUMPI PUSH3 0x123C PUSH3 0x2D8B JUMP JUMPDEST PUSH1 0x40 MLOAD SWAP1 DUP1 DUP3 MSTORE DUP1 PUSH1 0x20 MUL PUSH1 0x20 ADD DUP3 ADD PUSH1 0x40 MSTORE DUP1 ISZERO PUSH3 0x1266 JUMPI DUP2 PUSH1 0x20 ADD PUSH1 0x20 DUP3 MUL DUP1 CALLDATASIZE DUP4 CALLDATACOPY ADD SWAP1 POP JUMPDEST POP SWAP3 POP PUSH1 0x0 JUMPDEST DUP2 DUP2 LT ISZERO PUSH3 0xDCC JUMPI PUSH3 0x1281 DUP4 DUP3 PUSH3 0x2298 JUMP JUMPDEST DUP5 DUP3 DUP2 MLOAD DUP2 LT PUSH3 0x1296 JUMPI PUSH3 0x1296 PUSH3 0x3479 JUMP JUMPDEST PUSH1 0x1 PUSH1 0x1 PUSH1 0xA0 SHL SUB SWAP1 SWAP3 AND PUSH1 0x20 SWAP3 DUP4 MUL SWAP2 SWAP1 SWAP2 ADD SWAP1 SWAP2 ADD MSTORE DUP1 PUSH3 0x12BA DUP2 PUSH3 0x3186 JUMP JUMPDEST SWAP2 POP POP PUSH3 0x126C JUMP JUMPDEST PUSH1 0x0 PUSH3 0x12D0 DUP4 PUSH3 0x862 JUMP JUMPDEST SWAP1 POP PUSH1 0x1 PUSH1 0x1 PUSH1 0xA0 SHL SUB DUP2 AND PUSH3 0x12E6 JUMPI PUSH1 0x0 DUP1 REVERT JUMPDEST PUSH1 0x2 PUSH3 0x12F3 DUP5 PUSH3 0x22AA JUMP JUMPDEST PUSH1 0x2 DUP2 GT ISZERO PUSH3 0x1307 JUMPI PUSH3 0x1307 PUSH3 0x34C8 JUMP JUMPDEST EQ ISZERO PUSH3 0x1532 JUMPI PUSH1 0x0 DUP3 PUSH1 0x40 MLOAD PUSH3 0x131F SWAP1 PUSH3 0x2CC5 JUMP JUMPDEST DUP2 SWAP1 PUSH1 0x40 MLOAD DUP1 SWAP2 SUB SWAP1 PUSH1 0x0 CREATE2 SWAP1 POP DUP1 ISZERO DUP1 ISZERO PUSH3 0x1340 JUMPI RETURNDATASIZE PUSH1 0x0 DUP1 RETURNDATACOPY RETURNDATASIZE PUSH1 0x0 REVERT JUMPDEST POP PUSH1 0x40 MLOAD PUSH4 0x70A08231 PUSH1 0xE0 SHL DUP2 MSTORE PUSH1 0x1 PUSH1 0x1 PUSH1 0xA0 SHL SUB DUP1 DUP4 AND PUSH1 0x4 DUP4 ADD DUP2 SWAP1 MSTORE SWAP3 SWAP4 POP PUSH1 0x0 SWAP3 DUP4 SWAP3 SWAP1 SWAP2 PUSH4 0x1CFF79CD SWAP2 DUP8 SWAP2 PUSH4 0xA9059CBB PUSH1 0xE0 SHL SWAP2 ADDRESS SWAP2 DUP5 AND SWAP1 PUSH4 0x70A08231 SWAP1 PUSH1 0x24 ADD PUSH1 0x20 PUSH1 0x40 MLOAD DUP1 DUP4 SUB DUP2 DUP7 DUP1 EXTCODESIZE ISZERO DUP1 ISZERO PUSH3 0x13A2 JUMPI PUSH1 0x0 DUP1 REVERT JUMPDEST POP GAS STATICCALL ISZERO DUP1 ISZERO PUSH3 0x13B7 JUMPI RETURNDATASIZE PUSH1 0x0 DUP1 RETURNDATACOPY RETURNDATASIZE PUSH1 0x0 REVERT JUMPDEST POP POP POP POP PUSH1 0x40 MLOAD RETURNDATASIZE PUSH1 0x1F NOT PUSH1 0x1F DUP3 ADD AND DUP3 ADD DUP1 PUSH1 0x40 MSTORE POP DUP2 ADD SWAP1 PUSH3 0x13DD SWAP2 SWAP1 PUSH3 0x34DE JUMP JUMPDEST PUSH1 0x40 MLOAD PUSH1 0x1 PUSH1 0x1 PUSH1 0xA0 SHL SUB SWAP1 SWAP3 AND PUSH1 0x24 DUP4 ADD MSTORE PUSH1 0x44 DUP3 ADD MSTORE PUSH1 0x64 ADD PUSH1 0x40 DUP1 MLOAD PUSH1 0x1F NOT DUP2 DUP5 SUB ADD DUP2 MSTORE SWAP2 DUP2 MSTORE PUSH1 0x20 DUP3 ADD DUP1 MLOAD PUSH1 0x1 PUSH1 0x1 PUSH1 0xE0 SHL SUB AND PUSH1 0x1 PUSH1 0x1 PUSH1 0xE0 SHL SUB NOT SWAP5 DUP6 AND OR SWAP1 MSTORE MLOAD PUSH1 0xE0 DUP6 SWAP1 SHL SWAP1 SWAP3 AND DUP3 MSTORE PUSH3 0x1440 SWAP3 SWAP2 PUSH1 0x4 ADD PUSH3 0x34F8 JUMP JUMPDEST PUSH1 0x0 PUSH1 0x40 MLOAD DUP1 DUP4 SUB DUP2 PUSH1 0x0 DUP8 DUP1 EXTCODESIZE ISZERO DUP1 ISZERO PUSH3 0x145B JUMPI PUSH1 0x0 DUP1 REVERT JUMPDEST POP GAS CALL ISZERO DUP1 ISZERO PUSH3 0x1470 JUMPI RETURNDATASIZE PUSH1 0x0 DUP1 RETURNDATACOPY RETURNDATASIZE PUSH1 0x0 REVERT JUMPDEST POP POP POP POP PUSH1 0x40 MLOAD RETURNDATASIZE PUSH1 0x0 DUP3 RETURNDATACOPY PUSH1 0x1F RETURNDATASIZE SWAP1 DUP2 ADD PUSH1 0x1F NOT AND DUP3 ADD PUSH1 0x40 MSTORE PUSH3 0x149A SWAP2 SWAP1 DUP2 ADD SWAP1 PUSH3 0x358D JUMP JUMPDEST SWAP2 POP SWAP2 POP DUP2 DUP1 ISZERO PUSH3 0x14C7 JUMPI POP DUP1 MLOAD ISZERO DUP1 PUSH3 0x14C7 JUMPI POP DUP1 DUP1 PUSH1 0x20 ADD SWAP1 MLOAD DUP2 ADD SWAP1 PUSH3 0x14C7 SWAP2 SWAP1 PUSH3 0x35E0 JUMP JUMPDEST PUSH3 0x14D1 JUMPI PUSH1 0x0 DUP1 REVERT JUMPDEST PUSH1 0x40 MLOAD PUSH3 0xF55D9D PUSH1 0xE0 SHL DUP2 MSTORE ADDRESS PUSH1 0x4 DUP3 ADD MSTORE PUSH1 0x1 PUSH1 0x1 PUSH1 0xA0 SHL SUB DUP5 AND SWAP1 PUSH3 0xF55D9D SWAP1 PUSH1 0x24 ADD PUSH1 0x0 PUSH1 0x40 MLOAD DUP1 DUP4 SUB DUP2 PUSH1 0x0 DUP8 DUP1 EXTCODESIZE ISZERO DUP1 ISZERO PUSH3 0x1511 JUMPI PUSH1 0x0 DUP1 REVERT JUMPDEST POP GAS CALL ISZERO DUP1 ISZERO PUSH3 0x1526 JUMPI RETURNDATASIZE PUSH1 0x0 DUP1 RETURNDATACOPY RETURNDATASIZE PUSH1 0x0 REVERT JUMPDEST POP POP POP POP POP POP POP POP POP POP JUMP JUMPDEST PUSH1 0x40 MLOAD PUSH4 0x8A1EEE1 PUSH1 0xE0 SHL DUP2 MSTORE PUSH1 0x4 DUP2 ADD DUP4 SWAP1 MSTORE PUSH1 0x1 PUSH1 0x1 PUSH1 0xA0 SHL SUB DUP3 AND SWAP1 PUSH4 0x8A1EEE1 SWAP1 PUSH1 0x24 ADD PUSH1 0x0 PUSH1 0x40 MLOAD DUP1 DUP4 SUB DUP2 PUSH1 0x0 DUP8 DUP1 EXTCODESIZE ISZERO DUP1 ISZERO PUSH3 0x1575 JUMPI PUSH1 0x0 DUP1 REVERT JUMPDEST POP GAS CALL ISZERO DUP1 ISZERO PUSH3 0x65E JUMPI RETURNDATASIZE PUSH1 0x0 DUP1 RETURNDATACOPY RETURNDATASIZE PUSH1 0x0 REVERT JUMPDEST POP POP POP JUMP JUMPDEST DUP1 MLOAD PUSH1 0x0 DUP2 PUSH1 0x1 PUSH1 0x1 PUSH1 0x40 SHL SUB DUP2 GT ISZERO PUSH3 0x15AE JUMPI PUSH3 0x15AE PUSH3 0x2D8B JUMP JUMPDEST PUSH1 0x40 MLOAD SWAP1 DUP1 DUP3 MSTORE DUP1 PUSH1 0x20 MUL PUSH1 0x20 ADD DUP3 ADD PUSH1 0x40 MSTORE DUP1 ISZERO PUSH3 0x15D8 JUMPI DUP2 PUSH1 0x20 ADD PUSH1 0x20 DUP3 MUL DUP1 CALLDATASIZE DUP4 CALLDATACOPY ADD SWAP1 POP JUMPDEST POP SWAP1 POP PUSH1 0x0 JUMPDEST DUP3 DUP2 LT ISZERO PUSH3 0x1662 JUMPI PUSH3 0x1620 PUSH3 0x15FD DUP7 DUP1 MLOAD SWAP1 PUSH1 0x20 ADD KECCAK256 PUSH3 0x22CF JUMP JUMPDEST DUP6 DUP4 DUP2 MLOAD DUP2 LT PUSH3 0x1612 JUMPI PUSH3 0x1612 PUSH3 0x3479 JUMP JUMPDEST PUSH1 0x20 MUL PUSH1 0x20 ADD ADD MLOAD PUSH3 0x230B JUMP JUMPDEST DUP3 DUP3 DUP2 MLOAD DUP2 LT PUSH3 0x1635 JUMPI PUSH3 0x1635 PUSH3 0x3479 JUMP JUMPDEST PUSH1 0x1 PUSH1 0x1 PUSH1 0xA0 SHL SUB SWAP1 SWAP3 AND PUSH1 0x20 SWAP3 DUP4 MUL SWAP2 SWAP1 SWAP2 ADD SWAP1 SWAP2 ADD MSTORE DUP1 PUSH3 0x1659 DUP2 PUSH3 0x3186 JUMP JUMPDEST SWAP2 POP POP PUSH3 0x15DE JUMP JUMPDEST POP PUSH1 0x0 DUP1 PUSH1 0x0 DUP1 PUSH1 0x0 DUP9 DUP1 PUSH1 0x20 ADD SWAP1 MLOAD DUP2 ADD SWAP1 PUSH3 0x1681 SWAP2 SWAP1 PUSH3 0x3726 JUMP JUMPDEST SWAP5 POP SWAP5 POP SWAP5 POP SWAP5 POP SWAP5 POP CHAINID DUP6 EQ PUSH3 0x1698 JUMPI PUSH1 0x0 DUP1 REVERT JUMPDEST PUSH3 0x16A3 DUP7 PUSH3 0x23FC JUMP JUMPDEST PUSH3 0x16AD JUMPI PUSH1 0x0 DUP1 REVERT JUMPDEST DUP3 MLOAD DUP3 MLOAD DUP2 EQ DUP1 ISZERO PUSH3 0x16C0 JUMPI POP DUP2 MLOAD DUP2 EQ JUMPDEST PUSH3 0x16CA JUMPI PUSH1 0x0 DUP1 REVERT JUMPDEST PUSH1 0x0 DUP1 DUP1 PUSH1 0x1 DUP9 PUSH1 0x2 DUP2 GT ISZERO PUSH3 0x16E5 JUMPI PUSH3 0x16E5 PUSH3 0x34C8 JUMP JUMPDEST EQ ISZERO PUSH3 0x171E JUMPI PUSH3 0x1701 PUSH3 0x16FA PUSH3 0x1F4E JUMP JUMPDEST DUP12 PUSH3 0x249B JUMP JUMPDEST SWAP3 POP DUP3 DUP1 PUSH3 0x1716 JUMPI POP PUSH3 0x1716 DUP11 PUSH3 0x252F JUMP JUMPDEST SWAP2 POP PUSH3 0x174A JUMP JUMPDEST PUSH1 0x2 DUP9 PUSH1 0x2 DUP2 GT ISZERO PUSH3 0x1735 JUMPI PUSH3 0x1735 PUSH3 0x34C8 JUMP JUMPDEST EQ ISZERO PUSH3 0x174A JUMPI PUSH3 0x1747 DUP11 PUSH3 0x25C2 JUMP JUMPDEST SWAP1 POP JUMPDEST PUSH1 0x0 JUMPDEST DUP5 DUP2 LT ISZERO PUSH3 0x1A8E JUMPI PUSH1 0x0 DUP9 DUP3 DUP2 MLOAD DUP2 LT PUSH3 0x176D JUMPI PUSH3 0x176D PUSH3 0x3479 JUMP JUMPDEST PUSH1 0x20 MUL PUSH1 0x20 ADD ADD MLOAD SWAP1 POP PUSH3 0x1782 DUP2 PUSH3 0xE98 JUMP JUMPDEST ISZERO PUSH3 0x178F JUMPI POP PUSH3 0x1A79 JUMP JUMPDEST PUSH1 0x0 DUP1 DUP10 DUP5 DUP2 MLOAD DUP2 LT PUSH3 0x17A7 JUMPI PUSH3 0x17A7 PUSH3 0x3479 JUMP JUMPDEST PUSH1 0x20 MUL PUSH1 0x20 ADD ADD MLOAD PUSH1 0x40 MLOAD PUSH1 0x20 ADD PUSH3 0x17C1 SWAP2 SWAP1 PUSH3 0x3168 JUMP JUMPDEST PUSH1 0x40 MLOAD PUSH1 0x20 DUP2 DUP4 SUB SUB DUP2 MSTORE SWAP1 PUSH1 0x40 MSTORE DUP1 MLOAD SWAP1 PUSH1 0x20 ADD KECCAK256 SWAP1 POP PUSH32 0x5763814B98A3AA86F212797AF3273868B5DD6E2A532D764A79B98CA859E7BBAD DUP2 EQ ISZERO PUSH3 0x1821 JUMPI DUP6 PUSH3 0x1811 JUMPI POP POP POP PUSH3 0x1A79 JUMP JUMPDEST PUSH4 0x3CD6EE6D PUSH1 0xE0 SHL SWAP2 POP PUSH3 0x1964 JUMP JUMPDEST PUSH32 0xEC78D9C22C08BB9F0ECD5D95571AE83E3F22219C5A9278C3270691D50ABFD91B DUP2 EQ ISZERO PUSH3 0x1876 JUMPI DUP5 ISZERO DUP1 ISZERO PUSH3 0x1857 JUMPI POP DUP6 ISZERO JUMPDEST ISZERO PUSH3 0x1866 JUMPI POP POP POP PUSH3 0x1A79 JUMP JUMPDEST PUSH4 0x60C6FF43 PUSH1 0xE0 SHL SWAP2 POP PUSH3 0x1964 JUMP JUMPDEST PUSH32 0xDA199C0E76F665E0450020791C7F8EACC75F3CDBACE313272C28F93E5390B62C DUP2 EQ ISZERO PUSH3 0x18CB JUMPI DUP5 ISZERO DUP1 ISZERO PUSH3 0x18AC JUMPI POP DUP6 ISZERO JUMPDEST ISZERO PUSH3 0x18BB JUMPI POP POP POP PUSH3 0x1A79 JUMP JUMPDEST PUSH4 0x37699C1 PUSH1 0xE0 SHL SWAP2 POP PUSH3 0x1964 JUMP JUMPDEST PUSH32 0x1D4A390F291E2E1F29874769EFDEF47DDAD94D76F77FF516FAD206A385E8995F DUP2 EQ ISZERO PUSH3 0x1913 JUMPI DUP7 PUSH3 0x1903 JUMPI POP POP POP PUSH3 0x1A79 JUMP JUMPDEST PUSH4 0xD1CF834F PUSH1 0xE0 SHL SWAP2 POP PUSH3 0x1964 JUMP JUMPDEST PUSH32 0xB460DCB6FD5797FC0E7EA0F13406C80D30702BA7F73A42BD91394775DCBCA718 DUP2 EQ ISZERO PUSH3 0x195B JUMPI DUP7 PUSH3 0x194B JUMPI POP POP POP PUSH3 0x1A79 JUMP JUMPDEST PUSH4 0xD289D1CB PUSH1 0xE0 SHL SWAP2 POP PUSH3 0x1964 JUMP JUMPDEST POP POP POP PUSH3 0x1A79 JUMP JUMPDEST PUSH3 0x1971 DUP4 PUSH1 0x1 PUSH3 0x263D JUMP JUMPDEST PUSH1 0x0 ADDRESS PUSH1 0x1 PUSH1 0x1 PUSH1 0xA0 SHL SUB AND DUP4 DUP12 DUP8 DUP2 MLOAD DUP2 LT PUSH3 0x1993 JUMPI PUSH3 0x1993 PUSH3 0x3479 JUMP JUMPDEST PUSH1 0x20 MUL PUSH1 0x20 ADD ADD MLOAD PUSH1 0x40 MLOAD PUSH1 0x24 ADD PUSH3 0x19AD SWAP2 SWAP1 PUSH3 0x2EEF JUMP JUMPDEST PUSH1 0x40 DUP1 MLOAD PUSH1 0x1F NOT DUP2 DUP5 SUB ADD DUP2 MSTORE SWAP2 DUP2 MSTORE PUSH1 0x20 DUP3 ADD DUP1 MLOAD PUSH1 0x1 PUSH1 0x1 PUSH1 0xE0 SHL SUB AND PUSH1 0x1 PUSH1 0x1 PUSH1 0xE0 SHL SUB NOT SWAP1 SWAP5 AND SWAP4 SWAP1 SWAP4 OR SWAP1 SWAP3 MSTORE SWAP1 MLOAD PUSH3 0x19ED SWAP2 SWAP1 PUSH3 0x3168 JUMP JUMPDEST PUSH1 0x0 PUSH1 0x40 MLOAD DUP1 DUP4 SUB DUP2 PUSH1 0x0 DUP7 GAS CALL SWAP2 POP POP RETURNDATASIZE DUP1 PUSH1 0x0 DUP2 EQ PUSH3 0x1A2C JUMPI PUSH1 0x40 MLOAD SWAP2 POP PUSH1 0x1F NOT PUSH1 0x3F RETURNDATASIZE ADD AND DUP3 ADD PUSH1 0x40 MSTORE RETURNDATASIZE DUP3 MSTORE RETURNDATASIZE PUSH1 0x0 PUSH1 0x20 DUP5 ADD RETURNDATACOPY PUSH3 0x1A31 JUMP JUMPDEST PUSH1 0x60 SWAP2 POP JUMPDEST POP POP SWAP1 POP PUSH3 0x1A41 DUP5 DUP3 PUSH3 0x263D JUMP JUMPDEST DUP1 ISZERO PUSH3 0x1A74 JUMPI PUSH1 0x40 MLOAD DUP5 SWAP1 PUSH32 0xA74C8847D513FEBA22A0F0CB38D53081ABF97562CDB293926BA243689E7C41CA SWAP1 PUSH1 0x0 SWAP1 LOG2 JUMPDEST POP POP POP POP JUMPDEST DUP1 PUSH3 0x1A85 DUP2 PUSH3 0x3186 JUMP JUMPDEST SWAP2 POP POP PUSH3 0x174D JUMP JUMPDEST POP POP POP POP POP POP POP POP POP POP POP POP POP POP JUMP JUMPDEST PUSH32 0xD51DC9B187568BB94760866E1D0D066CA470037D2D331AFB1A02EC74BFB8990C PUSH1 0x0 SWAP1 DUP2 MSTORE PUSH1 0x20 MSTORE PUSH32 0xF8D0C05CD32E3272241FDC9D5839565F8BCF94139CB4BD09E230E1B57A60DDC2 SLOAD SWAP1 JUMP JUMPDEST PUSH1 0x0 PUSH3 0x1AFE PUSH3 0x287 DUP5 DUP5 PUSH3 0x2650 JUMP JUMPDEST SWAP4 SWAP3 POP POP POP JUMP JUMPDEST PUSH1 0x0 PUSH3 0x1B18 PUSH3 0x287 DUP6 DUP6 DUP6 PUSH3 0x26A7 JUMP JUMPDEST SWAP5 SWAP4 POP POP POP POP JUMP JUMPDEST PUSH3 0x499 PUSH3 0x1B31 DUP6 DUP6 DUP6 PUSH3 0x26A7 JUMP JUMPDEST DUP3 PUSH3 0x1BD2 JUMP JUMPDEST PUSH1 0x0 PUSH3 0x1AFE PUSH3 0x3AD DUP5 DUP5 PUSH3 0x271B JUMP JUMPDEST PUSH3 0x158A PUSH3 0x1B5A DUP5 DUP5 PUSH3 0x271B JUMP JUMPDEST DUP3 PUSH1 0x0 SWAP2 DUP3 MSTORE PUSH1 0x20 DUP3 SWAP1 MSTORE PUSH1 0x40 SWAP1 SWAP2 KECCAK256 SSTORE JUMP JUMPDEST PUSH1 0x0 PUSH3 0x85C PUSH3 0x3AD DUP4 PUSH3 0x275E JUMP JUMPDEST PUSH1 0x0 PUSH32 0x1A7261D3A36C4CE4235D10859911C9444A6963A3591EC5725B96871D9810626B DUP3 PUSH1 0x40 MLOAD PUSH1 0x20 ADD PUSH3 0x1BB5 SWAP3 SWAP2 SWAP1 PUSH3 0x3837 JUMP JUMPDEST PUSH1 0x40 MLOAD PUSH1 0x20 DUP2 DUP4 SUB SUB DUP2 MSTORE SWAP1 PUSH1 0x40 MSTORE DUP1 MLOAD SWAP1 PUSH1 0x20 ADD KECCAK256 SWAP1 POP SWAP2 SWAP1 POP JUMP JUMPDEST PUSH1 0x0 SWAP2 DUP3 MSTORE PUSH1 0x4 PUSH1 0x20 MSTORE PUSH1 0x40 SWAP1 SWAP2 KECCAK256 DUP1 SLOAD PUSH1 0xFF NOT AND SWAP2 ISZERO ISZERO SWAP2 SWAP1 SWAP2 OR SWAP1 SSTORE JUMP JUMPDEST PUSH1 0x0 PUSH3 0x85C PUSH3 0x3AD DUP4 PUSH3 0x279A JUMP JUMPDEST PUSH1 0x0 PUSH3 0x1AFE PUSH3 0x1D8 DUP5 DUP5 PUSH3 0x27D6 JUMP JUMPDEST PUSH1 0x0 PUSH3 0x1C22 DUP6 PUSH3 0x862 JUMP JUMPDEST PUSH1 0x1 PUSH1 0x1 PUSH1 0xA0 SHL SUB AND EQ PUSH3 0x1C36 JUMPI PUSH1 0x0 DUP1 REVERT JUMPDEST PUSH1 0x1 PUSH1 0x1 PUSH1 0xA0 SHL SUB DUP2 AND PUSH3 0x1CCC JUMPI PUSH1 0x0 DUP5 PUSH1 0x40 MLOAD PUSH1 0x20 ADD PUSH3 0x1C5A SWAP2 SWAP1 PUSH3 0x3168 JUMP JUMPDEST PUSH1 0x40 MLOAD PUSH1 0x20 DUP2 DUP4 SUB SUB DUP2 MSTORE SWAP1 PUSH1 0x40 MSTORE DUP1 MLOAD SWAP1 PUSH1 0x20 ADD KECCAK256 SWAP1 POP DUP1 DUP7 DUP7 DUP7 DUP7 PUSH1 0x40 MLOAD PUSH3 0x1C85 SWAP1 PUSH3 0x2CD3 JUMP JUMPDEST PUSH3 0x1C94 SWAP5 SWAP4 SWAP3 SWAP2 SWAP1 PUSH3 0x385F JUMP JUMPDEST DUP2 SWAP1 PUSH1 0x40 MLOAD DUP1 SWAP2 SUB SWAP1 PUSH1 0x0 CREATE2 SWAP1 POP DUP1 ISZERO DUP1 ISZERO PUSH3 0x1CB5 JUMPI RETURNDATASIZE PUSH1 0x0 DUP1 RETURNDATACOPY RETURNDATASIZE PUSH1 0x0 REVERT JUMPDEST POP SWAP2 POP PUSH3 0x1CC5 DUP6 PUSH1 0x1 PUSH3 0x2819 JUMP JUMPDEST POP PUSH3 0x1CEE JUMP JUMPDEST PUSH1 0x1 PUSH1 0x1 PUSH1 0xA0 SHL SUB DUP2 AND EXTCODESIZE PUSH3 0x1CE1 JUMPI PUSH1 0x0 DUP1 REVERT JUMPDEST PUSH3 0x1CEE DUP5 PUSH1 0x2 PUSH3 0x2819 JUMP JUMPDEST PUSH3 0x1CFA DUP5 DUP3 PUSH3 0x284F JUMP JUMPDEST PUSH32 0xBF90B5A1EC9763E8BF4B9245CEF0C28DB92BAB309FC2C5177F17814F38246938 DUP5 DUP3 PUSH1 0x40 MLOAD PUSH3 0x1D2D SWAP3 SWAP2 SWAP1 PUSH3 0x389F JUMP JUMPDEST PUSH1 0x40 MLOAD DUP1 SWAP2 SUB SWAP1 LOG1 POP POP POP POP POP JUMP JUMPDEST PUSH1 0x0 PUSH3 0x1D49 DUP5 PUSH3 0x862 JUMP JUMPDEST SWAP1 POP PUSH1 0x1 PUSH1 0x1 PUSH1 0xA0 SHL SUB DUP2 AND PUSH3 0x1D5F JUMPI PUSH1 0x0 DUP1 REVERT JUMPDEST PUSH1 0x2 PUSH3 0x1D6C DUP6 PUSH3 0x22AA JUMP JUMPDEST PUSH1 0x2 DUP2 GT ISZERO PUSH3 0x1D80 JUMPI PUSH3 0x1D80 PUSH3 0x34C8 JUMP JUMPDEST EQ ISZERO PUSH3 0x1DFF JUMPI PUSH1 0x40 DUP1 MLOAD PUSH1 0x1 PUSH1 0x1 PUSH1 0xA0 SHL SUB DUP6 AND PUSH1 0x24 DUP3 ADD MSTORE PUSH1 0x44 DUP1 DUP3 ADD DUP6 SWAP1 MSTORE DUP3 MLOAD DUP1 DUP4 SUB SWAP1 SWAP2 ADD DUP2 MSTORE PUSH1 0x64 SWAP1 SWAP2 ADD DUP3 MSTORE PUSH1 0x20 DUP1 DUP3 ADD DUP1 MLOAD PUSH1 0x1 PUSH1 0x1 PUSH1 0xE0 SHL SUB AND PUSH4 0xA9059CBB PUSH1 0xE0 SHL OR SWAP1 MSTORE DUP3 MLOAD DUP1 DUP5 ADD SWAP1 SWAP4 MSTORE PUSH1 0x9 DUP4 MSTORE PUSH9 0x1352539517D1905253 PUSH1 0xBA SHL SWAP1 DUP4 ADD MSTORE PUSH3 0x1DF9 SWAP2 DUP4 SWAP2 SWAP1 PUSH3 0x2865 JUMP JUMPDEST PUSH3 0x499 JUMP JUMPDEST PUSH1 0x40 MLOAD PUSH4 0x40C10F19 PUSH1 0xE0 SHL DUP2 MSTORE PUSH1 0x1 PUSH1 0x1 PUSH1 0xA0 SHL SUB DUP5 DUP2 AND PUSH1 0x4 DUP4 ADD MSTORE PUSH1 0x24 DUP3 ADD DUP5 SWAP1 MSTORE DUP3 AND SWAP1 PUSH4 0x40C10F19 SWAP1 PUSH1 0x44 ADD PUSH1 0x0 PUSH1 0x40 MLOAD DUP1 DUP4 SUB DUP2 PUSH1 0x0 DUP8 DUP1 EXTCODESIZE ISZERO DUP1 ISZERO PUSH3 0x1E4A JUMPI PUSH1 0x0 DUP1 REVERT JUMPDEST POP GAS CALL ISZERO DUP1 ISZERO PUSH3 0x1E5F JUMPI RETURNDATASIZE PUSH1 0x0 DUP1 RETURNDATACOPY RETURNDATASIZE PUSH1 0x0 REVERT JUMPDEST POP POP POP POP POP POP POP POP JUMP JUMPDEST PUSH1 0x0 PUSH32 0xC4E632779A6A7838736DD7E5E6A0EADF171DD37DFB6230720E265576DFCF42BB DUP3 PUSH1 0x40 MLOAD PUSH1 0x20 ADD PUSH3 0x1BB5 SWAP3 SWAP2 SWAP1 PUSH3 0x3837 JUMP JUMPDEST POP JUMP JUMPDEST DUP2 MLOAD DUP2 DUP2 LT ISZERO PUSH3 0x1EB3 JUMPI PUSH1 0x0 DUP1 REVERT JUMPDEST PUSH1 0x0 DUP3 GT PUSH3 0x1EC1 JUMPI PUSH1 0x0 DUP1 REVERT JUMPDEST PUSH3 0x1ECD DUP5 DUP4 PUSH3 0x28FE JUMP JUMPDEST PUSH3 0x1ED9 DUP5 DUP3 PUSH3 0x290D JUMP JUMPDEST PUSH1 0x0 JUMPDEST DUP2 DUP2 LT ISZERO PUSH3 0x6F0 JUMPI PUSH1 0x0 DUP5 DUP3 DUP2 MLOAD DUP2 LT PUSH3 0x1EFC JUMPI PUSH3 0x1EFC PUSH3 0x3479 JUMP JUMPDEST PUSH1 0x20 MUL PUSH1 0x20 ADD ADD MLOAD SWAP1 POP PUSH3 0x1F12 DUP7 DUP3 PUSH3 0x1AEC JUMP JUMPDEST ISZERO PUSH3 0x1F1D JUMPI PUSH1 0x0 DUP1 REVERT JUMPDEST PUSH3 0x1F2A DUP7 DUP4 DUP4 PUSH3 0x291C JUMP JUMPDEST PUSH3 0x1F38 DUP7 DUP3 PUSH1 0x1 PUSH3 0x292C JUMP JUMPDEST POP DUP1 PUSH3 0x1F45 DUP2 PUSH3 0x3186 JUMP JUMPDEST SWAP2 POP POP PUSH3 0x1EDC JUMP JUMPDEST PUSH32 0x67CBDFF49954077D2DD5637524B03BFE3E6506D456859017A888FAD567E1AF03 PUSH1 0x0 SWAP1 DUP2 MSTORE PUSH1 0x20 MSTORE PUSH32 0x6F01C2F096E745C2A207FBF93BABD5E7EE6ACFD26F0F34A0E4AC68373C21D0E SLOAD SWAP1 JUMP JUMPDEST PUSH32 0x67CBDFF49954077D2DD5637524B03BFE3E6506D456859017A888FAD567E1AF03 PUSH1 0x0 SWAP1 DUP2 MSTORE PUSH1 0x20 MSTORE PUSH32 0x6F01C2F096E745C2A207FBF93BABD5E7EE6ACFD26F0F34A0E4AC68373C21D0E SSTORE JUMP JUMPDEST DUP2 MLOAD DUP2 DUP2 LT ISZERO PUSH3 0x1FF9 JUMPI PUSH1 0x0 DUP1 REVERT JUMPDEST PUSH1 0x0 DUP3 GT PUSH3 0x2007 JUMPI PUSH1 0x0 DUP1 REVERT JUMPDEST PUSH3 0x2013 DUP5 DUP4 PUSH3 0x293C JUMP JUMPDEST PUSH3 0x201F DUP5 DUP3 PUSH3 0x294B JUMP JUMPDEST PUSH1 0x0 JUMPDEST DUP2 DUP2 LT ISZERO PUSH3 0x6F0 JUMPI PUSH1 0x0 DUP5 DUP3 DUP2 MLOAD DUP2 LT PUSH3 0x2042 JUMPI PUSH3 0x2042 PUSH3 0x3479 JUMP JUMPDEST PUSH1 0x20 MUL PUSH1 0x20 ADD ADD MLOAD SWAP1 POP PUSH3 0x2058 DUP7 DUP3 PUSH3 0x295A JUMP JUMPDEST ISZERO PUSH3 0x2063 JUMPI PUSH1 0x0 DUP1 REVERT JUMPDEST PUSH3 0x2070 DUP7 DUP4 DUP4 PUSH3 0x296C JUMP JUMPDEST PUSH3 0x207E DUP7 DUP3 PUSH1 0x1 PUSH3 0x2990 JUMP JUMPDEST POP DUP1 PUSH3 0x208B DUP2 PUSH3 0x3186 JUMP JUMPDEST SWAP2 POP POP PUSH3 0x2022 JUMP JUMPDEST PUSH32 0x5369FB791F26307F8E69B07625302CCAC6930AF09AB22D753B17D2042E9992E7 PUSH1 0x0 SWAP1 DUP2 MSTORE PUSH1 0x20 MSTORE PUSH32 0x7174C149A4F7627AC1DD39B679BD42F12FC4E8D7E850B055662BBEE7188DA10 SLOAD SWAP1 JUMP JUMPDEST PUSH32 0x5369FB791F26307F8E69B07625302CCAC6930AF09AB22D753B17D2042E9992E7 PUSH1 0x0 SWAP1 DUP2 MSTORE PUSH1 0x20 MSTORE PUSH32 0x7174C149A4F7627AC1DD39B679BD42F12FC4E8D7E850B055662BBEE7188DA10 SSTORE JUMP JUMPDEST DUP2 MLOAD DUP2 DUP2 LT ISZERO PUSH3 0x213F JUMPI PUSH1 0x0 DUP1 REVERT JUMPDEST PUSH1 0x0 DUP3 GT PUSH3 0x214D JUMPI PUSH1 0x0 DUP1 REVERT JUMPDEST PUSH3 0x2159 DUP5 DUP4 PUSH3 0x29A0 JUMP JUMPDEST PUSH3 0x2165 DUP5 DUP3 PUSH3 0x29AF JUMP JUMPDEST PUSH1 0x0 JUMPDEST DUP2 DUP2 LT ISZERO PUSH3 0x6F0 JUMPI PUSH1 0x0 DUP5 DUP3 DUP2 MLOAD DUP2 LT PUSH3 0x2188 JUMPI PUSH3 0x2188 PUSH3 0x3479 JUMP JUMPDEST PUSH1 0x20 MUL PUSH1 0x20 ADD ADD MLOAD SWAP1 POP PUSH3 0x219E DUP7 DUP3 PUSH3 0x29BE JUMP JUMPDEST ISZERO PUSH3 0x21A9 JUMPI PUSH1 0x0 DUP1 REVERT JUMPDEST PUSH3 0x21B6 DUP7 DUP4 DUP4 PUSH3 0x29D0 JUMP JUMPDEST PUSH3 0x21C4 DUP7 DUP3 PUSH1 0x1 PUSH3 0x29E0 JUMP JUMPDEST POP DUP1 PUSH3 0x21D1 DUP2 PUSH3 0x3186 JUMP JUMPDEST SWAP2 POP POP PUSH3 0x2168 JUMP JUMPDEST PUSH3 0x1EA0 PUSH32 0x360894A13BA1A3210667C828492DB98DCA3E2076CC3735A920A3CA505D382BBC DUP3 PUSH3 0x29F0 JUMP JUMPDEST PUSH1 0x0 PUSH3 0x85C PUSH3 0x3AD DUP4 PUSH3 0x2A1E JUMP JUMPDEST PUSH1 0x0 PUSH3 0x1AFE PUSH3 0x1D8 DUP5 DUP5 PUSH3 0x2A5A JUMP JUMPDEST PUSH1 0x0 PUSH3 0x85C PUSH3 0x3AD DUP4 PUSH3 0x2A9D JUMP JUMPDEST PUSH1 0x40 DUP1 MLOAD PUSH32 0x957705A374326B30F4A1069C936D736CC9993ED6C820B4E0E2FD94A8BECA0D1D PUSH1 0x20 DUP3 ADD MSTORE SWAP1 DUP2 ADD DUP3 SWAP1 MSTORE PUSH1 0x0 SWAP1 PUSH1 0x60 ADD PUSH3 0x1BB5 JUMP JUMPDEST PUSH1 0x0 PUSH3 0x85C PUSH3 0x3AD DUP4 PUSH3 0x2AD9 JUMP JUMPDEST PUSH1 0x0 PUSH3 0x85C PUSH3 0x3AD DUP4 PUSH3 0x2B15 JUMP JUMPDEST PUSH1 0x0 PUSH3 0x1AFE PUSH3 0x1D8 DUP5 DUP5 PUSH3 0x2B51 JUMP JUMPDEST PUSH1 0x0 PUSH3 0x22BB PUSH3 0x3AD DUP4 PUSH3 0x2B94 JUMP JUMPDEST PUSH1 0x2 DUP2 GT ISZERO PUSH3 0x85C JUMPI PUSH3 0x85C PUSH3 0x34C8 JUMP JUMPDEST PUSH1 0x40 MLOAD PUSH32 0x19457468657265756D205369676E6564204D6573736167653A0A333200000000 PUSH1 0x20 DUP3 ADD MSTORE PUSH1 0x3C DUP2 ADD DUP3 SWAP1 MSTORE PUSH1 0x0 SWAP1 PUSH1 0x5C ADD PUSH3 0x1BB5 JUMP JUMPDEST PUSH1 0x0 DUP2 MLOAD PUSH1 0x41 EQ PUSH3 0x231C JUMPI PUSH1 0x0 DUP1 REVERT JUMPDEST PUSH1 0x20 DUP3 ADD MLOAD PUSH1 0x40 DUP4 ADD MLOAD PUSH1 0x60 DUP5 ADD MLOAD PUSH1 0x0 BYTE PUSH32 0x7FFFFFFFFFFFFFFFFFFFFFFFFFFFFFFF5D576E7357A4501DDFE92F46681B20A0 DUP3 GT ISZERO PUSH3 0x235C JUMPI PUSH1 0x0 DUP1 REVERT JUMPDEST DUP1 PUSH1 0xFF AND PUSH1 0x1B EQ DUP1 PUSH3 0x2372 JUMPI POP DUP1 PUSH1 0xFF AND PUSH1 0x1C EQ JUMPDEST PUSH3 0x237C JUMPI PUSH1 0x0 DUP1 REVERT JUMPDEST PUSH1 0x40 DUP1 MLOAD PUSH1 0x0 DUP1 DUP3 MSTORE PUSH1 0x20 DUP3 ADD DUP1 DUP5 MSTORE DUP10 SWAP1 MSTORE PUSH1 0xFF DUP5 AND SWAP3 DUP3 ADD SWAP3 SWAP1 SWAP3 MSTORE PUSH1 0x60 DUP2 ADD DUP6 SWAP1 MSTORE PUSH1 0x80 DUP2 ADD DUP5 SWAP1 MSTORE PUSH1 0x1 SWAP1 PUSH1 0xA0 ADD PUSH1 0x20 PUSH1 0x40 MLOAD PUSH1 0x20 DUP2 SUB SWAP1 DUP1 DUP5 SUB SWAP1 DUP6 GAS STATICCALL ISZERO DUP1 ISZERO PUSH3 0x23D1 JUMPI RETURNDATASIZE PUSH1 0x0 DUP1 RETURNDATACOPY RETURNDATASIZE PUSH1 0x0 REVERT JUMPDEST POP POP POP PUSH1 0x20 PUSH1 0x40 MLOAD SUB MLOAD SWAP5 POP DUP5 PUSH1 0x1 PUSH1 0x1 PUSH1 0xA0 SHL SUB AND EQ ISZERO PUSH3 0x23F3 JUMPI PUSH1 0x0 DUP1 REVERT JUMPDEST POP POP POP SWAP3 SWAP2 POP POP JUMP JUMPDEST PUSH1 0x0 DUP1 JUMPDEST PUSH1 0x1 DUP4 MLOAD PUSH3 0x2410 SWAP2 SWAP1 PUSH3 0x38CB JUMP JUMPDEST DUP2 LT ISZERO PUSH3 0x2492 JUMPI DUP3 PUSH3 0x2426 DUP3 PUSH1 0x1 PUSH3 0x314D JUMP JUMPDEST DUP2 MLOAD DUP2 LT PUSH3 0x2439 JUMPI PUSH3 0x2439 PUSH3 0x3479 JUMP JUMPDEST PUSH1 0x20 MUL PUSH1 0x20 ADD ADD MLOAD PUSH1 0x1 PUSH1 0x1 PUSH1 0xA0 SHL SUB AND DUP4 DUP3 DUP2 MLOAD DUP2 LT PUSH3 0x245F JUMPI PUSH3 0x245F PUSH3 0x3479 JUMP JUMPDEST PUSH1 0x20 MUL PUSH1 0x20 ADD ADD MLOAD PUSH1 0x1 PUSH1 0x1 PUSH1 0xA0 SHL SUB AND LT PUSH3 0x247F JUMPI POP PUSH1 0x0 SWAP3 SWAP2 POP POP JUMP JUMPDEST PUSH3 0x248A DUP2 PUSH3 0x3186 JUMP JUMPDEST SWAP1 POP PUSH3 0x2400 JUMP JUMPDEST POP PUSH1 0x1 SWAP3 SWAP2 POP POP JUMP JUMPDEST PUSH1 0x0 DUP1 PUSH3 0x24A9 DUP5 PUSH3 0x2229 JUMP JUMPDEST SWAP1 POP PUSH1 0x0 DUP1 JUMPDEST DUP5 MLOAD DUP2 LT ISZERO PUSH3 0x2523 JUMPI PUSH3 0x24E1 DUP7 DUP7 DUP4 DUP2 MLOAD DUP2 LT PUSH3 0x24D3 JUMPI PUSH3 0x24D3 PUSH3 0x3479 JUMP JUMPDEST PUSH1 0x20 MUL PUSH1 0x20 ADD ADD MLOAD PUSH3 0x295A JUMP JUMPDEST DUP1 ISZERO PUSH3 0x24FB JUMPI POP DUP3 PUSH3 0x24F5 DUP4 PUSH3 0x3186 JUMP JUMPDEST SWAP3 POP DUP3 LT ISZERO JUMPDEST ISZERO PUSH3 0x250E JUMPI PUSH1 0x1 SWAP4 POP POP POP POP PUSH3 0x85C JUMP JUMPDEST DUP1 PUSH3 0x251A DUP2 PUSH3 0x3186 JUMP JUMPDEST SWAP2 POP POP PUSH3 0x24AF JUMP JUMPDEST POP PUSH1 0x0 SWAP6 SWAP5 POP POP POP POP POP JUMP JUMPDEST PUSH1 0x0 DUP1 PUSH3 0x253C PUSH3 0x1F4E JUMP JUMPDEST SWAP1 POP PUSH1 0x0 PUSH3 0x254E PUSH1 0x1 PUSH1 0x10 PUSH3 0x314D JUMP JUMPDEST SWAP1 POP PUSH1 0x0 DUP2 DUP4 GT PUSH3 0x2562 JUMPI PUSH1 0x0 PUSH3 0x256E JUMP JUMPDEST PUSH3 0x256E DUP3 DUP5 PUSH3 0x38CB JUMP JUMPDEST SWAP1 POP PUSH3 0x257B DUP4 PUSH3 0x38E5 JUMP JUMPDEST SWAP3 POP JUMPDEST DUP1 DUP4 GT ISZERO PUSH3 0x25B7 JUMPI PUSH3 0x25A0 DUP4 PUSH3 0x2597 DUP2 PUSH3 0x38E5 JUMP JUMPDEST SWAP5 POP DUP7 PUSH3 0x249B JUMP JUMPDEST ISZERO PUSH3 0x25B1 JUMPI POP PUSH1 0x1 SWAP5 SWAP4 POP POP POP POP JUMP JUMPDEST PUSH3 0x257E JUMP JUMPDEST POP PUSH1 0x0 SWAP5 SWAP4 POP POP POP POP JUMP JUMPDEST PUSH1 0x0 DUP1 PUSH3 0x25CF PUSH3 0x2094 JUMP JUMPDEST SWAP1 POP PUSH1 0x0 PUSH3 0x25E1 PUSH1 0x1 PUSH1 0x10 PUSH3 0x314D JUMP JUMPDEST SWAP1 POP PUSH1 0x0 DUP2 DUP4 GT PUSH3 0x25F5 JUMPI PUSH1 0x0 PUSH3 0x2601 JUMP JUMPDEST PUSH3 0x2601 DUP3 DUP5 PUSH3 0x38CB JUMP JUMPDEST SWAP1 POP JUMPDEST DUP1 DUP4 GT ISZERO PUSH3 0x25B7 JUMPI PUSH3 0x2626 DUP4 PUSH3 0x261D DUP2 PUSH3 0x38E5 JUMP JUMPDEST SWAP5 POP DUP7 PUSH3 0x2BCB JUMP JUMPDEST ISZERO PUSH3 0x2637 JUMPI POP PUSH1 0x1 SWAP5 SWAP4 POP POP POP POP JUMP JUMPDEST PUSH3 0x2604 JUMP JUMPDEST PUSH3 0x264C PUSH3 0x1B31 DUP4 PUSH3 0x223A JUMP JUMPDEST POP POP JUMP JUMPDEST PUSH1 0x0 PUSH32 0x63FA879CB478FDDF1DE08D49E29115FB768866711BC799FF9AB419A7F16C9AFB DUP4 DUP4 PUSH1 0x40 MLOAD PUSH1 0x20 ADD PUSH3 0x2689 SWAP4 SWAP3 SWAP2 SWAP1 PUSH3 0x38FF JUMP JUMPDEST PUSH1 0x40 MLOAD PUSH1 0x20 DUP2 DUP4 SUB SUB DUP2 MSTORE SWAP1 PUSH1 0x40 MSTORE DUP1 MLOAD SWAP1 PUSH1 0x20 ADD KECCAK256 SWAP1 POP SWAP3 SWAP2 POP POP JUMP JUMPDEST PUSH1 0x40 DUP1 MLOAD PUSH32 0x3CED7A8CAF1111E0FBF4B784C5B41AEBD0F2389D9F2F64D5C3424AEED3ADBD3C PUSH1 0x20 DUP3 ADD MSTORE SWAP1 DUP2 ADD DUP5 SWAP1 MSTORE PUSH1 0x60 DUP1 DUP3 ADD DUP5 SWAP1 MSTORE DUP3 SWAP1 SHL PUSH12 0xFFFFFFFFFFFFFFFFFFFFFFFF NOT AND PUSH1 0x80 DUP3 ADD MSTORE PUSH1 0x0 SWAP1 PUSH1 0x94 ADD PUSH1 0x40 MLOAD PUSH1 0x20 DUP2 DUP4 SUB SUB DUP2 MSTORE SWAP1 PUSH1 0x40 MSTORE DUP1 MLOAD SWAP1 PUSH1 0x20 ADD KECCAK256 SWAP1 POP SWAP4 SWAP3 POP POP POP JUMP JUMPDEST PUSH1 0x40 DUP1 MLOAD PUSH32 0xBAEA1C6C0F16A0A340B10A9E980806696A68DDBB5E8361FD64630DD21ABF515F PUSH1 0x20 DUP3 ADD MSTORE SWAP1 DUP2 ADD DUP4 SWAP1 MSTORE PUSH1 0x60 DUP2 ADD DUP3 SWAP1 MSTORE PUSH1 0x0 SWAP1 PUSH1 0x80 ADD PUSH3 0x2689 JUMP JUMPDEST PUSH1 0x40 DUP1 MLOAD PUSH32 0x79BD914ADDD90BD67AD800BF0230BB85FFDEF5AEBA5FD8249F116D3F17F4FB4B PUSH1 0x20 DUP3 ADD MSTORE SWAP1 DUP2 ADD DUP3 SWAP1 MSTORE PUSH1 0x0 SWAP1 PUSH1 0x60 ADD PUSH3 0x1BB5 JUMP JUMPDEST PUSH1 0x40 DUP1 MLOAD PUSH32 0x5112EF894367DE1270CFAE12AFCD2285C225830EB8F74E7E938F721BB510CBA PUSH1 0x20 DUP3 ADD MSTORE SWAP1 DUP2 ADD DUP3 SWAP1 MSTORE PUSH1 0x0 SWAP1 PUSH1 0x60 ADD PUSH3 0x1BB5 JUMP JUMPDEST PUSH1 0x40 DUP1 MLOAD PUSH32 0xF23EC0BB4210EDD5CBA85AFD05127EFCD2FC6A781BFED49188DA1081670B22D8 PUSH1 0x20 DUP3 ADD MSTORE SWAP1 DUP2 ADD DUP4 SWAP1 MSTORE PUSH1 0x60 DUP2 ADD DUP3 SWAP1 MSTORE PUSH1 0x0 SWAP1 PUSH1 0x80 ADD PUSH3 0x2689 JUMP JUMPDEST PUSH3 0x264C PUSH3 0x2828 DUP4 PUSH3 0x2B94 JUMP JUMPDEST DUP3 PUSH1 0x2 DUP2 GT ISZERO PUSH3 0x283D JUMPI PUSH3 0x283D PUSH3 0x34C8 JUMP JUMPDEST PUSH1 0x0 SWAP2 DUP3 MSTORE PUSH1 0x20 DUP3 SWAP1 MSTORE PUSH1 0x40 SWAP1 SWAP2 KECCAK256 SSTORE JUMP JUMPDEST PUSH3 0x264C PUSH3 0x285E DUP4 PUSH3 0x1E69 JUMP JUMPDEST DUP3 PUSH3 0x29F0 JUMP JUMPDEST PUSH1 0x0 DUP1 DUP5 PUSH1 0x1 PUSH1 0x1 PUSH1 0xA0 SHL SUB AND DUP5 PUSH1 0x40 MLOAD PUSH3 0x2882 SWAP2 SWAP1 PUSH3 0x3168 JUMP JUMPDEST PUSH1 0x0 PUSH1 0x40 MLOAD DUP1 DUP4 SUB DUP2 PUSH1 0x0 DUP7 GAS CALL SWAP2 POP POP RETURNDATASIZE DUP1 PUSH1 0x0 DUP2 EQ PUSH3 0x28C1 JUMPI PUSH1 0x40 MLOAD SWAP2 POP PUSH1 0x1F NOT PUSH1 0x3F RETURNDATASIZE ADD AND DUP3 ADD PUSH1 0x40 MSTORE RETURNDATASIZE DUP3 MSTORE RETURNDATASIZE PUSH1 0x0 PUSH1 0x20 DUP5 ADD RETURNDATACOPY PUSH3 0x28C6 JUMP JUMPDEST PUSH1 0x60 SWAP2 POP JUMPDEST POP SWAP2 POP SWAP2 POP DUP2 DUP1 ISZERO PUSH3 0x28F4 JUMPI POP DUP1 MLOAD ISZERO DUP1 PUSH3 0x28F4 JUMPI POP DUP1 DUP1 PUSH1 0x20 ADD SWAP1 MLOAD DUP2 ADD SWAP1 PUSH3 0x28F4 SWAP2 SWAP1 PUSH3 0x35E0 JUMP JUMPDEST PUSH3 0x6F0 JUMPI PUSH1 0x0 DUP1 REVERT JUMPDEST PUSH3 0x264C PUSH3 0x1B5A DUP4 PUSH3 0x275E JUMP JUMPDEST PUSH3 0x264C PUSH3 0x1B5A DUP4 PUSH3 0x279A JUMP JUMPDEST PUSH3 0x158A PUSH3 0x285E DUP5 DUP5 PUSH3 0x27D6 JUMP JUMPDEST PUSH3 0x158A PUSH3 0x1B31 DUP5 DUP5 PUSH3 0x2650 JUMP JUMPDEST PUSH3 0x264C PUSH3 0x1B5A DUP4 PUSH3 0x2A9D JUMP JUMPDEST PUSH3 0x264C PUSH3 0x1B5A DUP4 PUSH3 0x2A1E JUMP JUMPDEST PUSH1 0x0 PUSH3 0x1AFE PUSH3 0x287 DUP5 DUP5 PUSH3 0x2C53 JUMP JUMPDEST PUSH1 0x1 PUSH1 0x1 PUSH1 0xA0 SHL SUB DUP2 AND PUSH3 0x2980 JUMPI PUSH1 0x0 DUP1 REVERT JUMPDEST PUSH3 0x158A PUSH3 0x285E DUP5 DUP5 PUSH3 0x2A5A JUMP JUMPDEST PUSH3 0x158A PUSH3 0x1B31 DUP5 DUP5 PUSH3 0x2C53 JUMP JUMPDEST PUSH3 0x264C PUSH3 0x1B5A DUP4 PUSH3 0x2AD9 JUMP JUMPDEST PUSH3 0x264C PUSH3 0x1B5A DUP4 PUSH3 0x2B15 JUMP JUMPDEST PUSH1 0x0 PUSH3 0x1AFE PUSH3 0x287 DUP5 DUP5 PUSH3 0x2C8C JUMP JUMPDEST PUSH3 0x158A PUSH3 0x285E DUP5 DUP5 PUSH3 0x2B51 JUMP JUMPDEST PUSH3 0x158A PUSH3 0x1B31 DUP5 DUP5 PUSH3 0x2C8C JUMP JUMPDEST PUSH1 0x0 SWAP2 DUP3 MSTORE PUSH1 0x2 PUSH1 0x20 MSTORE PUSH1 0x40 SWAP1 SWAP2 KECCAK256 DUP1 SLOAD PUSH1 0x1 PUSH1 0x1 PUSH1 0xA0 SHL SUB NOT AND PUSH1 0x1 PUSH1 0x1 PUSH1 0xA0 SHL SUB SWAP1 SWAP3 AND SWAP2 SWAP1 SWAP2 OR SWAP1 SSTORE JUMP JUMPDEST PUSH1 0x40 DUP1 MLOAD PUSH32 0x4EDEDBB904ACD1258C7B9A6B12F5A8A8870A8EC295809CF35DC1F098018D4D20 PUSH1 0x20 DUP3 ADD MSTORE SWAP1 DUP2 ADD DUP3 SWAP1 MSTORE PUSH1 0x0 SWAP1 PUSH1 0x60 ADD PUSH3 0x1BB5 JUMP JUMPDEST PUSH1 0x40 DUP1 MLOAD PUSH32 0x2016836A56B71F0D02689E69E326F4F4C1B9057164EF592671CF0D37C8040C0 PUSH1 0x20 DUP3 ADD MSTORE SWAP1 DUP2 ADD DUP4 SWAP1 MSTORE PUSH1 0x60 DUP2 ADD DUP3 SWAP1 MSTORE PUSH1 0x0 SWAP1 PUSH1 0x80 ADD PUSH3 0x2689 JUMP JUMPDEST PUSH1 0x40 DUP1 MLOAD PUSH32 0x2BD864201F87CE8CC2D875453B39CC3E981D8EE12E4B7D4B7492FD9404BD8229 PUSH1 0x20 DUP3 ADD MSTORE SWAP1 DUP2 ADD DUP3 SWAP1 MSTORE PUSH1 0x0 SWAP1 PUSH1 0x60 ADD PUSH3 0x1BB5 JUMP JUMPDEST PUSH1 0x40 DUP1 MLOAD PUSH32 0xC0E594A04CE768761133F7238CD95A55441F8EE2D50A03E7D5C44FB26C04D76F PUSH1 0x20 DUP3 ADD MSTORE SWAP1 DUP2 ADD DUP3 SWAP1 MSTORE PUSH1 0x0 SWAP1 PUSH1 0x60 ADD PUSH3 0x1BB5 JUMP JUMPDEST PUSH1 0x40 DUP1 MLOAD PUSH32 0x6199FEBC552B750A8CF661862E77CB2DBED9F3FB6FCC10BD34F8FF9E1992362B PUSH1 0x20 DUP3 ADD MSTORE SWAP1 DUP2 ADD DUP3 SWAP1 MSTORE PUSH1 0x0 SWAP1 PUSH1 0x60 ADD PUSH3 0x1BB5 JUMP JUMPDEST PUSH1 0x40 DUP1 MLOAD PUSH32 0x46A52CF33029DE9F84853745A87AF28464C80BF0346DF1B32E205FC73319F622 PUSH1 0x20 DUP3 ADD MSTORE SWAP1 DUP2 ADD DUP4 SWAP1 MSTORE PUSH1 0x60 DUP2 ADD DUP3 SWAP1 MSTORE PUSH1 0x0 SWAP1 PUSH1 0x80 ADD PUSH3 0x2689 JUMP JUMPDEST PUSH1 0x0 PUSH32 0xA80D2259AF55890618EC2EEB3AC72DE4BDBA22529BB14845D8A3D712D1C3F621 DUP3 PUSH1 0x40 MLOAD PUSH1 0x20 ADD PUSH3 0x1BB5 SWAP3 SWAP2 SWAP1 PUSH3 0x3837 JUMP JUMPDEST PUSH1 0x0 DUP1 PUSH3 0x2BD9 DUP5 PUSH3 0x2276 JUMP JUMPDEST SWAP1 POP PUSH1 0x0 DUP1 JUMPDEST DUP5 MLOAD DUP2 LT ISZERO PUSH3 0x2523 JUMPI PUSH3 0x2C11 DUP7 DUP7 DUP4 DUP2 MLOAD DUP2 LT PUSH3 0x2C03 JUMPI PUSH3 0x2C03 PUSH3 0x3479 JUMP JUMPDEST PUSH1 0x20 MUL PUSH1 0x20 ADD ADD MLOAD PUSH3 0x29BE JUMP JUMPDEST DUP1 ISZERO PUSH3 0x2C2B JUMPI POP DUP3 PUSH3 0x2C25 DUP4 PUSH3 0x3186 JUMP JUMPDEST SWAP3 POP DUP3 LT ISZERO JUMPDEST ISZERO PUSH3 0x2C3E JUMPI PUSH1 0x1 SWAP4 POP POP POP POP PUSH3 0x85C JUMP JUMPDEST DUP1 PUSH3 0x2C4A DUP2 PUSH3 0x3186 JUMP JUMPDEST SWAP2 POP POP PUSH3 0x2BDF JUMP JUMPDEST PUSH1 0x0 PUSH32 0xFFBBD206DAD2A77ED223A0FF3D2DCAC502BC8C9A91FA18140757561E84F365C0 DUP4 DUP4 PUSH1 0x40 MLOAD PUSH1 0x20 ADD PUSH3 0x2689 SWAP4 SWAP3 SWAP2 SWAP1 PUSH3 0x38FF JUMP JUMPDEST PUSH1 0x0 PUSH32 0x934404A25B467BA4B73107CF91BAADB1313F82988678493324B4422169953586 DUP4 DUP4 PUSH1 0x40 MLOAD PUSH1 0x20 ADD PUSH3 0x2689 SWAP4 SWAP3 SWAP2 SWAP1 PUSH3 0x38FF JUMP JUMPDEST PUSH2 0x2A6 DUP1 PUSH3 0x3928 DUP4 CODECOPY ADD SWAP1 JUMP JUMPDEST PUSH2 0x1726 DUP1 PUSH3 0x3BCE DUP4 CODECOPY ADD SWAP1 JUMP JUMPDEST PUSH1 0x0 DUP1 DUP4 PUSH1 0x1F DUP5 ADD SLT PUSH3 0x2CF4 JUMPI PUSH1 0x0 DUP1 REVERT JUMPDEST POP DUP2 CALLDATALOAD PUSH1 0x1 PUSH1 0x1 PUSH1 0x40 SHL SUB DUP2 GT ISZERO PUSH3 0x2D0C JUMPI PUSH1 0x0 DUP1 REVERT JUMPDEST PUSH1 0x20 DUP4 ADD SWAP2 POP DUP4 PUSH1 0x20 DUP3 DUP6 ADD ADD GT ISZERO PUSH3 0x2D25 JUMPI PUSH1 0x0 DUP1 REVERT JUMPDEST SWAP3 POP SWAP3 SWAP1 POP JUMP JUMPDEST PUSH1 0x0 DUP1 PUSH1 0x20 DUP4 DUP6 SUB SLT ISZERO PUSH3 0x2D40 JUMPI PUSH1 0x0 DUP1 REVERT JUMPDEST DUP3 CALLDATALOAD PUSH1 0x1 PUSH1 0x1 PUSH1 0x40 SHL SUB DUP2 GT ISZERO PUSH3 0x2D57 JUMPI PUSH1 0x0 DUP1 REVERT JUMPDEST PUSH3 0x2D65 DUP6 DUP3 DUP7 ADD PUSH3 0x2CE1 JUMP JUMPDEST SWAP1 SWAP7 SWAP1 SWAP6 POP SWAP4 POP POP POP POP JUMP JUMPDEST PUSH1 0x0 PUSH1 0x20 DUP3 DUP5 SUB SLT ISZERO PUSH3 0x2D84 JUMPI PUSH1 0x0 DUP1 REVERT JUMPDEST POP CALLDATALOAD SWAP2 SWAP1 POP JUMP JUMPDEST PUSH4 0x4E487B71 PUSH1 0xE0 SHL PUSH1 0x0 MSTORE PUSH1 0x41 PUSH1 0x4 MSTORE PUSH1 0x24 PUSH1 0x0 REVERT JUMPDEST PUSH1 0x40 MLOAD PUSH1 0x1F DUP3 ADD PUSH1 0x1F NOT AND DUP2 ADD PUSH1 0x1 PUSH1 0x1 PUSH1 0x40 SHL SUB DUP2 GT DUP3 DUP3 LT OR ISZERO PUSH3 0x2DCC JUMPI PUSH3 0x2DCC PUSH3 0x2D8B JUMP JUMPDEST PUSH1 0x40 MSTORE SWAP2 SWAP1 POP JUMP JUMPDEST PUSH1 0x0 PUSH1 0x1 PUSH1 0x1 PUSH1 0x40 SHL SUB DUP3 GT ISZERO PUSH3 0x2DF0 JUMPI PUSH3 0x2DF0 PUSH3 0x2D8B JUMP JUMPDEST POP PUSH1 0x1F ADD PUSH1 0x1F NOT AND PUSH1 0x20 ADD SWAP1 JUMP JUMPDEST PUSH1 0x0 DUP3 PUSH1 0x1F DUP4 ADD SLT PUSH3 0x2E10 JUMPI PUSH1 0x0 DUP1 REVERT JUMPDEST DUP2 CALLDATALOAD PUSH3 0x2E27 PUSH3 0x2E21 DUP3 PUSH3 0x2DD4 JUMP JUMPDEST PUSH3 0x2DA1 JUMP JUMPDEST DUP2 DUP2 MSTORE DUP5 PUSH1 0x20 DUP4 DUP7 ADD ADD GT ISZERO PUSH3 0x2E3D JUMPI PUSH1 0x0 DUP1 REVERT JUMPDEST DUP2 PUSH1 0x20 DUP6 ADD PUSH1 0x20 DUP4 ADD CALLDATACOPY PUSH1 0x0 SWAP2 DUP2 ADD PUSH1 0x20 ADD SWAP2 SWAP1 SWAP2 MSTORE SWAP4 SWAP3 POP POP POP JUMP JUMPDEST PUSH1 0x0 PUSH1 0x20 DUP3 DUP5 SUB SLT ISZERO PUSH3 0x2E6D JUMPI PUSH1 0x0 DUP1 REVERT JUMPDEST DUP2 CALLDATALOAD PUSH1 0x1 PUSH1 0x1 PUSH1 0x40 SHL SUB DUP2 GT ISZERO PUSH3 0x2E84 JUMPI PUSH1 0x0 DUP1 REVERT JUMPDEST PUSH3 0x1B18 DUP5 DUP3 DUP6 ADD PUSH3 0x2DFE JUMP JUMPDEST PUSH1 0x0 JUMPDEST DUP4 DUP2 LT ISZERO PUSH3 0x2EAF JUMPI DUP2 DUP2 ADD MLOAD DUP4 DUP3 ADD MSTORE PUSH1 0x20 ADD PUSH3 0x2E95 JUMP JUMPDEST DUP4 DUP2 GT ISZERO PUSH3 0x499 JUMPI POP POP PUSH1 0x0 SWAP2 ADD MSTORE JUMP JUMPDEST PUSH1 0x0 DUP2 MLOAD DUP1 DUP5 MSTORE PUSH3 0x2EDB DUP2 PUSH1 0x20 DUP7 ADD PUSH1 0x20 DUP7 ADD PUSH3 0x2E92 JUMP JUMPDEST PUSH1 0x1F ADD PUSH1 0x1F NOT AND SWAP3 SWAP1 SWAP3 ADD PUSH1 0x20 ADD SWAP3 SWAP2 POP POP JUMP JUMPDEST PUSH1 0x20 DUP2 MSTORE PUSH1 0x0 PUSH3 0x1AFE PUSH1 0x20 DUP4 ADD DUP5 PUSH3 0x2EC1 JUMP JUMPDEST PUSH1 0x1 PUSH1 0x1 PUSH1 0xA0 SHL SUB DUP2 AND DUP2 EQ PUSH3 0x1EA0 JUMPI PUSH1 0x0 DUP1 REVERT JUMPDEST PUSH1 0x0 DUP1 PUSH1 0x0 DUP1 PUSH1 0x60 DUP6 DUP8 SUB SLT ISZERO PUSH3 0x2F31 JUMPI PUSH1 0x0 DUP1 REVERT JUMPDEST DUP5 CALLDATALOAD PUSH3 0x2F3E DUP2 PUSH3 0x2F04 JUMP JUMPDEST SWAP4 POP PUSH1 0x20 DUP6 ADD CALLDATALOAD SWAP3 POP PUSH1 0x40 DUP6 ADD CALLDATALOAD PUSH1 0x1 PUSH1 0x1 PUSH1 0x40 SHL SUB DUP2 GT ISZERO PUSH3 0x2F61 JUMPI PUSH1 0x0 DUP1 REVERT JUMPDEST PUSH3 0x2F6F DUP8 DUP3 DUP9 ADD PUSH3 0x2CE1 JUMP JUMPDEST SWAP6 SWAP9 SWAP5 SWAP8 POP SWAP6 POP POP POP POP JUMP JUMPDEST PUSH1 0x0 DUP2 MLOAD DUP1 DUP5 MSTORE PUSH1 0x20 DUP1 DUP6 ADD SWAP5 POP DUP1 DUP5 ADD PUSH1 0x0 JUMPDEST DUP4 DUP2 LT ISZERO PUSH3 0x2FB6 JUMPI DUP2 MLOAD PUSH1 0x1 PUSH1 0x1 PUSH1 0xA0 SHL SUB AND DUP8 MSTORE SWAP6 DUP3 ADD SWAP6 SWAP1 DUP3 ADD SWAP1 PUSH1 0x1 ADD PUSH3 0x2F8F JUMP JUMPDEST POP SWAP5 SWAP6 SWAP5 POP POP POP POP POP JUMP JUMPDEST PUSH1 0x20 DUP2 MSTORE PUSH1 0x0 PUSH3 0x1AFE PUSH1 0x20 DUP4 ADD DUP5 PUSH3 0x2F7B JUMP JUMPDEST PUSH1 0x0 DUP1 PUSH1 0x40 DUP4 DUP6 SUB SLT ISZERO PUSH3 0x2FEA JUMPI PUSH1 0x0 DUP1 REVERT JUMPDEST DUP3 CALLDATALOAD PUSH1 0x1 PUSH1 0x1 PUSH1 0x40 SHL SUB DUP2 GT ISZERO PUSH3 0x3001 JUMPI PUSH1 0x0 DUP1 REVERT JUMPDEST PUSH3 0x300F DUP6 DUP3 DUP7 ADD PUSH3 0x2DFE JUMP JUMPDEST SWAP6 PUSH1 0x20 SWAP5 SWAP1 SWAP5 ADD CALLDATALOAD SWAP5 POP POP POP POP JUMP JUMPDEST PUSH1 0x0 PUSH1 0x1 PUSH1 0x1 PUSH1 0x40 SHL SUB DUP3 GT ISZERO PUSH3 0x303A JUMPI PUSH3 0x303A PUSH3 0x2D8B JUMP JUMPDEST POP PUSH1 0x5 SHL PUSH1 0x20 ADD SWAP1 JUMP JUMPDEST PUSH1 0x0 DUP1 PUSH1 0x40 DUP4 DUP6 SUB SLT ISZERO PUSH3 0x3058 JUMPI PUSH1 0x0 DUP1 REVERT JUMPDEST DUP3 CALLDATALOAD PUSH1 0x1 PUSH1 0x1 PUSH1 0x40 SHL SUB DUP1 DUP3 GT ISZERO PUSH3 0x3070 JUMPI PUSH1 0x0 DUP1 REVERT JUMPDEST PUSH3 0x307E DUP7 DUP4 DUP8 ADD PUSH3 0x2DFE JUMP JUMPDEST SWAP4 POP PUSH1 0x20 SWAP2 POP DUP2 DUP6 ADD CALLDATALOAD DUP2 DUP2 GT ISZERO PUSH3 0x3096 JUMPI PUSH1 0x0 DUP1 REVERT JUMPDEST DUP6 ADD PUSH1 0x1F DUP2 ADD DUP8 SGT PUSH3 0x30A8 JUMPI PUSH1 0x0 DUP1 REVERT JUMPDEST DUP1 CALLDATALOAD PUSH3 0x30B9 PUSH3 0x2E21 DUP3 PUSH3 0x301E JUMP JUMPDEST DUP2 DUP2 MSTORE PUSH1 0x5 SWAP2 SWAP1 SWAP2 SHL DUP3 ADD DUP5 ADD SWAP1 DUP5 DUP2 ADD SWAP1 DUP10 DUP4 GT ISZERO PUSH3 0x30D9 JUMPI PUSH1 0x0 DUP1 REVERT JUMPDEST DUP6 DUP5 ADD JUMPDEST DUP4 DUP2 LT ISZERO PUSH3 0x3116 JUMPI DUP1 CALLDATALOAD DUP7 DUP2 GT ISZERO PUSH3 0x30F7 JUMPI PUSH1 0x0 DUP1 DUP2 REVERT JUMPDEST PUSH3 0x3107 DUP13 DUP10 DUP4 DUP10 ADD ADD PUSH3 0x2DFE JUMP JUMPDEST DUP5 MSTORE POP SWAP2 DUP7 ADD SWAP2 DUP7 ADD PUSH3 0x30DD JUMP JUMPDEST POP DUP1 SWAP7 POP POP POP POP POP POP POP SWAP3 POP SWAP3 SWAP1 POP JUMP JUMPDEST DUP2 DUP4 DUP3 CALLDATACOPY PUSH1 0x0 SWAP2 ADD SWAP1 DUP2 MSTORE SWAP2 SWAP1 POP JUMP JUMPDEST PUSH4 0x4E487B71 PUSH1 0xE0 SHL PUSH1 0x0 MSTORE PUSH1 0x11 PUSH1 0x4 MSTORE PUSH1 0x24 PUSH1 0x0 REVERT JUMPDEST PUSH1 0x0 DUP3 NOT DUP3 GT ISZERO PUSH3 0x3163 JUMPI PUSH3 0x3163 PUSH3 0x3137 JUMP JUMPDEST POP ADD SWAP1 JUMP JUMPDEST PUSH1 0x0 DUP3 MLOAD PUSH3 0x317C DUP2 DUP5 PUSH1 0x20 DUP8 ADD PUSH3 0x2E92 JUMP JUMPDEST SWAP2 SWAP1 SWAP2 ADD SWAP3 SWAP2 POP POP JUMP JUMPDEST PUSH1 0x0 PUSH1 0x0 NOT DUP3 EQ ISZERO PUSH3 0x319D JUMPI PUSH3 0x319D PUSH3 0x3137 JUMP JUMPDEST POP PUSH1 0x1 ADD SWAP1 JUMP JUMPDEST PUSH1 0x0 DUP1 PUSH1 0x0 DUP1 PUSH1 0x0 PUSH1 0xA0 DUP7 DUP9 SUB SLT ISZERO PUSH3 0x31BD JUMPI PUSH1 0x0 DUP1 REVERT JUMPDEST DUP6 CALLDATALOAD PUSH1 0x1 PUSH1 0x1 PUSH1 0x40 SHL SUB DUP1 DUP3 GT ISZERO PUSH3 0x31D5 JUMPI PUSH1 0x0 DUP1 REVERT JUMPDEST PUSH3 0x31E3 DUP10 DUP4 DUP11 ADD PUSH3 0x2DFE JUMP JUMPDEST SWAP7 POP PUSH1 0x20 DUP9 ADD CALLDATALOAD SWAP2 POP DUP1 DUP3 GT ISZERO PUSH3 0x31FA JUMPI PUSH1 0x0 DUP1 REVERT JUMPDEST POP PUSH3 0x3209 DUP9 DUP3 DUP10 ADD PUSH3 0x2DFE JUMP JUMPDEST SWAP5 POP POP PUSH1 0x40 DUP7 ADD CALLDATALOAD PUSH1 0xFF DUP2 AND DUP2 EQ PUSH3 0x3221 JUMPI PUSH1 0x0 DUP1 REVERT JUMPDEST SWAP3 POP PUSH1 0x60 DUP7 ADD CALLDATALOAD SWAP2 POP PUSH1 0x80 DUP7 ADD CALLDATALOAD PUSH3 0x323A DUP2 PUSH3 0x2F04 JUMP JUMPDEST DUP1 SWAP2 POP POP SWAP3 SWAP6 POP SWAP3 SWAP6 SWAP1 SWAP4 POP JUMP JUMPDEST PUSH1 0x0 DUP1 PUSH1 0x0 PUSH1 0x60 DUP5 DUP7 SUB SLT ISZERO PUSH3 0x325E JUMPI PUSH1 0x0 DUP1 REVERT JUMPDEST DUP4 CALLDATALOAD PUSH1 0x1 PUSH1 0x1 PUSH1 0x40 SHL SUB DUP2 GT ISZERO PUSH3 0x3275 JUMPI PUSH1 0x0 DUP1 REVERT JUMPDEST PUSH3 0x3283 DUP7 DUP3 DUP8 ADD PUSH3 0x2DFE JUMP JUMPDEST SWAP4 POP POP PUSH1 0x20 DUP5 ADD CALLDATALOAD PUSH3 0x3296 DUP2 PUSH3 0x2F04 JUMP JUMPDEST SWAP3 SWAP6 SWAP3 SWAP5 POP POP POP PUSH1 0x40 SWAP2 SWAP1 SWAP2 ADD CALLDATALOAD SWAP1 JUMP JUMPDEST PUSH1 0x1 DUP2 DUP2 SHR SWAP1 DUP3 AND DUP1 PUSH3 0x32BC JUMPI PUSH1 0x7F DUP3 AND SWAP2 POP JUMPDEST PUSH1 0x20 DUP3 LT DUP2 EQ ISZERO PUSH3 0x32DE JUMPI PUSH4 0x4E487B71 PUSH1 0xE0 SHL PUSH1 0x0 MSTORE PUSH1 0x22 PUSH1 0x4 MSTORE PUSH1 0x24 PUSH1 0x0 REVERT JUMPDEST POP SWAP2 SWAP1 POP JUMP JUMPDEST PUSH1 0x0 DUP3 PUSH1 0x1F DUP4 ADD SLT PUSH3 0x32F6 JUMPI PUSH1 0x0 DUP1 REVERT JUMPDEST DUP2 CALLDATALOAD PUSH1 0x20 PUSH3 0x3309 PUSH3 0x2E21 DUP4 PUSH3 0x301E JUMP JUMPDEST DUP3 DUP2 MSTORE PUSH1 0x5 SWAP3 SWAP1 SWAP3 SHL DUP5 ADD DUP2 ADD SWAP2 DUP2 DUP2 ADD SWAP1 DUP7 DUP5 GT ISZERO PUSH3 0x3329 JUMPI PUSH1 0x0 DUP1 REVERT JUMPDEST DUP3 DUP7 ADD JUMPDEST DUP5 DUP2 LT ISZERO PUSH3 0x3351 JUMPI DUP1 CALLDATALOAD PUSH3 0x3343 DUP2 PUSH3 0x2F04 JUMP JUMPDEST DUP4 MSTORE SWAP2 DUP4 ADD SWAP2 DUP4 ADD PUSH3 0x332D JUMP JUMPDEST POP SWAP7 SWAP6 POP POP POP POP POP POP JUMP JUMPDEST PUSH1 0x0 DUP1 PUSH1 0x0 DUP1 PUSH1 0x0 DUP1 PUSH1 0xC0 DUP8 DUP10 SUB SLT ISZERO PUSH3 0x3376 JUMPI PUSH1 0x0 DUP1 REVERT JUMPDEST DUP7 CALLDATALOAD PUSH1 0x1 PUSH1 0x1 PUSH1 0x40 SHL SUB DUP1 DUP3 GT ISZERO PUSH3 0x338E JUMPI PUSH1 0x0 DUP1 REVERT JUMPDEST PUSH3 0x339C DUP11 DUP4 DUP12 ADD PUSH3 0x32E4 JUMP JUMPDEST SWAP8 POP PUSH1 0x20 DUP10 ADD CALLDATALOAD SWAP7 POP PUSH1 0x40 DUP10 ADD CALLDATALOAD SWAP2 POP DUP1 DUP3 GT ISZERO PUSH3 0x33BA JUMPI PUSH1 0x0 DUP1 REVERT JUMPDEST PUSH3 0x33C8 DUP11 DUP4 DUP12 ADD PUSH3 0x32E4 JUMP JUMPDEST SWAP6 POP PUSH1 0x60 DUP10 ADD CALLDATALOAD SWAP5 POP PUSH1 0x80 DUP10 ADD CALLDATALOAD SWAP2 POP DUP1 DUP3 GT ISZERO PUSH3 0x33E6 JUMPI PUSH1 0x0 DUP1 REVERT JUMPDEST POP PUSH3 0x33F5 DUP10 DUP3 DUP11 ADD PUSH3 0x32E4 JUMP JUMPDEST SWAP3 POP POP PUSH1 0xA0 DUP8 ADD CALLDATALOAD SWAP1 POP SWAP3 SWAP6 POP SWAP3 SWAP6 POP SWAP3 SWAP6 JUMP JUMPDEST PUSH1 0x80 DUP2 MSTORE PUSH1 0x0 PUSH3 0x341E PUSH1 0x80 DUP4 ADD DUP8 PUSH3 0x2F7B JUMP JUMPDEST DUP6 PUSH1 0x20 DUP5 ADD MSTORE DUP3 DUP2 SUB PUSH1 0x40 DUP5 ADD MSTORE PUSH3 0x3438 DUP2 DUP7 PUSH3 0x2F7B JUMP JUMPDEST SWAP2 POP POP DUP3 PUSH1 0x60 DUP4 ADD MSTORE SWAP6 SWAP5 POP POP POP POP POP JUMP JUMPDEST PUSH1 0x20 DUP2 MSTORE DUP2 PUSH1 0x20 DUP3 ADD MSTORE DUP2 DUP4 PUSH1 0x40 DUP4 ADD CALLDATACOPY PUSH1 0x0 DUP2 DUP4 ADD PUSH1 0x40 SWAP1 DUP2 ADD SWAP2 SWAP1 SWAP2 MSTORE PUSH1 0x1F SWAP1 SWAP3 ADD PUSH1 0x1F NOT AND ADD ADD SWAP2 SWAP1 POP JUMP JUMPDEST PUSH4 0x4E487B71 PUSH1 0xE0 SHL PUSH1 0x0 MSTORE PUSH1 0x32 PUSH1 0x4 MSTORE PUSH1 0x24 PUSH1 0x0 REVERT JUMPDEST PUSH1 0x0 DUP1 PUSH1 0x40 DUP4 DUP6 SUB SLT ISZERO PUSH3 0x34A3 JUMPI PUSH1 0x0 DUP1 REVERT JUMPDEST DUP3 CALLDATALOAD PUSH1 0x1 PUSH1 0x1 PUSH1 0x40 SHL SUB DUP2 GT ISZERO PUSH3 0x34BA JUMPI PUSH1 0x0 DUP1 REVERT JUMPDEST PUSH3 0x300F DUP6 DUP3 DUP7 ADD PUSH3 0x32E4 JUMP JUMPDEST PUSH4 0x4E487B71 PUSH1 0xE0 SHL PUSH1 0x0 MSTORE PUSH1 0x21 PUSH1 0x4 MSTORE PUSH1 0x24 PUSH1 0x0 REVERT JUMPDEST PUSH1 0x0 PUSH1 0x20 DUP3 DUP5 SUB SLT ISZERO PUSH3 0x34F1 JUMPI PUSH1 0x0 DUP1 REVERT JUMPDEST POP MLOAD SWAP2 SWAP1 POP JUMP JUMPDEST PUSH1 0x1 PUSH1 0x1 PUSH1 0xA0 SHL SUB DUP4 AND DUP2 MSTORE PUSH1 0x40 PUSH1 0x20 DUP3 ADD DUP2 SWAP1 MSTORE PUSH1 0x0 SWAP1 PUSH3 0x1B18 SWAP1 DUP4 ADD DUP5 PUSH3 0x2EC1 JUMP JUMPDEST DUP1 MLOAD DUP1 ISZERO ISZERO DUP2 EQ PUSH3 0x352F JUMPI PUSH1 0x0 DUP1 REVERT JUMPDEST SWAP2 SWAP1 POP JUMP JUMPDEST PUSH1 0x0 PUSH3 0x3545 PUSH3 0x2E21 DUP5 PUSH3 0x2DD4 JUMP JUMPDEST SWAP1 POP DUP3 DUP2 MSTORE DUP4 DUP4 DUP4 ADD GT ISZERO PUSH3 0x355A JUMPI PUSH1 0x0 DUP1 REVERT JUMPDEST PUSH3 0x1AFE DUP4 PUSH1 0x20 DUP4 ADD DUP5 PUSH3 0x2E92 JUMP JUMPDEST PUSH1 0x0 DUP3 PUSH1 0x1F DUP4 ADD SLT PUSH3 0x357C JUMPI PUSH1 0x0 DUP1 REVERT JUMPDEST PUSH3 0x1AFE DUP4 DUP4 MLOAD PUSH1 0x20 DUP6 ADD PUSH3 0x3534 JUMP JUMPDEST PUSH1 0x0 DUP1 PUSH1 0x40 DUP4 DUP6 SUB SLT ISZERO PUSH3 0x35A1 JUMPI PUSH1 0x0 DUP1 REVERT JUMPDEST PUSH3 0x35AC DUP4 PUSH3 0x351E JUMP JUMPDEST SWAP2 POP PUSH1 0x20 DUP4 ADD MLOAD PUSH1 0x1 PUSH1 0x1 PUSH1 0x40 SHL SUB DUP2 GT ISZERO PUSH3 0x35C8 JUMPI PUSH1 0x0 DUP1 REVERT JUMPDEST PUSH3 0x35D6 DUP6 DUP3 DUP7 ADD PUSH3 0x356A JUMP JUMPDEST SWAP2 POP POP SWAP3 POP SWAP3 SWAP1 POP JUMP JUMPDEST PUSH1 0x0 PUSH1 0x20 DUP3 DUP5 SUB SLT ISZERO PUSH3 0x35F3 JUMPI PUSH1 0x0 DUP1 REVERT JUMPDEST PUSH3 0x1AFE DUP3 PUSH3 0x351E JUMP JUMPDEST PUSH1 0x0 DUP3 PUSH1 0x1F DUP4 ADD SLT PUSH3 0x3610 JUMPI PUSH1 0x0 DUP1 REVERT JUMPDEST DUP2 MLOAD PUSH1 0x20 PUSH3 0x3623 PUSH3 0x2E21 DUP4 PUSH3 0x301E JUMP JUMPDEST DUP3 DUP2 MSTORE PUSH1 0x5 SWAP3 SWAP1 SWAP3 SHL DUP5 ADD DUP2 ADD SWAP2 DUP2 DUP2 ADD SWAP1 DUP7 DUP5 GT ISZERO PUSH3 0x3643 JUMPI PUSH1 0x0 DUP1 REVERT JUMPDEST DUP3 DUP7 ADD JUMPDEST DUP5 DUP2 LT ISZERO PUSH3 0x3351 JUMPI DUP1 MLOAD PUSH1 0x1 PUSH1 0x1 PUSH1 0x40 SHL SUB DUP2 GT ISZERO PUSH3 0x3668 JUMPI PUSH1 0x0 DUP1 DUP2 REVERT JUMPDEST DUP8 ADD PUSH1 0x3F DUP2 ADD DUP10 SGT PUSH3 0x367B JUMPI PUSH1 0x0 DUP1 DUP2 REVERT JUMPDEST PUSH3 0x368E DUP10 DUP7 DUP4 ADD MLOAD PUSH1 0x40 DUP5 ADD PUSH3 0x3534 JUMP JUMPDEST DUP5 MSTORE POP SWAP2 DUP4 ADD SWAP2 DUP4 ADD PUSH3 0x3647 JUMP JUMPDEST PUSH1 0x0 DUP3 PUSH1 0x1F DUP4 ADD SLT PUSH3 0x36AF JUMPI PUSH1 0x0 DUP1 REVERT JUMPDEST DUP2 MLOAD PUSH1 0x20 PUSH3 0x36C2 PUSH3 0x2E21 DUP4 PUSH3 0x301E JUMP JUMPDEST DUP3 DUP2 MSTORE PUSH1 0x5 SWAP3 SWAP1 SWAP3 SHL DUP5 ADD DUP2 ADD SWAP2 DUP2 DUP2 ADD SWAP1 DUP7 DUP5 GT ISZERO PUSH3 0x36E2 JUMPI PUSH1 0x0 DUP1 REVERT JUMPDEST DUP3 DUP7 ADD JUMPDEST DUP5 DUP2 LT ISZERO PUSH3 0x3351 JUMPI DUP1 MLOAD PUSH1 0x1 PUSH1 0x1 PUSH1 0x40 SHL SUB DUP2 GT ISZERO PUSH3 0x3707 JUMPI PUSH1 0x0 DUP1 DUP2 REVERT JUMPDEST PUSH3 0x3717 DUP10 DUP7 DUP4 DUP12 ADD ADD PUSH3 0x356A JUMP JUMPDEST DUP5 MSTORE POP SWAP2 DUP4 ADD SWAP2 DUP4 ADD PUSH3 0x36E6 JUMP JUMPDEST PUSH1 0x0 DUP1 PUSH1 0x0 DUP1 PUSH1 0x0 PUSH1 0xA0 DUP7 DUP9 SUB SLT ISZERO PUSH3 0x373F JUMPI PUSH1 0x0 DUP1 REVERT JUMPDEST DUP6 MLOAD SWAP5 POP PUSH1 0x20 DUP1 DUP8 ADD MLOAD PUSH1 0x3 DUP2 LT PUSH3 0x3757 JUMPI PUSH1 0x0 DUP1 REVERT JUMPDEST PUSH1 0x40 DUP9 ADD MLOAD SWAP1 SWAP6 POP PUSH1 0x1 PUSH1 0x1 PUSH1 0x40 SHL SUB DUP1 DUP3 GT ISZERO PUSH3 0x3775 JUMPI PUSH1 0x0 DUP1 REVERT JUMPDEST DUP2 DUP10 ADD SWAP2 POP DUP10 PUSH1 0x1F DUP4 ADD SLT PUSH3 0x378A JUMPI PUSH1 0x0 DUP1 REVERT JUMPDEST DUP2 MLOAD PUSH3 0x379B PUSH3 0x2E21 DUP3 PUSH3 0x301E JUMP JUMPDEST DUP2 DUP2 MSTORE PUSH1 0x5 SWAP2 SWAP1 SWAP2 SHL DUP4 ADD DUP5 ADD SWAP1 DUP5 DUP2 ADD SWAP1 DUP13 DUP4 GT ISZERO PUSH3 0x37BB JUMPI PUSH1 0x0 DUP1 REVERT JUMPDEST SWAP4 DUP6 ADD SWAP4 JUMPDEST DUP3 DUP6 LT ISZERO PUSH3 0x37DB JUMPI DUP5 MLOAD DUP3 MSTORE SWAP4 DUP6 ADD SWAP4 SWAP1 DUP6 ADD SWAP1 PUSH3 0x37C0 JUMP JUMPDEST PUSH1 0x60 DUP13 ADD MLOAD SWAP1 SWAP9 POP SWAP5 POP POP POP DUP1 DUP4 GT ISZERO PUSH3 0x37F5 JUMPI PUSH1 0x0 DUP1 REVERT JUMPDEST PUSH3 0x3803 DUP11 DUP5 DUP12 ADD PUSH3 0x35FE JUMP JUMPDEST SWAP5 POP PUSH1 0x80 DUP10 ADD MLOAD SWAP3 POP DUP1 DUP4 GT ISZERO PUSH3 0x381A JUMPI PUSH1 0x0 DUP1 REVERT JUMPDEST POP POP PUSH3 0x382A DUP9 DUP3 DUP10 ADD PUSH3 0x369D JUMP JUMPDEST SWAP2 POP POP SWAP3 SWAP6 POP SWAP3 SWAP6 SWAP1 SWAP4 POP JUMP JUMPDEST DUP3 DUP2 MSTORE PUSH1 0x0 DUP3 MLOAD PUSH3 0x3851 DUP2 PUSH1 0x20 DUP6 ADD PUSH1 0x20 DUP8 ADD PUSH3 0x2E92 JUMP JUMPDEST SWAP2 SWAP1 SWAP2 ADD PUSH1 0x20 ADD SWAP4 SWAP3 POP POP POP JUMP JUMPDEST PUSH1 0x80 DUP2 MSTORE PUSH1 0x0 PUSH3 0x3874 PUSH1 0x80 DUP4 ADD DUP8 PUSH3 0x2EC1 JUMP JUMPDEST DUP3 DUP2 SUB PUSH1 0x20 DUP5 ADD MSTORE PUSH3 0x3888 DUP2 DUP8 PUSH3 0x2EC1 JUMP JUMPDEST PUSH1 0xFF SWAP6 SWAP1 SWAP6 AND PUSH1 0x40 DUP5 ADD MSTORE POP POP PUSH1 0x60 ADD MSTORE SWAP3 SWAP2 POP POP JUMP JUMPDEST PUSH1 0x40 DUP2 MSTORE PUSH1 0x0 PUSH3 0x38B4 PUSH1 0x40 DUP4 ADD DUP6 PUSH3 0x2EC1 JUMP JUMPDEST SWAP1 POP PUSH1 0x1 DUP1 PUSH1 0xA0 SHL SUB DUP4 AND PUSH1 0x20 DUP4 ADD MSTORE SWAP4 SWAP3 POP POP POP JUMP JUMPDEST PUSH1 0x0 DUP3 DUP3 LT ISZERO PUSH3 0x38E0 JUMPI PUSH3 0x38E0 PUSH3 0x3137 JUMP JUMPDEST POP SUB SWAP1 JUMP JUMPDEST PUSH1 0x0 DUP2 PUSH3 0x38F7 JUMPI PUSH3 0x38F7 PUSH3 0x3137 JUMP JUMPDEST POP PUSH1 0x0 NOT ADD SWAP1 JUMP JUMPDEST SWAP3 DUP4 MSTORE PUSH1 0x20 DUP4 ADD SWAP2 SWAP1 SWAP2 MSTORE PUSH1 0x60 SHL PUSH12 0xFFFFFFFFFFFFFFFFFFFFFFFF NOT AND PUSH1 0x40 DUP3 ADD MSTORE PUSH1 0x54 ADD SWAP1 JUMP INVALID PUSH1 0x80 PUSH1 0x40 MSTORE PUSH1 0x0 DUP1 SSTORE CALLVALUE DUP1 ISZERO PUSH2 0x14 JUMPI PUSH1 0x0 DUP1 REVERT JUMPDEST POP PUSH2 0x282 DUP1 PUSH2 0x24 PUSH1 0x0 CODECOPY PUSH1 0x0 RETURN INVALID PUSH1 0x80 PUSH1 0x40 MSTORE CALLVALUE DUP1 ISZERO PUSH2 0x10 JUMPI PUSH1 0x0 DUP1 REVERT JUMPDEST POP PUSH1 0x4 CALLDATASIZE LT PUSH2 0x35 JUMPI PUSH1 0x0 CALLDATALOAD PUSH1 0xE0 SHR DUP1 PUSH3 0xF55D9D EQ PUSH2 0x3A JUMPI DUP1 PUSH4 0x1CFF79CD EQ PUSH2 0x4F JUMPI JUMPDEST PUSH1 0x0 DUP1 REVERT JUMPDEST PUSH2 0x4D PUSH2 0x48 CALLDATASIZE PUSH1 0x4 PUSH2 0x138 JUMP JUMPDEST PUSH2 0x79 JUMP JUMPDEST STOP JUMPDEST PUSH2 0x62 PUSH2 0x5D CALLDATASIZE PUSH1 0x4 PUSH2 0x15A JUMP JUMPDEST PUSH2 0x97 JUMP JUMPDEST PUSH1 0x40 MLOAD PUSH2 0x70 SWAP3 SWAP2 SWAP1 PUSH2 0x1DD JUMP JUMPDEST PUSH1 0x40 MLOAD DUP1 SWAP2 SUB SWAP1 RETURN JUMPDEST PUSH1 0x0 SLOAD ISZERO PUSH2 0x86 JUMPI PUSH1 0x0 DUP1 REVERT JUMPDEST PUSH1 0x1 PUSH1 0x0 SSTORE PUSH1 0x1 PUSH1 0x1 PUSH1 0xA0 SHL SUB DUP2 AND SELFDESTRUCT JUMPDEST PUSH1 0x0 PUSH1 0x60 PUSH1 0x0 DUP1 SLOAD EQ PUSH2 0xA9 JUMPI PUSH1 0x0 DUP1 REVERT JUMPDEST PUSH1 0x1 PUSH1 0x0 SSTORE PUSH1 0x40 MLOAD PUSH1 0x1 PUSH1 0x1 PUSH1 0xA0 SHL SUB DUP7 AND SWAP1 PUSH2 0xC9 SWAP1 DUP7 SWAP1 DUP7 SWAP1 PUSH2 0x23C JUMP JUMPDEST PUSH1 0x0 PUSH1 0x40 MLOAD DUP1 DUP4 SUB DUP2 PUSH1 0x0 DUP7 GAS CALL SWAP2 POP POP RETURNDATASIZE DUP1 PUSH1 0x0 DUP2 EQ PUSH2 0x106 JUMPI PUSH1 0x40 MLOAD SWAP2 POP PUSH1 0x1F NOT PUSH1 0x3F RETURNDATASIZE ADD AND DUP3 ADD PUSH1 0x40 MSTORE RETURNDATASIZE DUP3 MSTORE RETURNDATASIZE PUSH1 0x0 PUSH1 0x20 DUP5 ADD RETURNDATACOPY PUSH2 0x10B JUMP JUMPDEST PUSH1 0x60 SWAP2 POP JUMPDEST POP PUSH1 0x0 DUP1 SSTORE SWAP1 SWAP7 SWAP1 SWAP6 POP SWAP4 POP POP POP POP JUMP JUMPDEST DUP1 CALLDATALOAD PUSH1 0x1 PUSH1 0x1 PUSH1 0xA0 SHL SUB DUP2 AND DUP2 EQ PUSH2 0x133 JUMPI PUSH1 0x0 DUP1 REVERT JUMPDEST SWAP2 SWAP1 POP JUMP JUMPDEST PUSH1 0x0 PUSH1 0x20 DUP3 DUP5 SUB SLT ISZERO PUSH2 0x14A JUMPI PUSH1 0x0 DUP1 REVERT JUMPDEST PUSH2 0x153 DUP3 PUSH2 0x11C JUMP JUMPDEST SWAP4 SWAP3 POP POP POP JUMP JUMPDEST PUSH1 0x0 DUP1 PUSH1 0x0 PUSH1 0x40 DUP5 DUP7 SUB SLT ISZERO PUSH2 0x16F JUMPI PUSH1 0x0 DUP1 REVERT JUMPDEST PUSH2 0x178 DUP5 PUSH2 0x11C JUMP JUMPDEST SWAP3 POP PUSH1 0x20 DUP5 ADD CALLDATALOAD PUSH8 0xFFFFFFFFFFFFFFFF DUP1 DUP3 GT ISZERO PUSH2 0x195 JUMPI PUSH1 0x0 DUP1 REVERT JUMPDEST DUP2 DUP7 ADD SWAP2 POP DUP7 PUSH1 0x1F DUP4 ADD SLT PUSH2 0x1A9 JUMPI PUSH1 0x0 DUP1 REVERT JUMPDEST DUP2 CALLDATALOAD DUP2 DUP2 GT ISZERO PUSH2 0x1B8 JUMPI PUSH1 0x0 DUP1 REVERT JUMPDEST DUP8 PUSH1 0x20 DUP3 DUP6 ADD ADD GT ISZERO PUSH2 0x1CA JUMPI PUSH1 0x0 DUP1 REVERT JUMPDEST PUSH1 0x20 DUP4 ADD SWAP5 POP DUP1 SWAP4 POP POP POP POP SWAP3 POP SWAP3 POP SWAP3 JUMP JUMPDEST DUP3 ISZERO ISZERO DUP2 MSTORE PUSH1 0x0 PUSH1 0x20 PUSH1 0x40 DUP2 DUP5 ADD MSTORE DUP4 MLOAD DUP1 PUSH1 0x40 DUP6 ADD MSTORE PUSH1 0x0 JUMPDEST DUP2 DUP2 LT ISZERO PUSH2 0x213 JUMPI DUP6 DUP2 ADD DUP4 ADD MLOAD DUP6 DUP3 ADD PUSH1 0x60 ADD MSTORE DUP3 ADD PUSH2 0x1F7 JUMP JUMPDEST DUP2 DUP2 GT ISZERO PUSH2 0x225 JUMPI PUSH1 0x0 PUSH1 0x60 DUP4 DUP8 ADD ADD MSTORE JUMPDEST POP PUSH1 0x1F ADD PUSH1 0x1F NOT AND SWAP3 SWAP1 SWAP3 ADD PUSH1 0x60 ADD SWAP5 SWAP4 POP POP POP POP JUMP JUMPDEST DUP2 DUP4 DUP3 CALLDATACOPY PUSH1 0x0 SWAP2 ADD SWAP1 DUP2 MSTORE SWAP2 SWAP1 POP JUMP INVALID LOG2 PUSH5 0x6970667358 0x22 SLT KECCAK256 0x5E 0xAE PUSH28 0xCAECFFBCD15E04F46B0CF953C1DF7D02AFC5DC8A3BBF36F7A563D810 SWAP14 PUSH5 0x736F6C6343 STOP ADDMOD MULMOD STOP CALLER PUSH1 0xA0 PUSH1 0x40 MSTORE CALLVALUE DUP1 ISZERO PUSH3 0x11 JUMPI PUSH1 0x0 DUP1 REVERT JUMPDEST POP PUSH1 0x40 MLOAD PUSH3 0x1726 CODESIZE SUB DUP1 PUSH3 0x1726 DUP4 CODECOPY DUP2 ADD PUSH1 0x40 DUP2 SWAP1 MSTORE PUSH3 0x34 SWAP2 PUSH3 0x2E1 JUMP JUMPDEST DUP4 DUP4 DUP4 DUP4 DUP4 DUP5 DUP5 DUP5 DUP3 PUSH1 0x3 SWAP1 DUP1 MLOAD SWAP1 PUSH1 0x20 ADD SWAP1 PUSH3 0x54 SWAP3 SWAP2 SWAP1 PUSH3 0x16E JUMP JUMPDEST POP DUP2 MLOAD PUSH3 0x6A SWAP1 PUSH1 0x4 SWAP1 PUSH1 0x20 DUP6 ADD SWAP1 PUSH3 0x16E JUMP JUMPDEST POP PUSH1 0xFF AND PUSH1 0x80 SWAP1 DUP2 MSTORE DUP4 MLOAD PUSH1 0x20 DUP1 DUP7 ADD SWAP2 SWAP1 SWAP2 KECCAK256 PUSH1 0x40 DUP1 MLOAD DUP1 DUP3 ADD DUP3 MSTORE PUSH1 0x1 DUP2 MSTORE PUSH1 0x31 PUSH1 0xF8 SHL SWAP1 DUP5 ADD MSTORE DUP1 MLOAD PUSH32 0x8B73C3C69BB8FE3D512ECC4CF759CC79239F7B179B0FFACAA9A75D522B39400F SWAP4 DUP2 ADD SWAP4 SWAP1 SWAP4 MSTORE DUP3 ADD MSTORE PUSH32 0xC89EFDAA54C0F20C7ADF612882DF0950F5A951637E0307CDCB4C672F298B8BC6 PUSH1 0x60 DUP3 ADD MSTORE CHAINID SWAP2 DUP2 ADD SWAP2 SWAP1 SWAP2 MSTORE ADDRESS PUSH1 0xA0 DUP3 ADD MSTORE PUSH1 0xC0 ADD SWAP2 POP PUSH3 0x102 SWAP1 POP JUMP JUMPDEST PUSH1 0x40 DUP1 MLOAD PUSH1 0x1F NOT DUP2 DUP5 SUB ADD DUP2 MSTORE SWAP1 DUP3 SWAP1 MSTORE DUP1 MLOAD PUSH1 0x20 SWAP1 SWAP2 ADD KECCAK256 PUSH1 0x5 SSTORE PUSH1 0x7 DUP1 SLOAD PUSH1 0x1 PUSH1 0x1 PUSH1 0xA0 SHL SUB NOT AND CALLER SWAP1 DUP2 OR SWAP1 SWAP2 SSTORE SWAP2 POP PUSH1 0x0 SWAP1 PUSH32 0x8BE0079C531659141344CD1FD0A4F28419497F9722A3DAAFE3B4186F6B6457E0 SWAP1 DUP3 SWAP1 LOG3 PUSH1 0x8 SSTORE POP PUSH3 0x3A9 SWAP6 POP POP POP POP POP POP JUMP JUMPDEST DUP3 DUP1 SLOAD PUSH3 0x17C SWAP1 PUSH3 0x36C JUMP JUMPDEST SWAP1 PUSH1 0x0 MSTORE PUSH1 0x20 PUSH1 0x0 KECCAK256 SWAP1 PUSH1 0x1F ADD PUSH1 0x20 SWAP1 DIV DUP2 ADD SWAP3 DUP3 PUSH3 0x1A0 JUMPI PUSH1 0x0 DUP6 SSTORE PUSH3 0x1EB JUMP JUMPDEST DUP3 PUSH1 0x1F LT PUSH3 0x1BB JUMPI DUP1 MLOAD PUSH1 0xFF NOT AND DUP4 DUP1 ADD OR DUP6 SSTORE PUSH3 0x1EB JUMP JUMPDEST DUP3 DUP1 ADD PUSH1 0x1 ADD DUP6 SSTORE DUP3 ISZERO PUSH3 0x1EB JUMPI SWAP2 DUP3 ADD JUMPDEST DUP3 DUP2 GT ISZERO PUSH3 0x1EB JUMPI DUP3 MLOAD DUP3 SSTORE SWAP2 PUSH1 0x20 ADD SWAP2 SWAP1 PUSH1 0x1 ADD SWAP1 PUSH3 0x1CE JUMP JUMPDEST POP PUSH3 0x1F9 SWAP3 SWAP2 POP PUSH3 0x1FD JUMP JUMPDEST POP SWAP1 JUMP JUMPDEST JUMPDEST DUP1 DUP3 GT ISZERO PUSH3 0x1F9 JUMPI PUSH1 0x0 DUP2 SSTORE PUSH1 0x1 ADD PUSH3 0x1FE JUMP JUMPDEST PUSH4 0x4E487B71 PUSH1 0xE0 SHL PUSH1 0x0 MSTORE PUSH1 0x41 PUSH1 0x4 MSTORE PUSH1 0x24 PUSH1 0x0 REVERT JUMPDEST PUSH1 0x0 DUP3 PUSH1 0x1F DUP4 ADD SLT PUSH3 0x23C JUMPI PUSH1 0x0 DUP1 REVERT JUMPDEST DUP2 MLOAD PUSH1 0x1 PUSH1 0x1 PUSH1 0x40 SHL SUB DUP1 DUP3 GT ISZERO PUSH3 0x259 JUMPI PUSH3 0x259 PUSH3 0x214 JUMP JUMPDEST PUSH1 0x40 MLOAD PUSH1 0x1F DUP4 ADD PUSH1 0x1F NOT SWAP1 DUP2 AND PUSH1 0x3F ADD AND DUP2 ADD SWAP1 DUP3 DUP3 GT DUP2 DUP4 LT OR ISZERO PUSH3 0x284 JUMPI PUSH3 0x284 PUSH3 0x214 JUMP JUMPDEST DUP2 PUSH1 0x40 MSTORE DUP4 DUP2 MSTORE PUSH1 0x20 SWAP3 POP DUP7 DUP4 DUP6 DUP9 ADD ADD GT ISZERO PUSH3 0x2A1 JUMPI PUSH1 0x0 DUP1 REVERT JUMPDEST PUSH1 0x0 SWAP2 POP JUMPDEST DUP4 DUP3 LT ISZERO PUSH3 0x2C5 JUMPI DUP6 DUP3 ADD DUP4 ADD MLOAD DUP2 DUP4 ADD DUP5 ADD MSTORE SWAP1 DUP3 ADD SWAP1 PUSH3 0x2A6 JUMP JUMPDEST DUP4 DUP3 GT ISZERO PUSH3 0x2D7 JUMPI PUSH1 0x0 DUP4 DUP6 DUP4 ADD ADD MSTORE JUMPDEST SWAP7 SWAP6 POP POP POP POP POP POP JUMP JUMPDEST PUSH1 0x0 DUP1 PUSH1 0x0 DUP1 PUSH1 0x80 DUP6 DUP8 SUB SLT ISZERO PUSH3 0x2F8 JUMPI PUSH1 0x0 DUP1 REVERT JUMPDEST DUP5 MLOAD PUSH1 0x1 PUSH1 0x1 PUSH1 0x40 SHL SUB DUP1 DUP3 GT ISZERO PUSH3 0x310 JUMPI PUSH1 0x0 DUP1 REVERT JUMPDEST PUSH3 0x31E DUP9 DUP4 DUP10 ADD PUSH3 0x22A JUMP JUMPDEST SWAP6 POP PUSH1 0x20 DUP8 ADD MLOAD SWAP2 POP DUP1 DUP3 GT ISZERO PUSH3 0x335 JUMPI PUSH1 0x0 DUP1 REVERT JUMPDEST POP PUSH3 0x344 DUP8 DUP3 DUP9 ADD PUSH3 0x22A JUMP JUMPDEST SWAP4 POP POP PUSH1 0x40 DUP6 ADD MLOAD PUSH1 0xFF DUP2 AND DUP2 EQ PUSH3 0x35C JUMPI PUSH1 0x0 DUP1 REVERT JUMPDEST PUSH1 0x60 SWAP6 SWAP1 SWAP6 ADD MLOAD SWAP4 SWAP7 SWAP3 SWAP6 POP POP POP JUMP JUMPDEST PUSH1 0x1 DUP2 DUP2 SHR SWAP1 DUP3 AND DUP1 PUSH3 0x381 JUMPI PUSH1 0x7F DUP3 AND SWAP2 POP JUMPDEST PUSH1 0x20 DUP3 LT DUP2 EQ ISZERO PUSH3 0x3A3 JUMPI PUSH4 0x4E487B71 PUSH1 0xE0 SHL PUSH1 0x0 MSTORE PUSH1 0x22 PUSH1 0x4 MSTORE PUSH1 0x24 PUSH1 0x0 REVERT JUMPDEST POP SWAP2 SWAP1 POP JUMP JUMPDEST PUSH1 0x80 MLOAD PUSH2 0x1361 PUSH3 0x3C5 PUSH1 0x0 CODECOPY PUSH1 0x0 PUSH2 0x1C1 ADD MSTORE PUSH2 0x1361 PUSH1 0x0 RETURN INVALID PUSH1 0x80 PUSH1 0x40 MSTORE CALLVALUE DUP1 ISZERO PUSH2 0x10 JUMPI PUSH1 0x0 DUP1 REVERT JUMPDEST POP PUSH1 0x4 CALLDATASIZE LT PUSH2 0x137 JUMPI PUSH1 0x0 CALLDATALOAD PUSH1 0xE0 SHR DUP1 PUSH4 0x40C10F19 GT PUSH2 0xB8 JUMPI DUP1 PUSH4 0x95D89B41 GT PUSH2 0x7C JUMPI DUP1 PUSH4 0x95D89B41 EQ PUSH2 0x2BE JUMPI DUP1 PUSH4 0xA457C2D7 EQ PUSH2 0x2C6 JUMPI DUP1 PUSH4 0xA9059CBB EQ PUSH2 0x2D9 JUMPI DUP1 PUSH4 0xD505ACCF EQ PUSH2 0x2EC JUMPI DUP1 PUSH4 0xDD62ED3E EQ PUSH2 0x2FF JUMPI DUP1 PUSH4 0xF2FDE38B EQ PUSH2 0x32A JUMPI PUSH1 0x0 DUP1 REVERT JUMPDEST DUP1 PUSH4 0x40C10F19 EQ PUSH2 0x245 JUMPI DUP1 PUSH4 0x70A08231 EQ PUSH2 0x258 JUMPI DUP1 PUSH4 0x79CC6790 EQ PUSH2 0x278 JUMPI DUP1 PUSH4 0x7ECEBE00 EQ PUSH2 0x28B JUMPI DUP1 PUSH4 0x8DA5CB5B EQ PUSH2 0x2AB JUMPI PUSH1 0x0 DUP1 REVERT JUMPDEST DUP1 PUSH4 0x313CE567 GT PUSH2 0xFF JUMPI DUP1 PUSH4 0x313CE567 EQ PUSH2 0x1BC JUMPI DUP1 PUSH4 0x31EECAF4 EQ PUSH2 0x1F5 JUMPI DUP1 PUSH4 0x355274EA EQ PUSH2 0x220 JUMPI DUP1 PUSH4 0x3644E515 EQ PUSH2 0x229 JUMPI DUP1 PUSH4 0x39509351 EQ PUSH2 0x232 JUMPI PUSH1 0x0 DUP1 REVERT JUMPDEST DUP1 PUSH4 0x6FDDE03 EQ PUSH2 0x13C JUMPI DUP1 PUSH4 0x8A1EEE1 EQ PUSH2 0x15A JUMPI DUP1 PUSH4 0x95EA7B3 EQ PUSH2 0x16F JUMPI DUP1 PUSH4 0x18160DDD EQ PUSH2 0x192 JUMPI DUP1 PUSH4 0x23B872DD EQ PUSH2 0x1A9 JUMPI JUMPDEST PUSH1 0x0 DUP1 REVERT JUMPDEST PUSH2 0x144 PUSH2 0x33D JUMP JUMPDEST PUSH1 0x40 MLOAD PUSH2 0x151 SWAP2 SWAP1 PUSH2 0xD46 JUMP JUMPDEST PUSH1 0x40 MLOAD DUP1 SWAP2 SUB SWAP1 RETURN JUMPDEST PUSH2 0x16D PUSH2 0x168 CALLDATASIZE PUSH1 0x4 PUSH2 0xD79 JUMP JUMPDEST PUSH2 0x3CB JUMP JUMPDEST STOP JUMPDEST PUSH2 0x182 PUSH2 0x17D CALLDATASIZE PUSH1 0x4 PUSH2 0xDAE JUMP JUMPDEST PUSH2 0x418 JUMP JUMPDEST PUSH1 0x40 MLOAD SWAP1 ISZERO ISZERO DUP2 MSTORE PUSH1 0x20 ADD PUSH2 0x151 JUMP JUMPDEST PUSH2 0x19B PUSH1 0x2 SLOAD DUP2 JUMP JUMPDEST PUSH1 0x40 MLOAD SWAP1 DUP2 MSTORE PUSH1 0x20 ADD PUSH2 0x151 JUMP JUMPDEST PUSH2 0x182 PUSH2 0x1B7 CALLDATASIZE PUSH1 0x4 PUSH2 0xDD8 JUMP JUMPDEST PUSH2 0x42E JUMP JUMPDEST PUSH2 0x1E3 PUSH32 0x0 DUP2 JUMP JUMPDEST PUSH1 0x40 MLOAD PUSH1 0xFF SWAP1 SWAP2 AND DUP2 MSTORE PUSH1 0x20 ADD PUSH2 0x151 JUMP JUMPDEST PUSH2 0x208 PUSH2 0x203 CALLDATASIZE PUSH1 0x4 PUSH2 0xD79 JUMP JUMPDEST PUSH2 0x480 JUMP JUMPDEST PUSH1 0x40 MLOAD PUSH1 0x1 PUSH1 0x1 PUSH1 0xA0 SHL SUB SWAP1 SWAP2 AND DUP2 MSTORE PUSH1 0x20 ADD PUSH2 0x151 JUMP JUMPDEST PUSH2 0x19B PUSH1 0x8 SLOAD DUP2 JUMP JUMPDEST PUSH2 0x19B PUSH1 0x5 SLOAD DUP2 JUMP JUMPDEST PUSH2 0x182 PUSH2 0x240 CALLDATASIZE PUSH1 0x4 PUSH2 0xDAE JUMP JUMPDEST PUSH2 0x54A JUMP JUMPDEST PUSH2 0x16D PUSH2 0x253 CALLDATASIZE PUSH1 0x4 PUSH2 0xDAE JUMP JUMPDEST PUSH2 0x581 JUMP JUMPDEST PUSH2 0x19B PUSH2 0x266 CALLDATASIZE PUSH1 0x4 PUSH2 0xE14 JUMP JUMPDEST PUSH1 0x0 PUSH1 0x20 DUP2 SWAP1 MSTORE SWAP1 DUP2 MSTORE PUSH1 0x40 SWAP1 KECCAK256 SLOAD DUP2 JUMP JUMPDEST PUSH2 0x16D PUSH2 0x286 CALLDATASIZE PUSH1 0x4 PUSH2 0xDAE JUMP JUMPDEST PUSH2 0x5CD JUMP JUMPDEST PUSH2 0x19B PUSH2 0x299 CALLDATASIZE PUSH1 0x4 PUSH2 0xE14 JUMP JUMPDEST PUSH1 0x6 PUSH1 0x20 MSTORE PUSH1 0x0 SWAP1 DUP2 MSTORE PUSH1 0x40 SWAP1 KECCAK256 SLOAD DUP2 JUMP JUMPDEST PUSH1 0x7 SLOAD PUSH2 0x208 SWAP1 PUSH1 0x1 PUSH1 0x1 PUSH1 0xA0 SHL SUB AND DUP2 JUMP JUMPDEST PUSH2 0x144 PUSH2 0x62D JUMP JUMPDEST PUSH2 0x182 PUSH2 0x2D4 CALLDATASIZE PUSH1 0x4 PUSH2 0xDAE JUMP JUMPDEST PUSH2 0x63A JUMP JUMPDEST PUSH2 0x182 PUSH2 0x2E7 CALLDATASIZE PUSH1 0x4 PUSH2 0xDAE JUMP JUMPDEST PUSH2 0x671 JUMP JUMPDEST PUSH2 0x16D PUSH2 0x2FA CALLDATASIZE PUSH1 0x4 PUSH2 0xE36 JUMP JUMPDEST PUSH2 0x67E JUMP JUMPDEST PUSH2 0x19B PUSH2 0x30D CALLDATASIZE PUSH1 0x4 PUSH2 0xEA9 JUMP JUMPDEST PUSH1 0x1 PUSH1 0x20 SWAP1 DUP2 MSTORE PUSH1 0x0 SWAP3 DUP4 MSTORE PUSH1 0x40 DUP1 DUP5 KECCAK256 SWAP1 SWAP2 MSTORE SWAP1 DUP3 MSTORE SWAP1 KECCAK256 SLOAD DUP2 JUMP JUMPDEST PUSH2 0x16D PUSH2 0x338 CALLDATASIZE PUSH1 0x4 PUSH2 0xE14 JUMP JUMPDEST PUSH2 0x861 JUMP JUMPDEST PUSH1 0x3 DUP1 SLOAD PUSH2 0x34A SWAP1 PUSH2 0xEDC JUMP JUMPDEST DUP1 PUSH1 0x1F ADD PUSH1 0x20 DUP1 SWAP2 DIV MUL PUSH1 0x20 ADD PUSH1 0x40 MLOAD SWAP1 DUP2 ADD PUSH1 0x40 MSTORE DUP1 SWAP3 SWAP2 SWAP1 DUP2 DUP2 MSTORE PUSH1 0x20 ADD DUP3 DUP1 SLOAD PUSH2 0x376 SWAP1 PUSH2 0xEDC JUMP JUMPDEST DUP1 ISZERO PUSH2 0x3C3 JUMPI DUP1 PUSH1 0x1F LT PUSH2 0x398 JUMPI PUSH2 0x100 DUP1 DUP4 SLOAD DIV MUL DUP4 MSTORE SWAP2 PUSH1 0x20 ADD SWAP2 PUSH2 0x3C3 JUMP JUMPDEST DUP3 ADD SWAP2 SWAP1 PUSH1 0x0 MSTORE PUSH1 0x20 PUSH1 0x0 KECCAK256 SWAP1 JUMPDEST DUP2 SLOAD DUP2 MSTORE SWAP1 PUSH1 0x1 ADD SWAP1 PUSH1 0x20 ADD DUP1 DUP4 GT PUSH2 0x3A6 JUMPI DUP3 SWAP1 SUB PUSH1 0x1F AND DUP3 ADD SWAP2 JUMPDEST POP POP POP POP POP DUP2 JUMP JUMPDEST PUSH1 0x7 SLOAD PUSH1 0x1 PUSH1 0x1 PUSH1 0xA0 SHL SUB AND CALLER EQ PUSH2 0x3E2 JUMPI PUSH1 0x0 DUP1 REVERT JUMPDEST PUSH1 0x0 PUSH2 0x3ED DUP3 PUSH2 0x480 JUMP JUMPDEST PUSH1 0x1 PUSH1 0x1 PUSH1 0xA0 SHL SUB DUP2 AND PUSH1 0x0 SWAP1 DUP2 MSTORE PUSH1 0x20 DUP2 SWAP1 MSTORE PUSH1 0x40 SWAP1 KECCAK256 SLOAD SWAP1 SWAP2 POP PUSH2 0x414 SWAP1 DUP3 SWAP1 PUSH2 0x8E7 JUMP JUMPDEST POP POP JUMP JUMPDEST PUSH1 0x0 PUSH2 0x425 CALLER DUP5 DUP5 PUSH2 0x992 JUMP JUMPDEST POP PUSH1 0x1 SWAP3 SWAP2 POP POP JUMP JUMPDEST PUSH1 0x0 PUSH2 0x43B DUP5 DUP5 DUP5 PUSH2 0xA1A JUMP JUMPDEST PUSH1 0x1 PUSH1 0x1 PUSH1 0xA0 SHL SUB DUP5 AND PUSH1 0x0 SWAP1 DUP2 MSTORE PUSH1 0x1 PUSH1 0x20 SWAP1 DUP2 MSTORE PUSH1 0x40 DUP1 DUP4 KECCAK256 CALLER DUP1 DUP6 MSTORE SWAP3 MSTORE SWAP1 SWAP2 KECCAK256 SLOAD PUSH2 0x476 SWAP2 DUP7 SWAP2 PUSH2 0x471 SWAP1 DUP7 SWAP1 PUSH2 0xF2D JUMP JUMPDEST PUSH2 0x992 JUMP JUMPDEST POP PUSH1 0x1 SWAP4 SWAP3 POP POP POP JUMP JUMPDEST PUSH1 0x7 SLOAD PUSH1 0x40 MLOAD PUSH1 0x0 SWAP2 PUSH1 0x1 PUSH1 0x1 PUSH1 0xF8 SHL SUB NOT SWAP2 PUSH1 0x1 PUSH1 0x1 PUSH1 0xA0 SHL SUB SWAP1 SWAP2 AND SWAP1 DUP5 SWAP1 PUSH2 0x4AD PUSH1 0x20 DUP3 ADD PUSH2 0xD09 JUMP JUMPDEST PUSH1 0x1F NOT DUP3 DUP3 SUB DUP2 ADD DUP4 MSTORE PUSH1 0x1F SWAP1 SWAP2 ADD AND PUSH1 0x40 DUP2 SWAP1 MSTORE PUSH2 0x4CF SWAP2 SWAP1 PUSH1 0x20 ADD PUSH2 0xF44 JUMP JUMPDEST PUSH1 0x40 MLOAD PUSH1 0x20 DUP2 DUP4 SUB SUB DUP2 MSTORE SWAP1 PUSH1 0x40 MSTORE DUP1 MLOAD SWAP1 PUSH1 0x20 ADD KECCAK256 PUSH1 0x40 MLOAD PUSH1 0x20 ADD PUSH2 0x52C SWAP5 SWAP4 SWAP3 SWAP2 SWAP1 PUSH1 0x1 PUSH1 0x1 PUSH1 0xF8 SHL SUB NOT SWAP5 SWAP1 SWAP5 AND DUP5 MSTORE PUSH1 0x60 SWAP3 SWAP1 SWAP3 SHL PUSH12 0xFFFFFFFFFFFFFFFFFFFFFFFF NOT AND PUSH1 0x1 DUP5 ADD MSTORE PUSH1 0x15 DUP4 ADD MSTORE PUSH1 0x35 DUP3 ADD MSTORE PUSH1 0x55 ADD SWAP1 JUMP JUMPDEST PUSH1 0x40 DUP1 MLOAD PUSH1 0x1F NOT DUP2 DUP5 SUB ADD DUP2 MSTORE SWAP2 SWAP1 MSTORE DUP1 MLOAD PUSH1 0x20 SWAP1 SWAP2 ADD KECCAK256 SWAP3 SWAP2 POP POP JUMP JUMPDEST CALLER PUSH1 0x0 DUP2 DUP2 MSTORE PUSH1 0x1 PUSH1 0x20 SWAP1 DUP2 MSTORE PUSH1 0x40 DUP1 DUP4 KECCAK256 PUSH1 0x1 PUSH1 0x1 PUSH1 0xA0 SHL SUB DUP8 AND DUP5 MSTORE SWAP1 SWAP2 MSTORE DUP2 KECCAK256 SLOAD SWAP1 SWAP2 PUSH2 0x425 SWAP2 DUP6 SWAP1 PUSH2 0x471 SWAP1 DUP7 SWAP1 PUSH2 0xF60 JUMP JUMPDEST PUSH1 0x7 SLOAD PUSH1 0x1 PUSH1 0x1 PUSH1 0xA0 SHL SUB AND CALLER EQ PUSH2 0x598 JUMPI PUSH1 0x0 DUP1 REVERT JUMPDEST PUSH1 0x8 SLOAD DUP1 ISZERO DUP1 PUSH2 0x5B5 JUMPI POP DUP1 DUP3 PUSH1 0x2 SLOAD PUSH2 0x5B2 SWAP2 SWAP1 PUSH2 0xF60 JUMP JUMPDEST GT ISZERO JUMPDEST PUSH2 0x5BE JUMPI PUSH1 0x0 DUP1 REVERT JUMPDEST PUSH2 0x5C8 DUP4 DUP4 PUSH2 0xAEC JUMP JUMPDEST POP POP POP JUMP JUMPDEST PUSH1 0x7 SLOAD PUSH1 0x1 PUSH1 0x1 PUSH1 0xA0 SHL SUB AND CALLER EQ PUSH2 0x5E4 JUMPI PUSH1 0x0 DUP1 REVERT JUMPDEST PUSH1 0x7 SLOAD PUSH1 0x1 PUSH1 0x1 PUSH1 0xA0 SHL SUB DUP1 DUP5 AND PUSH1 0x0 SWAP1 DUP2 MSTORE PUSH1 0x1 PUSH1 0x20 SWAP1 DUP2 MSTORE PUSH1 0x40 DUP1 DUP4 KECCAK256 SWAP4 SWAP1 SWAP5 AND DUP1 DUP4 MSTORE SWAP3 SWAP1 MSTORE SWAP2 SWAP1 SWAP2 KECCAK256 SLOAD PUSH2 0x623 SWAP2 DUP5 SWAP2 PUSH2 0x471 SWAP1 DUP6 SWAP1 PUSH2 0xF2D JUMP JUMPDEST PUSH2 0x414 DUP3 DUP3 PUSH2 0x8E7 JUMP JUMPDEST PUSH1 0x4 DUP1 SLOAD PUSH2 0x34A SWAP1 PUSH2 0xEDC JUMP JUMPDEST CALLER PUSH1 0x0 DUP2 DUP2 MSTORE PUSH1 0x1 PUSH1 0x20 SWAP1 DUP2 MSTORE PUSH1 0x40 DUP1 DUP4 KECCAK256 PUSH1 0x1 PUSH1 0x1 PUSH1 0xA0 SHL SUB DUP8 AND DUP5 MSTORE SWAP1 SWAP2 MSTORE DUP2 KECCAK256 SLOAD SWAP1 SWAP2 PUSH2 0x425 SWAP2 DUP6 SWAP1 PUSH2 0x471 SWAP1 DUP7 SWAP1 PUSH2 0xF2D JUMP JUMPDEST PUSH1 0x0 PUSH2 0x425 CALLER DUP5 DUP5 PUSH2 0xA1A JUMP JUMPDEST DUP4 TIMESTAMP LT PUSH2 0x68A JUMPI PUSH1 0x0 DUP1 REVERT JUMPDEST PUSH32 0x7FFFFFFFFFFFFFFFFFFFFFFFFFFFFFFF5D576E7357A4501DDFE92F46681B20A0 DUP2 GT ISZERO PUSH2 0x6B7 JUMPI PUSH1 0x0 DUP1 REVERT JUMPDEST DUP3 PUSH1 0xFF AND PUSH1 0x1B EQ DUP1 PUSH2 0x6CC JUMPI POP DUP3 PUSH1 0xFF AND PUSH1 0x1C EQ JUMPDEST PUSH2 0x6D5 JUMPI PUSH1 0x0 DUP1 REVERT JUMPDEST PUSH1 0x0 PUSH1 0x40 MLOAD DUP1 PUSH1 0x40 ADD PUSH1 0x40 MSTORE DUP1 PUSH1 0x2 DUP2 MSTORE PUSH1 0x20 ADD PUSH2 0x1901 PUSH1 0xF0 SHL DUP2 MSTORE POP PUSH1 0x5 SLOAD PUSH32 0x6E71EDAE12B1B97F4D1F60370FEF10105FA2FAAE0126114A169C64845D6126C9 PUSH1 0x0 SHL DUP11 DUP11 DUP11 PUSH1 0x6 PUSH1 0x0 DUP16 PUSH1 0x1 PUSH1 0x1 PUSH1 0xA0 SHL SUB AND PUSH1 0x1 PUSH1 0x1 PUSH1 0xA0 SHL SUB AND DUP2 MSTORE PUSH1 0x20 ADD SWAP1 DUP2 MSTORE PUSH1 0x20 ADD PUSH1 0x0 KECCAK256 PUSH1 0x0 DUP2 SLOAD DUP1 SWAP3 SWAP2 SWAP1 PUSH2 0x752 SWAP1 PUSH2 0xF78 JUMP JUMPDEST SWAP1 SWAP2 SSTORE POP PUSH1 0x40 DUP1 MLOAD PUSH1 0x20 DUP2 ADD SWAP7 SWAP1 SWAP7 MSTORE PUSH1 0x1 PUSH1 0x1 PUSH1 0xA0 SHL SUB SWAP5 DUP6 AND SWAP1 DUP7 ADD MSTORE SWAP3 SWAP1 SWAP2 AND PUSH1 0x60 DUP5 ADD MSTORE PUSH1 0x80 DUP4 ADD MSTORE PUSH1 0xA0 DUP3 ADD MSTORE PUSH1 0xC0 DUP2 ADD DUP9 SWAP1 MSTORE PUSH1 0xE0 ADD PUSH1 0x40 MLOAD PUSH1 0x20 DUP2 DUP4 SUB SUB DUP2 MSTORE SWAP1 PUSH1 0x40 MSTORE DUP1 MLOAD SWAP1 PUSH1 0x20 ADD KECCAK256 PUSH1 0x40 MLOAD PUSH1 0x20 ADD PUSH2 0x7B6 SWAP4 SWAP3 SWAP2 SWAP1 PUSH2 0xF93 JUMP JUMPDEST PUSH1 0x40 DUP1 MLOAD PUSH1 0x1F NOT DUP2 DUP5 SUB ADD DUP2 MSTORE DUP3 DUP3 MSTORE DUP1 MLOAD PUSH1 0x20 SWAP2 DUP3 ADD KECCAK256 PUSH1 0x0 DUP1 DUP6 MSTORE SWAP2 DUP5 ADD DUP1 DUP5 MSTORE DUP2 SWAP1 MSTORE PUSH1 0xFF DUP9 AND SWAP3 DUP5 ADD SWAP3 SWAP1 SWAP3 MSTORE PUSH1 0x60 DUP4 ADD DUP7 SWAP1 MSTORE PUSH1 0x80 DUP4 ADD DUP6 SWAP1 MSTORE SWAP1 SWAP3 POP SWAP1 PUSH1 0x1 SWAP1 PUSH1 0xA0 ADD PUSH1 0x20 PUSH1 0x40 MLOAD PUSH1 0x20 DUP2 SUB SWAP1 DUP1 DUP5 SUB SWAP1 DUP6 GAS STATICCALL ISZERO DUP1 ISZERO PUSH2 0x821 JUMPI RETURNDATASIZE PUSH1 0x0 DUP1 RETURNDATACOPY RETURNDATASIZE PUSH1 0x0 REVERT JUMPDEST POP POP POP PUSH1 0x20 PUSH1 0x40 MLOAD SUB MLOAD SWAP1 POP DUP9 PUSH1 0x1 PUSH1 0x1 PUSH1 0xA0 SHL SUB AND DUP2 PUSH1 0x1 PUSH1 0x1 PUSH1 0xA0 SHL SUB AND EQ PUSH2 0x84B JUMPI PUSH1 0x0 DUP1 REVERT JUMPDEST PUSH2 0x856 DUP10 DUP10 DUP10 PUSH2 0x992 JUMP JUMPDEST POP POP POP POP POP POP POP POP POP JUMP JUMPDEST PUSH1 0x7 SLOAD PUSH1 0x1 PUSH1 0x1 PUSH1 0xA0 SHL SUB AND CALLER EQ PUSH2 0x878 JUMPI PUSH1 0x0 DUP1 REVERT JUMPDEST PUSH1 0x1 PUSH1 0x1 PUSH1 0xA0 SHL SUB DUP2 AND PUSH2 0x88B JUMPI PUSH1 0x0 DUP1 REVERT JUMPDEST PUSH1 0x7 SLOAD PUSH1 0x40 MLOAD PUSH1 0x1 PUSH1 0x1 PUSH1 0xA0 SHL SUB DUP1 DUP5 AND SWAP3 AND SWAP1 PUSH32 0x8BE0079C531659141344CD1FD0A4F28419497F9722A3DAAFE3B4186F6B6457E0 SWAP1 PUSH1 0x0 SWAP1 LOG3 PUSH1 0x7 DUP1 SLOAD PUSH1 0x1 PUSH1 0x1 PUSH1 0xA0 SHL SUB NOT AND PUSH1 0x1 PUSH1 0x1 PUSH1 0xA0 SHL SUB SWAP3 SWAP1 SWAP3 AND SWAP2 SWAP1 SWAP2 OR SWAP1 SSTORE JUMP JUMPDEST PUSH1 0x1 PUSH1 0x1 PUSH1 0xA0 SHL SUB DUP3 AND PUSH2 0x8FA JUMPI PUSH1 0x0 DUP1 REVERT JUMPDEST PUSH2 0x906 DUP3 PUSH1 0x0 DUP4 PUSH2 0xB8D JUMP JUMPDEST PUSH1 0x1 PUSH1 0x1 PUSH1 0xA0 SHL SUB DUP3 AND PUSH1 0x0 SWAP1 DUP2 MSTORE PUSH1 0x20 DUP2 SWAP1 MSTORE PUSH1 0x40 DUP2 KECCAK256 DUP1 SLOAD DUP4 SWAP3 SWAP1 PUSH2 0x92E SWAP1 DUP5 SWAP1 PUSH2 0xF2D JUMP JUMPDEST SWAP3 POP POP DUP2 SWAP1 SSTORE POP DUP1 PUSH1 0x2 PUSH1 0x0 DUP3 DUP3 SLOAD PUSH2 0x947 SWAP2 SWAP1 PUSH2 0xF2D JUMP JUMPDEST SWAP1 SWAP2 SSTORE POP POP PUSH1 0x40 MLOAD DUP2 DUP2 MSTORE PUSH1 0x0 SWAP1 PUSH1 0x1 PUSH1 0x1 PUSH1 0xA0 SHL SUB DUP5 AND SWAP1 PUSH32 0xDDF252AD1BE2C89B69C2B068FC378DAA952BA7F163C4A11628F55A4DF523B3EF SWAP1 PUSH1 0x20 ADD JUMPDEST PUSH1 0x40 MLOAD DUP1 SWAP2 SUB SWAP1 LOG3 POP POP JUMP JUMPDEST PUSH1 0x1 PUSH1 0x1 PUSH1 0xA0 SHL SUB DUP4 AND PUSH2 0x9A5 JUMPI PUSH1 0x0 DUP1 REVERT JUMPDEST PUSH1 0x1 PUSH1 0x1 PUSH1 0xA0 SHL SUB DUP3 AND PUSH2 0x9B8 JUMPI PUSH1 0x0 DUP1 REVERT JUMPDEST PUSH1 0x1 PUSH1 0x1 PUSH1 0xA0 SHL SUB DUP4 DUP2 AND PUSH1 0x0 DUP2 DUP2 MSTORE PUSH1 0x1 PUSH1 0x20 SWAP1 DUP2 MSTORE PUSH1 0x40 DUP1 DUP4 KECCAK256 SWAP5 DUP8 AND DUP1 DUP5 MSTORE SWAP5 DUP3 MSTORE SWAP2 DUP3 SWAP1 KECCAK256 DUP6 SWAP1 SSTORE SWAP1 MLOAD DUP5 DUP2 MSTORE PUSH32 0x8C5BE1E5EBEC7D5BD14F71427D1E84F3DD0314C0F7B2291E5B200AC8C7C3B925 SWAP2 ADD JUMPDEST PUSH1 0x40 MLOAD DUP1 SWAP2 SUB SWAP1 LOG3 POP POP POP JUMP JUMPDEST PUSH1 0x1 PUSH1 0x1 PUSH1 0xA0 SHL SUB DUP4 AND PUSH2 0xA2D JUMPI PUSH1 0x0 DUP1 REVERT JUMPDEST PUSH1 0x1 PUSH1 0x1 PUSH1 0xA0 SHL SUB DUP3 AND PUSH2 0xA40 JUMPI PUSH1 0x0 DUP1 REVERT JUMPDEST PUSH2 0xA4B DUP4 DUP4 DUP4 PUSH2 0xB8D JUMP JUMPDEST PUSH1 0x1 PUSH1 0x1 PUSH1 0xA0 SHL SUB DUP4 AND PUSH1 0x0 SWAP1 DUP2 MSTORE PUSH1 0x20 DUP2 SWAP1 MSTORE PUSH1 0x40 DUP2 KECCAK256 DUP1 SLOAD DUP4 SWAP3 SWAP1 PUSH2 0xA73 SWAP1 DUP5 SWAP1 PUSH2 0xF2D JUMP JUMPDEST SWAP1 SWAP2 SSTORE POP POP PUSH1 0x1 PUSH1 0x1 PUSH1 0xA0 SHL SUB DUP3 AND PUSH1 0x0 SWAP1 DUP2 MSTORE PUSH1 0x20 DUP2 SWAP1 MSTORE PUSH1 0x40 DUP2 KECCAK256 DUP1 SLOAD DUP4 SWAP3 SWAP1 PUSH2 0xAA0 SWAP1 DUP5 SWAP1 PUSH2 0xF60 JUMP JUMPDEST SWAP3 POP POP DUP2 SWAP1 SSTORE POP DUP2 PUSH1 0x1 PUSH1 0x1 PUSH1 0xA0 SHL SUB AND DUP4 PUSH1 0x1 PUSH1 0x1 PUSH1 0xA0 SHL SUB AND PUSH32 0xDDF252AD1BE2C89B69C2B068FC378DAA952BA7F163C4A11628F55A4DF523B3EF DUP4 PUSH1 0x40 MLOAD PUSH2 0xA0D SWAP2 DUP2 MSTORE PUSH1 0x20 ADD SWAP1 JUMP JUMPDEST PUSH1 0x1 PUSH1 0x1 PUSH1 0xA0 SHL SUB DUP3 AND PUSH2 0xAFF JUMPI PUSH1 0x0 DUP1 REVERT JUMPDEST PUSH2 0xB0B PUSH1 0x0 DUP4 DUP4 PUSH2 0xB8D JUMP JUMPDEST DUP1 PUSH1 0x2 PUSH1 0x0 DUP3 DUP3 SLOAD PUSH2 0xB1D SWAP2 SWAP1 PUSH2 0xF60 JUMP JUMPDEST SWAP1 SWAP2 SSTORE POP POP PUSH1 0x1 PUSH1 0x1 PUSH1 0xA0 SHL SUB DUP3 AND PUSH1 0x0 SWAP1 DUP2 MSTORE PUSH1 0x20 DUP2 SWAP1 MSTORE PUSH1 0x40 DUP2 KECCAK256 DUP1 SLOAD DUP4 SWAP3 SWAP1 PUSH2 0xB4A SWAP1 DUP5 SWAP1 PUSH2 0xF60 JUMP JUMPDEST SWAP1 SWAP2 SSTORE POP POP PUSH1 0x40 MLOAD DUP2 DUP2 MSTORE PUSH1 0x1 PUSH1 0x1 PUSH1 0xA0 SHL SUB DUP4 AND SWAP1 PUSH1 0x0 SWAP1 PUSH32 0xDDF252AD1BE2C89B69C2B068FC378DAA952BA7F163C4A11628F55A4DF523B3EF SWAP1 PUSH1 0x20 ADD PUSH2 0x986 JUMP JUMPDEST PUSH1 0x7 SLOAD PUSH1 0x40 MLOAD PUSH4 0x3D70E7E5 PUSH1 0xE1 SHL DUP2 MSTORE PUSH32 0x75A31D1CE8E5F9892188BEFC328D3B9BD3FA5037457E881ABC21F388471B8D96 PUSH1 0x4 DUP3 ADD MSTORE PUSH1 0x1 PUSH1 0x1 PUSH1 0xA0 SHL SUB SWAP1 SWAP2 AND SWAP1 PUSH4 0x7AE1CFCA SWAP1 PUSH1 0x24 ADD PUSH1 0x20 PUSH1 0x40 MLOAD DUP1 DUP4 SUB DUP2 DUP7 DUP1 EXTCODESIZE ISZERO DUP1 ISZERO PUSH2 0xBF0 JUMPI PUSH1 0x0 DUP1 REVERT JUMPDEST POP GAS STATICCALL ISZERO DUP1 ISZERO PUSH2 0xC04 JUMPI RETURNDATASIZE PUSH1 0x0 DUP1 RETURNDATACOPY RETURNDATASIZE PUSH1 0x0 REVERT JUMPDEST POP POP POP POP PUSH1 0x40 MLOAD RETURNDATASIZE PUSH1 0x1F NOT PUSH1 0x1F DUP3 ADD AND DUP3 ADD DUP1 PUSH1 0x40 MSTORE POP DUP2 ADD SWAP1 PUSH2 0xC28 SWAP2 SWAP1 PUSH2 0xFBA JUMP JUMPDEST ISZERO PUSH2 0xC32 JUMPI PUSH1 0x0 DUP1 REVERT JUMPDEST PUSH1 0x7 SLOAD PUSH1 0x40 MLOAD PUSH1 0x1 PUSH1 0x1 PUSH1 0xA0 SHL SUB SWAP1 SWAP2 AND SWAP1 PUSH4 0x7AE1CFCA SWAP1 PUSH2 0xC7B SWAP1 PUSH32 0x1A7261D3A36C4CE4235D10859911C9444A6963A3591EC5725B96871D9810626B SWAP1 PUSH1 0x4 SWAP1 PUSH1 0x20 ADD PUSH2 0xFDC JUMP JUMPDEST PUSH1 0x40 MLOAD PUSH1 0x20 DUP2 DUP4 SUB SUB DUP2 MSTORE SWAP1 PUSH1 0x40 MSTORE DUP1 MLOAD SWAP1 PUSH1 0x20 ADD KECCAK256 PUSH1 0x40 MLOAD DUP3 PUSH4 0xFFFFFFFF AND PUSH1 0xE0 SHL DUP2 MSTORE PUSH1 0x4 ADD PUSH2 0xCAF SWAP2 DUP2 MSTORE PUSH1 0x20 ADD SWAP1 JUMP JUMPDEST PUSH1 0x20 PUSH1 0x40 MLOAD DUP1 DUP4 SUB DUP2 DUP7 DUP1 EXTCODESIZE ISZERO DUP1 ISZERO PUSH2 0xCC7 JUMPI PUSH1 0x0 DUP1 REVERT JUMPDEST POP GAS STATICCALL ISZERO DUP1 ISZERO PUSH2 0xCDB JUMPI RETURNDATASIZE PUSH1 0x0 DUP1 RETURNDATACOPY RETURNDATASIZE PUSH1 0x0 REVERT JUMPDEST POP POP POP POP PUSH1 0x40 MLOAD RETURNDATASIZE PUSH1 0x1F NOT PUSH1 0x1F DUP3 ADD AND DUP3 ADD DUP1 PUSH1 0x40 MSTORE POP DUP2 ADD SWAP1 PUSH2 0xCFF SWAP2 SWAP1 PUSH2 0xFBA JUMP JUMPDEST ISZERO PUSH2 0x5C8 JUMPI PUSH1 0x0 DUP1 REVERT JUMPDEST PUSH2 0x2A6 DUP1 PUSH2 0x1086 DUP4 CODECOPY ADD SWAP1 JUMP JUMPDEST PUSH1 0x0 JUMPDEST DUP4 DUP2 LT ISZERO PUSH2 0xD31 JUMPI DUP2 DUP2 ADD MLOAD DUP4 DUP3 ADD MSTORE PUSH1 0x20 ADD PUSH2 0xD19 JUMP JUMPDEST DUP4 DUP2 GT ISZERO PUSH2 0xD40 JUMPI PUSH1 0x0 DUP5 DUP5 ADD MSTORE JUMPDEST POP POP POP POP JUMP JUMPDEST PUSH1 0x20 DUP2 MSTORE PUSH1 0x0 DUP3 MLOAD DUP1 PUSH1 0x20 DUP5 ADD MSTORE PUSH2 0xD65 DUP2 PUSH1 0x40 DUP6 ADD PUSH1 0x20 DUP8 ADD PUSH2 0xD16 JUMP JUMPDEST PUSH1 0x1F ADD PUSH1 0x1F NOT AND SWAP2 SWAP1 SWAP2 ADD PUSH1 0x40 ADD SWAP3 SWAP2 POP POP JUMP JUMPDEST PUSH1 0x0 PUSH1 0x20 DUP3 DUP5 SUB SLT ISZERO PUSH2 0xD8B JUMPI PUSH1 0x0 DUP1 REVERT JUMPDEST POP CALLDATALOAD SWAP2 SWAP1 POP JUMP JUMPDEST DUP1 CALLDATALOAD PUSH1 0x1 PUSH1 0x1 PUSH1 0xA0 SHL SUB DUP2 AND DUP2 EQ PUSH2 0xDA9 JUMPI PUSH1 0x0 DUP1 REVERT JUMPDEST SWAP2 SWAP1 POP JUMP JUMPDEST PUSH1 0x0 DUP1 PUSH1 0x40 DUP4 DUP6 SUB SLT ISZERO PUSH2 0xDC1 JUMPI PUSH1 0x0 DUP1 REVERT JUMPDEST PUSH2 0xDCA DUP4 PUSH2 0xD92 JUMP JUMPDEST SWAP5 PUSH1 0x20 SWAP4 SWAP1 SWAP4 ADD CALLDATALOAD SWAP4 POP POP POP JUMP JUMPDEST PUSH1 0x0 DUP1 PUSH1 0x0 PUSH1 0x60 DUP5 DUP7 SUB SLT ISZERO PUSH2 0xDED JUMPI PUSH1 0x0 DUP1 REVERT JUMPDEST PUSH2 0xDF6 DUP5 PUSH2 0xD92 JUMP JUMPDEST SWAP3 POP PUSH2 0xE04 PUSH1 0x20 DUP6 ADD PUSH2 0xD92 JUMP JUMPDEST SWAP2 POP PUSH1 0x40 DUP5 ADD CALLDATALOAD SWAP1 POP SWAP3 POP SWAP3 POP SWAP3 JUMP JUMPDEST PUSH1 0x0 PUSH1 0x20 DUP3 DUP5 SUB SLT ISZERO PUSH2 0xE26 JUMPI PUSH1 0x0 DUP1 REVERT JUMPDEST PUSH2 0xE2F DUP3 PUSH2 0xD92 JUMP JUMPDEST SWAP4 SWAP3 POP POP POP JUMP JUMPDEST PUSH1 0x0 DUP1 PUSH1 0x0 DUP1 PUSH1 0x0 DUP1 PUSH1 0x0 PUSH1 0xE0 DUP9 DUP11 SUB SLT ISZERO PUSH2 0xE51 JUMPI PUSH1 0x0 DUP1 REVERT JUMPDEST PUSH2 0xE5A DUP9 PUSH2 0xD92 JUMP JUMPDEST SWAP7 POP PUSH2 0xE68 PUSH1 0x20 DUP10 ADD PUSH2 0xD92 JUMP JUMPDEST SWAP6 POP PUSH1 0x40 DUP9 ADD CALLDATALOAD SWAP5 POP PUSH1 0x60 DUP9 ADD CALLDATALOAD SWAP4 POP PUSH1 0x80 DUP9 ADD CALLDATALOAD PUSH1 0xFF DUP2 AND DUP2 EQ PUSH2 0xE8C JUMPI PUSH1 0x0 DUP1 REVERT JUMPDEST SWAP7 SWAP10 SWAP6 SWAP9 POP SWAP4 SWAP7 SWAP3 SWAP6 SWAP5 PUSH1 0xA0 DUP5 ADD CALLDATALOAD SWAP5 POP PUSH1 0xC0 SWAP1 SWAP4 ADD CALLDATALOAD SWAP3 SWAP2 POP POP JUMP JUMPDEST PUSH1 0x0 DUP1 PUSH1 0x40 DUP4 DUP6 SUB SLT ISZERO PUSH2 0xEBC JUMPI PUSH1 0x0 DUP1 REVERT JUMPDEST PUSH2 0xEC5 DUP4 PUSH2 0xD92 JUMP JUMPDEST SWAP2 POP PUSH2 0xED3 PUSH1 0x20 DUP5 ADD PUSH2 0xD92 JUMP JUMPDEST SWAP1 POP SWAP3 POP SWAP3 SWAP1 POP JUMP JUMPDEST PUSH1 0x1 DUP2 DUP2 SHR SWAP1 DUP3 AND DUP1 PUSH2 0xEF0 JUMPI PUSH1 0x7F DUP3 AND SWAP2 POP JUMPDEST PUSH1 0x20 DUP3 LT DUP2 EQ ISZERO PUSH2 0xF11 JUMPI PUSH4 0x4E487B71 PUSH1 0xE0 SHL PUSH1 0x0 MSTORE PUSH1 0x22 PUSH1 0x4 MSTORE PUSH1 0x24 PUSH1 0x0 REVERT JUMPDEST POP SWAP2 SWAP1 POP JUMP JUMPDEST PUSH4 0x4E487B71 PUSH1 0xE0 SHL PUSH1 0x0 MSTORE PUSH1 0x11 PUSH1 0x4 MSTORE PUSH1 0x24 PUSH1 0x0 REVERT JUMPDEST PUSH1 0x0 DUP3 DUP3 LT ISZERO PUSH2 0xF3F JUMPI PUSH2 0xF3F PUSH2 0xF17 JUMP JUMPDEST POP SUB SWAP1 JUMP JUMPDEST PUSH1 0x0 DUP3 MLOAD PUSH2 0xF56 DUP2 DUP5 PUSH1 0x20 DUP8 ADD PUSH2 0xD16 JUMP JUMPDEST SWAP2 SWAP1 SWAP2 ADD SWAP3 SWAP2 POP POP JUMP JUMPDEST PUSH1 0x0 DUP3 NOT DUP3 GT ISZERO PUSH2 0xF73 JUMPI PUSH2 0xF73 PUSH2 0xF17 JUMP JUMPDEST POP ADD SWAP1 JUMP JUMPDEST PUSH1 0x0 PUSH1 0x0 NOT DUP3 EQ ISZERO PUSH2 0xF8C JUMPI PUSH2 0xF8C PUSH2 0xF17 JUMP JUMPDEST POP PUSH1 0x1 ADD SWAP1 JUMP JUMPDEST PUSH1 0x0 DUP5 MLOAD PUSH2 0xFA5 DUP2 DUP5 PUSH1 0x20 DUP10 ADD PUSH2 0xD16 JUMP JUMPDEST SWAP2 SWAP1 SWAP2 ADD SWAP3 DUP4 MSTORE POP PUSH1 0x20 DUP3 ADD MSTORE PUSH1 0x40 ADD SWAP2 SWAP1 POP JUMP JUMPDEST PUSH1 0x0 PUSH1 0x20 DUP3 DUP5 SUB SLT ISZERO PUSH2 0xFCC JUMPI PUSH1 0x0 DUP1 REVERT JUMPDEST DUP2 MLOAD DUP1 ISZERO ISZERO DUP2 EQ PUSH2 0xE2F JUMPI PUSH1 0x0 DUP1 REVERT JUMPDEST DUP3 DUP2 MSTORE PUSH1 0x0 PUSH1 0x20 PUSH1 0x0 DUP5 SLOAD DUP2 PUSH1 0x1 DUP3 DUP2 SHR SWAP2 POP DUP1 DUP4 AND DUP1 PUSH2 0xFFE JUMPI PUSH1 0x7F DUP4 AND SWAP3 POP JUMPDEST DUP6 DUP4 LT DUP2 EQ ISZERO PUSH2 0x101C JUMPI PUSH4 0x4E487B71 PUSH1 0xE0 SHL DUP6 MSTORE PUSH1 0x22 PUSH1 0x4 MSTORE PUSH1 0x24 DUP6 REVERT JUMPDEST DUP1 DUP1 ISZERO PUSH2 0x1030 JUMPI PUSH1 0x1 DUP2 EQ PUSH2 0x1045 JUMPI PUSH2 0x1076 JUMP JUMPDEST PUSH1 0xFF NOT DUP6 AND DUP10 DUP9 ADD MSTORE DUP4 DUP10 ADD DUP8 ADD SWAP6 POP PUSH2 0x1076 JUMP JUMPDEST PUSH1 0x0 DUP11 DUP2 MSTORE PUSH1 0x20 SWAP1 KECCAK256 PUSH1 0x0 JUMPDEST DUP6 DUP2 LT ISZERO PUSH2 0x106C JUMPI DUP2 SLOAD DUP12 DUP3 ADD DUP11 ADD MSTORE SWAP1 DUP5 ADD SWAP1 DUP9 ADD PUSH2 0x1051 JUMP JUMPDEST POP POP DUP7 DUP5 DUP11 ADD ADD SWAP6 POP JUMPDEST POP SWAP4 SWAP10 SWAP9 POP POP POP POP POP POP POP POP POP JUMP INVALID PUSH1 0x80 PUSH1 0x40 MSTORE PUSH1 0x0 DUP1 SSTORE CALLVALUE DUP1 ISZERO PUSH2 0x14 JUMPI PUSH1 0x0 DUP1 REVERT JUMPDEST POP PUSH2 0x282 DUP1 PUSH2 0x24 PUSH1 0x0 CODECOPY PUSH1 0x0 RETURN INVALID PUSH1 0x80 PUSH1 0x40 MSTORE CALLVALUE DUP1 ISZERO PUSH2 0x10 JUMPI PUSH1 0x0 DUP1 REVERT JUMPDEST POP PUSH1 0x4 CALLDATASIZE LT PUSH2 0x35 JUMPI PUSH1 0x0 CALLDATALOAD PUSH1 0xE0 SHR DUP1 PUSH3 0xF55D9D EQ PUSH2 0x3A JUMPI DUP1 PUSH4 0x1CFF79CD EQ PUSH2 0x4F JUMPI JUMPDEST PUSH1 0x0 DUP1 REVERT JUMPDEST PUSH2 0x4D PUSH2 0x48 CALLDATASIZE PUSH1 0x4 PUSH2 0x138 JUMP JUMPDEST PUSH2 0x79 JUMP JUMPDEST STOP JUMPDEST PUSH2 0x62 PUSH2 0x5D CALLDATASIZE PUSH1 0x4 PUSH2 0x15A JUMP JUMPDEST PUSH2 0x97 JUMP JUMPDEST PUSH1 0x40 MLOAD PUSH2 0x70 SWAP3 SWAP2 SWAP1 PUSH2 0x1DD JUMP JUMPDEST PUSH1 0x40 MLOAD DUP1 SWAP2 SUB SWAP1 RETURN JUMPDEST PUSH1 0x0 SLOAD ISZERO PUSH2 0x86 JUMPI PUSH1 0x0 DUP1 REVERT JUMPDEST PUSH1 0x1 PUSH1 0x0 SSTORE PUSH1 0x1 PUSH1 0x1 PUSH1 0xA0 SHL SUB DUP2 AND SELFDESTRUCT JUMPDEST PUSH1 0x0 PUSH1 0x60 PUSH1 0x0 DUP1 SLOAD EQ PUSH2 0xA9 JUMPI PUSH1 0x0 DUP1 REVERT JUMPDEST PUSH1 0x1 PUSH1 0x0 SSTORE PUSH1 0x40 MLOAD PUSH1 0x1 PUSH1 0x1 PUSH1 0xA0 SHL SUB DUP7 AND SWAP1 PUSH2 0xC9 SWAP1 DUP7 SWAP1 DUP7 SWAP1 PUSH2 0x23C JUMP JUMPDEST PUSH1 0x0 PUSH1 0x40 MLOAD DUP1 DUP4 SUB DUP2 PUSH1 0x0 DUP7 GAS CALL SWAP2 POP POP RETURNDATASIZE DUP1 PUSH1 0x0 DUP2 EQ PUSH2 0x106 JUMPI PUSH1 0x40 MLOAD SWAP2 POP PUSH1 0x1F NOT PUSH1 0x3F RETURNDATASIZE ADD AND DUP3 ADD PUSH1 0x40 MSTORE RETURNDATASIZE DUP3 MSTORE RETURNDATASIZE PUSH1 0x0 PUSH1 0x20 DUP5 ADD RETURNDATACOPY PUSH2 0x10B JUMP JUMPDEST PUSH1 0x60 SWAP2 POP JUMPDEST POP PUSH1 0x0 DUP1 SSTORE SWAP1 SWAP7 SWAP1 SWAP6 POP SWAP4 POP POP POP POP JUMP JUMPDEST DUP1 CALLDATALOAD PUSH1 0x1 PUSH1 0x1 PUSH1 0xA0 SHL SUB DUP2 AND DUP2 EQ PUSH2 0x133 JUMPI PUSH1 0x0 DUP1 REVERT JUMPDEST SWAP2 SWAP1 POP JUMP JUMPDEST PUSH1 0x0 PUSH1 0x20 DUP3 DUP5 SUB SLT ISZERO PUSH2 0x14A JUMPI PUSH1 0x0 DUP1 REVERT JUMPDEST PUSH2 0x153 DUP3 PUSH2 0x11C JUMP JUMPDEST SWAP4 SWAP3 POP POP POP JUMP JUMPDEST PUSH1 0x0 DUP1 PUSH1 0x0 PUSH1 0x40 DUP5 DUP7 SUB SLT ISZERO PUSH2 0x16F JUMPI PUSH1 0x0 DUP1 REVERT JUMPDEST PUSH2 0x178 DUP5 PUSH2 0x11C JUMP JUMPDEST SWAP3 POP PUSH1 0x20 DUP5 ADD CALLDATALOAD PUSH8 0xFFFFFFFFFFFFFFFF DUP1 DUP3 GT ISZERO PUSH2 0x195 JUMPI PUSH1 0x0 DUP1 REVERT JUMPDEST DUP2 DUP7 ADD SWAP2 POP DUP7 PUSH1 0x1F DUP4 ADD SLT PUSH2 0x1A9 JUMPI PUSH1 0x0 DUP1 REVERT JUMPDEST DUP2 CALLDATALOAD DUP2 DUP2 GT ISZERO PUSH2 0x1B8 JUMPI PUSH1 0x0 DUP1 REVERT JUMPDEST DUP8 PUSH1 0x20 DUP3 DUP6 ADD ADD GT ISZERO PUSH2 0x1CA JUMPI PUSH1 0x0 DUP1 REVERT JUMPDEST PUSH1 0x20 DUP4 ADD SWAP5 POP DUP1 SWAP4 POP POP POP POP SWAP3 POP SWAP3 POP SWAP3 JUMP JUMPDEST DUP3 ISZERO ISZERO DUP2 MSTORE PUSH1 0x0 PUSH1 0x20 PUSH1 0x40 DUP2 DUP5 ADD MSTORE DUP4 MLOAD DUP1 PUSH1 0x40 DUP6 ADD MSTORE PUSH1 0x0 JUMPDEST DUP2 DUP2 LT ISZERO PUSH2 0x213 JUMPI DUP6 DUP2 ADD DUP4 ADD MLOAD DUP6 DUP3 ADD PUSH1 0x60 ADD MSTORE DUP3 ADD PUSH2 0x1F7 JUMP JUMPDEST DUP2 DUP2 GT ISZERO PUSH2 0x225 JUMPI PUSH1 0x0 PUSH1 0x60 DUP4 DUP8 ADD ADD MSTORE JUMPDEST POP PUSH1 0x1F ADD PUSH1 0x1F NOT AND SWAP3 SWAP1 SWAP3 ADD PUSH1 0x60 ADD SWAP5 SWAP4 POP POP POP POP JUMP JUMPDEST DUP2 DUP4 DUP3 CALLDATACOPY PUSH1 0x0 SWAP2 ADD SWAP1 DUP2 MSTORE SWAP2 SWAP1 POP JUMP INVALID LOG2 PUSH5 0x6970667358 0x22 SLT KECCAK256 0x5E 0xAE PUSH28 0xCAECFFBCD15E04F46B0CF953C1DF7D02AFC5DC8A3BBF36F7A563D810 SWAP14 PUSH5 0x736F6C6343 STOP ADDMOD MULMOD STOP CALLER LOG2 PUSH5 0x6970667358 0x22 SLT KECCAK256 0xBF 0xBF SIGNEXTEND CALLER PUSH30 0xEFE4D8011C1CF32DAE1C8522EFE8CF7A61187D15F7F28FCE193B1964736F PUSH13 0x63430008090033A26469706673 PC 0x22 SLT KECCAK256 PUSH2 0x744E 0xDA 0xC6 SWAP16 0x23 0xEF 0x28 0xD9 0x4C PUSH17 0x6D269A124C6EA67F4EA844B4DC513EB967 POP PUSH1 0x62 PUSH5 0x736F6C6343 STOP ADDMOD MULMOD STOP CALLER "
    }
  }
}