{
  "abi": [
    {
      "anonymous": false,
      "inputs": [
        {
          "indexed": true,
          "internalType": "address",
          "name": "account",
          "type": "address"
        }
      ],
      "name": "AccountBlacklisted",
      "type": "event"
    },
    {
      "anonymous": false,
      "inputs": [
        {
          "indexed": true,
          "internalType": "address",
          "name": "account",
          "type": "address"
        }
      ],
      "name": "AccountWhitelisted",
      "type": "event"
    },
    {
      "anonymous": false,
      "inputs": [],
      "name": "AllTokensFrozen",
      "type": "event"
    },
    {
      "anonymous": false,
      "inputs": [],
      "name": "AllTokensUnfrozen",
      "type": "event"
    },
    {
      "anonymous": false,
      "inputs": [
        {
          "indexed": true,
          "internalType": "bytes32",
          "name": "commandId",
          "type": "bytes32"
        }
      ],
      "name": "Executed",
      "type": "event"
    },
    {
      "anonymous": false,
      "inputs": [
        {
          "indexed": true,
          "internalType": "address",
          "name": "previousOperator",
          "type": "address"
        },
        {
          "indexed": true,
          "internalType": "address",
          "name": "newOperator",
          "type": "address"
        }
      ],
      "name": "OperatorshipTransferred",
      "type": "event"
    },
    {
      "anonymous": false,
      "inputs": [
        {
          "indexed": true,
          "internalType": "address",
          "name": "previousOwner",
          "type": "address"
        },
        {
          "indexed": true,
          "internalType": "address",
          "name": "newOwner",
          "type": "address"
        }
      ],
      "name": "OwnershipTransferred",
      "type": "event"
    },
    {
      "anonymous": false,
      "inputs": [
        {
          "indexed": false,
          "internalType": "string",
          "name": "symbol",
          "type": "string"
        },
        {
          "indexed": false,
          "internalType": "address",
          "name": "tokenAddresses",
          "type": "address"
        }
      ],
      "name": "TokenDeployed",
      "type": "event"
    },
    {
      "anonymous": false,
      "inputs": [
        {
          "indexed": true,
          "internalType": "string",
          "name": "symbol",
          "type": "string"
        }
      ],
      "name": "TokenFrozen",
      "type": "event"
    },
    {
      "anonymous": false,
      "inputs": [
        {
          "indexed": true,
          "internalType": "string",
          "name": "symbol",
          "type": "string"
        }
      ],
      "name": "TokenUnfrozen",
      "type": "event"
    },
    {
      "anonymous": false,
      "inputs": [
        {
          "indexed": true,
          "internalType": "address",
          "name": "implementation",
          "type": "address"
        }
      ],
      "name": "Upgraded",
      "type": "event"
    },
    {
      "inputs": [],
      "name": "allTokensFrozen",
      "outputs": [
        {
          "internalType": "bool",
          "name": "",
          "type": "bool"
        }
      ],
      "stateMutability": "view",
      "type": "function"
    },
    {
      "inputs": [
        {
          "internalType": "bytes",
          "name": "params",
          "type": "bytes"
        }
      ],
      "name": "burnToken",
      "outputs": [],
      "stateMutability": "nonpayable",
      "type": "function"
    },
    {
      "inputs": [
        {
          "internalType": "bytes",
          "name": "params",
          "type": "bytes"
        }
      ],
      "name": "deployToken",
      "outputs": [],
      "stateMutability": "nonpayable",
      "type": "function"
    },
    {
      "inputs": [
        {
          "internalType": "bytes",
          "name": "input",
          "type": "bytes"
        }
      ],
      "name": "execute",
      "outputs": [],
      "stateMutability": "nonpayable",
      "type": "function"
    },
    {
      "inputs": [],
      "name": "freezeAllTokens",
      "outputs": [],
      "stateMutability": "nonpayable",
      "type": "function"
    },
    {
      "inputs": [
        {
          "internalType": "string",
          "name": "symbol",
          "type": "string"
        }
      ],
      "name": "freezeToken",
      "outputs": [],
      "stateMutability": "nonpayable",
      "type": "function"
    },
    {
      "inputs": [
        {
          "internalType": "bytes32",
          "name": "key",
          "type": "bytes32"
        }
      ],
      "name": "getAddress",
      "outputs": [
        {
          "internalType": "address",
          "name": "",
          "type": "address"
        }
      ],
      "stateMutability": "view",
      "type": "function"
    },
    {
      "inputs": [
        {
          "internalType": "bytes32",
          "name": "key",
          "type": "bytes32"
        }
      ],
      "name": "getBool",
      "outputs": [
        {
          "internalType": "bool",
          "name": "",
          "type": "bool"
        }
      ],
      "stateMutability": "view",
      "type": "function"
    },
    {
      "inputs": [
        {
          "internalType": "bytes32",
          "name": "key",
          "type": "bytes32"
        }
      ],
      "name": "getBytes",
      "outputs": [
        {
          "internalType": "bytes",
          "name": "",
          "type": "bytes"
        }
      ],
      "stateMutability": "view",
      "type": "function"
    },
    {
      "inputs": [
        {
          "internalType": "bytes32",
          "name": "key",
          "type": "bytes32"
        }
      ],
      "name": "getInt",
      "outputs": [
        {
          "internalType": "int256",
          "name": "",
          "type": "int256"
        }
      ],
      "stateMutability": "view",
      "type": "function"
    },
    {
      "inputs": [
        {
          "internalType": "bytes32",
          "name": "key",
          "type": "bytes32"
        }
      ],
      "name": "getString",
      "outputs": [
        {
          "internalType": "string",
          "name": "",
          "type": "string"
        }
      ],
      "stateMutability": "view",
      "type": "function"
    },
    {
      "inputs": [
        {
          "internalType": "bytes32",
          "name": "key",
          "type": "bytes32"
        }
      ],
      "name": "getUint",
      "outputs": [
        {
          "internalType": "uint256",
          "name": "",
          "type": "uint256"
        }
      ],
      "stateMutability": "view",
      "type": "function"
    },
    {
      "inputs": [],
      "name": "implementation",
      "outputs": [
        {
          "internalType": "address",
          "name": "",
          "type": "address"
        }
      ],
      "stateMutability": "view",
      "type": "function"
    },
    {
      "inputs": [
        {
          "internalType": "bytes32",
          "name": "commandId",
          "type": "bytes32"
        }
      ],
      "name": "isCommandExecuted",
      "outputs": [
        {
          "internalType": "bool",
          "name": "",
          "type": "bool"
        }
      ],
      "stateMutability": "view",
      "type": "function"
    },
    {
      "inputs": [
        {
          "internalType": "bytes",
          "name": "params",
          "type": "bytes"
        }
      ],
      "name": "mintToken",
      "outputs": [],
      "stateMutability": "nonpayable",
      "type": "function"
    },
    {
      "inputs": [],
      "name": "operator",
      "outputs": [
        {
          "internalType": "address",
          "name": "",
          "type": "address"
        }
      ],
      "stateMutability": "view",
      "type": "function"
    },
    {
      "inputs": [],
      "name": "owner",
      "outputs": [
        {
          "internalType": "address",
          "name": "",
          "type": "address"
        }
      ],
      "stateMutability": "view",
      "type": "function"
    },
    {
      "inputs": [
        {
          "internalType": "bytes",
          "name": "params",
          "type": "bytes"
        }
      ],
      "name": "setup",
      "outputs": [],
      "stateMutability": "nonpayable",
      "type": "function"
    },
    {
      "inputs": [
        {
          "internalType": "string",
          "name": "symbol",
          "type": "string"
        }
      ],
      "name": "tokenAddresses",
      "outputs": [
        {
          "internalType": "address",
          "name": "",
          "type": "address"
        }
      ],
      "stateMutability": "view",
      "type": "function"
    },
    {
      "inputs": [
        {
          "internalType": "string",
          "name": "symbol",
          "type": "string"
        }
      ],
      "name": "tokenFrozen",
      "outputs": [
        {
          "internalType": "bool",
          "name": "",
          "type": "bool"
        }
      ],
      "stateMutability": "view",
      "type": "function"
    },
    {
      "inputs": [
        {
          "internalType": "bytes",
          "name": "params",
          "type": "bytes"
        }
      ],
      "name": "transferOperatorship",
      "outputs": [],
      "stateMutability": "nonpayable",
      "type": "function"
    },
    {
      "inputs": [
        {
          "internalType": "bytes",
          "name": "params",
          "type": "bytes"
        }
      ],
      "name": "transferOwnership",
      "outputs": [],
      "stateMutability": "nonpayable",
      "type": "function"
    },
    {
      "inputs": [],
      "name": "unfreezeAllTokens",
      "outputs": [],
      "stateMutability": "nonpayable",
      "type": "function"
    },
    {
      "inputs": [
        {
          "internalType": "string",
          "name": "symbol",
          "type": "string"
        }
      ],
      "name": "unfreezeToken",
      "outputs": [],
      "stateMutability": "nonpayable",
      "type": "function"
    },
    {
      "inputs": [
        {
          "internalType": "address",
          "name": "newImplementation",
          "type": "address"
        },
        {
          "internalType": "bytes32",
          "name": "newImplementationCodeHash",
          "type": "bytes32"
        },
        {
          "internalType": "bytes",
          "name": "setupParams",
          "type": "bytes"
        }
      ],
      "name": "upgrade",
      "outputs": [],
      "stateMutability": "nonpayable",
      "type": "function"
    }
  ],
  "evm": {
    "bytecode": {
      "linkReferences": {},
      "object": "608060405234801561001057600080fd5b50614a12806100206000396000f3fe60806040523480156200001157600080fd5b5060043610620001925760003560e01c8063935b13f611620000f0578063c031a18011620000a3578063d289d1cb116200007a578063d289d1cb146200040e578063d2bc37f81462000425578063dc97d962146200042f578063e3dfa299146200045257600080fd5b8063c031a18014620003c9578063d1cf834f14620003e0578063d26ff21014620003f757600080fd5b8063935b13f614620002d8578063986e791a14620002ef5780639ded06df1462000315578063a3499c73146200032c578063aa1e1f0a1462000343578063bd02d0f5146200039757600080fd5b80635c60da1b11620001495780635c60da1b146200024857806360c6ff431462000252578063646c5d3414620002695780637ae1cfca14620002805780637b1b769e14620002b75780638da5cb5b14620002ce57600080fd5b8063037699c1146200019757806309c5eabe14620001b057806321f8a72114620001c757806334ff698314620002105780633cd6ee6d1462000227578063570ca735146200023e575b600080fd5b620001ae620001a8366004620025b0565b6200045c565b005b620001ae620001c1366004620025b0565b62000490565b620001f3620001d8366004620025f5565b6000908152600260205260409020546001600160a01b031690565b6040516001600160a01b0390911681526020015b60405180910390f35b620001ae62000221366004620026de565b620004b1565b620001ae62000238366004620025b0565b62000615565b620001f362000658565b620001f362000673565b620001ae62000263366004620025b0565b620006ca565b620001ae6200027a366004620026de565b62000703565b620002a662000291366004620025f5565b60009081526004602052604090205460ff1690565b604051901515815260200162000207565b620002a6620002c8366004620026de565b62000857565b620001f36200086e565b620001f3620002e9366004620026de565b62000884565b6200030662000300366004620025f5565b62000895565b60405162000207919062002773565b620001ae62000326366004620025b0565b6200093f565b620001ae6200033d3660046200279e565b62000ad3565b7f75a31d1ce8e5f9892188befc328d3b9bd3fa5037457e881abc21f388471b8d9660005260046020527fa0b596b8942d6ef5cc77ce0ad89a75f0bfcc7f0132cd8db58e8449dcf04a858a5460ff16620002a6565b620003ba620003a8366004620025f5565b60009081526020819052604090205490565b60405190815260200162000207565b62000306620003da366004620025f5565b62000cf7565b620001ae620003f1366004620025b0565b62000d16565b620002a662000408366004620025f5565b62000dc5565b620001ae6200041f366004620025b0565b62000dd6565b620001ae62000e84565b620003ba62000440366004620025f5565b60009081526005602052604090205490565b620001ae62000fd6565b3330146200046957600080fd5b6000806200047a83850185620027ff565b915091506200048a828262001128565b50505050565b600080620004a18385018562002847565b915091506200048a8282620013f4565b6000620004bd62001843565b9050620004cb813362001891565b620004d557600080fd5b60008036604051620004e9929190620028b1565b6040518091039020905062000500828233620018aa565b156200050b57600080fd5b6200051a8282336001620018c5565b600060016200052a8484620018dd565b620005369190620028d7565b905062000545838383620018ef565b620005508362001912565b8110156200055e5750505050565b620005756200056d8562001923565b600062001977565b83604051620005859190620028f2565b604051908190038120907f5327e3af9cd2d5c19a8dff23ef487d7a4d5f6fc985464f1792a33c212057598990600090a2620005c383836000620018ef565b6000620005d08462001997565b905060005b818110156200060d57620005f88585620005f08885620019a8565b6000620018c5565b80620006048162002910565b915050620005d5565b505050505050565b3330146200062257600080fd5b600080808080620006368688018862002940565b945094509450945094506200064f8585858585620019ba565b50505050505050565b60006200066e6200066862001ae1565b62001b2f565b905090565b7f360894a13ba1a3210667c828492db98dca3e2076cc3735a920a3ca505d382bbc60005260026020527f11141f466c69fd409e1990e063b49cd6d61ed2ecff27a2e402e259ca6b9a01a3546001600160a01b031690565b333014620006d757600080fd5b60008080620006e984860186620029e4565b925092509250620006fc83838362001b40565b5050505050565b60006200070f62001843565b90506200071d813362001891565b6200072757600080fd5b600080366040516200073b929190620028b1565b6040518091039020905062000752828233620018aa565b156200075d57600080fd5b6200076c8282336001620018c5565b600060016200077c8484620018dd565b620007889190620028d7565b905062000797838383620018ef565b620007a28362001912565b811015620007b05750505050565b620007c7620007bf8562001923565b600162001977565b83604051620007d79190620028f2565b604051908190038120907f11260c92ecb021c33706db3a9699410f343d5f2175201a4551fe7634347a0cf190600090a26200081583836000620018ef565b6000620008228462001997565b905060005b818110156200060d57620008428585620005f08885620019a8565b806200084e8162002910565b91505062000827565b600062000868620002918362001923565b92915050565b60006200066e6200087e62001c6d565b62001cbb565b600062000868620001d88362001ccc565b6000818152600160205260409020805460609190620008b49062002a43565b80601f0160208091040260200160405190810160405280929190818152602001828054620008e29062002a43565b8015620009335780601f10620009075761010080835404028352916020019162000933565b820191906000526020600020905b8154815290600101906020018083116200091557829003601f168201915b50505050509050919050565b60006200094b62000673565b6001600160a01b031614156200096057600080fd5b6000808080620009738587018762002aa6565b9350935093509350600060016200098962001843565b620009959190620028d7565b9050620009e9817fd51dc9b187568bb94760866e1d0d066ca470037d2d331afb1a02ec74bfb8990c60009081526020527ff8d0c05cd32e3272241fdc9d5839565f8bcf94139cb4bd09e230e1b57a60ddc255565b620009f681868662001d06565b6000600162000a0462001c6d565b62000a109190620028d7565b905062000a1d8162001db1565b62000a29818562001dfe565b6000600162000a3762001ae1565b62000a439190620028d7565b905062000a508162001e18565b62000a5c818562001e65565b6040516001600160a01b038616906000907f8be0079c531659141344cd1fd0a4f28419497f9722a3daafe3b4186f6b6457e0908290a36040516001600160a01b038516906000907fb37ff92c23eca455dbbd028d9cb869f69e16485d5ef15286fc394c721a5d5dc1908290a3505050505050505050565b600062000adf62001843565b905062000aed813362001891565b62000af757600080fd5b6000803660405162000b0b929190620028b1565b6040518091039020905062000b22828233620018aa565b1562000b2d57600080fd5b62000b3c8282336001620018c5565b6000600162000b4c8484620018dd565b62000b589190620028d7565b905062000b67838383620018ef565b62000b728362001912565b81101562000b83575050506200048a565b866001600160a01b03163f861462000b9a57600080fd5b6040516001600160a01b038816907fbc7cd75a20ee27fd9adebab32041f755214dbc6bffa90cc0225b39da2e5c2d3b90600090a2831562000c91576000876001600160a01b0316639ded06df60e01b878760405160240162000bfe92919062002b78565b60408051601f198184030181529181526020820180516001600160e01b03166001600160e01b031990941693909317909252905162000c3e9190620028f2565b600060405180830381855af49150503d806000811462000c7b576040519150601f19603f3d011682016040523d82523d6000602084013e62000c80565b606091505b505090508062000c8f57600080fd5b505b62000c9c8762001e74565b62000caa83836000620018ef565b600062000cb78462001997565b905060005b8181101562000cec5762000cd78585620005f08885620019a8565b8062000ce38162002910565b91505062000cbc565b505050505050505050565b6000818152600360205260409020805460609190620008b49062002a43565b33301462000d2357600080fd5b600062000d338284018462002ba7565b9050600062000d4162001c6d565b90506001600160a01b03821662000d5757600080fd5b816001600160a01b031662000d6c8262001cbb565b6001600160a01b03167f8be0079c531659141344cd1fd0a4f28419497f9722a3daafe3b4186f6b6457e060405160405180910390a362000db962000db08262002910565b91508162001db1565b6200048a818362001dfe565b600062000868620002918362001ea0565b33301462000de357600080fd5b600062000df38284018462002ba7565b90506001600160a01b03811662000e0957600080fd5b806001600160a01b031662000e1d62000658565b6001600160a01b03167fb37ff92c23eca455dbbd028d9cb869f69e16485d5ef15286fc394c721a5d5dc160405160405180910390a3600062000e5e62001ae1565b905062000e7862000e6f8262002910565b91508162001e18565b6200048a818362001e65565b600062000e9062001843565b905062000e9e813362001891565b62000ea857600080fd5b6000803660405162000ebc929190620028b1565b6040518091039020905062000ed3828233620018aa565b1562000ede57600080fd5b62000eed8282336001620018c5565b6000600162000efd8484620018dd565b62000f099190620028d7565b905062000f18838383620018ef565b62000f238362001912565b81101562000f3057505050565b62000f5d7f75a31d1ce8e5f9892188befc328d3b9bd3fa5037457e881abc21f388471b8d96600162001977565b6040517f9f428b56ca209118783db391e8a5a62827b6b218add33411061060d308af6ead90600090a162000f9483836000620018ef565b600062000fa18462001997565b905060005b81811015620006fc5762000fc18585620005f08885620019a8565b8062000fcd8162002910565b91505062000fa6565b600062000fe262001843565b905062000ff0813362001891565b62000ffa57600080fd5b600080366040516200100e929190620028b1565b6040518091039020905062001025828233620018aa565b156200103057600080fd5b6200103f8282336001620018c5565b600060016200104f8484620018dd565b6200105b9190620028d7565b90506200106a838383620018ef565b620010758362001912565b8110156200108257505050565b620010af7f75a31d1ce8e5f9892188befc328d3b9bd3fa5037457e881abc21f388471b8d96600062001977565b6040517f0e821ff109470f6aa1aebb161aa0e7328b1a8552aa48e09ed2d03184ecece9a690600090a1620010e683836000620018ef565b6000620010f38462001997565b905060005b81811015620006fc57620011138585620005f08885620019a8565b806200111f8162002910565b915050620010f8565b6000620011358362000884565b90506001600160a01b0381166200114b57600080fd5b6002620011588462001edc565b60028111156200116c576200116c62002bc7565b14156200139757600082604051620011849062002549565b8190604051809103906000f5905080158015620011a5573d6000803e3d6000fd5b506040516370a0823160e01b81526001600160a01b038083166004830181905292935060009283929091631cff79cd91879163a9059cbb60e01b9130918416906370a082319060240160206040518083038186803b1580156200120757600080fd5b505afa1580156200121c573d6000803e3d6000fd5b505050506040513d601f19601f8201168201806040525081019062001242919062002bdd565b6040516001600160a01b039092166024830152604482015260640160408051601f198184030181529181526020820180516001600160e01b03166001600160e01b03199485161790525160e085901b9092168252620012a5929160040162002bf7565b600060405180830381600087803b158015620012c057600080fd5b505af1158015620012d5573d6000803e3d6000fd5b505050506040513d6000823e601f3d908101601f19168201604052620012ff919081019062002c87565b915091508180156200132c5750805115806200132c5750808060200190518101906200132c919062002cd0565b6200133657600080fd5b60405162f55d9d60e01b81523060048201526001600160a01b0384169062f55d9d90602401600060405180830381600087803b1580156200137657600080fd5b505af11580156200138b573d6000803e3d6000fd5b50505050505050505050565b6040516308a1eee160e01b8152600481018390526001600160a01b038216906308a1eee190602401600060405180830381600087803b158015620013da57600080fd5b505af11580156200064f573d6000803e3d6000fd5b505050565b6000620014136200140c848051906020012062001f01565b8362001f3d565b905060008060008060008780602001905181019062001433919062002e21565b945094509450945094504685146200144a57600080fd5b82518251811480156200145d5750815181145b6200146757600080fd5b60008080600188600281111562001482576200148262002bc7565b1415620014c457620014936200086e565b6001600160a01b03168a6001600160a01b03161492508280620014bc5750620014bc8a6200202e565b9150620014f0565b6002886002811115620014db57620014db62002bc7565b1415620014f057620014ed8a620020d4565b90505b60005b848110156200183457600088828151811062001513576200151362002f32565b60200260200101519050620015288162000dc5565b156200153557506200181f565b6000808984815181106200154d576200154d62002f32565b6020026020010151604051602001620015679190620028f2565b6040516020818303038152906040528051906020012090507f5763814b98a3aa86f212797af3273868b5dd6e2a532d764a79b98ca859e7bbad811415620015c75785620015b7575050506200181f565b633cd6ee6d60e01b91506200170a565b7fec78d9c22c08bb9f0ecd5d95571ae83e3f22219c5a9278c3270691d50abfd91b8114156200161c5784158015620015fd575085155b156200160c575050506200181f565b6360c6ff4360e01b91506200170a565b7fda199c0e76f665e0450020791c7f8eacc75f3cdbace313272c28f93e5390b62c81141562001671578415801562001652575085155b1562001661575050506200181f565b63037699c160e01b91506200170a565b7f1d4a390f291e2e1f29874769efdef47ddad94d76f77ff516fad206a385e8995f811415620016b95786620016a9575050506200181f565b63d1cf834f60e01b91506200170a565b7fb460dcb6fd5797fc0e7ea0f13406c80d30702ba7f73a42bd91394775dcbca718811415620017015786620016f1575050506200181f565b63d289d1cb60e01b91506200170a565b5050506200181f565b6200171783600162002162565b6000306001600160a01b0316838b878151811062001739576200173962002f32565b602002602001015160405160240162001753919062002773565b60408051601f198184030181529181526020820180516001600160e01b03166001600160e01b0319909416939093179092529051620017939190620028f2565b6000604051808303816000865af19150503d8060008114620017d2576040519150601f19603f3d011682016040523d82523d6000602084013e620017d7565b606091505b50509050620017e7848262002162565b80156200181a5760405184907fa74c8847d513feba22a0f0cb38d53081abf97562cdb293926ba243689e7c41ca90600090a25b505050505b806200182b8162002910565b915050620014f3565b50505050505050505050505050565b7fd51dc9b187568bb94760866e1d0d066ca470037d2d331afb1a02ec74bfb8990c60009081526020527ff8d0c05cd32e3272241fdc9d5839565f8bcf94139cb4bd09e230e1b57a60ddc25490565b6000620018a362000291848462002171565b9392505050565b6000620018bd62000291858585620021de565b949350505050565b6200048a620018d6858585620021de565b8262001977565b6000620018a3620003a8848462002252565b620013ef620018ff848462002252565b8260009182526020829052604090912055565b600062000868620003a88362002295565b60007f1a7261d3a36c4ce4235d10859911c9444a6963a3591ec5725b96871d9810626b826040516020016200195a92919062002f48565b604051602081830303815290604052805190602001209050919050565b600091825260046020526040909120805460ff1916911515919091179055565b600062000868620003a883620022d1565b6000620018a3620001d884846200230d565b6000620019c78562000884565b6001600160a01b031614620019db57600080fd5b6001600160a01b03811662001a7157600084604051602001620019ff9190620028f2565b604051602081830303815290604052805190602001209050808686868660405162001a2a9062002557565b62001a39949392919062002f70565b8190604051809103906000f590508015801562001a5a573d6000803e3d6000fd5b50915062001a6a85600162002350565b5062001a93565b6001600160a01b0381163b62001a8657600080fd5b62001a9384600262002350565b62001a9f848262002386565b7fbf90b5a1ec9763e8bf4b9245cef0c28db92bab309fc2c5177f17814f38246938848260405162001ad292919062002fb0565b60405180910390a15050505050565b7f5369fb791f26307f8e69b07625302ccac6930af09ab22d753b17d2042e9992e760009081526020527f07174c149a4f7627ac1dd39b679bd42f12fc4e8d7e850b055662bbee7188da105490565b600062000868620001d88362002395565b600062001b4d8462000884565b90506001600160a01b03811662001b6357600080fd5b600262001b708562001edc565b600281111562001b845762001b8462002bc7565b141562001c0357604080516001600160a01b038516602482015260448082018590528251808303909101815260649091018252602080820180516001600160e01b031663a9059cbb60e01b179052825180840190935260098352681352539517d190525360ba1b9083015262001bfd91839190620023d1565b6200048a565b6040516340c10f1960e01b81526001600160a01b038481166004830152602482018490528216906340c10f1990604401600060405180830381600087803b15801562001c4e57600080fd5b505af115801562001c63573d6000803e3d6000fd5b5050505050505050565b7f67cbdff49954077d2dd5637524b03bfe3e6506d456859017a888fad567e1af0360009081526020527f06f01c2f096e745c2a207fbf93babd5e7ee6acfd26f0f34a0e4ac68373c21d0e5490565b600062000868620001d8836200246a565b60007fc4e632779a6a7838736dd7e5e6a0eadf171dd37dfb6230720e265576dfcf42bb826040516020016200195a92919062002f48565b50565b81518181101562001d1657600080fd5b6000821162001d2457600080fd5b62001d308483620024a6565b62001d3c8482620024b5565b60005b81811015620006fc57600084828151811062001d5f5762001d5f62002f32565b6020026020010151905062001d75868262001891565b1562001d8057600080fd5b62001d8d868383620024c4565b62001d9b86826001620024d4565b508062001da88162002910565b91505062001d3f565b7f67cbdff49954077d2dd5637524b03bfe3e6506d456859017a888fad567e1af0360009081526020527f06f01c2f096e745c2a207fbf93babd5e7ee6acfd26f0f34a0e4ac68373c21d0e55565b62001e1462001e0d836200246a565b82620024e4565b5050565b7f5369fb791f26307f8e69b07625302ccac6930af09ab22d753b17d2042e9992e760009081526020527f07174c149a4f7627ac1dd39b679bd42f12fc4e8d7e850b055662bbee7188da1055565b62001e1462001e0d8362002395565b62001d037f360894a13ba1a3210667c828492db98dca3e2076cc3735a920a3ca505d382bbc82620024e4565b604080517f957705a374326b30f4a1069c936d736cc9993ed6c820b4e0e2fd94a8beca0d1d60208201529081018290526000906060016200195a565b600062001eed620003a88362002512565b600281111562000868576200086862002bc7565b6040517f19457468657265756d205369676e6564204d6573736167653a0a3332000000006020820152603c8101829052600090605c016200195a565b6000815160411462001f4e57600080fd5b60208201516040830151606084015160001a7f7fffffffffffffffffffffffffffffff5d576e7357a4501ddfe92f46681b20a082111562001f8e57600080fd5b8060ff16601b148062001fa457508060ff16601c145b62001fae57600080fd5b6040805160008082526020820180845289905260ff841692820192909252606081018590526080810184905260019060a0016020604051602081039080840390855afa15801562002003573d6000803e3d6000fd5b505050602060405103519450846001600160a01b031614156200202557600080fd5b50505092915050565b6000806200203b62001c6d565b905060006200204d60016010620028d7565b90506000818311620020615760006200206d565b6200206d828462002fdc565b90506200207a8362002ff6565b92505b80831115620020c9576200209e83620020968162002ff6565b945062001cbb565b6001600160a01b0316856001600160a01b03161415620020c357506001949350505050565b6200207d565b506000949350505050565b600080620020e162001ae1565b90506000620020f360016010620028d7565b905060008183116200210757600062002113565b62002113828462002fdc565b90505b80831115620020c95762002137836200212f8162002ff6565b945062001b2f565b6001600160a01b0316856001600160a01b031614156200215c57506001949350505050565b62002116565b62001e14620018d68362001ea0565b604080517f63fa879cb478fddf1de08d49e29115fb768866711bc799ff9ab419a7f16c9afb6020820152908101839052606082811b6bffffffffffffffffffffffff1916908201526000906074015b60405160208183030381529060405280519060200120905092915050565b604080517f3ced7a8caf1111e0fbf4b784c5b41aebd0f2389d9f2f64d5c3424aeed3adbd3c6020820152908101849052606080820184905282901b6bffffffffffffffffffffffff191660808201526000906094016040516020818303038152906040528051906020012090509392505050565b604080517fbaea1c6c0f16a0a340b10a9e980806696a68ddbb5e8361fd64630dd21abf515f602082015290810183905260608101829052600090608001620021c0565b604080517f79bd914addd90bd67ad800bf0230bb85ffdef5aeba5fd8249f116d3f17f4fb4b60208201529081018290526000906060016200195a565b604080517f05112ef894367de1270cfae12afcd2285c225830eb8f74e7e938f721bb510cba60208201529081018290526000906060016200195a565b604080517ff23ec0bb4210edd5cba85afd05127efcd2fc6a781bfed49188da1081670b22d8602082015290810183905260608101829052600090608001620021c0565b62001e146200235f8362002512565b82600281111562002374576200237462002bc7565b60009182526020829052604090912055565b62001e1462001e0d8362001ccc565b604080517f46a52cf33029de9f84853745a87af28464c80bf0346df1b32e205fc73319f62260208201529081018290526000906060016200195a565b600080846001600160a01b031684604051620023ee9190620028f2565b6000604051808303816000865af19150503d80600081146200242d576040519150601f19603f3d011682016040523d82523d6000602084013e62002432565b606091505b5091509150818015620024605750805115806200246057508080602001905181019062002460919062002cd0565b620006fc57600080fd5b604080517f02016836a56b71f0d02689e69e326f4f4c1b9057164ef592671cf0d37c8040c060208201529081018290526000906060016200195a565b62001e14620018ff8362002295565b62001e14620018ff83620022d1565b620013ef62001e0d84846200230d565b620013ef620018d6848462002171565b60009182526002602052604090912080546001600160a01b0319166001600160a01b03909216919091179055565b60007fa80d2259af55890618ec2eeb3ac72de4bdba22529bb14845d8a3d712d1c3f621826040516020016200195a92919062002f48565b6102a6806200301183390190565b61172680620032b783390190565b60008083601f8401126200257857600080fd5b5081356001600160401b038111156200259057600080fd5b602083019150836020828501011115620025a957600080fd5b9250929050565b60008060208385031215620025c457600080fd5b82356001600160401b03811115620025db57600080fd5b620025e98582860162002565565b90969095509350505050565b6000602082840312156200260857600080fd5b5035919050565b634e487b7160e01b600052604160045260246000fd5b604051601f8201601f191681016001600160401b03811182821017156200265057620026506200260f565b604052919050565b60006001600160401b038211156200267457620026746200260f565b50601f01601f191660200190565b600082601f8301126200269457600080fd5b8135620026ab620026a58262002658565b62002625565b818152846020838601011115620026c157600080fd5b816020850160208301376000918101602001919091529392505050565b600060208284031215620026f157600080fd5b81356001600160401b038111156200270857600080fd5b620018bd8482850162002682565b60005b838110156200273357818101518382015260200162002719565b838111156200048a5750506000910152565b600081518084526200275f81602086016020860162002716565b601f01601f19169290920160200192915050565b602081526000620018a3602083018462002745565b6001600160a01b038116811462001d0357600080fd5b60008060008060608587031215620027b557600080fd5b8435620027c28162002788565b93506020850135925060408501356001600160401b03811115620027e557600080fd5b620027f38782880162002565565b95989497509550505050565b600080604083850312156200281357600080fd5b82356001600160401b038111156200282a57600080fd5b620028388582860162002682565b95602094909401359450505050565b600080604083850312156200285b57600080fd5b82356001600160401b03808211156200287357600080fd5b620028818683870162002682565b935060208501359150808211156200289857600080fd5b50620028a78582860162002682565b9150509250929050565b8183823760009101908152919050565b634e487b7160e01b600052601160045260246000fd5b60008219821115620028ed57620028ed620028c1565b500190565b600082516200290681846020870162002716565b9190910192915050565b6000600019821415620029275762002927620028c1565b5060010190565b80356200293b8162002788565b919050565b600080600080600060a086880312156200295957600080fd5b85356001600160401b03808211156200297157600080fd5b6200297f89838a0162002682565b965060208801359150808211156200299657600080fd5b50620029a58882890162002682565b945050604086013560ff81168114620029bd57600080fd5b9250606086013591506080860135620029d68162002788565b809150509295509295909350565b600080600060608486031215620029fa57600080fd5b83356001600160401b0381111562002a1157600080fd5b62002a1f8682870162002682565b935050602084013562002a328162002788565b929592945050506040919091013590565b600181811c9082168062002a5857607f821691505b6020821081141562002a7a57634e487b7160e01b600052602260045260246000fd5b50919050565b60006001600160401b0382111562002a9c5762002a9c6200260f565b5060051b60200190565b6000806000806080858703121562002abd57600080fd5b84356001600160401b0381111562002ad457600080fd5b8501601f8101871362002ae657600080fd5b8035602062002af9620026a58362002a80565b82815260059290921b8301810191818101908a84111562002b1957600080fd5b938201935b8385101562002b4457843562002b348162002788565b8252938201939082019062002b1e565b975050870135945062002b5d915050604086016200292e565b915062002b6d606086016200292e565b905092959194509250565b60208152816020820152818360408301376000818301604090810191909152601f909201601f19160101919050565b60006020828403121562002bba57600080fd5b8135620018a38162002788565b634e487b7160e01b600052602160045260246000fd5b60006020828403121562002bf057600080fd5b5051919050565b6001600160a01b0383168152604060208201819052600090620018bd9083018462002745565b805180151581146200293b57600080fd5b600062002c3f620026a58462002658565b905082815283838301111562002c5457600080fd5b620018a383602083018462002716565b600082601f83011262002c7657600080fd5b620018a38383516020850162002c2e565b6000806040838503121562002c9b57600080fd5b62002ca68362002c1d565b915060208301516001600160401b0381111562002cc257600080fd5b620028a78582860162002c64565b60006020828403121562002ce357600080fd5b620018a38262002c1d565b600082601f83011262002d0057600080fd5b8151602062002d13620026a58362002a80565b82815260059290921b8401810191818101908684111562002d3357600080fd5b8286015b8481101562002d8d5780516001600160401b0381111562002d585760008081fd5b8701603f8101891362002d6b5760008081fd5b62002d7e89868301516040840162002c2e565b84525091830191830162002d37565b509695505050505050565b600082601f83011262002daa57600080fd5b8151602062002dbd620026a58362002a80565b82815260059290921b8401810191818101908684111562002ddd57600080fd5b8286015b8481101562002d8d5780516001600160401b0381111562002e025760008081fd5b62002e128986838b010162002c64565b84525091830191830162002de1565b600080600080600060a0868803121562002e3a57600080fd5b855194506020808701516003811062002e5257600080fd5b60408801519095506001600160401b038082111562002e7057600080fd5b818901915089601f83011262002e8557600080fd5b815162002e96620026a58262002a80565b81815260059190911b8301840190848101908c83111562002eb657600080fd5b938501935b8285101562002ed65784518252938501939085019062002ebb565b60608c0151909850945050508083111562002ef057600080fd5b62002efe8a848b0162002cee565b9450608089015192508083111562002f1557600080fd5b505062002f258882890162002d98565b9150509295509295909350565b634e487b7160e01b600052603260045260246000fd5b8281526000825162002f6281602085016020870162002716565b919091016020019392505050565b60808152600062002f85608083018762002745565b828103602084015262002f99818762002745565b60ff95909516604084015250506060015292915050565b60408152600062002fc5604083018562002745565b905060018060a01b03831660208301529392505050565b60008282101562002ff15762002ff1620028c1565b500390565b600081620030085762003008620028c1565b50600019019056fe60806040526000805534801561001457600080fd5b50610282806100246000396000f3fe608060405234801561001057600080fd5b50600436106100355760003560e01c8062f55d9d1461003a5780631cff79cd1461004f575b600080fd5b61004d610048366004610138565b610079565b005b61006261005d36600461015a565b610097565b6040516100709291906101dd565b60405180910390f35b6000541561008657600080fd5b60016000556001600160a01b038116ff5b6000606060008054146100a957600080fd5b60016000556040516001600160a01b038616906100c9908690869061023c565b6000604051808303816000865af19150503d8060008114610106576040519150601f19603f3d011682016040523d82523d6000602084013e61010b565b606091505b506000805590969095509350505050565b80356001600160a01b038116811461013357600080fd5b919050565b60006020828403121561014a57600080fd5b6101538261011c565b9392505050565b60008060006040848603121561016f57600080fd5b6101788461011c565b9250602084013567ffffffffffffffff8082111561019557600080fd5b818601915086601f8301126101a957600080fd5b8135818111156101b857600080fd5b8760208285010111156101ca57600080fd5b6020830194508093505050509250925092565b821515815260006020604081840152835180604085015260005b81811015610213578581018301518582016060015282016101f7565b81811115610225576000606083870101525b50601f01601f191692909201606001949350505050565b818382376000910190815291905056fea26469706673582212205eae7bcaecffbcd15e04f46b0cf953c1df7d02afc5dc8a3bbf36f7a563d8109d64736f6c6343000809003360a06040523480156200001157600080fd5b5060405162001726380380620017268339810160408190526200003491620002e1565b83838383838484848260039080519060200190620000549291906200016e565b5081516200006a9060049060208501906200016e565b5060ff166080908152835160208086019190912060408051808201825260018152603160f81b9084015280517f8b73c3c69bb8fe3d512ecc4cf759cc79239f7b179b0ffacaa9a75d522b39400f938101939093528201527fc89efdaa54c0f20c7adf612882df0950f5a951637e0307cdcb4c672f298b8bc6606082015246918101919091523060a082015260c0019150620001029050565b60408051601f19818403018152908290528051602090910120600555600780546001600160a01b0319163390811790915591506000907f8be0079c531659141344cd1fd0a4f28419497f9722a3daafe3b4186f6b6457e0908290a360085550620003a995505050505050565b8280546200017c906200036c565b90600052602060002090601f016020900481019282620001a05760008555620001eb565b82601f10620001bb57805160ff1916838001178555620001eb565b82800160010185558215620001eb579182015b82811115620001eb578251825591602001919060010190620001ce565b50620001f9929150620001fd565b5090565b5b80821115620001f95760008155600101620001fe565b634e487b7160e01b600052604160045260246000fd5b600082601f8301126200023c57600080fd5b81516001600160401b038082111562000259576200025962000214565b604051601f8301601f19908116603f0116810190828211818310171562000284576200028462000214565b81604052838152602092508683858801011115620002a157600080fd5b600091505b83821015620002c55785820183015181830184015290820190620002a6565b83821115620002d75760008385830101525b9695505050505050565b60008060008060808587031215620002f857600080fd5b84516001600160401b03808211156200031057600080fd5b6200031e888389016200022a565b955060208701519150808211156200033557600080fd5b5062000344878288016200022a565b935050604085015160ff811681146200035c57600080fd5b6060959095015193969295505050565b600181811c908216806200038157607f821691505b60208210811415620003a357634e487b7160e01b600052602260045260246000fd5b50919050565b608051611361620003c560003960006101c101526113616000f3fe608060405234801561001057600080fd5b50600436106101375760003560e01c806340c10f19116100b857806395d89b411161007c57806395d89b41146102be578063a457c2d7146102c6578063a9059cbb146102d9578063d505accf146102ec578063dd62ed3e146102ff578063f2fde38b1461032a57600080fd5b806340c10f191461024557806370a082311461025857806379cc6790146102785780637ecebe001461028b5780638da5cb5b146102ab57600080fd5b8063313ce567116100ff578063313ce567146101bc57806331eecaf4146101f5578063355274ea146102205780633644e51514610229578063395093511461023257600080fd5b806306fdde031461013c57806308a1eee11461015a578063095ea7b31461016f57806318160ddd1461019257806323b872dd146101a9575b600080fd5b61014461033d565b6040516101519190610d46565b60405180910390f35b61016d610168366004610d79565b6103cb565b005b61018261017d366004610dae565b610418565b6040519015158152602001610151565b61019b60025481565b604051908152602001610151565b6101826101b7366004610dd8565b61042e565b6101e37f000000000000000000000000000000000000000000000000000000000000000081565b60405160ff9091168152602001610151565b610208610203366004610d79565b610480565b6040516001600160a01b039091168152602001610151565b61019b60085481565b61019b60055481565b610182610240366004610dae565b61054a565b61016d610253366004610dae565b610581565b61019b610266366004610e14565b60006020819052908152604090205481565b61016d610286366004610dae565b6105cd565b61019b610299366004610e14565b60066020526000908152604090205481565b600754610208906001600160a01b031681565b61014461062d565b6101826102d4366004610dae565b61063a565b6101826102e7366004610dae565b610671565b61016d6102fa366004610e36565b61067e565b61019b61030d366004610ea9565b600160209081526000928352604080842090915290825290205481565b61016d610338366004610e14565b610861565b6003805461034a90610edc565b80601f016020809104026020016040519081016040528092919081815260200182805461037690610edc565b80156103c35780601f10610398576101008083540402835291602001916103c3565b820191906000526020600020905b8154815290600101906020018083116103a657829003601f168201915b505050505081565b6007546001600160a01b031633146103e257600080fd5b60006103ed82610480565b6001600160a01b0381166000908152602081905260409020549091506104149082906108e7565b5050565b6000610425338484610992565b50600192915050565b600061043b848484610a1a565b6001600160a01b038416600090815260016020908152604080832033808552925290912054610476918691610471908690610f2d565b610992565b5060019392505050565b6007546040516000916001600160f81b0319916001600160a01b039091169084906104ad60208201610d09565b601f1982820381018352601f9091011660408190526104cf9190602001610f44565b6040516020818303038152906040528051906020012060405160200161052c94939291906001600160f81b031994909416845260609290921b6bffffffffffffffffffffffff191660018401526015830152603582015260550190565b60408051601f19818403018152919052805160209091012092915050565b3360008181526001602090815260408083206001600160a01b03871684529091528120549091610425918590610471908690610f60565b6007546001600160a01b0316331461059857600080fd5b6008548015806105b5575080826002546105b29190610f60565b11155b6105be57600080fd5b6105c88383610aec565b505050565b6007546001600160a01b031633146105e457600080fd5b6007546001600160a01b038084166000908152600160209081526040808320939094168083529290529190912054610623918491610471908590610f2d565b61041482826108e7565b6004805461034a90610edc565b3360008181526001602090815260408083206001600160a01b03871684529091528120549091610425918590610471908690610f2d565b6000610425338484610a1a565b83421061068a57600080fd5b7f7fffffffffffffffffffffffffffffff5d576e7357a4501ddfe92f46681b20a08111156106b757600080fd5b8260ff16601b14806106cc57508260ff16601c145b6106d557600080fd5b600060405180604001604052806002815260200161190160f01b8152506005547f6e71edae12b1b97f4d1f60370fef10105fa2faae0126114a169c64845d6126c960001b8a8a8a600660008f6001600160a01b03166001600160a01b03168152602001908152602001600020600081548092919061075290610f78565b909155506040805160208101969096526001600160a01b0394851690860152929091166060840152608083015260a082015260c0810188905260e001604051602081830303815290604052805190602001206040516020016107b693929190610f93565b60408051601f198184030181528282528051602091820120600080855291840180845281905260ff88169284019290925260608301869052608083018590529092509060019060a0016020604051602081039080840390855afa158015610821573d6000803e3d6000fd5b505050602060405103519050886001600160a01b0316816001600160a01b03161461084b57600080fd5b610856898989610992565b505050505050505050565b6007546001600160a01b0316331461087857600080fd5b6001600160a01b03811661088b57600080fd5b6007546040516001600160a01b038084169216907f8be0079c531659141344cd1fd0a4f28419497f9722a3daafe3b4186f6b6457e090600090a3600780546001600160a01b0319166001600160a01b0392909216919091179055565b6001600160a01b0382166108fa57600080fd5b61090682600083610b8d565b6001600160a01b0382166000908152602081905260408120805483929061092e908490610f2d565b9250508190555080600260008282546109479190610f2d565b90915550506040518181526000906001600160a01b038416907fddf252ad1be2c89b69c2b068fc378daa952ba7f163c4a11628f55a4df523b3ef906020015b60405180910390a35050565b6001600160a01b0383166109a557600080fd5b6001600160a01b0382166109b857600080fd5b6001600160a01b0383811660008181526001602090815260408083209487168084529482529182902085905590518481527f8c5be1e5ebec7d5bd14f71427d1e84f3dd0314c0f7b2291e5b200ac8c7c3b92591015b60405180910390a3505050565b6001600160a01b038316610a2d57600080fd5b6001600160a01b038216610a4057600080fd5b610a4b838383610b8d565b6001600160a01b03831660009081526020819052604081208054839290610a73908490610f2d565b90915550506001600160a01b03821660009081526020819052604081208054839290610aa0908490610f60565b92505081905550816001600160a01b0316836001600160a01b03167fddf252ad1be2c89b69c2b068fc378daa952ba7f163c4a11628f55a4df523b3ef83604051610a0d91815260200190565b6001600160a01b038216610aff57600080fd5b610b0b60008383610b8d565b8060026000828254610b1d9190610f60565b90915550506001600160a01b03821660009081526020819052604081208054839290610b4a908490610f60565b90915550506040518181526001600160a01b038316906000907fddf252ad1be2c89b69c2b068fc378daa952ba7f163c4a11628f55a4df523b3ef90602001610986565b600754604051633d70e7e560e11b81527f75a31d1ce8e5f9892188befc328d3b9bd3fa5037457e881abc21f388471b8d9660048201526001600160a01b0390911690637ae1cfca9060240160206040518083038186803b158015610bf057600080fd5b505afa158015610c04573d6000803e3d6000fd5b505050506040513d601f19601f82011682018060405250810190610c289190610fba565b15610c3257600080fd5b6007546040516001600160a01b0390911690637ae1cfca90610c7b907f1a7261d3a36c4ce4235d10859911c9444a6963a3591ec5725b96871d9810626b90600490602001610fdc565b604051602081830303815290604052805190602001206040518263ffffffff1660e01b8152600401610caf91815260200190565b60206040518083038186803b158015610cc757600080fd5b505afa158015610cdb573d6000803e3d6000fd5b505050506040513d601f19601f82011682018060405250810190610cff9190610fba565b156105c857600080fd5b6102a68061108683390190565b60005b83811015610d31578181015183820152602001610d19565b83811115610d40576000848401525b50505050565b6020815260008251806020840152610d65816040850160208701610d16565b601f01601f19169190910160400192915050565b600060208284031215610d8b57600080fd5b5035919050565b80356001600160a01b0381168114610da957600080fd5b919050565b60008060408385031215610dc157600080fd5b610dca83610d92565b946020939093013593505050565b600080600060608486031215610ded57600080fd5b610df684610d92565b9250610e0460208501610d92565b9150604084013590509250925092565b600060208284031215610e2657600080fd5b610e2f82610d92565b9392505050565b600080600080600080600060e0888a031215610e5157600080fd5b610e5a88610d92565b9650610e6860208901610d92565b95506040880135945060608801359350608088013560ff81168114610e8c57600080fd5b9699959850939692959460a0840135945060c09093013592915050565b60008060408385031215610ebc57600080fd5b610ec583610d92565b9150610ed360208401610d92565b90509250929050565b600181811c90821680610ef057607f821691505b60208210811415610f1157634e487b7160e01b600052602260045260246000fd5b50919050565b634e487b7160e01b600052601160045260246000fd5b600082821015610f3f57610f3f610f17565b500390565b60008251610f56818460208701610d16565b9190910192915050565b60008219821115610f7357610f73610f17565b500190565b6000600019821415610f8c57610f8c610f17565b5060010190565b60008451610fa5818460208901610d16565b91909101928352506020820152604001919050565b600060208284031215610fcc57600080fd5b81518015158114610e2f57600080fd5b828152600060206000845481600182811c915080831680610ffe57607f831692505b85831081141561101c57634e487b7160e01b85526022600452602485fd5b808015611030576001811461104557611076565b60ff1985168988015283890187019550611076565b60008a81526020902060005b8581101561106c5781548b82018a0152908401908801611051565b505086848a010195505b5093999850505050505050505056fe60806040526000805534801561001457600080fd5b50610282806100246000396000f3fe608060405234801561001057600080fd5b50600436106100355760003560e01c8062f55d9d1461003a5780631cff79cd1461004f575b600080fd5b61004d610048366004610138565b610079565b005b61006261005d36600461015a565b610097565b6040516100709291906101dd565b60405180910390f35b6000541561008657600080fd5b60016000556001600160a01b038116ff5b6000606060008054146100a957600080fd5b60016000556040516001600160a01b038616906100c9908690869061023c565b6000604051808303816000865af19150503d8060008114610106576040519150601f19603f3d011682016040523d82523d6000602084013e61010b565b606091505b506000805590969095509350505050565b80356001600160a01b038116811461013357600080fd5b919050565b60006020828403121561014a57600080fd5b6101538261011c565b9392505050565b60008060006040848603121561016f57600080fd5b6101788461011c565b9250602084013567ffffffffffffffff8082111561019557600080fd5b818601915086601f8301126101a957600080fd5b8135818111156101b857600080fd5b8760208285010111156101ca57600080fd5b6020830194508093505050509250925092565b821515815260006020604081840152835180604085015260005b81811015610213578581018301518582016060015282016101f7565b81811115610225576000606083870101525b50601f01601f191692909201606001949350505050565b818382376000910190815291905056fea26469706673582212205eae7bcaecffbcd15e04f46b0cf953c1df7d02afc5dc8a3bbf36f7a563d8109d64736f6c63430008090033a2646970667358221220bfbf0b337defe4d8011c1cf32dae1c8522efe8cf7a61187d15f7f28fce193b1964736f6c63430008090033a2646970667358221220a695b360fc93700a35bb551570d46fe9d048cd5bd924dbf9c4ec90e3a876209964736f6c63430008090033",
      "opcodes": "PUSH1 0x80 PUSH1 0x40 MSTORE CALLVALUE DUP1 ISZERO PUSH2 0x10 JUMPI PUSH1 0x0 DUP1 REVERT JUMPDEST POP PUSH2 0x4A12 DUP1 PUSH2 0x20 PUSH1 0x0 CODECOPY PUSH1 0x0 RETURN INVALID PUSH1 0x80 PUSH1 0x40 MSTORE CALLVALUE DUP1 ISZERO PUSH3 0x11 JUMPI PUSH1 0x0 DUP1 REVERT JUMPDEST POP PUSH1 0x4 CALLDATASIZE LT PUSH3 0x192 JUMPI PUSH1 0x0 CALLDATALOAD PUSH1 0xE0 SHR DUP1 PUSH4 0x935B13F6 GT PUSH3 0xF0 JUMPI DUP1 PUSH4 0xC031A180 GT PUSH3 0xA3 JUMPI DUP1 PUSH4 0xD289D1CB GT PUSH3 0x7A JUMPI DUP1 PUSH4 0xD289D1CB EQ PUSH3 0x40E JUMPI DUP1 PUSH4 0xD2BC37F8 EQ PUSH3 0x425 JUMPI DUP1 PUSH4 0xDC97D962 EQ PUSH3 0x42F JUMPI DUP1 PUSH4 0xE3DFA299 EQ PUSH3 0x452 JUMPI PUSH1 0x0 DUP1 REVERT JUMPDEST DUP1 PUSH4 0xC031A180 EQ PUSH3 0x3C9 JUMPI DUP1 PUSH4 0xD1CF834F EQ PUSH3 0x3E0 JUMPI DUP1 PUSH4 0xD26FF210 EQ PUSH3 0x3F7 JUMPI PUSH1 0x0 DUP1 REVERT JUMPDEST DUP1 PUSH4 0x935B13F6 EQ PUSH3 0x2D8 JUMPI DUP1 PUSH4 0x986E791A EQ PUSH3 0x2EF JUMPI DUP1 PUSH4 0x9DED06DF EQ PUSH3 0x315 JUMPI DUP1 PUSH4 0xA3499C73 EQ PUSH3 0x32C JUMPI DUP1 PUSH4 0xAA1E1F0A EQ PUSH3 0x343 JUMPI DUP1 PUSH4 0xBD02D0F5 EQ PUSH3 0x397 JUMPI PUSH1 0x0 DUP1 REVERT JUMPDEST DUP1 PUSH4 0x5C60DA1B GT PUSH3 0x149 JUMPI DUP1 PUSH4 0x5C60DA1B EQ PUSH3 0x248 JUMPI DUP1 PUSH4 0x60C6FF43 EQ PUSH3 0x252 JUMPI DUP1 PUSH4 0x646C5D34 EQ PUSH3 0x269 JUMPI DUP1 PUSH4 0x7AE1CFCA EQ PUSH3 0x280 JUMPI DUP1 PUSH4 0x7B1B769E EQ PUSH3 0x2B7 JUMPI DUP1 PUSH4 0x8DA5CB5B EQ PUSH3 0x2CE JUMPI PUSH1 0x0 DUP1 REVERT JUMPDEST DUP1 PUSH4 0x37699C1 EQ PUSH3 0x197 JUMPI DUP1 PUSH4 0x9C5EABE EQ PUSH3 0x1B0 JUMPI DUP1 PUSH4 0x21F8A721 EQ PUSH3 0x1C7 JUMPI DUP1 PUSH4 0x34FF6983 EQ PUSH3 0x210 JUMPI DUP1 PUSH4 0x3CD6EE6D EQ PUSH3 0x227 JUMPI DUP1 PUSH4 0x570CA735 EQ PUSH3 0x23E JUMPI JUMPDEST PUSH1 0x0 DUP1 REVERT JUMPDEST PUSH3 0x1AE PUSH3 0x1A8 CALLDATASIZE PUSH1 0x4 PUSH3 0x25B0 JUMP JUMPDEST PUSH3 0x45C JUMP JUMPDEST STOP JUMPDEST PUSH3 0x1AE PUSH3 0x1C1 CALLDATASIZE PUSH1 0x4 PUSH3 0x25B0 JUMP JUMPDEST PUSH3 0x490 JUMP JUMPDEST PUSH3 0x1F3 PUSH3 0x1D8 CALLDATASIZE PUSH1 0x4 PUSH3 0x25F5 JUMP JUMPDEST PUSH1 0x0 SWAP1 DUP2 MSTORE PUSH1 0x2 PUSH1 0x20 MSTORE PUSH1 0x40 SWAP1 KECCAK256 SLOAD PUSH1 0x1 PUSH1 0x1 PUSH1 0xA0 SHL SUB AND SWAP1 JUMP JUMPDEST PUSH1 0x40 MLOAD PUSH1 0x1 PUSH1 0x1 PUSH1 0xA0 SHL SUB SWAP1 SWAP2 AND DUP2 MSTORE PUSH1 0x20 ADD JUMPDEST PUSH1 0x40 MLOAD DUP1 SWAP2 SUB SWAP1 RETURN JUMPDEST PUSH3 0x1AE PUSH3 0x221 CALLDATASIZE PUSH1 0x4 PUSH3 0x26DE JUMP JUMPDEST PUSH3 0x4B1 JUMP JUMPDEST PUSH3 0x1AE PUSH3 0x238 CALLDATASIZE PUSH1 0x4 PUSH3 0x25B0 JUMP JUMPDEST PUSH3 0x615 JUMP JUMPDEST PUSH3 0x1F3 PUSH3 0x658 JUMP JUMPDEST PUSH3 0x1F3 PUSH3 0x673 JUMP JUMPDEST PUSH3 0x1AE PUSH3 0x263 CALLDATASIZE PUSH1 0x4 PUSH3 0x25B0 JUMP JUMPDEST PUSH3 0x6CA JUMP JUMPDEST PUSH3 0x1AE PUSH3 0x27A CALLDATASIZE PUSH1 0x4 PUSH3 0x26DE JUMP JUMPDEST PUSH3 0x703 JUMP JUMPDEST PUSH3 0x2A6 PUSH3 0x291 CALLDATASIZE PUSH1 0x4 PUSH3 0x25F5 JUMP JUMPDEST PUSH1 0x0 SWAP1 DUP2 MSTORE PUSH1 0x4 PUSH1 0x20 MSTORE PUSH1 0x40 SWAP1 KECCAK256 SLOAD PUSH1 0xFF AND SWAP1 JUMP JUMPDEST PUSH1 0x40 MLOAD SWAP1 ISZERO ISZERO DUP2 MSTORE PUSH1 0x20 ADD PUSH3 0x207 JUMP JUMPDEST PUSH3 0x2A6 PUSH3 0x2C8 CALLDATASIZE PUSH1 0x4 PUSH3 0x26DE JUMP JUMPDEST PUSH3 0x857 JUMP JUMPDEST PUSH3 0x1F3 PUSH3 0x86E JUMP JUMPDEST PUSH3 0x1F3 PUSH3 0x2E9 CALLDATASIZE PUSH1 0x4 PUSH3 0x26DE JUMP JUMPDEST PUSH3 0x884 JUMP JUMPDEST PUSH3 0x306 PUSH3 0x300 CALLDATASIZE PUSH1 0x4 PUSH3 0x25F5 JUMP JUMPDEST PUSH3 0x895 JUMP JUMPDEST PUSH1 0x40 MLOAD PUSH3 0x207 SWAP2 SWAP1 PUSH3 0x2773 JUMP JUMPDEST PUSH3 0x1AE PUSH3 0x326 CALLDATASIZE PUSH1 0x4 PUSH3 0x25B0 JUMP JUMPDEST PUSH3 0x93F JUMP JUMPDEST PUSH3 0x1AE PUSH3 0x33D CALLDATASIZE PUSH1 0x4 PUSH3 0x279E JUMP JUMPDEST PUSH3 0xAD3 JUMP JUMPDEST PUSH32 0x75A31D1CE8E5F9892188BEFC328D3B9BD3FA5037457E881ABC21F388471B8D96 PUSH1 0x0 MSTORE PUSH1 0x4 PUSH1 0x20 MSTORE PUSH32 0xA0B596B8942D6EF5CC77CE0AD89A75F0BFCC7F0132CD8DB58E8449DCF04A858A SLOAD PUSH1 0xFF AND PUSH3 0x2A6 JUMP JUMPDEST PUSH3 0x3BA PUSH3 0x3A8 CALLDATASIZE PUSH1 0x4 PUSH3 0x25F5 JUMP JUMPDEST PUSH1 0x0 SWAP1 DUP2 MSTORE PUSH1 0x20 DUP2 SWAP1 MSTORE PUSH1 0x40 SWAP1 KECCAK256 SLOAD SWAP1 JUMP JUMPDEST PUSH1 0x40 MLOAD SWAP1 DUP2 MSTORE PUSH1 0x20 ADD PUSH3 0x207 JUMP JUMPDEST PUSH3 0x306 PUSH3 0x3DA CALLDATASIZE PUSH1 0x4 PUSH3 0x25F5 JUMP JUMPDEST PUSH3 0xCF7 JUMP JUMPDEST PUSH3 0x1AE PUSH3 0x3F1 CALLDATASIZE PUSH1 0x4 PUSH3 0x25B0 JUMP JUMPDEST PUSH3 0xD16 JUMP JUMPDEST PUSH3 0x2A6 PUSH3 0x408 CALLDATASIZE PUSH1 0x4 PUSH3 0x25F5 JUMP JUMPDEST PUSH3 0xDC5 JUMP JUMPDEST PUSH3 0x1AE PUSH3 0x41F CALLDATASIZE PUSH1 0x4 PUSH3 0x25B0 JUMP JUMPDEST PUSH3 0xDD6 JUMP JUMPDEST PUSH3 0x1AE PUSH3 0xE84 JUMP JUMPDEST PUSH3 0x3BA PUSH3 0x440 CALLDATASIZE PUSH1 0x4 PUSH3 0x25F5 JUMP JUMPDEST PUSH1 0x0 SWAP1 DUP2 MSTORE PUSH1 0x5 PUSH1 0x20 MSTORE PUSH1 0x40 SWAP1 KECCAK256 SLOAD SWAP1 JUMP JUMPDEST PUSH3 0x1AE PUSH3 0xFD6 JUMP JUMPDEST CALLER ADDRESS EQ PUSH3 0x469 JUMPI PUSH1 0x0 DUP1 REVERT JUMPDEST PUSH1 0x0 DUP1 PUSH3 0x47A DUP4 DUP6 ADD DUP6 PUSH3 0x27FF JUMP JUMPDEST SWAP2 POP SWAP2 POP PUSH3 0x48A DUP3 DUP3 PUSH3 0x1128 JUMP JUMPDEST POP POP POP POP JUMP JUMPDEST PUSH1 0x0 DUP1 PUSH3 0x4A1 DUP4 DUP6 ADD DUP6 PUSH3 0x2847 JUMP JUMPDEST SWAP2 POP SWAP2 POP PUSH3 0x48A DUP3 DUP3 PUSH3 0x13F4 JUMP JUMPDEST PUSH1 0x0 PUSH3 0x4BD PUSH3 0x1843 JUMP JUMPDEST SWAP1 POP PUSH3 0x4CB DUP2 CALLER PUSH3 0x1891 JUMP JUMPDEST PUSH3 0x4D5 JUMPI PUSH1 0x0 DUP1 REVERT JUMPDEST PUSH1 0x0 DUP1 CALLDATASIZE PUSH1 0x40 MLOAD PUSH3 0x4E9 SWAP3 SWAP2 SWAP1 PUSH3 0x28B1 JUMP JUMPDEST PUSH1 0x40 MLOAD DUP1 SWAP2 SUB SWAP1 KECCAK256 SWAP1 POP PUSH3 0x500 DUP3 DUP3 CALLER PUSH3 0x18AA JUMP JUMPDEST ISZERO PUSH3 0x50B JUMPI PUSH1 0x0 DUP1 REVERT JUMPDEST PUSH3 0x51A DUP3 DUP3 CALLER PUSH1 0x1 PUSH3 0x18C5 JUMP JUMPDEST PUSH1 0x0 PUSH1 0x1 PUSH3 0x52A DUP5 DUP5 PUSH3 0x18DD JUMP JUMPDEST PUSH3 0x536 SWAP2 SWAP1 PUSH3 0x28D7 JUMP JUMPDEST SWAP1 POP PUSH3 0x545 DUP4 DUP4 DUP4 PUSH3 0x18EF JUMP JUMPDEST PUSH3 0x550 DUP4 PUSH3 0x1912 JUMP JUMPDEST DUP2 LT ISZERO PUSH3 0x55E JUMPI POP POP POP POP JUMP JUMPDEST PUSH3 0x575 PUSH3 0x56D DUP6 PUSH3 0x1923 JUMP JUMPDEST PUSH1 0x0 PUSH3 0x1977 JUMP JUMPDEST DUP4 PUSH1 0x40 MLOAD PUSH3 0x585 SWAP2 SWAP1 PUSH3 0x28F2 JUMP JUMPDEST PUSH1 0x40 MLOAD SWAP1 DUP2 SWAP1 SUB DUP2 KECCAK256 SWAP1 PUSH32 0x5327E3AF9CD2D5C19A8DFF23EF487D7A4D5F6FC985464F1792A33C2120575989 SWAP1 PUSH1 0x0 SWAP1 LOG2 PUSH3 0x5C3 DUP4 DUP4 PUSH1 0x0 PUSH3 0x18EF JUMP JUMPDEST PUSH1 0x0 PUSH3 0x5D0 DUP5 PUSH3 0x1997 JUMP JUMPDEST SWAP1 POP PUSH1 0x0 JUMPDEST DUP2 DUP2 LT ISZERO PUSH3 0x60D JUMPI PUSH3 0x5F8 DUP6 DUP6 PUSH3 0x5F0 DUP9 DUP6 PUSH3 0x19A8 JUMP JUMPDEST PUSH1 0x0 PUSH3 0x18C5 JUMP JUMPDEST DUP1 PUSH3 0x604 DUP2 PUSH3 0x2910 JUMP JUMPDEST SWAP2 POP POP PUSH3 0x5D5 JUMP JUMPDEST POP POP POP POP POP POP JUMP JUMPDEST CALLER ADDRESS EQ PUSH3 0x622 JUMPI PUSH1 0x0 DUP1 REVERT JUMPDEST PUSH1 0x0 DUP1 DUP1 DUP1 DUP1 PUSH3 0x636 DUP7 DUP9 ADD DUP9 PUSH3 0x2940 JUMP JUMPDEST SWAP5 POP SWAP5 POP SWAP5 POP SWAP5 POP SWAP5 POP PUSH3 0x64F DUP6 DUP6 DUP6 DUP6 DUP6 PUSH3 0x19BA JUMP JUMPDEST POP POP POP POP POP POP POP JUMP JUMPDEST PUSH1 0x0 PUSH3 0x66E PUSH3 0x668 PUSH3 0x1AE1 JUMP JUMPDEST PUSH3 0x1B2F JUMP JUMPDEST SWAP1 POP SWAP1 JUMP JUMPDEST PUSH32 0x360894A13BA1A3210667C828492DB98DCA3E2076CC3735A920A3CA505D382BBC PUSH1 0x0 MSTORE PUSH1 0x2 PUSH1 0x20 MSTORE PUSH32 0x11141F466C69FD409E1990E063B49CD6D61ED2ECFF27A2E402E259CA6B9A01A3 SLOAD PUSH1 0x1 PUSH1 0x1 PUSH1 0xA0 SHL SUB AND SWAP1 JUMP JUMPDEST CALLER ADDRESS EQ PUSH3 0x6D7 JUMPI PUSH1 0x0 DUP1 REVERT JUMPDEST PUSH1 0x0 DUP1 DUP1 PUSH3 0x6E9 DUP5 DUP7 ADD DUP7 PUSH3 0x29E4 JUMP JUMPDEST SWAP3 POP SWAP3 POP SWAP3 POP PUSH3 0x6FC DUP4 DUP4 DUP4 PUSH3 0x1B40 JUMP JUMPDEST POP POP POP POP POP JUMP JUMPDEST PUSH1 0x0 PUSH3 0x70F PUSH3 0x1843 JUMP JUMPDEST SWAP1 POP PUSH3 0x71D DUP2 CALLER PUSH3 0x1891 JUMP JUMPDEST PUSH3 0x727 JUMPI PUSH1 0x0 DUP1 REVERT JUMPDEST PUSH1 0x0 DUP1 CALLDATASIZE PUSH1 0x40 MLOAD PUSH3 0x73B SWAP3 SWAP2 SWAP1 PUSH3 0x28B1 JUMP JUMPDEST PUSH1 0x40 MLOAD DUP1 SWAP2 SUB SWAP1 KECCAK256 SWAP1 POP PUSH3 0x752 DUP3 DUP3 CALLER PUSH3 0x18AA JUMP JUMPDEST ISZERO PUSH3 0x75D JUMPI PUSH1 0x0 DUP1 REVERT JUMPDEST PUSH3 0x76C DUP3 DUP3 CALLER PUSH1 0x1 PUSH3 0x18C5 JUMP JUMPDEST PUSH1 0x0 PUSH1 0x1 PUSH3 0x77C DUP5 DUP5 PUSH3 0x18DD JUMP JUMPDEST PUSH3 0x788 SWAP2 SWAP1 PUSH3 0x28D7 JUMP JUMPDEST SWAP1 POP PUSH3 0x797 DUP4 DUP4 DUP4 PUSH3 0x18EF JUMP JUMPDEST PUSH3 0x7A2 DUP4 PUSH3 0x1912 JUMP JUMPDEST DUP2 LT ISZERO PUSH3 0x7B0 JUMPI POP POP POP POP JUMP JUMPDEST PUSH3 0x7C7 PUSH3 0x7BF DUP6 PUSH3 0x1923 JUMP JUMPDEST PUSH1 0x1 PUSH3 0x1977 JUMP JUMPDEST DUP4 PUSH1 0x40 MLOAD PUSH3 0x7D7 SWAP2 SWAP1 PUSH3 0x28F2 JUMP JUMPDEST PUSH1 0x40 MLOAD SWAP1 DUP2 SWAP1 SUB DUP2 KECCAK256 SWAP1 PUSH32 0x11260C92ECB021C33706DB3A9699410F343D5F2175201A4551FE7634347A0CF1 SWAP1 PUSH1 0x0 SWAP1 LOG2 PUSH3 0x815 DUP4 DUP4 PUSH1 0x0 PUSH3 0x18EF JUMP JUMPDEST PUSH1 0x0 PUSH3 0x822 DUP5 PUSH3 0x1997 JUMP JUMPDEST SWAP1 POP PUSH1 0x0 JUMPDEST DUP2 DUP2 LT ISZERO PUSH3 0x60D JUMPI PUSH3 0x842 DUP6 DUP6 PUSH3 0x5F0 DUP9 DUP6 PUSH3 0x19A8 JUMP JUMPDEST DUP1 PUSH3 0x84E DUP2 PUSH3 0x2910 JUMP JUMPDEST SWAP2 POP POP PUSH3 0x827 JUMP JUMPDEST PUSH1 0x0 PUSH3 0x868 PUSH3 0x291 DUP4 PUSH3 0x1923 JUMP JUMPDEST SWAP3 SWAP2 POP POP JUMP JUMPDEST PUSH1 0x0 PUSH3 0x66E PUSH3 0x87E PUSH3 0x1C6D JUMP JUMPDEST PUSH3 0x1CBB JUMP JUMPDEST PUSH1 0x0 PUSH3 0x868 PUSH3 0x1D8 DUP4 PUSH3 0x1CCC JUMP JUMPDEST PUSH1 0x0 DUP2 DUP2 MSTORE PUSH1 0x1 PUSH1 0x20 MSTORE PUSH1 0x40 SWAP1 KECCAK256 DUP1 SLOAD PUSH1 0x60 SWAP2 SWAP1 PUSH3 0x8B4 SWAP1 PUSH3 0x2A43 JUMP JUMPDEST DUP1 PUSH1 0x1F ADD PUSH1 0x20 DUP1 SWAP2 DIV MUL PUSH1 0x20 ADD PUSH1 0x40 MLOAD SWAP1 DUP2 ADD PUSH1 0x40 MSTORE DUP1 SWAP3 SWAP2 SWAP1 DUP2 DUP2 MSTORE PUSH1 0x20 ADD DUP3 DUP1 SLOAD PUSH3 0x8E2 SWAP1 PUSH3 0x2A43 JUMP JUMPDEST DUP1 ISZERO PUSH3 0x933 JUMPI DUP1 PUSH1 0x1F LT PUSH3 0x907 JUMPI PUSH2 0x100 DUP1 DUP4 SLOAD DIV MUL DUP4 MSTORE SWAP2 PUSH1 0x20 ADD SWAP2 PUSH3 0x933 JUMP JUMPDEST DUP3 ADD SWAP2 SWAP1 PUSH1 0x0 MSTORE PUSH1 0x20 PUSH1 0x0 KECCAK256 SWAP1 JUMPDEST DUP2 SLOAD DUP2 MSTORE SWAP1 PUSH1 0x1 ADD SWAP1 PUSH1 0x20 ADD DUP1 DUP4 GT PUSH3 0x915 JUMPI DUP3 SWAP1 SUB PUSH1 0x1F AND DUP3 ADD SWAP2 JUMPDEST POP POP POP POP POP SWAP1 POP SWAP2 SWAP1 POP JUMP JUMPDEST PUSH1 0x0 PUSH3 0x94B PUSH3 0x673 JUMP JUMPDEST PUSH1 0x1 PUSH1 0x1 PUSH1 0xA0 SHL SUB AND EQ ISZERO PUSH3 0x960 JUMPI PUSH1 0x0 DUP1 REVERT JUMPDEST PUSH1 0x0 DUP1 DUP1 DUP1 PUSH3 0x973 DUP6 DUP8 ADD DUP8 PUSH3 0x2AA6 JUMP JUMPDEST SWAP4 POP SWAP4 POP SWAP4 POP SWAP4 POP PUSH1 0x0 PUSH1 0x1 PUSH3 0x989 PUSH3 0x1843 JUMP JUMPDEST PUSH3 0x995 SWAP2 SWAP1 PUSH3 0x28D7 JUMP JUMPDEST SWAP1 POP PUSH3 0x9E9 DUP2 PUSH32 0xD51DC9B187568BB94760866E1D0D066CA470037D2D331AFB1A02EC74BFB8990C PUSH1 0x0 SWAP1 DUP2 MSTORE PUSH1 0x20 MSTORE PUSH32 0xF8D0C05CD32E3272241FDC9D5839565F8BCF94139CB4BD09E230E1B57A60DDC2 SSTORE JUMP JUMPDEST PUSH3 0x9F6 DUP2 DUP7 DUP7 PUSH3 0x1D06 JUMP JUMPDEST PUSH1 0x0 PUSH1 0x1 PUSH3 0xA04 PUSH3 0x1C6D JUMP JUMPDEST PUSH3 0xA10 SWAP2 SWAP1 PUSH3 0x28D7 JUMP JUMPDEST SWAP1 POP PUSH3 0xA1D DUP2 PUSH3 0x1DB1 JUMP JUMPDEST PUSH3 0xA29 DUP2 DUP6 PUSH3 0x1DFE JUMP JUMPDEST PUSH1 0x0 PUSH1 0x1 PUSH3 0xA37 PUSH3 0x1AE1 JUMP JUMPDEST PUSH3 0xA43 SWAP2 SWAP1 PUSH3 0x28D7 JUMP JUMPDEST SWAP1 POP PUSH3 0xA50 DUP2 PUSH3 0x1E18 JUMP JUMPDEST PUSH3 0xA5C DUP2 DUP6 PUSH3 0x1E65 JUMP JUMPDEST PUSH1 0x40 MLOAD PUSH1 0x1 PUSH1 0x1 PUSH1 0xA0 SHL SUB DUP7 AND SWAP1 PUSH1 0x0 SWAP1 PUSH32 0x8BE0079C531659141344CD1FD0A4F28419497F9722A3DAAFE3B4186F6B6457E0 SWAP1 DUP3 SWAP1 LOG3 PUSH1 0x40 MLOAD PUSH1 0x1 PUSH1 0x1 PUSH1 0xA0 SHL SUB DUP6 AND SWAP1 PUSH1 0x0 SWAP1 PUSH32 0xB37FF92C23ECA455DBBD028D9CB869F69E16485D5EF15286FC394C721A5D5DC1 SWAP1 DUP3 SWAP1 LOG3 POP POP POP POP POP POP POP POP POP JUMP JUMPDEST PUSH1 0x0 PUSH3 0xADF PUSH3 0x1843 JUMP JUMPDEST SWAP1 POP PUSH3 0xAED DUP2 CALLER PUSH3 0x1891 JUMP JUMPDEST PUSH3 0xAF7 JUMPI PUSH1 0x0 DUP1 REVERT JUMPDEST PUSH1 0x0 DUP1 CALLDATASIZE PUSH1 0x40 MLOAD PUSH3 0xB0B SWAP3 SWAP2 SWAP1 PUSH3 0x28B1 JUMP JUMPDEST PUSH1 0x40 MLOAD DUP1 SWAP2 SUB SWAP1 KECCAK256 SWAP1 POP PUSH3 0xB22 DUP3 DUP3 CALLER PUSH3 0x18AA JUMP JUMPDEST ISZERO PUSH3 0xB2D JUMPI PUSH1 0x0 DUP1 REVERT JUMPDEST PUSH3 0xB3C DUP3 DUP3 CALLER PUSH1 0x1 PUSH3 0x18C5 JUMP JUMPDEST PUSH1 0x0 PUSH1 0x1 PUSH3 0xB4C DUP5 DUP5 PUSH3 0x18DD JUMP JUMPDEST PUSH3 0xB58 SWAP2 SWAP1 PUSH3 0x28D7 JUMP JUMPDEST SWAP1 POP PUSH3 0xB67 DUP4 DUP4 DUP4 PUSH3 0x18EF JUMP JUMPDEST PUSH3 0xB72 DUP4 PUSH3 0x1912 JUMP JUMPDEST DUP2 LT ISZERO PUSH3 0xB83 JUMPI POP POP POP PUSH3 0x48A JUMP JUMPDEST DUP7 PUSH1 0x1 PUSH1 0x1 PUSH1 0xA0 SHL SUB AND EXTCODEHASH DUP7 EQ PUSH3 0xB9A JUMPI PUSH1 0x0 DUP1 REVERT JUMPDEST PUSH1 0x40 MLOAD PUSH1 0x1 PUSH1 0x1 PUSH1 0xA0 SHL SUB DUP9 AND SWAP1 PUSH32 0xBC7CD75A20EE27FD9ADEBAB32041F755214DBC6BFFA90CC0225B39DA2E5C2D3B SWAP1 PUSH1 0x0 SWAP1 LOG2 DUP4 ISZERO PUSH3 0xC91 JUMPI PUSH1 0x0 DUP8 PUSH1 0x1 PUSH1 0x1 PUSH1 0xA0 SHL SUB AND PUSH4 0x9DED06DF PUSH1 0xE0 SHL DUP8 DUP8 PUSH1 0x40 MLOAD PUSH1 0x24 ADD PUSH3 0xBFE SWAP3 SWAP2 SWAP1 PUSH3 0x2B78 JUMP JUMPDEST PUSH1 0x40 DUP1 MLOAD PUSH1 0x1F NOT DUP2 DUP5 SUB ADD DUP2 MSTORE SWAP2 DUP2 MSTORE PUSH1 0x20 DUP3 ADD DUP1 MLOAD PUSH1 0x1 PUSH1 0x1 PUSH1 0xE0 SHL SUB AND PUSH1 0x1 PUSH1 0x1 PUSH1 0xE0 SHL SUB NOT SWAP1 SWAP5 AND SWAP4 SWAP1 SWAP4 OR SWAP1 SWAP3 MSTORE SWAP1 MLOAD PUSH3 0xC3E SWAP2 SWAP1 PUSH3 0x28F2 JUMP JUMPDEST PUSH1 0x0 PUSH1 0x40 MLOAD DUP1 DUP4 SUB DUP2 DUP6 GAS DELEGATECALL SWAP2 POP POP RETURNDATASIZE DUP1 PUSH1 0x0 DUP2 EQ PUSH3 0xC7B JUMPI PUSH1 0x40 MLOAD SWAP2 POP PUSH1 0x1F NOT PUSH1 0x3F RETURNDATASIZE ADD AND DUP3 ADD PUSH1 0x40 MSTORE RETURNDATASIZE DUP3 MSTORE RETURNDATASIZE PUSH1 0x0 PUSH1 0x20 DUP5 ADD RETURNDATACOPY PUSH3 0xC80 JUMP JUMPDEST PUSH1 0x60 SWAP2 POP JUMPDEST POP POP SWAP1 POP DUP1 PUSH3 0xC8F JUMPI PUSH1 0x0 DUP1 REVERT JUMPDEST POP JUMPDEST PUSH3 0xC9C DUP8 PUSH3 0x1E74 JUMP JUMPDEST PUSH3 0xCAA DUP4 DUP4 PUSH1 0x0 PUSH3 0x18EF JUMP JUMPDEST PUSH1 0x0 PUSH3 0xCB7 DUP5 PUSH3 0x1997 JUMP JUMPDEST SWAP1 POP PUSH1 0x0 JUMPDEST DUP2 DUP2 LT ISZERO PUSH3 0xCEC JUMPI PUSH3 0xCD7 DUP6 DUP6 PUSH3 0x5F0 DUP9 DUP6 PUSH3 0x19A8 JUMP JUMPDEST DUP1 PUSH3 0xCE3 DUP2 PUSH3 0x2910 JUMP JUMPDEST SWAP2 POP POP PUSH3 0xCBC JUMP JUMPDEST POP POP POP POP POP POP POP POP POP JUMP JUMPDEST PUSH1 0x0 DUP2 DUP2 MSTORE PUSH1 0x3 PUSH1 0x20 MSTORE PUSH1 0x40 SWAP1 KECCAK256 DUP1 SLOAD PUSH1 0x60 SWAP2 SWAP1 PUSH3 0x8B4 SWAP1 PUSH3 0x2A43 JUMP JUMPDEST CALLER ADDRESS EQ PUSH3 0xD23 JUMPI PUSH1 0x0 DUP1 REVERT JUMPDEST PUSH1 0x0 PUSH3 0xD33 DUP3 DUP5 ADD DUP5 PUSH3 0x2BA7 JUMP JUMPDEST SWAP1 POP PUSH1 0x0 PUSH3 0xD41 PUSH3 0x1C6D JUMP JUMPDEST SWAP1 POP PUSH1 0x1 PUSH1 0x1 PUSH1 0xA0 SHL SUB DUP3 AND PUSH3 0xD57 JUMPI PUSH1 0x0 DUP1 REVERT JUMPDEST DUP2 PUSH1 0x1 PUSH1 0x1 PUSH1 0xA0 SHL SUB AND PUSH3 0xD6C DUP3 PUSH3 0x1CBB JUMP JUMPDEST PUSH1 0x1 PUSH1 0x1 PUSH1 0xA0 SHL SUB AND PUSH32 0x8BE0079C531659141344CD1FD0A4F28419497F9722A3DAAFE3B4186F6B6457E0 PUSH1 0x40 MLOAD PUSH1 0x40 MLOAD DUP1 SWAP2 SUB SWAP1 LOG3 PUSH3 0xDB9 PUSH3 0xDB0 DUP3 PUSH3 0x2910 JUMP JUMPDEST SWAP2 POP DUP2 PUSH3 0x1DB1 JUMP JUMPDEST PUSH3 0x48A DUP2 DUP4 PUSH3 0x1DFE JUMP JUMPDEST PUSH1 0x0 PUSH3 0x868 PUSH3 0x291 DUP4 PUSH3 0x1EA0 JUMP JUMPDEST CALLER ADDRESS EQ PUSH3 0xDE3 JUMPI PUSH1 0x0 DUP1 REVERT JUMPDEST PUSH1 0x0 PUSH3 0xDF3 DUP3 DUP5 ADD DUP5 PUSH3 0x2BA7 JUMP JUMPDEST SWAP1 POP PUSH1 0x1 PUSH1 0x1 PUSH1 0xA0 SHL SUB DUP2 AND PUSH3 0xE09 JUMPI PUSH1 0x0 DUP1 REVERT JUMPDEST DUP1 PUSH1 0x1 PUSH1 0x1 PUSH1 0xA0 SHL SUB AND PUSH3 0xE1D PUSH3 0x658 JUMP JUMPDEST PUSH1 0x1 PUSH1 0x1 PUSH1 0xA0 SHL SUB AND PUSH32 0xB37FF92C23ECA455DBBD028D9CB869F69E16485D5EF15286FC394C721A5D5DC1 PUSH1 0x40 MLOAD PUSH1 0x40 MLOAD DUP1 SWAP2 SUB SWAP1 LOG3 PUSH1 0x0 PUSH3 0xE5E PUSH3 0x1AE1 JUMP JUMPDEST SWAP1 POP PUSH3 0xE78 PUSH3 0xE6F DUP3 PUSH3 0x2910 JUMP JUMPDEST SWAP2 POP DUP2 PUSH3 0x1E18 JUMP JUMPDEST PUSH3 0x48A DUP2 DUP4 PUSH3 0x1E65 JUMP JUMPDEST PUSH1 0x0 PUSH3 0xE90 PUSH3 0x1843 JUMP JUMPDEST SWAP1 POP PUSH3 0xE9E DUP2 CALLER PUSH3 0x1891 JUMP JUMPDEST PUSH3 0xEA8 JUMPI PUSH1 0x0 DUP1 REVERT JUMPDEST PUSH1 0x0 DUP1 CALLDATASIZE PUSH1 0x40 MLOAD PUSH3 0xEBC SWAP3 SWAP2 SWAP1 PUSH3 0x28B1 JUMP JUMPDEST PUSH1 0x40 MLOAD DUP1 SWAP2 SUB SWAP1 KECCAK256 SWAP1 POP PUSH3 0xED3 DUP3 DUP3 CALLER PUSH3 0x18AA JUMP JUMPDEST ISZERO PUSH3 0xEDE JUMPI PUSH1 0x0 DUP1 REVERT JUMPDEST PUSH3 0xEED DUP3 DUP3 CALLER PUSH1 0x1 PUSH3 0x18C5 JUMP JUMPDEST PUSH1 0x0 PUSH1 0x1 PUSH3 0xEFD DUP5 DUP5 PUSH3 0x18DD JUMP JUMPDEST PUSH3 0xF09 SWAP2 SWAP1 PUSH3 0x28D7 JUMP JUMPDEST SWAP1 POP PUSH3 0xF18 DUP4 DUP4 DUP4 PUSH3 0x18EF JUMP JUMPDEST PUSH3 0xF23 DUP4 PUSH3 0x1912 JUMP JUMPDEST DUP2 LT ISZERO PUSH3 0xF30 JUMPI POP POP POP JUMP JUMPDEST PUSH3 0xF5D PUSH32 0x75A31D1CE8E5F9892188BEFC328D3B9BD3FA5037457E881ABC21F388471B8D96 PUSH1 0x1 PUSH3 0x1977 JUMP JUMPDEST PUSH1 0x40 MLOAD PUSH32 0x9F428B56CA209118783DB391E8A5A62827B6B218ADD33411061060D308AF6EAD SWAP1 PUSH1 0x0 SWAP1 LOG1 PUSH3 0xF94 DUP4 DUP4 PUSH1 0x0 PUSH3 0x18EF JUMP JUMPDEST PUSH1 0x0 PUSH3 0xFA1 DUP5 PUSH3 0x1997 JUMP JUMPDEST SWAP1 POP PUSH1 0x0 JUMPDEST DUP2 DUP2 LT ISZERO PUSH3 0x6FC JUMPI PUSH3 0xFC1 DUP6 DUP6 PUSH3 0x5F0 DUP9 DUP6 PUSH3 0x19A8 JUMP JUMPDEST DUP1 PUSH3 0xFCD DUP2 PUSH3 0x2910 JUMP JUMPDEST SWAP2 POP POP PUSH3 0xFA6 JUMP JUMPDEST PUSH1 0x0 PUSH3 0xFE2 PUSH3 0x1843 JUMP JUMPDEST SWAP1 POP PUSH3 0xFF0 DUP2 CALLER PUSH3 0x1891 JUMP JUMPDEST PUSH3 0xFFA JUMPI PUSH1 0x0 DUP1 REVERT JUMPDEST PUSH1 0x0 DUP1 CALLDATASIZE PUSH1 0x40 MLOAD PUSH3 0x100E SWAP3 SWAP2 SWAP1 PUSH3 0x28B1 JUMP JUMPDEST PUSH1 0x40 MLOAD DUP1 SWAP2 SUB SWAP1 KECCAK256 SWAP1 POP PUSH3 0x1025 DUP3 DUP3 CALLER PUSH3 0x18AA JUMP JUMPDEST ISZERO PUSH3 0x1030 JUMPI PUSH1 0x0 DUP1 REVERT JUMPDEST PUSH3 0x103F DUP3 DUP3 CALLER PUSH1 0x1 PUSH3 0x18C5 JUMP JUMPDEST PUSH1 0x0 PUSH1 0x1 PUSH3 0x104F DUP5 DUP5 PUSH3 0x18DD JUMP JUMPDEST PUSH3 0x105B SWAP2 SWAP1 PUSH3 0x28D7 JUMP JUMPDEST SWAP1 POP PUSH3 0x106A DUP4 DUP4 DUP4 PUSH3 0x18EF JUMP JUMPDEST PUSH3 0x1075 DUP4 PUSH3 0x1912 JUMP JUMPDEST DUP2 LT ISZERO PUSH3 0x1082 JUMPI POP POP POP JUMP JUMPDEST PUSH3 0x10AF PUSH32 0x75A31D1CE8E5F9892188BEFC328D3B9BD3FA5037457E881ABC21F388471B8D96 PUSH1 0x0 PUSH3 0x1977 JUMP JUMPDEST PUSH1 0x40 MLOAD PUSH32 0xE821FF109470F6AA1AEBB161AA0E7328B1A8552AA48E09ED2D03184ECECE9A6 SWAP1 PUSH1 0x0 SWAP1 LOG1 PUSH3 0x10E6 DUP4 DUP4 PUSH1 0x0 PUSH3 0x18EF JUMP JUMPDEST PUSH1 0x0 PUSH3 0x10F3 DUP5 PUSH3 0x1997 JUMP JUMPDEST SWAP1 POP PUSH1 0x0 JUMPDEST DUP2 DUP2 LT ISZERO PUSH3 0x6FC JUMPI PUSH3 0x1113 DUP6 DUP6 PUSH3 0x5F0 DUP9 DUP6 PUSH3 0x19A8 JUMP JUMPDEST DUP1 PUSH3 0x111F DUP2 PUSH3 0x2910 JUMP JUMPDEST SWAP2 POP POP PUSH3 0x10F8 JUMP JUMPDEST PUSH1 0x0 PUSH3 0x1135 DUP4 PUSH3 0x884 JUMP JUMPDEST SWAP1 POP PUSH1 0x1 PUSH1 0x1 PUSH1 0xA0 SHL SUB DUP2 AND PUSH3 0x114B JUMPI PUSH1 0x0 DUP1 REVERT JUMPDEST PUSH1 0x2 PUSH3 0x1158 DUP5 PUSH3 0x1EDC JUMP JUMPDEST PUSH1 0x2 DUP2 GT ISZERO PUSH3 0x116C JUMPI PUSH3 0x116C PUSH3 0x2BC7 JUMP JUMPDEST EQ ISZERO PUSH3 0x1397 JUMPI PUSH1 0x0 DUP3 PUSH1 0x40 MLOAD PUSH3 0x1184 SWAP1 PUSH3 0x2549 JUMP JUMPDEST DUP2 SWAP1 PUSH1 0x40 MLOAD DUP1 SWAP2 SUB SWAP1 PUSH1 0x0 CREATE2 SWAP1 POP DUP1 ISZERO DUP1 ISZERO PUSH3 0x11A5 JUMPI RETURNDATASIZE PUSH1 0x0 DUP1 RETURNDATACOPY RETURNDATASIZE PUSH1 0x0 REVERT JUMPDEST POP PUSH1 0x40 MLOAD PUSH4 0x70A08231 PUSH1 0xE0 SHL DUP2 MSTORE PUSH1 0x1 PUSH1 0x1 PUSH1 0xA0 SHL SUB DUP1 DUP4 AND PUSH1 0x4 DUP4 ADD DUP2 SWAP1 MSTORE SWAP3 SWAP4 POP PUSH1 0x0 SWAP3 DUP4 SWAP3 SWAP1 SWAP2 PUSH4 0x1CFF79CD SWAP2 DUP8 SWAP2 PUSH4 0xA9059CBB PUSH1 0xE0 SHL SWAP2 ADDRESS SWAP2 DUP5 AND SWAP1 PUSH4 0x70A08231 SWAP1 PUSH1 0x24 ADD PUSH1 0x20 PUSH1 0x40 MLOAD DUP1 DUP4 SUB DUP2 DUP7 DUP1 EXTCODESIZE ISZERO DUP1 ISZERO PUSH3 0x1207 JUMPI PUSH1 0x0 DUP1 REVERT JUMPDEST POP GAS STATICCALL ISZERO DUP1 ISZERO PUSH3 0x121C JUMPI RETURNDATASIZE PUSH1 0x0 DUP1 RETURNDATACOPY RETURNDATASIZE PUSH1 0x0 REVERT JUMPDEST POP POP POP POP PUSH1 0x40 MLOAD RETURNDATASIZE PUSH1 0x1F NOT PUSH1 0x1F DUP3 ADD AND DUP3 ADD DUP1 PUSH1 0x40 MSTORE POP DUP2 ADD SWAP1 PUSH3 0x1242 SWAP2 SWAP1 PUSH3 0x2BDD JUMP JUMPDEST PUSH1 0x40 MLOAD PUSH1 0x1 PUSH1 0x1 PUSH1 0xA0 SHL SUB SWAP1 SWAP3 AND PUSH1 0x24 DUP4 ADD MSTORE PUSH1 0x44 DUP3 ADD MSTORE PUSH1 0x64 ADD PUSH1 0x40 DUP1 MLOAD PUSH1 0x1F NOT DUP2 DUP5 SUB ADD DUP2 MSTORE SWAP2 DUP2 MSTORE PUSH1 0x20 DUP3 ADD DUP1 MLOAD PUSH1 0x1 PUSH1 0x1 PUSH1 0xE0 SHL SUB AND PUSH1 0x1 PUSH1 0x1 PUSH1 0xE0 SHL SUB NOT SWAP5 DUP6 AND OR SWAP1 MSTORE MLOAD PUSH1 0xE0 DUP6 SWAP1 SHL SWAP1 SWAP3 AND DUP3 MSTORE PUSH3 0x12A5 SWAP3 SWAP2 PUSH1 0x4 ADD PUSH3 0x2BF7 JUMP JUMPDEST PUSH1 0x0 PUSH1 0x40 MLOAD DUP1 DUP4 SUB DUP2 PUSH1 0x0 DUP8 DUP1 EXTCODESIZE ISZERO DUP1 ISZERO PUSH3 0x12C0 JUMPI PUSH1 0x0 DUP1 REVERT JUMPDEST POP GAS CALL ISZERO DUP1 ISZERO PUSH3 0x12D5 JUMPI RETURNDATASIZE PUSH1 0x0 DUP1 RETURNDATACOPY RETURNDATASIZE PUSH1 0x0 REVERT JUMPDEST POP POP POP POP PUSH1 0x40 MLOAD RETURNDATASIZE PUSH1 0x0 DUP3 RETURNDATACOPY PUSH1 0x1F RETURNDATASIZE SWAP1 DUP2 ADD PUSH1 0x1F NOT AND DUP3 ADD PUSH1 0x40 MSTORE PUSH3 0x12FF SWAP2 SWAP1 DUP2 ADD SWAP1 PUSH3 0x2C87 JUMP JUMPDEST SWAP2 POP SWAP2 POP DUP2 DUP1 ISZERO PUSH3 0x132C JUMPI POP DUP1 MLOAD ISZERO DUP1 PUSH3 0x132C JUMPI POP DUP1 DUP1 PUSH1 0x20 ADD SWAP1 MLOAD DUP2 ADD SWAP1 PUSH3 0x132C SWAP2 SWAP1 PUSH3 0x2CD0 JUMP JUMPDEST PUSH3 0x1336 JUMPI PUSH1 0x0 DUP1 REVERT JUMPDEST PUSH1 0x40 MLOAD PUSH3 0xF55D9D PUSH1 0xE0 SHL DUP2 MSTORE ADDRESS PUSH1 0x4 DUP3 ADD MSTORE PUSH1 0x1 PUSH1 0x1 PUSH1 0xA0 SHL SUB DUP5 AND SWAP1 PUSH3 0xF55D9D SWAP1 PUSH1 0x24 ADD PUSH1 0x0 PUSH1 0x40 MLOAD DUP1 DUP4 SUB DUP2 PUSH1 0x0 DUP8 DUP1 EXTCODESIZE ISZERO DUP1 ISZERO PUSH3 0x1376 JUMPI PUSH1 0x0 DUP1 REVERT JUMPDEST POP GAS CALL ISZERO DUP1 ISZERO PUSH3 0x138B JUMPI RETURNDATASIZE PUSH1 0x0 DUP1 RETURNDATACOPY RETURNDATASIZE PUSH1 0x0 REVERT JUMPDEST POP POP POP POP POP POP POP POP POP POP JUMP JUMPDEST PUSH1 0x40 MLOAD PUSH4 0x8A1EEE1 PUSH1 0xE0 SHL DUP2 MSTORE PUSH1 0x4 DUP2 ADD DUP4 SWAP1 MSTORE PUSH1 0x1 PUSH1 0x1 PUSH1 0xA0 SHL SUB DUP3 AND SWAP1 PUSH4 0x8A1EEE1 SWAP1 PUSH1 0x24 ADD PUSH1 0x0 PUSH1 0x40 MLOAD DUP1 DUP4 SUB DUP2 PUSH1 0x0 DUP8 DUP1 EXTCODESIZE ISZERO DUP1 ISZERO PUSH3 0x13DA JUMPI PUSH1 0x0 DUP1 REVERT JUMPDEST POP GAS CALL ISZERO DUP1 ISZERO PUSH3 0x64F JUMPI RETURNDATASIZE PUSH1 0x0 DUP1 RETURNDATACOPY RETURNDATASIZE PUSH1 0x0 REVERT JUMPDEST POP POP POP JUMP JUMPDEST PUSH1 0x0 PUSH3 0x1413 PUSH3 0x140C DUP5 DUP1 MLOAD SWAP1 PUSH1 0x20 ADD KECCAK256 PUSH3 0x1F01 JUMP JUMPDEST DUP4 PUSH3 0x1F3D JUMP JUMPDEST SWAP1 POP PUSH1 0x0 DUP1 PUSH1 0x0 DUP1 PUSH1 0x0 DUP8 DUP1 PUSH1 0x20 ADD SWAP1 MLOAD DUP2 ADD SWAP1 PUSH3 0x1433 SWAP2 SWAP1 PUSH3 0x2E21 JUMP JUMPDEST SWAP5 POP SWAP5 POP SWAP5 POP SWAP5 POP SWAP5 POP CHAINID DUP6 EQ PUSH3 0x144A JUMPI PUSH1 0x0 DUP1 REVERT JUMPDEST DUP3 MLOAD DUP3 MLOAD DUP2 EQ DUP1 ISZERO PUSH3 0x145D JUMPI POP DUP2 MLOAD DUP2 EQ JUMPDEST PUSH3 0x1467 JUMPI PUSH1 0x0 DUP1 REVERT JUMPDEST PUSH1 0x0 DUP1 DUP1 PUSH1 0x1 DUP9 PUSH1 0x2 DUP2 GT ISZERO PUSH3 0x1482 JUMPI PUSH3 0x1482 PUSH3 0x2BC7 JUMP JUMPDEST EQ ISZERO PUSH3 0x14C4 JUMPI PUSH3 0x1493 PUSH3 0x86E JUMP JUMPDEST PUSH1 0x1 PUSH1 0x1 PUSH1 0xA0 SHL SUB AND DUP11 PUSH1 0x1 PUSH1 0x1 PUSH1 0xA0 SHL SUB AND EQ SWAP3 POP DUP3 DUP1 PUSH3 0x14BC JUMPI POP PUSH3 0x14BC DUP11 PUSH3 0x202E JUMP JUMPDEST SWAP2 POP PUSH3 0x14F0 JUMP JUMPDEST PUSH1 0x2 DUP9 PUSH1 0x2 DUP2 GT ISZERO PUSH3 0x14DB JUMPI PUSH3 0x14DB PUSH3 0x2BC7 JUMP JUMPDEST EQ ISZERO PUSH3 0x14F0 JUMPI PUSH3 0x14ED DUP11 PUSH3 0x20D4 JUMP JUMPDEST SWAP1 POP JUMPDEST PUSH1 0x0 JUMPDEST DUP5 DUP2 LT ISZERO PUSH3 0x1834 JUMPI PUSH1 0x0 DUP9 DUP3 DUP2 MLOAD DUP2 LT PUSH3 0x1513 JUMPI PUSH3 0x1513 PUSH3 0x2F32 JUMP JUMPDEST PUSH1 0x20 MUL PUSH1 0x20 ADD ADD MLOAD SWAP1 POP PUSH3 0x1528 DUP2 PUSH3 0xDC5 JUMP JUMPDEST ISZERO PUSH3 0x1535 JUMPI POP PUSH3 0x181F JUMP JUMPDEST PUSH1 0x0 DUP1 DUP10 DUP5 DUP2 MLOAD DUP2 LT PUSH3 0x154D JUMPI PUSH3 0x154D PUSH3 0x2F32 JUMP JUMPDEST PUSH1 0x20 MUL PUSH1 0x20 ADD ADD MLOAD PUSH1 0x40 MLOAD PUSH1 0x20 ADD PUSH3 0x1567 SWAP2 SWAP1 PUSH3 0x28F2 JUMP JUMPDEST PUSH1 0x40 MLOAD PUSH1 0x20 DUP2 DUP4 SUB SUB DUP2 MSTORE SWAP1 PUSH1 0x40 MSTORE DUP1 MLOAD SWAP1 PUSH1 0x20 ADD KECCAK256 SWAP1 POP PUSH32 0x5763814B98A3AA86F212797AF3273868B5DD6E2A532D764A79B98CA859E7BBAD DUP2 EQ ISZERO PUSH3 0x15C7 JUMPI DUP6 PUSH3 0x15B7 JUMPI POP POP POP PUSH3 0x181F JUMP JUMPDEST PUSH4 0x3CD6EE6D PUSH1 0xE0 SHL SWAP2 POP PUSH3 0x170A JUMP JUMPDEST PUSH32 0xEC78D9C22C08BB9F0ECD5D95571AE83E3F22219C5A9278C3270691D50ABFD91B DUP2 EQ ISZERO PUSH3 0x161C JUMPI DUP5 ISZERO DUP1 ISZERO PUSH3 0x15FD JUMPI POP DUP6 ISZERO JUMPDEST ISZERO PUSH3 0x160C JUMPI POP POP POP PUSH3 0x181F JUMP JUMPDEST PUSH4 0x60C6FF43 PUSH1 0xE0 SHL SWAP2 POP PUSH3 0x170A JUMP JUMPDEST PUSH32 0xDA199C0E76F665E0450020791C7F8EACC75F3CDBACE313272C28F93E5390B62C DUP2 EQ ISZERO PUSH3 0x1671 JUMPI DUP5 ISZERO DUP1 ISZERO PUSH3 0x1652 JUMPI POP DUP6 ISZERO JUMPDEST ISZERO PUSH3 0x1661 JUMPI POP POP POP PUSH3 0x181F JUMP JUMPDEST PUSH4 0x37699C1 PUSH1 0xE0 SHL SWAP2 POP PUSH3 0x170A JUMP JUMPDEST PUSH32 0x1D4A390F291E2E1F29874769EFDEF47DDAD94D76F77FF516FAD206A385E8995F DUP2 EQ ISZERO PUSH3 0x16B9 JUMPI DUP7 PUSH3 0x16A9 JUMPI POP POP POP PUSH3 0x181F JUMP JUMPDEST PUSH4 0xD1CF834F PUSH1 0xE0 SHL SWAP2 POP PUSH3 0x170A JUMP JUMPDEST PUSH32 0xB460DCB6FD5797FC0E7EA0F13406C80D30702BA7F73A42BD91394775DCBCA718 DUP2 EQ ISZERO PUSH3 0x1701 JUMPI DUP7 PUSH3 0x16F1 JUMPI POP POP POP PUSH3 0x181F JUMP JUMPDEST PUSH4 0xD289D1CB PUSH1 0xE0 SHL SWAP2 POP PUSH3 0x170A JUMP JUMPDEST POP POP POP PUSH3 0x181F JUMP JUMPDEST PUSH3 0x1717 DUP4 PUSH1 0x1 PUSH3 0x2162 JUMP JUMPDEST PUSH1 0x0 ADDRESS PUSH1 0x1 PUSH1 0x1 PUSH1 0xA0 SHL SUB AND DUP4 DUP12 DUP8 DUP2 MLOAD DUP2 LT PUSH3 0x1739 JUMPI PUSH3 0x1739 PUSH3 0x2F32 JUMP JUMPDEST PUSH1 0x20 MUL PUSH1 0x20 ADD ADD MLOAD PUSH1 0x40 MLOAD PUSH1 0x24 ADD PUSH3 0x1753 SWAP2 SWAP1 PUSH3 0x2773 JUMP JUMPDEST PUSH1 0x40 DUP1 MLOAD PUSH1 0x1F NOT DUP2 DUP5 SUB ADD DUP2 MSTORE SWAP2 DUP2 MSTORE PUSH1 0x20 DUP3 ADD DUP1 MLOAD PUSH1 0x1 PUSH1 0x1 PUSH1 0xE0 SHL SUB AND PUSH1 0x1 PUSH1 0x1 PUSH1 0xE0 SHL SUB NOT SWAP1 SWAP5 AND SWAP4 SWAP1 SWAP4 OR SWAP1 SWAP3 MSTORE SWAP1 MLOAD PUSH3 0x1793 SWAP2 SWAP1 PUSH3 0x28F2 JUMP JUMPDEST PUSH1 0x0 PUSH1 0x40 MLOAD DUP1 DUP4 SUB DUP2 PUSH1 0x0 DUP7 GAS CALL SWAP2 POP POP RETURNDATASIZE DUP1 PUSH1 0x0 DUP2 EQ PUSH3 0x17D2 JUMPI PUSH1 0x40 MLOAD SWAP2 POP PUSH1 0x1F NOT PUSH1 0x3F RETURNDATASIZE ADD AND DUP3 ADD PUSH1 0x40 MSTORE RETURNDATASIZE DUP3 MSTORE RETURNDATASIZE PUSH1 0x0 PUSH1 0x20 DUP5 ADD RETURNDATACOPY PUSH3 0x17D7 JUMP JUMPDEST PUSH1 0x60 SWAP2 POP JUMPDEST POP POP SWAP1 POP PUSH3 0x17E7 DUP5 DUP3 PUSH3 0x2162 JUMP JUMPDEST DUP1 ISZERO PUSH3 0x181A JUMPI PUSH1 0x40 MLOAD DUP5 SWAP1 PUSH32 0xA74C8847D513FEBA22A0F0CB38D53081ABF97562CDB293926BA243689E7C41CA SWAP1 PUSH1 0x0 SWAP1 LOG2 JUMPDEST POP POP POP POP JUMPDEST DUP1 PUSH3 0x182B DUP2 PUSH3 0x2910 JUMP JUMPDEST SWAP2 POP POP PUSH3 0x14F3 JUMP JUMPDEST POP POP POP POP POP POP POP POP POP POP POP POP POP JUMP JUMPDEST PUSH32 0xD51DC9B187568BB94760866E1D0D066CA470037D2D331AFB1A02EC74BFB8990C PUSH1 0x0 SWAP1 DUP2 MSTORE PUSH1 0x20 MSTORE PUSH32 0xF8D0C05CD32E3272241FDC9D5839565F8BCF94139CB4BD09E230E1B57A60DDC2 SLOAD SWAP1 JUMP JUMPDEST PUSH1 0x0 PUSH3 0x18A3 PUSH3 0x291 DUP5 DUP5 PUSH3 0x2171 JUMP JUMPDEST SWAP4 SWAP3 POP POP POP JUMP JUMPDEST PUSH1 0x0 PUSH3 0x18BD PUSH3 0x291 DUP6 DUP6 DUP6 PUSH3 0x21DE JUMP JUMPDEST SWAP5 SWAP4 POP POP POP POP JUMP JUMPDEST PUSH3 0x48A PUSH3 0x18D6 DUP6 DUP6 DUP6 PUSH3 0x21DE JUMP JUMPDEST DUP3 PUSH3 0x1977 JUMP JUMPDEST PUSH1 0x0 PUSH3 0x18A3 PUSH3 0x3A8 DUP5 DUP5 PUSH3 0x2252 JUMP JUMPDEST PUSH3 0x13EF PUSH3 0x18FF DUP5 DUP5 PUSH3 0x2252 JUMP JUMPDEST DUP3 PUSH1 0x0 SWAP2 DUP3 MSTORE PUSH1 0x20 DUP3 SWAP1 MSTORE PUSH1 0x40 SWAP1 SWAP2 KECCAK256 SSTORE JUMP JUMPDEST PUSH1 0x0 PUSH3 0x868 PUSH3 0x3A8 DUP4 PUSH3 0x2295 JUMP JUMPDEST PUSH1 0x0 PUSH32 0x1A7261D3A36C4CE4235D10859911C9444A6963A3591EC5725B96871D9810626B DUP3 PUSH1 0x40 MLOAD PUSH1 0x20 ADD PUSH3 0x195A SWAP3 SWAP2 SWAP1 PUSH3 0x2F48 JUMP JUMPDEST PUSH1 0x40 MLOAD PUSH1 0x20 DUP2 DUP4 SUB SUB DUP2 MSTORE SWAP1 PUSH1 0x40 MSTORE DUP1 MLOAD SWAP1 PUSH1 0x20 ADD KECCAK256 SWAP1 POP SWAP2 SWAP1 POP JUMP JUMPDEST PUSH1 0x0 SWAP2 DUP3 MSTORE PUSH1 0x4 PUSH1 0x20 MSTORE PUSH1 0x40 SWAP1 SWAP2 KECCAK256 DUP1 SLOAD PUSH1 0xFF NOT AND SWAP2 ISZERO ISZERO SWAP2 SWAP1 SWAP2 OR SWAP1 SSTORE JUMP JUMPDEST PUSH1 0x0 PUSH3 0x868 PUSH3 0x3A8 DUP4 PUSH3 0x22D1 JUMP JUMPDEST PUSH1 0x0 PUSH3 0x18A3 PUSH3 0x1D8 DUP5 DUP5 PUSH3 0x230D JUMP JUMPDEST PUSH1 0x0 PUSH3 0x19C7 DUP6 PUSH3 0x884 JUMP JUMPDEST PUSH1 0x1 PUSH1 0x1 PUSH1 0xA0 SHL SUB AND EQ PUSH3 0x19DB JUMPI PUSH1 0x0 DUP1 REVERT JUMPDEST PUSH1 0x1 PUSH1 0x1 PUSH1 0xA0 SHL SUB DUP2 AND PUSH3 0x1A71 JUMPI PUSH1 0x0 DUP5 PUSH1 0x40 MLOAD PUSH1 0x20 ADD PUSH3 0x19FF SWAP2 SWAP1 PUSH3 0x28F2 JUMP JUMPDEST PUSH1 0x40 MLOAD PUSH1 0x20 DUP2 DUP4 SUB SUB DUP2 MSTORE SWAP1 PUSH1 0x40 MSTORE DUP1 MLOAD SWAP1 PUSH1 0x20 ADD KECCAK256 SWAP1 POP DUP1 DUP7 DUP7 DUP7 DUP7 PUSH1 0x40 MLOAD PUSH3 0x1A2A SWAP1 PUSH3 0x2557 JUMP JUMPDEST PUSH3 0x1A39 SWAP5 SWAP4 SWAP3 SWAP2 SWAP1 PUSH3 0x2F70 JUMP JUMPDEST DUP2 SWAP1 PUSH1 0x40 MLOAD DUP1 SWAP2 SUB SWAP1 PUSH1 0x0 CREATE2 SWAP1 POP DUP1 ISZERO DUP1 ISZERO PUSH3 0x1A5A JUMPI RETURNDATASIZE PUSH1 0x0 DUP1 RETURNDATACOPY RETURNDATASIZE PUSH1 0x0 REVERT JUMPDEST POP SWAP2 POP PUSH3 0x1A6A DUP6 PUSH1 0x1 PUSH3 0x2350 JUMP JUMPDEST POP PUSH3 0x1A93 JUMP JUMPDEST PUSH1 0x1 PUSH1 0x1 PUSH1 0xA0 SHL SUB DUP2 AND EXTCODESIZE PUSH3 0x1A86 JUMPI PUSH1 0x0 DUP1 REVERT JUMPDEST PUSH3 0x1A93 DUP5 PUSH1 0x2 PUSH3 0x2350 JUMP JUMPDEST PUSH3 0x1A9F DUP5 DUP3 PUSH3 0x2386 JUMP JUMPDEST PUSH32 0xBF90B5A1EC9763E8BF4B9245CEF0C28DB92BAB309FC2C5177F17814F38246938 DUP5 DUP3 PUSH1 0x40 MLOAD PUSH3 0x1AD2 SWAP3 SWAP2 SWAP1 PUSH3 0x2FB0 JUMP JUMPDEST PUSH1 0x40 MLOAD DUP1 SWAP2 SUB SWAP1 LOG1 POP POP POP POP POP JUMP JUMPDEST PUSH32 0x5369FB791F26307F8E69B07625302CCAC6930AF09AB22D753B17D2042E9992E7 PUSH1 0x0 SWAP1 DUP2 MSTORE PUSH1 0x20 MSTORE PUSH32 0x7174C149A4F7627AC1DD39B679BD42F12FC4E8D7E850B055662BBEE7188DA10 SLOAD SWAP1 JUMP JUMPDEST PUSH1 0x0 PUSH3 0x868 PUSH3 0x1D8 DUP4 PUSH3 0x2395 JUMP JUMPDEST PUSH1 0x0 PUSH3 0x1B4D DUP5 PUSH3 0x884 JUMP JUMPDEST SWAP1 POP PUSH1 0x1 PUSH1 0x1 PUSH1 0xA0 SHL SUB DUP2 AND PUSH3 0x1B63 JUMPI PUSH1 0x0 DUP1 REVERT JUMPDEST PUSH1 0x2 PUSH3 0x1B70 DUP6 PUSH3 0x1EDC JUMP JUMPDEST PUSH1 0x2 DUP2 GT ISZERO PUSH3 0x1B84 JUMPI PUSH3 0x1B84 PUSH3 0x2BC7 JUMP JUMPDEST EQ ISZERO PUSH3 0x1C03 JUMPI PUSH1 0x40 DUP1 MLOAD PUSH1 0x1 PUSH1 0x1 PUSH1 0xA0 SHL SUB DUP6 AND PUSH1 0x24 DUP3 ADD MSTORE PUSH1 0x44 DUP1 DUP3 ADD DUP6 SWAP1 MSTORE DUP3 MLOAD DUP1 DUP4 SUB SWAP1 SWAP2 ADD DUP2 MSTORE PUSH1 0x64 SWAP1 SWAP2 ADD DUP3 MSTORE PUSH1 0x20 DUP1 DUP3 ADD DUP1 MLOAD PUSH1 0x1 PUSH1 0x1 PUSH1 0xE0 SHL SUB AND PUSH4 0xA9059CBB PUSH1 0xE0 SHL OR SWAP1 MSTORE DUP3 MLOAD DUP1 DUP5 ADD SWAP1 SWAP4 MSTORE PUSH1 0x9 DUP4 MSTORE PUSH9 0x1352539517D1905253 PUSH1 0xBA SHL SWAP1 DUP4 ADD MSTORE PUSH3 0x1BFD SWAP2 DUP4 SWAP2 SWAP1 PUSH3 0x23D1 JUMP JUMPDEST PUSH3 0x48A JUMP JUMPDEST PUSH1 0x40 MLOAD PUSH4 0x40C10F19 PUSH1 0xE0 SHL DUP2 MSTORE PUSH1 0x1 PUSH1 0x1 PUSH1 0xA0 SHL SUB DUP5 DUP2 AND PUSH1 0x4 DUP4 ADD MSTORE PUSH1 0x24 DUP3 ADD DUP5 SWAP1 MSTORE DUP3 AND SWAP1 PUSH4 0x40C10F19 SWAP1 PUSH1 0x44 ADD PUSH1 0x0 PUSH1 0x40 MLOAD DUP1 DUP4 SUB DUP2 PUSH1 0x0 DUP8 DUP1 EXTCODESIZE ISZERO DUP1 ISZERO PUSH3 0x1C4E JUMPI PUSH1 0x0 DUP1 REVERT JUMPDEST POP GAS CALL ISZERO DUP1 ISZERO PUSH3 0x1C63 JUMPI RETURNDATASIZE PUSH1 0x0 DUP1 RETURNDATACOPY RETURNDATASIZE PUSH1 0x0 REVERT JUMPDEST POP POP POP POP POP POP POP POP JUMP JUMPDEST PUSH32 0x67CBDFF49954077D2DD5637524B03BFE3E6506D456859017A888FAD567E1AF03 PUSH1 0x0 SWAP1 DUP2 MSTORE PUSH1 0x20 MSTORE PUSH32 0x6F01C2F096E745C2A207FBF93BABD5E7EE6ACFD26F0F34A0E4AC68373C21D0E SLOAD SWAP1 JUMP JUMPDEST PUSH1 0x0 PUSH3 0x868 PUSH3 0x1D8 DUP4 PUSH3 0x246A JUMP JUMPDEST PUSH1 0x0 PUSH32 0xC4E632779A6A7838736DD7E5E6A0EADF171DD37DFB6230720E265576DFCF42BB DUP3 PUSH1 0x40 MLOAD PUSH1 0x20 ADD PUSH3 0x195A SWAP3 SWAP2 SWAP1 PUSH3 0x2F48 JUMP JUMPDEST POP JUMP JUMPDEST DUP2 MLOAD DUP2 DUP2 LT ISZERO PUSH3 0x1D16 JUMPI PUSH1 0x0 DUP1 REVERT JUMPDEST PUSH1 0x0 DUP3 GT PUSH3 0x1D24 JUMPI PUSH1 0x0 DUP1 REVERT JUMPDEST PUSH3 0x1D30 DUP5 DUP4 PUSH3 0x24A6 JUMP JUMPDEST PUSH3 0x1D3C DUP5 DUP3 PUSH3 0x24B5 JUMP JUMPDEST PUSH1 0x0 JUMPDEST DUP2 DUP2 LT ISZERO PUSH3 0x6FC JUMPI PUSH1 0x0 DUP5 DUP3 DUP2 MLOAD DUP2 LT PUSH3 0x1D5F JUMPI PUSH3 0x1D5F PUSH3 0x2F32 JUMP JUMPDEST PUSH1 0x20 MUL PUSH1 0x20 ADD ADD MLOAD SWAP1 POP PUSH3 0x1D75 DUP7 DUP3 PUSH3 0x1891 JUMP JUMPDEST ISZERO PUSH3 0x1D80 JUMPI PUSH1 0x0 DUP1 REVERT JUMPDEST PUSH3 0x1D8D DUP7 DUP4 DUP4 PUSH3 0x24C4 JUMP JUMPDEST PUSH3 0x1D9B DUP7 DUP3 PUSH1 0x1 PUSH3 0x24D4 JUMP JUMPDEST POP DUP1 PUSH3 0x1DA8 DUP2 PUSH3 0x2910 JUMP JUMPDEST SWAP2 POP POP PUSH3 0x1D3F JUMP JUMPDEST PUSH32 0x67CBDFF49954077D2DD5637524B03BFE3E6506D456859017A888FAD567E1AF03 PUSH1 0x0 SWAP1 DUP2 MSTORE PUSH1 0x20 MSTORE PUSH32 0x6F01C2F096E745C2A207FBF93BABD5E7EE6ACFD26F0F34A0E4AC68373C21D0E SSTORE JUMP JUMPDEST PUSH3 0x1E14 PUSH3 0x1E0D DUP4 PUSH3 0x246A JUMP JUMPDEST DUP3 PUSH3 0x24E4 JUMP JUMPDEST POP POP JUMP JUMPDEST PUSH32 0x5369FB791F26307F8E69B07625302CCAC6930AF09AB22D753B17D2042E9992E7 PUSH1 0x0 SWAP1 DUP2 MSTORE PUSH1 0x20 MSTORE PUSH32 0x7174C149A4F7627AC1DD39B679BD42F12FC4E8D7E850B055662BBEE7188DA10 SSTORE JUMP JUMPDEST PUSH3 0x1E14 PUSH3 0x1E0D DUP4 PUSH3 0x2395 JUMP JUMPDEST PUSH3 0x1D03 PUSH32 0x360894A13BA1A3210667C828492DB98DCA3E2076CC3735A920A3CA505D382BBC DUP3 PUSH3 0x24E4 JUMP JUMPDEST PUSH1 0x40 DUP1 MLOAD PUSH32 0x957705A374326B30F4A1069C936D736CC9993ED6C820B4E0E2FD94A8BECA0D1D PUSH1 0x20 DUP3 ADD MSTORE SWAP1 DUP2 ADD DUP3 SWAP1 MSTORE PUSH1 0x0 SWAP1 PUSH1 0x60 ADD PUSH3 0x195A JUMP JUMPDEST PUSH1 0x0 PUSH3 0x1EED PUSH3 0x3A8 DUP4 PUSH3 0x2512 JUMP JUMPDEST PUSH1 0x2 DUP2 GT ISZERO PUSH3 0x868 JUMPI PUSH3 0x868 PUSH3 0x2BC7 JUMP JUMPDEST PUSH1 0x40 MLOAD PUSH32 0x19457468657265756D205369676E6564204D6573736167653A0A333200000000 PUSH1 0x20 DUP3 ADD MSTORE PUSH1 0x3C DUP2 ADD DUP3 SWAP1 MSTORE PUSH1 0x0 SWAP1 PUSH1 0x5C ADD PUSH3 0x195A JUMP JUMPDEST PUSH1 0x0 DUP2 MLOAD PUSH1 0x41 EQ PUSH3 0x1F4E JUMPI PUSH1 0x0 DUP1 REVERT JUMPDEST PUSH1 0x20 DUP3 ADD MLOAD PUSH1 0x40 DUP4 ADD MLOAD PUSH1 0x60 DUP5 ADD MLOAD PUSH1 0x0 BYTE PUSH32 0x7FFFFFFFFFFFFFFFFFFFFFFFFFFFFFFF5D576E7357A4501DDFE92F46681B20A0 DUP3 GT ISZERO PUSH3 0x1F8E JUMPI PUSH1 0x0 DUP1 REVERT JUMPDEST DUP1 PUSH1 0xFF AND PUSH1 0x1B EQ DUP1 PUSH3 0x1FA4 JUMPI POP DUP1 PUSH1 0xFF AND PUSH1 0x1C EQ JUMPDEST PUSH3 0x1FAE JUMPI PUSH1 0x0 DUP1 REVERT JUMPDEST PUSH1 0x40 DUP1 MLOAD PUSH1 0x0 DUP1 DUP3 MSTORE PUSH1 0x20 DUP3 ADD DUP1 DUP5 MSTORE DUP10 SWAP1 MSTORE PUSH1 0xFF DUP5 AND SWAP3 DUP3 ADD SWAP3 SWAP1 SWAP3 MSTORE PUSH1 0x60 DUP2 ADD DUP6 SWAP1 MSTORE PUSH1 0x80 DUP2 ADD DUP5 SWAP1 MSTORE PUSH1 0x1 SWAP1 PUSH1 0xA0 ADD PUSH1 0x20 PUSH1 0x40 MLOAD PUSH1 0x20 DUP2 SUB SWAP1 DUP1 DUP5 SUB SWAP1 DUP6 GAS STATICCALL ISZERO DUP1 ISZERO PUSH3 0x2003 JUMPI RETURNDATASIZE PUSH1 0x0 DUP1 RETURNDATACOPY RETURNDATASIZE PUSH1 0x0 REVERT JUMPDEST POP POP POP PUSH1 0x20 PUSH1 0x40 MLOAD SUB MLOAD SWAP5 POP DUP5 PUSH1 0x1 PUSH1 0x1 PUSH1 0xA0 SHL SUB AND EQ ISZERO PUSH3 0x2025 JUMPI PUSH1 0x0 DUP1 REVERT JUMPDEST POP POP POP SWAP3 SWAP2 POP POP JUMP JUMPDEST PUSH1 0x0 DUP1 PUSH3 0x203B PUSH3 0x1C6D JUMP JUMPDEST SWAP1 POP PUSH1 0x0 PUSH3 0x204D PUSH1 0x1 PUSH1 0x10 PUSH3 0x28D7 JUMP JUMPDEST SWAP1 POP PUSH1 0x0 DUP2 DUP4 GT PUSH3 0x2061 JUMPI PUSH1 0x0 PUSH3 0x206D JUMP JUMPDEST PUSH3 0x206D DUP3 DUP5 PUSH3 0x2FDC JUMP JUMPDEST SWAP1 POP PUSH3 0x207A DUP4 PUSH3 0x2FF6 JUMP JUMPDEST SWAP3 POP JUMPDEST DUP1 DUP4 GT ISZERO PUSH3 0x20C9 JUMPI PUSH3 0x209E DUP4 PUSH3 0x2096 DUP2 PUSH3 0x2FF6 JUMP JUMPDEST SWAP5 POP PUSH3 0x1CBB JUMP JUMPDEST PUSH1 0x1 PUSH1 0x1 PUSH1 0xA0 SHL SUB AND DUP6 PUSH1 0x1 PUSH1 0x1 PUSH1 0xA0 SHL SUB AND EQ ISZERO PUSH3 0x20C3 JUMPI POP PUSH1 0x1 SWAP5 SWAP4 POP POP POP POP JUMP JUMPDEST PUSH3 0x207D JUMP JUMPDEST POP PUSH1 0x0 SWAP5 SWAP4 POP POP POP POP JUMP JUMPDEST PUSH1 0x0 DUP1 PUSH3 0x20E1 PUSH3 0x1AE1 JUMP JUMPDEST SWAP1 POP PUSH1 0x0 PUSH3 0x20F3 PUSH1 0x1 PUSH1 0x10 PUSH3 0x28D7 JUMP JUMPDEST SWAP1 POP PUSH1 0x0 DUP2 DUP4 GT PUSH3 0x2107 JUMPI PUSH1 0x0 PUSH3 0x2113 JUMP JUMPDEST PUSH3 0x2113 DUP3 DUP5 PUSH3 0x2FDC JUMP JUMPDEST SWAP1 POP JUMPDEST DUP1 DUP4 GT ISZERO PUSH3 0x20C9 JUMPI PUSH3 0x2137 DUP4 PUSH3 0x212F DUP2 PUSH3 0x2FF6 JUMP JUMPDEST SWAP5 POP PUSH3 0x1B2F JUMP JUMPDEST PUSH1 0x1 PUSH1 0x1 PUSH1 0xA0 SHL SUB AND DUP6 PUSH1 0x1 PUSH1 0x1 PUSH1 0xA0 SHL SUB AND EQ ISZERO PUSH3 0x215C JUMPI POP PUSH1 0x1 SWAP5 SWAP4 POP POP POP POP JUMP JUMPDEST PUSH3 0x2116 JUMP JUMPDEST PUSH3 0x1E14 PUSH3 0x18D6 DUP4 PUSH3 0x1EA0 JUMP JUMPDEST PUSH1 0x40 DUP1 MLOAD PUSH32 0x63FA879CB478FDDF1DE08D49E29115FB768866711BC799FF9AB419A7F16C9AFB PUSH1 0x20 DUP3 ADD MSTORE SWAP1 DUP2 ADD DUP4 SWAP1 MSTORE PUSH1 0x60 DUP3 DUP2 SHL PUSH12 0xFFFFFFFFFFFFFFFFFFFFFFFF NOT AND SWAP1 DUP3 ADD MSTORE PUSH1 0x0 SWAP1 PUSH1 0x74 ADD JUMPDEST PUSH1 0x40 MLOAD PUSH1 0x20 DUP2 DUP4 SUB SUB DUP2 MSTORE SWAP1 PUSH1 0x40 MSTORE DUP1 MLOAD SWAP1 PUSH1 0x20 ADD KECCAK256 SWAP1 POP SWAP3 SWAP2 POP POP JUMP JUMPDEST PUSH1 0x40 DUP1 MLOAD PUSH32 0x3CED7A8CAF1111E0FBF4B784C5B41AEBD0F2389D9F2F64D5C3424AEED3ADBD3C PUSH1 0x20 DUP3 ADD MSTORE SWAP1 DUP2 ADD DUP5 SWAP1 MSTORE PUSH1 0x60 DUP1 DUP3 ADD DUP5 SWAP1 MSTORE DUP3 SWAP1 SHL PUSH12 0xFFFFFFFFFFFFFFFFFFFFFFFF NOT AND PUSH1 0x80 DUP3 ADD MSTORE PUSH1 0x0 SWAP1 PUSH1 0x94 ADD PUSH1 0x40 MLOAD PUSH1 0x20 DUP2 DUP4 SUB SUB DUP2 MSTORE SWAP1 PUSH1 0x40 MSTORE DUP1 MLOAD SWAP1 PUSH1 0x20 ADD KECCAK256 SWAP1 POP SWAP4 SWAP3 POP POP POP JUMP JUMPDEST PUSH1 0x40 DUP1 MLOAD PUSH32 0xBAEA1C6C0F16A0A340B10A9E980806696A68DDBB5E8361FD64630DD21ABF515F PUSH1 0x20 DUP3 ADD MSTORE SWAP1 DUP2 ADD DUP4 SWAP1 MSTORE PUSH1 0x60 DUP2 ADD DUP3 SWAP1 MSTORE PUSH1 0x0 SWAP1 PUSH1 0x80 ADD PUSH3 0x21C0 JUMP JUMPDEST PUSH1 0x40 DUP1 MLOAD PUSH32 0x79BD914ADDD90BD67AD800BF0230BB85FFDEF5AEBA5FD8249F116D3F17F4FB4B PUSH1 0x20 DUP3 ADD MSTORE SWAP1 DUP2 ADD DUP3 SWAP1 MSTORE PUSH1 0x0 SWAP1 PUSH1 0x60 ADD PUSH3 0x195A JUMP JUMPDEST PUSH1 0x40 DUP1 MLOAD PUSH32 0x5112EF894367DE1270CFAE12AFCD2285C225830EB8F74E7E938F721BB510CBA PUSH1 0x20 DUP3 ADD MSTORE SWAP1 DUP2 ADD DUP3 SWAP1 MSTORE PUSH1 0x0 SWAP1 PUSH1 0x60 ADD PUSH3 0x195A JUMP JUMPDEST PUSH1 0x40 DUP1 MLOAD PUSH32 0xF23EC0BB4210EDD5CBA85AFD05127EFCD2FC6A781BFED49188DA1081670B22D8 PUSH1 0x20 DUP3 ADD MSTORE SWAP1 DUP2 ADD DUP4 SWAP1 MSTORE PUSH1 0x60 DUP2 ADD DUP3 SWAP1 MSTORE PUSH1 0x0 SWAP1 PUSH1 0x80 ADD PUSH3 0x21C0 JUMP JUMPDEST PUSH3 0x1E14 PUSH3 0x235F DUP4 PUSH3 0x2512 JUMP JUMPDEST DUP3 PUSH1 0x2 DUP2 GT ISZERO PUSH3 0x2374 JUMPI PUSH3 0x2374 PUSH3 0x2BC7 JUMP JUMPDEST PUSH1 0x0 SWAP2 DUP3 MSTORE PUSH1 0x20 DUP3 SWAP1 MSTORE PUSH1 0x40 SWAP1 SWAP2 KECCAK256 SSTORE JUMP JUMPDEST PUSH3 0x1E14 PUSH3 0x1E0D DUP4 PUSH3 0x1CCC JUMP JUMPDEST PUSH1 0x40 DUP1 MLOAD PUSH32 0x46A52CF33029DE9F84853745A87AF28464C80BF0346DF1B32E205FC73319F622 PUSH1 0x20 DUP3 ADD MSTORE SWAP1 DUP2 ADD DUP3 SWAP1 MSTORE PUSH1 0x0 SWAP1 PUSH1 0x60 ADD PUSH3 0x195A JUMP JUMPDEST PUSH1 0x0 DUP1 DUP5 PUSH1 0x1 PUSH1 0x1 PUSH1 0xA0 SHL SUB AND DUP5 PUSH1 0x40 MLOAD PUSH3 0x23EE SWAP2 SWAP1 PUSH3 0x28F2 JUMP JUMPDEST PUSH1 0x0 PUSH1 0x40 MLOAD DUP1 DUP4 SUB DUP2 PUSH1 0x0 DUP7 GAS CALL SWAP2 POP POP RETURNDATASIZE DUP1 PUSH1 0x0 DUP2 EQ PUSH3 0x242D JUMPI PUSH1 0x40 MLOAD SWAP2 POP PUSH1 0x1F NOT PUSH1 0x3F RETURNDATASIZE ADD AND DUP3 ADD PUSH1 0x40 MSTORE RETURNDATASIZE DUP3 MSTORE RETURNDATASIZE PUSH1 0x0 PUSH1 0x20 DUP5 ADD RETURNDATACOPY PUSH3 0x2432 JUMP JUMPDEST PUSH1 0x60 SWAP2 POP JUMPDEST POP SWAP2 POP SWAP2 POP DUP2 DUP1 ISZERO PUSH3 0x2460 JUMPI POP DUP1 MLOAD ISZERO DUP1 PUSH3 0x2460 JUMPI POP DUP1 DUP1 PUSH1 0x20 ADD SWAP1 MLOAD DUP2 ADD SWAP1 PUSH3 0x2460 SWAP2 SWAP1 PUSH3 0x2CD0 JUMP JUMPDEST PUSH3 0x6FC JUMPI PUSH1 0x0 DUP1 REVERT JUMPDEST PUSH1 0x40 DUP1 MLOAD PUSH32 0x2016836A56B71F0D02689E69E326F4F4C1B9057164EF592671CF0D37C8040C0 PUSH1 0x20 DUP3 ADD MSTORE SWAP1 DUP2 ADD DUP3 SWAP1 MSTORE PUSH1 0x0 SWAP1 PUSH1 0x60 ADD PUSH3 0x195A JUMP JUMPDEST PUSH3 0x1E14 PUSH3 0x18FF DUP4 PUSH3 0x2295 JUMP JUMPDEST PUSH3 0x1E14 PUSH3 0x18FF DUP4 PUSH3 0x22D1 JUMP JUMPDEST PUSH3 0x13EF PUSH3 0x1E0D DUP5 DUP5 PUSH3 0x230D JUMP JUMPDEST PUSH3 0x13EF PUSH3 0x18D6 DUP5 DUP5 PUSH3 0x2171 JUMP JUMPDEST PUSH1 0x0 SWAP2 DUP3 MSTORE PUSH1 0x2 PUSH1 0x20 MSTORE PUSH1 0x40 SWAP1 SWAP2 KECCAK256 DUP1 SLOAD PUSH1 0x1 PUSH1 0x1 PUSH1 0xA0 SHL SUB NOT AND PUSH1 0x1 PUSH1 0x1 PUSH1 0xA0 SHL SUB SWAP1 SWAP3 AND SWAP2 SWAP1 SWAP2 OR SWAP1 SSTORE JUMP JUMPDEST PUSH1 0x0 PUSH32 0xA80D2259AF55890618EC2EEB3AC72DE4BDBA22529BB14845D8A3D712D1C3F621 DUP3 PUSH1 0x40 MLOAD PUSH1 0x20 ADD PUSH3 0x195A SWAP3 SWAP2 SWAP1 PUSH3 0x2F48 JUMP JUMPDEST PUSH2 0x2A6 DUP1 PUSH3 0x3011 DUP4 CODECOPY ADD SWAP1 JUMP JUMPDEST PUSH2 0x1726 DUP1 PUSH3 0x32B7 DUP4 CODECOPY ADD SWAP1 JUMP JUMPDEST PUSH1 0x0 DUP1 DUP4 PUSH1 0x1F DUP5 ADD SLT PUSH3 0x2578 JUMPI PUSH1 0x0 DUP1 REVERT JUMPDEST POP DUP2 CALLDATALOAD PUSH1 0x1 PUSH1 0x1 PUSH1 0x40 SHL SUB DUP2 GT ISZERO PUSH3 0x2590 JUMPI PUSH1 0x0 DUP1 REVERT JUMPDEST PUSH1 0x20 DUP4 ADD SWAP2 POP DUP4 PUSH1 0x20 DUP3 DUP6 ADD ADD GT ISZERO PUSH3 0x25A9 JUMPI PUSH1 0x0 DUP1 REVERT JUMPDEST SWAP3 POP SWAP3 SWAP1 POP JUMP JUMPDEST PUSH1 0x0 DUP1 PUSH1 0x20 DUP4 DUP6 SUB SLT ISZERO PUSH3 0x25C4 JUMPI PUSH1 0x0 DUP1 REVERT JUMPDEST DUP3 CALLDATALOAD PUSH1 0x1 PUSH1 0x1 PUSH1 0x40 SHL SUB DUP2 GT ISZERO PUSH3 0x25DB JUMPI PUSH1 0x0 DUP1 REVERT JUMPDEST PUSH3 0x25E9 DUP6 DUP3 DUP7 ADD PUSH3 0x2565 JUMP JUMPDEST SWAP1 SWAP7 SWAP1 SWAP6 POP SWAP4 POP POP POP POP JUMP JUMPDEST PUSH1 0x0 PUSH1 0x20 DUP3 DUP5 SUB SLT ISZERO PUSH3 0x2608 JUMPI PUSH1 0x0 DUP1 REVERT JUMPDEST POP CALLDATALOAD SWAP2 SWAP1 POP JUMP JUMPDEST PUSH4 0x4E487B71 PUSH1 0xE0 SHL PUSH1 0x0 MSTORE PUSH1 0x41 PUSH1 0x4 MSTORE PUSH1 0x24 PUSH1 0x0 REVERT JUMPDEST PUSH1 0x40 MLOAD PUSH1 0x1F DUP3 ADD PUSH1 0x1F NOT AND DUP2 ADD PUSH1 0x1 PUSH1 0x1 PUSH1 0x40 SHL SUB DUP2 GT DUP3 DUP3 LT OR ISZERO PUSH3 0x2650 JUMPI PUSH3 0x2650 PUSH3 0x260F JUMP JUMPDEST PUSH1 0x40 MSTORE SWAP2 SWAP1 POP JUMP JUMPDEST PUSH1 0x0 PUSH1 0x1 PUSH1 0x1 PUSH1 0x40 SHL SUB DUP3 GT ISZERO PUSH3 0x2674 JUMPI PUSH3 0x2674 PUSH3 0x260F JUMP JUMPDEST POP PUSH1 0x1F ADD PUSH1 0x1F NOT AND PUSH1 0x20 ADD SWAP1 JUMP JUMPDEST PUSH1 0x0 DUP3 PUSH1 0x1F DUP4 ADD SLT PUSH3 0x2694 JUMPI PUSH1 0x0 DUP1 REVERT JUMPDEST DUP2 CALLDATALOAD PUSH3 0x26AB PUSH3 0x26A5 DUP3 PUSH3 0x2658 JUMP JUMPDEST PUSH3 0x2625 JUMP JUMPDEST DUP2 DUP2 MSTORE DUP5 PUSH1 0x20 DUP4 DUP7 ADD ADD GT ISZERO PUSH3 0x26C1 JUMPI PUSH1 0x0 DUP1 REVERT JUMPDEST DUP2 PUSH1 0x20 DUP6 ADD PUSH1 0x20 DUP4 ADD CALLDATACOPY PUSH1 0x0 SWAP2 DUP2 ADD PUSH1 0x20 ADD SWAP2 SWAP1 SWAP2 MSTORE SWAP4 SWAP3 POP POP POP JUMP JUMPDEST PUSH1 0x0 PUSH1 0x20 DUP3 DUP5 SUB SLT ISZERO PUSH3 0x26F1 JUMPI PUSH1 0x0 DUP1 REVERT JUMPDEST DUP2 CALLDATALOAD PUSH1 0x1 PUSH1 0x1 PUSH1 0x40 SHL SUB DUP2 GT ISZERO PUSH3 0x2708 JUMPI PUSH1 0x0 DUP1 REVERT JUMPDEST PUSH3 0x18BD DUP5 DUP3 DUP6 ADD PUSH3 0x2682 JUMP JUMPDEST PUSH1 0x0 JUMPDEST DUP4 DUP2 LT ISZERO PUSH3 0x2733 JUMPI DUP2 DUP2 ADD MLOAD DUP4 DUP3 ADD MSTORE PUSH1 0x20 ADD PUSH3 0x2719 JUMP JUMPDEST DUP4 DUP2 GT ISZERO PUSH3 0x48A JUMPI POP POP PUSH1 0x0 SWAP2 ADD MSTORE JUMP JUMPDEST PUSH1 0x0 DUP2 MLOAD DUP1 DUP5 MSTORE PUSH3 0x275F DUP2 PUSH1 0x20 DUP7 ADD PUSH1 0x20 DUP7 ADD PUSH3 0x2716 JUMP JUMPDEST PUSH1 0x1F ADD PUSH1 0x1F NOT AND SWAP3 SWAP1 SWAP3 ADD PUSH1 0x20 ADD SWAP3 SWAP2 POP POP JUMP JUMPDEST PUSH1 0x20 DUP2 MSTORE PUSH1 0x0 PUSH3 0x18A3 PUSH1 0x20 DUP4 ADD DUP5 PUSH3 0x2745 JUMP JUMPDEST PUSH1 0x1 PUSH1 0x1 PUSH1 0xA0 SHL SUB DUP2 AND DUP2 EQ PUSH3 0x1D03 JUMPI PUSH1 0x0 DUP1 REVERT JUMPDEST PUSH1 0x0 DUP1 PUSH1 0x0 DUP1 PUSH1 0x60 DUP6 DUP8 SUB SLT ISZERO PUSH3 0x27B5 JUMPI PUSH1 0x0 DUP1 REVERT JUMPDEST DUP5 CALLDATALOAD PUSH3 0x27C2 DUP2 PUSH3 0x2788 JUMP JUMPDEST SWAP4 POP PUSH1 0x20 DUP6 ADD CALLDATALOAD SWAP3 POP PUSH1 0x40 DUP6 ADD CALLDATALOAD PUSH1 0x1 PUSH1 0x1 PUSH1 0x40 SHL SUB DUP2 GT ISZERO PUSH3 0x27E5 JUMPI PUSH1 0x0 DUP1 REVERT JUMPDEST PUSH3 0x27F3 DUP8 DUP3 DUP9 ADD PUSH3 0x2565 JUMP JUMPDEST SWAP6 SWAP9 SWAP5 SWAP8 POP SWAP6 POP POP POP POP JUMP JUMPDEST PUSH1 0x0 DUP1 PUSH1 0x40 DUP4 DUP6 SUB SLT ISZERO PUSH3 0x2813 JUMPI PUSH1 0x0 DUP1 REVERT JUMPDEST DUP3 CALLDATALOAD PUSH1 0x1 PUSH1 0x1 PUSH1 0x40 SHL SUB DUP2 GT ISZERO PUSH3 0x282A JUMPI PUSH1 0x0 DUP1 REVERT JUMPDEST PUSH3 0x2838 DUP6 DUP3 DUP7 ADD PUSH3 0x2682 JUMP JUMPDEST SWAP6 PUSH1 0x20 SWAP5 SWAP1 SWAP5 ADD CALLDATALOAD SWAP5 POP POP POP POP JUMP JUMPDEST PUSH1 0x0 DUP1 PUSH1 0x40 DUP4 DUP6 SUB SLT ISZERO PUSH3 0x285B JUMPI PUSH1 0x0 DUP1 REVERT JUMPDEST DUP3 CALLDATALOAD PUSH1 0x1 PUSH1 0x1 PUSH1 0x40 SHL SUB DUP1 DUP3 GT ISZERO PUSH3 0x2873 JUMPI PUSH1 0x0 DUP1 REVERT JUMPDEST PUSH3 0x2881 DUP7 DUP4 DUP8 ADD PUSH3 0x2682 JUMP JUMPDEST SWAP4 POP PUSH1 0x20 DUP6 ADD CALLDATALOAD SWAP2 POP DUP1 DUP3 GT ISZERO PUSH3 0x2898 JUMPI PUSH1 0x0 DUP1 REVERT JUMPDEST POP PUSH3 0x28A7 DUP6 DUP3 DUP7 ADD PUSH3 0x2682 JUMP JUMPDEST SWAP2 POP POP SWAP3 POP SWAP3 SWAP1 POP JUMP JUMPDEST DUP2 DUP4 DUP3 CALLDATACOPY PUSH1 0x0 SWAP2 ADD SWAP1 DUP2 MSTORE SWAP2 SWAP1 POP JUMP JUMPDEST PUSH4 0x4E487B71 PUSH1 0xE0 SHL PUSH1 0x0 MSTORE PUSH1 0x11 PUSH1 0x4 MSTORE PUSH1 0x24 PUSH1 0x0 REVERT JUMPDEST PUSH1 0x0 DUP3 NOT DUP3 GT ISZERO PUSH3 0x28ED JUMPI PUSH3 0x28ED PUSH3 0x28C1 JUMP JUMPDEST POP ADD SWAP1 JUMP JUMPDEST PUSH1 0x0 DUP3 MLOAD PUSH3 0x2906 DUP2 DUP5 PUSH1 0x20 DUP8 ADD PUSH3 0x2716 JUMP JUMPDEST SWAP2 SWAP1 SWAP2 ADD SWAP3 SWAP2 POP POP JUMP JUMPDEST PUSH1 0x0 PUSH1 0x0 NOT DUP3 EQ ISZERO PUSH3 0x2927 JUMPI PUSH3 0x2927 PUSH3 0x28C1 JUMP JUMPDEST POP PUSH1 0x1 ADD SWAP1 JUMP JUMPDEST DUP1 CALLDATALOAD PUSH3 0x293B DUP2 PUSH3 0x2788 JUMP JUMPDEST SWAP2 SWAP1 POP JUMP JUMPDEST PUSH1 0x0 DUP1 PUSH1 0x0 DUP1 PUSH1 0x0 PUSH1 0xA0 DUP7 DUP9 SUB SLT ISZERO PUSH3 0x2959 JUMPI PUSH1 0x0 DUP1 REVERT JUMPDEST DUP6 CALLDATALOAD PUSH1 0x1 PUSH1 0x1 PUSH1 0x40 SHL SUB DUP1 DUP3 GT ISZERO PUSH3 0x2971 JUMPI PUSH1 0x0 DUP1 REVERT JUMPDEST PUSH3 0x297F DUP10 DUP4 DUP11 ADD PUSH3 0x2682 JUMP JUMPDEST SWAP7 POP PUSH1 0x20 DUP9 ADD CALLDATALOAD SWAP2 POP DUP1 DUP3 GT ISZERO PUSH3 0x2996 JUMPI PUSH1 0x0 DUP1 REVERT JUMPDEST POP PUSH3 0x29A5 DUP9 DUP3 DUP10 ADD PUSH3 0x2682 JUMP JUMPDEST SWAP5 POP POP PUSH1 0x40 DUP7 ADD CALLDATALOAD PUSH1 0xFF DUP2 AND DUP2 EQ PUSH3 0x29BD JUMPI PUSH1 0x0 DUP1 REVERT JUMPDEST SWAP3 POP PUSH1 0x60 DUP7 ADD CALLDATALOAD SWAP2 POP PUSH1 0x80 DUP7 ADD CALLDATALOAD PUSH3 0x29D6 DUP2 PUSH3 0x2788 JUMP JUMPDEST DUP1 SWAP2 POP POP SWAP3 SWAP6 POP SWAP3 SWAP6 SWAP1 SWAP4 POP JUMP JUMPDEST PUSH1 0x0 DUP1 PUSH1 0x0 PUSH1 0x60 DUP5 DUP7 SUB SLT ISZERO PUSH3 0x29FA JUMPI PUSH1 0x0 DUP1 REVERT JUMPDEST DUP4 CALLDATALOAD PUSH1 0x1 PUSH1 0x1 PUSH1 0x40 SHL SUB DUP2 GT ISZERO PUSH3 0x2A11 JUMPI PUSH1 0x0 DUP1 REVERT JUMPDEST PUSH3 0x2A1F DUP7 DUP3 DUP8 ADD PUSH3 0x2682 JUMP JUMPDEST SWAP4 POP POP PUSH1 0x20 DUP5 ADD CALLDATALOAD PUSH3 0x2A32 DUP2 PUSH3 0x2788 JUMP JUMPDEST SWAP3 SWAP6 SWAP3 SWAP5 POP POP POP PUSH1 0x40 SWAP2 SWAP1 SWAP2 ADD CALLDATALOAD SWAP1 JUMP JUMPDEST PUSH1 0x1 DUP2 DUP2 SHR SWAP1 DUP3 AND DUP1 PUSH3 0x2A58 JUMPI PUSH1 0x7F DUP3 AND SWAP2 POP JUMPDEST PUSH1 0x20 DUP3 LT DUP2 EQ ISZERO PUSH3 0x2A7A JUMPI PUSH4 0x4E487B71 PUSH1 0xE0 SHL PUSH1 0x0 MSTORE PUSH1 0x22 PUSH1 0x4 MSTORE PUSH1 0x24 PUSH1 0x0 REVERT JUMPDEST POP SWAP2 SWAP1 POP JUMP JUMPDEST PUSH1 0x0 PUSH1 0x1 PUSH1 0x1 PUSH1 0x40 SHL SUB DUP3 GT ISZERO PUSH3 0x2A9C JUMPI PUSH3 0x2A9C PUSH3 0x260F JUMP JUMPDEST POP PUSH1 0x5 SHL PUSH1 0x20 ADD SWAP1 JUMP JUMPDEST PUSH1 0x0 DUP1 PUSH1 0x0 DUP1 PUSH1 0x80 DUP6 DUP8 SUB SLT ISZERO PUSH3 0x2ABD JUMPI PUSH1 0x0 DUP1 REVERT JUMPDEST DUP5 CALLDATALOAD PUSH1 0x1 PUSH1 0x1 PUSH1 0x40 SHL SUB DUP2 GT ISZERO PUSH3 0x2AD4 JUMPI PUSH1 0x0 DUP1 REVERT JUMPDEST DUP6 ADD PUSH1 0x1F DUP2 ADD DUP8 SGT PUSH3 0x2AE6 JUMPI PUSH1 0x0 DUP1 REVERT JUMPDEST DUP1 CALLDATALOAD PUSH1 0x20 PUSH3 0x2AF9 PUSH3 0x26A5 DUP4 PUSH3 0x2A80 JUMP JUMPDEST DUP3 DUP2 MSTORE PUSH1 0x5 SWAP3 SWAP1 SWAP3 SHL DUP4 ADD DUP2 ADD SWAP2 DUP2 DUP2 ADD SWAP1 DUP11 DUP5 GT ISZERO PUSH3 0x2B19 JUMPI PUSH1 0x0 DUP1 REVERT JUMPDEST SWAP4 DUP3 ADD SWAP4 JUMPDEST DUP4 DUP6 LT ISZERO PUSH3 0x2B44 JUMPI DUP5 CALLDATALOAD PUSH3 0x2B34 DUP2 PUSH3 0x2788 JUMP JUMPDEST DUP3 MSTORE SWAP4 DUP3 ADD SWAP4 SWAP1 DUP3 ADD SWAP1 PUSH3 0x2B1E JUMP JUMPDEST SWAP8 POP POP DUP8 ADD CALLDATALOAD SWAP5 POP PUSH3 0x2B5D SWAP2 POP POP PUSH1 0x40 DUP7 ADD PUSH3 0x292E JUMP JUMPDEST SWAP2 POP PUSH3 0x2B6D PUSH1 0x60 DUP7 ADD PUSH3 0x292E JUMP JUMPDEST SWAP1 POP SWAP3 SWAP6 SWAP2 SWAP5 POP SWAP3 POP JUMP JUMPDEST PUSH1 0x20 DUP2 MSTORE DUP2 PUSH1 0x20 DUP3 ADD MSTORE DUP2 DUP4 PUSH1 0x40 DUP4 ADD CALLDATACOPY PUSH1 0x0 DUP2 DUP4 ADD PUSH1 0x40 SWAP1 DUP2 ADD SWAP2 SWAP1 SWAP2 MSTORE PUSH1 0x1F SWAP1 SWAP3 ADD PUSH1 0x1F NOT AND ADD ADD SWAP2 SWAP1 POP JUMP JUMPDEST PUSH1 0x0 PUSH1 0x20 DUP3 DUP5 SUB SLT ISZERO PUSH3 0x2BBA JUMPI PUSH1 0x0 DUP1 REVERT JUMPDEST DUP2 CALLDATALOAD PUSH3 0x18A3 DUP2 PUSH3 0x2788 JUMP JUMPDEST PUSH4 0x4E487B71 PUSH1 0xE0 SHL PUSH1 0x0 MSTORE PUSH1 0x21 PUSH1 0x4 MSTORE PUSH1 0x24 PUSH1 0x0 REVERT JUMPDEST PUSH1 0x0 PUSH1 0x20 DUP3 DUP5 SUB SLT ISZERO PUSH3 0x2BF0 JUMPI PUSH1 0x0 DUP1 REVERT JUMPDEST POP MLOAD SWAP2 SWAP1 POP JUMP JUMPDEST PUSH1 0x1 PUSH1 0x1 PUSH1 0xA0 SHL SUB DUP4 AND DUP2 MSTORE PUSH1 0x40 PUSH1 0x20 DUP3 ADD DUP2 SWAP1 MSTORE PUSH1 0x0 SWAP1 PUSH3 0x18BD SWAP1 DUP4 ADD DUP5 PUSH3 0x2745 JUMP JUMPDEST DUP1 MLOAD DUP1 ISZERO ISZERO DUP2 EQ PUSH3 0x293B JUMPI PUSH1 0x0 DUP1 REVERT JUMPDEST PUSH1 0x0 PUSH3 0x2C3F PUSH3 0x26A5 DUP5 PUSH3 0x2658 JUMP JUMPDEST SWAP1 POP DUP3 DUP2 MSTORE DUP4 DUP4 DUP4 ADD GT ISZERO PUSH3 0x2C54 JUMPI PUSH1 0x0 DUP1 REVERT JUMPDEST PUSH3 0x18A3 DUP4 PUSH1 0x20 DUP4 ADD DUP5 PUSH3 0x2716 JUMP JUMPDEST PUSH1 0x0 DUP3 PUSH1 0x1F DUP4 ADD SLT PUSH3 0x2C76 JUMPI PUSH1 0x0 DUP1 REVERT JUMPDEST PUSH3 0x18A3 DUP4 DUP4 MLOAD PUSH1 0x20 DUP6 ADD PUSH3 0x2C2E JUMP JUMPDEST PUSH1 0x0 DUP1 PUSH1 0x40 DUP4 DUP6 SUB SLT ISZERO PUSH3 0x2C9B JUMPI PUSH1 0x0 DUP1 REVERT JUMPDEST PUSH3 0x2CA6 DUP4 PUSH3 0x2C1D JUMP JUMPDEST SWAP2 POP PUSH1 0x20 DUP4 ADD MLOAD PUSH1 0x1 PUSH1 0x1 PUSH1 0x40 SHL SUB DUP2 GT ISZERO PUSH3 0x2CC2 JUMPI PUSH1 0x0 DUP1 REVERT JUMPDEST PUSH3 0x28A7 DUP6 DUP3 DUP7 ADD PUSH3 0x2C64 JUMP JUMPDEST PUSH1 0x0 PUSH1 0x20 DUP3 DUP5 SUB SLT ISZERO PUSH3 0x2CE3 JUMPI PUSH1 0x0 DUP1 REVERT JUMPDEST PUSH3 0x18A3 DUP3 PUSH3 0x2C1D JUMP JUMPDEST PUSH1 0x0 DUP3 PUSH1 0x1F DUP4 ADD SLT PUSH3 0x2D00 JUMPI PUSH1 0x0 DUP1 REVERT JUMPDEST DUP2 MLOAD PUSH1 0x20 PUSH3 0x2D13 PUSH3 0x26A5 DUP4 PUSH3 0x2A80 JUMP JUMPDEST DUP3 DUP2 MSTORE PUSH1 0x5 SWAP3 SWAP1 SWAP3 SHL DUP5 ADD DUP2 ADD SWAP2 DUP2 DUP2 ADD SWAP1 DUP7 DUP5 GT ISZERO PUSH3 0x2D33 JUMPI PUSH1 0x0 DUP1 REVERT JUMPDEST DUP3 DUP7 ADD JUMPDEST DUP5 DUP2 LT ISZERO PUSH3 0x2D8D JUMPI DUP1 MLOAD PUSH1 0x1 PUSH1 0x1 PUSH1 0x40 SHL SUB DUP2 GT ISZERO PUSH3 0x2D58 JUMPI PUSH1 0x0 DUP1 DUP2 REVERT JUMPDEST DUP8 ADD PUSH1 0x3F DUP2 ADD DUP10 SGT PUSH3 0x2D6B JUMPI PUSH1 0x0 DUP1 DUP2 REVERT JUMPDEST PUSH3 0x2D7E DUP10 DUP7 DUP4 ADD MLOAD PUSH1 0x40 DUP5 ADD PUSH3 0x2C2E JUMP JUMPDEST DUP5 MSTORE POP SWAP2 DUP4 ADD SWAP2 DUP4 ADD PUSH3 0x2D37 JUMP JUMPDEST POP SWAP7 SWAP6 POP POP POP POP POP POP JUMP JUMPDEST PUSH1 0x0 DUP3 PUSH1 0x1F DUP4 ADD SLT PUSH3 0x2DAA JUMPI PUSH1 0x0 DUP1 REVERT JUMPDEST DUP2 MLOAD PUSH1 0x20 PUSH3 0x2DBD PUSH3 0x26A5 DUP4 PUSH3 0x2A80 JUMP JUMPDEST DUP3 DUP2 MSTORE PUSH1 0x5 SWAP3 SWAP1 SWAP3 SHL DUP5 ADD DUP2 ADD SWAP2 DUP2 DUP2 ADD SWAP1 DUP7 DUP5 GT ISZERO PUSH3 0x2DDD JUMPI PUSH1 0x0 DUP1 REVERT JUMPDEST DUP3 DUP7 ADD JUMPDEST DUP5 DUP2 LT ISZERO PUSH3 0x2D8D JUMPI DUP1 MLOAD PUSH1 0x1 PUSH1 0x1 PUSH1 0x40 SHL SUB DUP2 GT ISZERO PUSH3 0x2E02 JUMPI PUSH1 0x0 DUP1 DUP2 REVERT JUMPDEST PUSH3 0x2E12 DUP10 DUP7 DUP4 DUP12 ADD ADD PUSH3 0x2C64 JUMP JUMPDEST DUP5 MSTORE POP SWAP2 DUP4 ADD SWAP2 DUP4 ADD PUSH3 0x2DE1 JUMP JUMPDEST PUSH1 0x0 DUP1 PUSH1 0x0 DUP1 PUSH1 0x0 PUSH1 0xA0 DUP7 DUP9 SUB SLT ISZERO PUSH3 0x2E3A JUMPI PUSH1 0x0 DUP1 REVERT JUMPDEST DUP6 MLOAD SWAP5 POP PUSH1 0x20 DUP1 DUP8 ADD MLOAD PUSH1 0x3 DUP2 LT PUSH3 0x2E52 JUMPI PUSH1 0x0 DUP1 REVERT JUMPDEST PUSH1 0x40 DUP9 ADD MLOAD SWAP1 SWAP6 POP PUSH1 0x1 PUSH1 0x1 PUSH1 0x40 SHL SUB DUP1 DUP3 GT ISZERO PUSH3 0x2E70 JUMPI PUSH1 0x0 DUP1 REVERT JUMPDEST DUP2 DUP10 ADD SWAP2 POP DUP10 PUSH1 0x1F DUP4 ADD SLT PUSH3 0x2E85 JUMPI PUSH1 0x0 DUP1 REVERT JUMPDEST DUP2 MLOAD PUSH3 0x2E96 PUSH3 0x26A5 DUP3 PUSH3 0x2A80 JUMP JUMPDEST DUP2 DUP2 MSTORE PUSH1 0x5 SWAP2 SWAP1 SWAP2 SHL DUP4 ADD DUP5 ADD SWAP1 DUP5 DUP2 ADD SWAP1 DUP13 DUP4 GT ISZERO PUSH3 0x2EB6 JUMPI PUSH1 0x0 DUP1 REVERT JUMPDEST SWAP4 DUP6 ADD SWAP4 JUMPDEST DUP3 DUP6 LT ISZERO PUSH3 0x2ED6 JUMPI DUP5 MLOAD DUP3 MSTORE SWAP4 DUP6 ADD SWAP4 SWAP1 DUP6 ADD SWAP1 PUSH3 0x2EBB JUMP JUMPDEST PUSH1 0x60 DUP13 ADD MLOAD SWAP1 SWAP9 POP SWAP5 POP POP POP DUP1 DUP4 GT ISZERO PUSH3 0x2EF0 JUMPI PUSH1 0x0 DUP1 REVERT JUMPDEST PUSH3 0x2EFE DUP11 DUP5 DUP12 ADD PUSH3 0x2CEE JUMP JUMPDEST SWAP5 POP PUSH1 0x80 DUP10 ADD MLOAD SWAP3 POP DUP1 DUP4 GT ISZERO PUSH3 0x2F15 JUMPI PUSH1 0x0 DUP1 REVERT JUMPDEST POP POP PUSH3 0x2F25 DUP9 DUP3 DUP10 ADD PUSH3 0x2D98 JUMP JUMPDEST SWAP2 POP POP SWAP3 SWAP6 POP SWAP3 SWAP6 SWAP1 SWAP4 POP JUMP JUMPDEST PUSH4 0x4E487B71 PUSH1 0xE0 SHL PUSH1 0x0 MSTORE PUSH1 0x32 PUSH1 0x4 MSTORE PUSH1 0x24 PUSH1 0x0 REVERT JUMPDEST DUP3 DUP2 MSTORE PUSH1 0x0 DUP3 MLOAD PUSH3 0x2F62 DUP2 PUSH1 0x20 DUP6 ADD PUSH1 0x20 DUP8 ADD PUSH3 0x2716 JUMP JUMPDEST SWAP2 SWAP1 SWAP2 ADD PUSH1 0x20 ADD SWAP4 SWAP3 POP POP POP JUMP JUMPDEST PUSH1 0x80 DUP2 MSTORE PUSH1 0x0 PUSH3 0x2F85 PUSH1 0x80 DUP4 ADD DUP8 PUSH3 0x2745 JUMP JUMPDEST DUP3 DUP2 SUB PUSH1 0x20 DUP5 ADD MSTORE PUSH3 0x2F99 DUP2 DUP8 PUSH3 0x2745 JUMP JUMPDEST PUSH1 0xFF SWAP6 SWAP1 SWAP6 AND PUSH1 0x40 DUP5 ADD MSTORE POP POP PUSH1 0x60 ADD MSTORE SWAP3 SWAP2 POP POP JUMP JUMPDEST PUSH1 0x40 DUP2 MSTORE PUSH1 0x0 PUSH3 0x2FC5 PUSH1 0x40 DUP4 ADD DUP6 PUSH3 0x2745 JUMP JUMPDEST SWAP1 POP PUSH1 0x1 DUP1 PUSH1 0xA0 SHL SUB DUP4 AND PUSH1 0x20 DUP4 ADD MSTORE SWAP4 SWAP3 POP POP POP JUMP JUMPDEST PUSH1 0x0 DUP3 DUP3 LT ISZERO PUSH3 0x2FF1 JUMPI PUSH3 0x2FF1 PUSH3 0x28C1 JUMP JUMPDEST POP SUB SWAP1 JUMP JUMPDEST PUSH1 0x0 DUP2 PUSH3 0x3008 JUMPI PUSH3 0x3008 PUSH3 0x28C1 JUMP JUMPDEST POP PUSH1 0x0 NOT ADD SWAP1 JUMP INVALID PUSH1 0x80 PUSH1 0x40 MSTORE PUSH1 0x0 DUP1 SSTORE CALLVALUE DUP1 ISZERO PUSH2 0x14 JUMPI PUSH1 0x0 DUP1 REVERT JUMPDEST POP PUSH2 0x282 DUP1 PUSH2 0x24 PUSH1 0x0 CODECOPY PUSH1 0x0 RETURN INVALID PUSH1 0x80 PUSH1 0x40 MSTORE CALLVALUE DUP1 ISZERO PUSH2 0x10 JUMPI PUSH1 0x0 DUP1 REVERT JUMPDEST POP PUSH1 0x4 CALLDATASIZE LT PUSH2 0x35 JUMPI PUSH1 0x0 CALLDATALOAD PUSH1 0xE0 SHR DUP1 PUSH3 0xF55D9D EQ PUSH2 0x3A JUMPI DUP1 PUSH4 0x1CFF79CD EQ PUSH2 0x4F JUMPI JUMPDEST PUSH1 0x0 DUP1 REVERT JUMPDEST PUSH2 0x4D PUSH2 0x48 CALLDATASIZE PUSH1 0x4 PUSH2 0x138 JUMP JUMPDEST PUSH2 0x79 JUMP JUMPDEST STOP JUMPDEST PUSH2 0x62 PUSH2 0x5D CALLDATASIZE PUSH1 0x4 PUSH2 0x15A JUMP JUMPDEST PUSH2 0x97 JUMP JUMPDEST PUSH1 0x40 MLOAD PUSH2 0x70 SWAP3 SWAP2 SWAP1 PUSH2 0x1DD JUMP JUMPDEST PUSH1 0x40 MLOAD DUP1 SWAP2 SUB SWAP1 RETURN JUMPDEST PUSH1 0x0 SLOAD ISZERO PUSH2 0x86 JUMPI PUSH1 0x0 DUP1 REVERT JUMPDEST PUSH1 0x1 PUSH1 0x0 SSTORE PUSH1 0x1 PUSH1 0x1 PUSH1 0xA0 SHL SUB DUP2 AND SELFDESTRUCT JUMPDEST PUSH1 0x0 PUSH1 0x60 PUSH1 0x0 DUP1 SLOAD EQ PUSH2 0xA9 JUMPI PUSH1 0x0 DUP1 REVERT JUMPDEST PUSH1 0x1 PUSH1 0x0 SSTORE PUSH1 0x40 MLOAD PUSH1 0x1 PUSH1 0x1 PUSH1 0xA0 SHL SUB DUP7 AND SWAP1 PUSH2 0xC9 SWAP1 DUP7 SWAP1 DUP7 SWAP1 PUSH2 0x23C JUMP JUMPDEST PUSH1 0x0 PUSH1 0x40 MLOAD DUP1 DUP4 SUB DUP2 PUSH1 0x0 DUP7 GAS CALL SWAP2 POP POP RETURNDATASIZE DUP1 PUSH1 0x0 DUP2 EQ PUSH2 0x106 JUMPI PUSH1 0x40 MLOAD SWAP2 POP PUSH1 0x1F NOT PUSH1 0x3F RETURNDATASIZE ADD AND DUP3 ADD PUSH1 0x40 MSTORE RETURNDATASIZE DUP3 MSTORE RETURNDATASIZE PUSH1 0x0 PUSH1 0x20 DUP5 ADD RETURNDATACOPY PUSH2 0x10B JUMP JUMPDEST PUSH1 0x60 SWAP2 POP JUMPDEST POP PUSH1 0x0 DUP1 SSTORE SWAP1 SWAP7 SWAP1 SWAP6 POP SWAP4 POP POP POP POP JUMP JUMPDEST DUP1 CALLDATALOAD PUSH1 0x1 PUSH1 0x1 PUSH1 0xA0 SHL SUB DUP2 AND DUP2 EQ PUSH2 0x133 JUMPI PUSH1 0x0 DUP1 REVERT JUMPDEST SWAP2 SWAP1 POP JUMP JUMPDEST PUSH1 0x0 PUSH1 0x20 DUP3 DUP5 SUB SLT ISZERO PUSH2 0x14A JUMPI PUSH1 0x0 DUP1 REVERT JUMPDEST PUSH2 0x153 DUP3 PUSH2 0x11C JUMP JUMPDEST SWAP4 SWAP3 POP POP POP JUMP JUMPDEST PUSH1 0x0 DUP1 PUSH1 0x0 PUSH1 0x40 DUP5 DUP7 SUB SLT ISZERO PUSH2 0x16F JUMPI PUSH1 0x0 DUP1 REVERT JUMPDEST PUSH2 0x178 DUP5 PUSH2 0x11C JUMP JUMPDEST SWAP3 POP PUSH1 0x20 DUP5 ADD CALLDATALOAD PUSH8 0xFFFFFFFFFFFFFFFF DUP1 DUP3 GT ISZERO PUSH2 0x195 JUMPI PUSH1 0x0 DUP1 REVERT JUMPDEST DUP2 DUP7 ADD SWAP2 POP DUP7 PUSH1 0x1F DUP4 ADD SLT PUSH2 0x1A9 JUMPI PUSH1 0x0 DUP1 REVERT JUMPDEST DUP2 CALLDATALOAD DUP2 DUP2 GT ISZERO PUSH2 0x1B8 JUMPI PUSH1 0x0 DUP1 REVERT JUMPDEST DUP8 PUSH1 0x20 DUP3 DUP6 ADD ADD GT ISZERO PUSH2 0x1CA JUMPI PUSH1 0x0 DUP1 REVERT JUMPDEST PUSH1 0x20 DUP4 ADD SWAP5 POP DUP1 SWAP4 POP POP POP POP SWAP3 POP SWAP3 POP SWAP3 JUMP JUMPDEST DUP3 ISZERO ISZERO DUP2 MSTORE PUSH1 0x0 PUSH1 0x20 PUSH1 0x40 DUP2 DUP5 ADD MSTORE DUP4 MLOAD DUP1 PUSH1 0x40 DUP6 ADD MSTORE PUSH1 0x0 JUMPDEST DUP2 DUP2 LT ISZERO PUSH2 0x213 JUMPI DUP6 DUP2 ADD DUP4 ADD MLOAD DUP6 DUP3 ADD PUSH1 0x60 ADD MSTORE DUP3 ADD PUSH2 0x1F7 JUMP JUMPDEST DUP2 DUP2 GT ISZERO PUSH2 0x225 JUMPI PUSH1 0x0 PUSH1 0x60 DUP4 DUP8 ADD ADD MSTORE JUMPDEST POP PUSH1 0x1F ADD PUSH1 0x1F NOT AND SWAP3 SWAP1 SWAP3 ADD PUSH1 0x60 ADD SWAP5 SWAP4 POP POP POP POP JUMP JUMPDEST DUP2 DUP4 DUP3 CALLDATACOPY PUSH1 0x0 SWAP2 ADD SWAP1 DUP2 MSTORE SWAP2 SWAP1 POP JUMP INVALID LOG2 PUSH5 0x6970667358 0x22 SLT KECCAK256 0x5E 0xAE PUSH28 0xCAECFFBCD15E04F46B0CF953C1DF7D02AFC5DC8A3BBF36F7A563D810 SWAP14 PUSH5 0x736F6C6343 STOP ADDMOD MULMOD STOP CALLER PUSH1 0xA0 PUSH1 0x40 MSTORE CALLVALUE DUP1 ISZERO PUSH3 0x11 JUMPI PUSH1 0x0 DUP1 REVERT JUMPDEST POP PUSH1 0x40 MLOAD PUSH3 0x1726 CODESIZE SUB DUP1 PUSH3 0x1726 DUP4 CODECOPY DUP2 ADD PUSH1 0x40 DUP2 SWAP1 MSTORE PUSH3 0x34 SWAP2 PUSH3 0x2E1 JUMP JUMPDEST DUP4 DUP4 DUP4 DUP4 DUP4 DUP5 DUP5 DUP5 DUP3 PUSH1 0x3 SWAP1 DUP1 MLOAD SWAP1 PUSH1 0x20 ADD SWAP1 PUSH3 0x54 SWAP3 SWAP2 SWAP1 PUSH3 0x16E JUMP JUMPDEST POP DUP2 MLOAD PUSH3 0x6A SWAP1 PUSH1 0x4 SWAP1 PUSH1 0x20 DUP6 ADD SWAP1 PUSH3 0x16E JUMP JUMPDEST POP PUSH1 0xFF AND PUSH1 0x80 SWAP1 DUP2 MSTORE DUP4 MLOAD PUSH1 0x20 DUP1 DUP7 ADD SWAP2 SWAP1 SWAP2 KECCAK256 PUSH1 0x40 DUP1 MLOAD DUP1 DUP3 ADD DUP3 MSTORE PUSH1 0x1 DUP2 MSTORE PUSH1 0x31 PUSH1 0xF8 SHL SWAP1 DUP5 ADD MSTORE DUP1 MLOAD PUSH32 0x8B73C3C69BB8FE3D512ECC4CF759CC79239F7B179B0FFACAA9A75D522B39400F SWAP4 DUP2 ADD SWAP4 SWAP1 SWAP4 MSTORE DUP3 ADD MSTORE PUSH32 0xC89EFDAA54C0F20C7ADF612882DF0950F5A951637E0307CDCB4C672F298B8BC6 PUSH1 0x60 DUP3 ADD MSTORE CHAINID SWAP2 DUP2 ADD SWAP2 SWAP1 SWAP2 MSTORE ADDRESS PUSH1 0xA0 DUP3 ADD MSTORE PUSH1 0xC0 ADD SWAP2 POP PUSH3 0x102 SWAP1 POP JUMP JUMPDEST PUSH1 0x40 DUP1 MLOAD PUSH1 0x1F NOT DUP2 DUP5 SUB ADD DUP2 MSTORE SWAP1 DUP3 SWAP1 MSTORE DUP1 MLOAD PUSH1 0x20 SWAP1 SWAP2 ADD KECCAK256 PUSH1 0x5 SSTORE PUSH1 0x7 DUP1 SLOAD PUSH1 0x1 PUSH1 0x1 PUSH1 0xA0 SHL SUB NOT AND CALLER SWAP1 DUP2 OR SWAP1 SWAP2 SSTORE SWAP2 POP PUSH1 0x0 SWAP1 PUSH32 0x8BE0079C531659141344CD1FD0A4F28419497F9722A3DAAFE3B4186F6B6457E0 SWAP1 DUP3 SWAP1 LOG3 PUSH1 0x8 SSTORE POP PUSH3 0x3A9 SWAP6 POP POP POP POP POP POP JUMP JUMPDEST DUP3 DUP1 SLOAD PUSH3 0x17C SWAP1 PUSH3 0x36C JUMP JUMPDEST SWAP1 PUSH1 0x0 MSTORE PUSH1 0x20 PUSH1 0x0 KECCAK256 SWAP1 PUSH1 0x1F ADD PUSH1 0x20 SWAP1 DIV DUP2 ADD SWAP3 DUP3 PUSH3 0x1A0 JUMPI PUSH1 0x0 DUP6 SSTORE PUSH3 0x1EB JUMP JUMPDEST DUP3 PUSH1 0x1F LT PUSH3 0x1BB JUMPI DUP1 MLOAD PUSH1 0xFF NOT AND DUP4 DUP1 ADD OR DUP6 SSTORE PUSH3 0x1EB JUMP JUMPDEST DUP3 DUP1 ADD PUSH1 0x1 ADD DUP6 SSTORE DUP3 ISZERO PUSH3 0x1EB JUMPI SWAP2 DUP3 ADD JUMPDEST DUP3 DUP2 GT ISZERO PUSH3 0x1EB JUMPI DUP3 MLOAD DUP3 SSTORE SWAP2 PUSH1 0x20 ADD SWAP2 SWAP1 PUSH1 0x1 ADD SWAP1 PUSH3 0x1CE JUMP JUMPDEST POP PUSH3 0x1F9 SWAP3 SWAP2 POP PUSH3 0x1FD JUMP JUMPDEST POP SWAP1 JUMP JUMPDEST JUMPDEST DUP1 DUP3 GT ISZERO PUSH3 0x1F9 JUMPI PUSH1 0x0 DUP2 SSTORE PUSH1 0x1 ADD PUSH3 0x1FE JUMP JUMPDEST PUSH4 0x4E487B71 PUSH1 0xE0 SHL PUSH1 0x0 MSTORE PUSH1 0x41 PUSH1 0x4 MSTORE PUSH1 0x24 PUSH1 0x0 REVERT JUMPDEST PUSH1 0x0 DUP3 PUSH1 0x1F DUP4 ADD SLT PUSH3 0x23C JUMPI PUSH1 0x0 DUP1 REVERT JUMPDEST DUP2 MLOAD PUSH1 0x1 PUSH1 0x1 PUSH1 0x40 SHL SUB DUP1 DUP3 GT ISZERO PUSH3 0x259 JUMPI PUSH3 0x259 PUSH3 0x214 JUMP JUMPDEST PUSH1 0x40 MLOAD PUSH1 0x1F DUP4 ADD PUSH1 0x1F NOT SWAP1 DUP2 AND PUSH1 0x3F ADD AND DUP2 ADD SWAP1 DUP3 DUP3 GT DUP2 DUP4 LT OR ISZERO PUSH3 0x284 JUMPI PUSH3 0x284 PUSH3 0x214 JUMP JUMPDEST DUP2 PUSH1 0x40 MSTORE DUP4 DUP2 MSTORE PUSH1 0x20 SWAP3 POP DUP7 DUP4 DUP6 DUP9 ADD ADD GT ISZERO PUSH3 0x2A1 JUMPI PUSH1 0x0 DUP1 REVERT JUMPDEST PUSH1 0x0 SWAP2 POP JUMPDEST DUP4 DUP3 LT ISZERO PUSH3 0x2C5 JUMPI DUP6 DUP3 ADD DUP4 ADD MLOAD DUP2 DUP4 ADD DUP5 ADD MSTORE SWAP1 DUP3 ADD SWAP1 PUSH3 0x2A6 JUMP JUMPDEST DUP4 DUP3 GT ISZERO PUSH3 0x2D7 JUMPI PUSH1 0x0 DUP4 DUP6 DUP4 ADD ADD MSTORE JUMPDEST SWAP7 SWAP6 POP POP POP POP POP POP JUMP JUMPDEST PUSH1 0x0 DUP1 PUSH1 0x0 DUP1 PUSH1 0x80 DUP6 DUP8 SUB SLT ISZERO PUSH3 0x2F8 JUMPI PUSH1 0x0 DUP1 REVERT JUMPDEST DUP5 MLOAD PUSH1 0x1 PUSH1 0x1 PUSH1 0x40 SHL SUB DUP1 DUP3 GT ISZERO PUSH3 0x310 JUMPI PUSH1 0x0 DUP1 REVERT JUMPDEST PUSH3 0x31E DUP9 DUP4 DUP10 ADD PUSH3 0x22A JUMP JUMPDEST SWAP6 POP PUSH1 0x20 DUP8 ADD MLOAD SWAP2 POP DUP1 DUP3 GT ISZERO PUSH3 0x335 JUMPI PUSH1 0x0 DUP1 REVERT JUMPDEST POP PUSH3 0x344 DUP8 DUP3 DUP9 ADD PUSH3 0x22A JUMP JUMPDEST SWAP4 POP POP PUSH1 0x40 DUP6 ADD MLOAD PUSH1 0xFF DUP2 AND DUP2 EQ PUSH3 0x35C JUMPI PUSH1 0x0 DUP1 REVERT JUMPDEST PUSH1 0x60 SWAP6 SWAP1 SWAP6 ADD MLOAD SWAP4 SWAP7 SWAP3 SWAP6 POP POP POP JUMP JUMPDEST PUSH1 0x1 DUP2 DUP2 SHR SWAP1 DUP3 AND DUP1 PUSH3 0x381 JUMPI PUSH1 0x7F DUP3 AND SWAP2 POP JUMPDEST PUSH1 0x20 DUP3 LT DUP2 EQ ISZERO PUSH3 0x3A3 JUMPI PUSH4 0x4E487B71 PUSH1 0xE0 SHL PUSH1 0x0 MSTORE PUSH1 0x22 PUSH1 0x4 MSTORE PUSH1 0x24 PUSH1 0x0 REVERT JUMPDEST POP SWAP2 SWAP1 POP JUMP JUMPDEST PUSH1 0x80 MLOAD PUSH2 0x1361 PUSH3 0x3C5 PUSH1 0x0 CODECOPY PUSH1 0x0 PUSH2 0x1C1 ADD MSTORE PUSH2 0x1361 PUSH1 0x0 RETURN INVALID PUSH1 0x80 PUSH1 0x40 MSTORE CALLVALUE DUP1 ISZERO PUSH2 0x10 JUMPI PUSH1 0x0 DUP1 REVERT JUMPDEST POP PUSH1 0x4 CALLDATASIZE LT PUSH2 0x137 JUMPI PUSH1 0x0 CALLDATALOAD PUSH1 0xE0 SHR DUP1 PUSH4 0x40C10F19 GT PUSH2 0xB8 JUMPI DUP1 PUSH4 0x95D89B41 GT PUSH2 0x7C JUMPI DUP1 PUSH4 0x95D89B41 EQ PUSH2 0x2BE JUMPI DUP1 PUSH4 0xA457C2D7 EQ PUSH2 0x2C6 JUMPI DUP1 PUSH4 0xA9059CBB EQ PUSH2 0x2D9 JUMPI DUP1 PUSH4 0xD505ACCF EQ PUSH2 0x2EC JUMPI DUP1 PUSH4 0xDD62ED3E EQ PUSH2 0x2FF JUMPI DUP1 PUSH4 0xF2FDE38B EQ PUSH2 0x32A JUMPI PUSH1 0x0 DUP1 REVERT JUMPDEST DUP1 PUSH4 0x40C10F19 EQ PUSH2 0x245 JUMPI DUP1 PUSH4 0x70A08231 EQ PUSH2 0x258 JUMPI DUP1 PUSH4 0x79CC6790 EQ PUSH2 0x278 JUMPI DUP1 PUSH4 0x7ECEBE00 EQ PUSH2 0x28B JUMPI DUP1 PUSH4 0x8DA5CB5B EQ PUSH2 0x2AB JUMPI PUSH1 0x0 DUP1 REVERT JUMPDEST DUP1 PUSH4 0x313CE567 GT PUSH2 0xFF JUMPI DUP1 PUSH4 0x313CE567 EQ PUSH2 0x1BC JUMPI DUP1 PUSH4 0x31EECAF4 EQ PUSH2 0x1F5 JUMPI DUP1 PUSH4 0x355274EA EQ PUSH2 0x220 JUMPI DUP1 PUSH4 0x3644E515 EQ PUSH2 0x229 JUMPI DUP1 PUSH4 0x39509351 EQ PUSH2 0x232 JUMPI PUSH1 0x0 DUP1 REVERT JUMPDEST DUP1 PUSH4 0x6FDDE03 EQ PUSH2 0x13C JUMPI DUP1 PUSH4 0x8A1EEE1 EQ PUSH2 0x15A JUMPI DUP1 PUSH4 0x95EA7B3 EQ PUSH2 0x16F JUMPI DUP1 PUSH4 0x18160DDD EQ PUSH2 0x192 JUMPI DUP1 PUSH4 0x23B872DD EQ PUSH2 0x1A9 JUMPI JUMPDEST PUSH1 0x0 DUP1 REVERT JUMPDEST PUSH2 0x144 PUSH2 0x33D JUMP JUMPDEST PUSH1 0x40 MLOAD PUSH2 0x151 SWAP2 SWAP1 PUSH2 0xD46 JUMP JUMPDEST PUSH1 0x40 MLOAD DUP1 SWAP2 SUB SWAP1 RETURN JUMPDEST PUSH2 0x16D PUSH2 0x168 CALLDATASIZE PUSH1 0x4 PUSH2 0xD79 JUMP JUMPDEST PUSH2 0x3CB JUMP JUMPDEST STOP JUMPDEST PUSH2 0x182 PUSH2 0x17D CALLDATASIZE PUSH1 0x4 PUSH2 0xDAE JUMP JUMPDEST PUSH2 0x418 JUMP JUMPDEST PUSH1 0x40 MLOAD SWAP1 ISZERO ISZERO DUP2 MSTORE PUSH1 0x20 ADD PUSH2 0x151 JUMP JUMPDEST PUSH2 0x19B PUSH1 0x2 SLOAD DUP2 JUMP JUMPDEST PUSH1 0x40 MLOAD SWAP1 DUP2 MSTORE PUSH1 0x20 ADD PUSH2 0x151 JUMP JUMPDEST PUSH2 0x182 PUSH2 0x1B7 CALLDATASIZE PUSH1 0x4 PUSH2 0xDD8 JUMP JUMPDEST PUSH2 0x42E JUMP JUMPDEST PUSH2 0x1E3 PUSH32 0x0 DUP2 JUMP JUMPDEST PUSH1 0x40 MLOAD PUSH1 0xFF SWAP1 SWAP2 AND DUP2 MSTORE PUSH1 0x20 ADD PUSH2 0x151 JUMP JUMPDEST PUSH2 0x208 PUSH2 0x203 CALLDATASIZE PUSH1 0x4 PUSH2 0xD79 JUMP JUMPDEST PUSH2 0x480 JUMP JUMPDEST PUSH1 0x40 MLOAD PUSH1 0x1 PUSH1 0x1 PUSH1 0xA0 SHL SUB SWAP1 SWAP2 AND DUP2 MSTORE PUSH1 0x20 ADD PUSH2 0x151 JUMP JUMPDEST PUSH2 0x19B PUSH1 0x8 SLOAD DUP2 JUMP JUMPDEST PUSH2 0x19B PUSH1 0x5 SLOAD DUP2 JUMP JUMPDEST PUSH2 0x182 PUSH2 0x240 CALLDATASIZE PUSH1 0x4 PUSH2 0xDAE JUMP JUMPDEST PUSH2 0x54A JUMP JUMPDEST PUSH2 0x16D PUSH2 0x253 CALLDATASIZE PUSH1 0x4 PUSH2 0xDAE JUMP JUMPDEST PUSH2 0x581 JUMP JUMPDEST PUSH2 0x19B PUSH2 0x266 CALLDATASIZE PUSH1 0x4 PUSH2 0xE14 JUMP JUMPDEST PUSH1 0x0 PUSH1 0x20 DUP2 SWAP1 MSTORE SWAP1 DUP2 MSTORE PUSH1 0x40 SWAP1 KECCAK256 SLOAD DUP2 JUMP JUMPDEST PUSH2 0x16D PUSH2 0x286 CALLDATASIZE PUSH1 0x4 PUSH2 0xDAE JUMP JUMPDEST PUSH2 0x5CD JUMP JUMPDEST PUSH2 0x19B PUSH2 0x299 CALLDATASIZE PUSH1 0x4 PUSH2 0xE14 JUMP JUMPDEST PUSH1 0x6 PUSH1 0x20 MSTORE PUSH1 0x0 SWAP1 DUP2 MSTORE PUSH1 0x40 SWAP1 KECCAK256 SLOAD DUP2 JUMP JUMPDEST PUSH1 0x7 SLOAD PUSH2 0x208 SWAP1 PUSH1 0x1 PUSH1 0x1 PUSH1 0xA0 SHL SUB AND DUP2 JUMP JUMPDEST PUSH2 0x144 PUSH2 0x62D JUMP JUMPDEST PUSH2 0x182 PUSH2 0x2D4 CALLDATASIZE PUSH1 0x4 PUSH2 0xDAE JUMP JUMPDEST PUSH2 0x63A JUMP JUMPDEST PUSH2 0x182 PUSH2 0x2E7 CALLDATASIZE PUSH1 0x4 PUSH2 0xDAE JUMP JUMPDEST PUSH2 0x671 JUMP JUMPDEST PUSH2 0x16D PUSH2 0x2FA CALLDATASIZE PUSH1 0x4 PUSH2 0xE36 JUMP JUMPDEST PUSH2 0x67E JUMP JUMPDEST PUSH2 0x19B PUSH2 0x30D CALLDATASIZE PUSH1 0x4 PUSH2 0xEA9 JUMP JUMPDEST PUSH1 0x1 PUSH1 0x20 SWAP1 DUP2 MSTORE PUSH1 0x0 SWAP3 DUP4 MSTORE PUSH1 0x40 DUP1 DUP5 KECCAK256 SWAP1 SWAP2 MSTORE SWAP1 DUP3 MSTORE SWAP1 KECCAK256 SLOAD DUP2 JUMP JUMPDEST PUSH2 0x16D PUSH2 0x338 CALLDATASIZE PUSH1 0x4 PUSH2 0xE14 JUMP JUMPDEST PUSH2 0x861 JUMP JUMPDEST PUSH1 0x3 DUP1 SLOAD PUSH2 0x34A SWAP1 PUSH2 0xEDC JUMP JUMPDEST DUP1 PUSH1 0x1F ADD PUSH1 0x20 DUP1 SWAP2 DIV MUL PUSH1 0x20 ADD PUSH1 0x40 MLOAD SWAP1 DUP2 ADD PUSH1 0x40 MSTORE DUP1 SWAP3 SWAP2 SWAP1 DUP2 DUP2 MSTORE PUSH1 0x20 ADD DUP3 DUP1 SLOAD PUSH2 0x376 SWAP1 PUSH2 0xEDC JUMP JUMPDEST DUP1 ISZERO PUSH2 0x3C3 JUMPI DUP1 PUSH1 0x1F LT PUSH2 0x398 JUMPI PUSH2 0x100 DUP1 DUP4 SLOAD DIV MUL DUP4 MSTORE SWAP2 PUSH1 0x20 ADD SWAP2 PUSH2 0x3C3 JUMP JUMPDEST DUP3 ADD SWAP2 SWAP1 PUSH1 0x0 MSTORE PUSH1 0x20 PUSH1 0x0 KECCAK256 SWAP1 JUMPDEST DUP2 SLOAD DUP2 MSTORE SWAP1 PUSH1 0x1 ADD SWAP1 PUSH1 0x20 ADD DUP1 DUP4 GT PUSH2 0x3A6 JUMPI DUP3 SWAP1 SUB PUSH1 0x1F AND DUP3 ADD SWAP2 JUMPDEST POP POP POP POP POP DUP2 JUMP JUMPDEST PUSH1 0x7 SLOAD PUSH1 0x1 PUSH1 0x1 PUSH1 0xA0 SHL SUB AND CALLER EQ PUSH2 0x3E2 JUMPI PUSH1 0x0 DUP1 REVERT JUMPDEST PUSH1 0x0 PUSH2 0x3ED DUP3 PUSH2 0x480 JUMP JUMPDEST PUSH1 0x1 PUSH1 0x1 PUSH1 0xA0 SHL SUB DUP2 AND PUSH1 0x0 SWAP1 DUP2 MSTORE PUSH1 0x20 DUP2 SWAP1 MSTORE PUSH1 0x40 SWAP1 KECCAK256 SLOAD SWAP1 SWAP2 POP PUSH2 0x414 SWAP1 DUP3 SWAP1 PUSH2 0x8E7 JUMP JUMPDEST POP POP JUMP JUMPDEST PUSH1 0x0 PUSH2 0x425 CALLER DUP5 DUP5 PUSH2 0x992 JUMP JUMPDEST POP PUSH1 0x1 SWAP3 SWAP2 POP POP JUMP JUMPDEST PUSH1 0x0 PUSH2 0x43B DUP5 DUP5 DUP5 PUSH2 0xA1A JUMP JUMPDEST PUSH1 0x1 PUSH1 0x1 PUSH1 0xA0 SHL SUB DUP5 AND PUSH1 0x0 SWAP1 DUP2 MSTORE PUSH1 0x1 PUSH1 0x20 SWAP1 DUP2 MSTORE PUSH1 0x40 DUP1 DUP4 KECCAK256 CALLER DUP1 DUP6 MSTORE SWAP3 MSTORE SWAP1 SWAP2 KECCAK256 SLOAD PUSH2 0x476 SWAP2 DUP7 SWAP2 PUSH2 0x471 SWAP1 DUP7 SWAP1 PUSH2 0xF2D JUMP JUMPDEST PUSH2 0x992 JUMP JUMPDEST POP PUSH1 0x1 SWAP4 SWAP3 POP POP POP JUMP JUMPDEST PUSH1 0x7 SLOAD PUSH1 0x40 MLOAD PUSH1 0x0 SWAP2 PUSH1 0x1 PUSH1 0x1 PUSH1 0xF8 SHL SUB NOT SWAP2 PUSH1 0x1 PUSH1 0x1 PUSH1 0xA0 SHL SUB SWAP1 SWAP2 AND SWAP1 DUP5 SWAP1 PUSH2 0x4AD PUSH1 0x20 DUP3 ADD PUSH2 0xD09 JUMP JUMPDEST PUSH1 0x1F NOT DUP3 DUP3 SUB DUP2 ADD DUP4 MSTORE PUSH1 0x1F SWAP1 SWAP2 ADD AND PUSH1 0x40 DUP2 SWAP1 MSTORE PUSH2 0x4CF SWAP2 SWAP1 PUSH1 0x20 ADD PUSH2 0xF44 JUMP JUMPDEST PUSH1 0x40 MLOAD PUSH1 0x20 DUP2 DUP4 SUB SUB DUP2 MSTORE SWAP1 PUSH1 0x40 MSTORE DUP1 MLOAD SWAP1 PUSH1 0x20 ADD KECCAK256 PUSH1 0x40 MLOAD PUSH1 0x20 ADD PUSH2 0x52C SWAP5 SWAP4 SWAP3 SWAP2 SWAP1 PUSH1 0x1 PUSH1 0x1 PUSH1 0xF8 SHL SUB NOT SWAP5 SWAP1 SWAP5 AND DUP5 MSTORE PUSH1 0x60 SWAP3 SWAP1 SWAP3 SHL PUSH12 0xFFFFFFFFFFFFFFFFFFFFFFFF NOT AND PUSH1 0x1 DUP5 ADD MSTORE PUSH1 0x15 DUP4 ADD MSTORE PUSH1 0x35 DUP3 ADD MSTORE PUSH1 0x55 ADD SWAP1 JUMP JUMPDEST PUSH1 0x40 DUP1 MLOAD PUSH1 0x1F NOT DUP2 DUP5 SUB ADD DUP2 MSTORE SWAP2 SWAP1 MSTORE DUP1 MLOAD PUSH1 0x20 SWAP1 SWAP2 ADD KECCAK256 SWAP3 SWAP2 POP POP JUMP JUMPDEST CALLER PUSH1 0x0 DUP2 DUP2 MSTORE PUSH1 0x1 PUSH1 0x20 SWAP1 DUP2 MSTORE PUSH1 0x40 DUP1 DUP4 KECCAK256 PUSH1 0x1 PUSH1 0x1 PUSH1 0xA0 SHL SUB DUP8 AND DUP5 MSTORE SWAP1 SWAP2 MSTORE DUP2 KECCAK256 SLOAD SWAP1 SWAP2 PUSH2 0x425 SWAP2 DUP6 SWAP1 PUSH2 0x471 SWAP1 DUP7 SWAP1 PUSH2 0xF60 JUMP JUMPDEST PUSH1 0x7 SLOAD PUSH1 0x1 PUSH1 0x1 PUSH1 0xA0 SHL SUB AND CALLER EQ PUSH2 0x598 JUMPI PUSH1 0x0 DUP1 REVERT JUMPDEST PUSH1 0x8 SLOAD DUP1 ISZERO DUP1 PUSH2 0x5B5 JUMPI POP DUP1 DUP3 PUSH1 0x2 SLOAD PUSH2 0x5B2 SWAP2 SWAP1 PUSH2 0xF60 JUMP JUMPDEST GT ISZERO JUMPDEST PUSH2 0x5BE JUMPI PUSH1 0x0 DUP1 REVERT JUMPDEST PUSH2 0x5C8 DUP4 DUP4 PUSH2 0xAEC JUMP JUMPDEST POP POP POP JUMP JUMPDEST PUSH1 0x7 SLOAD PUSH1 0x1 PUSH1 0x1 PUSH1 0xA0 SHL SUB AND CALLER EQ PUSH2 0x5E4 JUMPI PUSH1 0x0 DUP1 REVERT JUMPDEST PUSH1 0x7 SLOAD PUSH1 0x1 PUSH1 0x1 PUSH1 0xA0 SHL SUB DUP1 DUP5 AND PUSH1 0x0 SWAP1 DUP2 MSTORE PUSH1 0x1 PUSH1 0x20 SWAP1 DUP2 MSTORE PUSH1 0x40 DUP1 DUP4 KECCAK256 SWAP4 SWAP1 SWAP5 AND DUP1 DUP4 MSTORE SWAP3 SWAP1 MSTORE SWAP2 SWAP1 SWAP2 KECCAK256 SLOAD PUSH2 0x623 SWAP2 DUP5 SWAP2 PUSH2 0x471 SWAP1 DUP6 SWAP1 PUSH2 0xF2D JUMP JUMPDEST PUSH2 0x414 DUP3 DUP3 PUSH2 0x8E7 JUMP JUMPDEST PUSH1 0x4 DUP1 SLOAD PUSH2 0x34A SWAP1 PUSH2 0xEDC JUMP JUMPDEST CALLER PUSH1 0x0 DUP2 DUP2 MSTORE PUSH1 0x1 PUSH1 0x20 SWAP1 DUP2 MSTORE PUSH1 0x40 DUP1 DUP4 KECCAK256 PUSH1 0x1 PUSH1 0x1 PUSH1 0xA0 SHL SUB DUP8 AND DUP5 MSTORE SWAP1 SWAP2 MSTORE DUP2 KECCAK256 SLOAD SWAP1 SWAP2 PUSH2 0x425 SWAP2 DUP6 SWAP1 PUSH2 0x471 SWAP1 DUP7 SWAP1 PUSH2 0xF2D JUMP JUMPDEST PUSH1 0x0 PUSH2 0x425 CALLER DUP5 DUP5 PUSH2 0xA1A JUMP JUMPDEST DUP4 TIMESTAMP LT PUSH2 0x68A JUMPI PUSH1 0x0 DUP1 REVERT JUMPDEST PUSH32 0x7FFFFFFFFFFFFFFFFFFFFFFFFFFFFFFF5D576E7357A4501DDFE92F46681B20A0 DUP2 GT ISZERO PUSH2 0x6B7 JUMPI PUSH1 0x0 DUP1 REVERT JUMPDEST DUP3 PUSH1 0xFF AND PUSH1 0x1B EQ DUP1 PUSH2 0x6CC JUMPI POP DUP3 PUSH1 0xFF AND PUSH1 0x1C EQ JUMPDEST PUSH2 0x6D5 JUMPI PUSH1 0x0 DUP1 REVERT JUMPDEST PUSH1 0x0 PUSH1 0x40 MLOAD DUP1 PUSH1 0x40 ADD PUSH1 0x40 MSTORE DUP1 PUSH1 0x2 DUP2 MSTORE PUSH1 0x20 ADD PUSH2 0x1901 PUSH1 0xF0 SHL DUP2 MSTORE POP PUSH1 0x5 SLOAD PUSH32 0x6E71EDAE12B1B97F4D1F60370FEF10105FA2FAAE0126114A169C64845D6126C9 PUSH1 0x0 SHL DUP11 DUP11 DUP11 PUSH1 0x6 PUSH1 0x0 DUP16 PUSH1 0x1 PUSH1 0x1 PUSH1 0xA0 SHL SUB AND PUSH1 0x1 PUSH1 0x1 PUSH1 0xA0 SHL SUB AND DUP2 MSTORE PUSH1 0x20 ADD SWAP1 DUP2 MSTORE PUSH1 0x20 ADD PUSH1 0x0 KECCAK256 PUSH1 0x0 DUP2 SLOAD DUP1 SWAP3 SWAP2 SWAP1 PUSH2 0x752 SWAP1 PUSH2 0xF78 JUMP JUMPDEST SWAP1 SWAP2 SSTORE POP PUSH1 0x40 DUP1 MLOAD PUSH1 0x20 DUP2 ADD SWAP7 SWAP1 SWAP7 MSTORE PUSH1 0x1 PUSH1 0x1 PUSH1 0xA0 SHL SUB SWAP5 DUP6 AND SWAP1 DUP7 ADD MSTORE SWAP3 SWAP1 SWAP2 AND PUSH1 0x60 DUP5 ADD MSTORE PUSH1 0x80 DUP4 ADD MSTORE PUSH1 0xA0 DUP3 ADD MSTORE PUSH1 0xC0 DUP2 ADD DUP9 SWAP1 MSTORE PUSH1 0xE0 ADD PUSH1 0x40 MLOAD PUSH1 0x20 DUP2 DUP4 SUB SUB DUP2 MSTORE SWAP1 PUSH1 0x40 MSTORE DUP1 MLOAD SWAP1 PUSH1 0x20 ADD KECCAK256 PUSH1 0x40 MLOAD PUSH1 0x20 ADD PUSH2 0x7B6 SWAP4 SWAP3 SWAP2 SWAP1 PUSH2 0xF93 JUMP JUMPDEST PUSH1 0x40 DUP1 MLOAD PUSH1 0x1F NOT DUP2 DUP5 SUB ADD DUP2 MSTORE DUP3 DUP3 MSTORE DUP1 MLOAD PUSH1 0x20 SWAP2 DUP3 ADD KECCAK256 PUSH1 0x0 DUP1 DUP6 MSTORE SWAP2 DUP5 ADD DUP1 DUP5 MSTORE DUP2 SWAP1 MSTORE PUSH1 0xFF DUP9 AND SWAP3 DUP5 ADD SWAP3 SWAP1 SWAP3 MSTORE PUSH1 0x60 DUP4 ADD DUP7 SWAP1 MSTORE PUSH1 0x80 DUP4 ADD DUP6 SWAP1 MSTORE SWAP1 SWAP3 POP SWAP1 PUSH1 0x1 SWAP1 PUSH1 0xA0 ADD PUSH1 0x20 PUSH1 0x40 MLOAD PUSH1 0x20 DUP2 SUB SWAP1 DUP1 DUP5 SUB SWAP1 DUP6 GAS STATICCALL ISZERO DUP1 ISZERO PUSH2 0x821 JUMPI RETURNDATASIZE PUSH1 0x0 DUP1 RETURNDATACOPY RETURNDATASIZE PUSH1 0x0 REVERT JUMPDEST POP POP POP PUSH1 0x20 PUSH1 0x40 MLOAD SUB MLOAD SWAP1 POP DUP9 PUSH1 0x1 PUSH1 0x1 PUSH1 0xA0 SHL SUB AND DUP2 PUSH1 0x1 PUSH1 0x1 PUSH1 0xA0 SHL SUB AND EQ PUSH2 0x84B JUMPI PUSH1 0x0 DUP1 REVERT JUMPDEST PUSH2 0x856 DUP10 DUP10 DUP10 PUSH2 0x992 JUMP JUMPDEST POP POP POP POP POP POP POP POP POP JUMP JUMPDEST PUSH1 0x7 SLOAD PUSH1 0x1 PUSH1 0x1 PUSH1 0xA0 SHL SUB AND CALLER EQ PUSH2 0x878 JUMPI PUSH1 0x0 DUP1 REVERT JUMPDEST PUSH1 0x1 PUSH1 0x1 PUSH1 0xA0 SHL SUB DUP2 AND PUSH2 0x88B JUMPI PUSH1 0x0 DUP1 REVERT JUMPDEST PUSH1 0x7 SLOAD PUSH1 0x40 MLOAD PUSH1 0x1 PUSH1 0x1 PUSH1 0xA0 SHL SUB DUP1 DUP5 AND SWAP3 AND SWAP1 PUSH32 0x8BE0079C531659141344CD1FD0A4F28419497F9722A3DAAFE3B4186F6B6457E0 SWAP1 PUSH1 0x0 SWAP1 LOG3 PUSH1 0x7 DUP1 SLOAD PUSH1 0x1 PUSH1 0x1 PUSH1 0xA0 SHL SUB NOT AND PUSH1 0x1 PUSH1 0x1 PUSH1 0xA0 SHL SUB SWAP3 SWAP1 SWAP3 AND SWAP2 SWAP1 SWAP2 OR SWAP1 SSTORE JUMP JUMPDEST PUSH1 0x1 PUSH1 0x1 PUSH1 0xA0 SHL SUB DUP3 AND PUSH2 0x8FA JUMPI PUSH1 0x0 DUP1 REVERT JUMPDEST PUSH2 0x906 DUP3 PUSH1 0x0 DUP4 PUSH2 0xB8D JUMP JUMPDEST PUSH1 0x1 PUSH1 0x1 PUSH1 0xA0 SHL SUB DUP3 AND PUSH1 0x0 SWAP1 DUP2 MSTORE PUSH1 0x20 DUP2 SWAP1 MSTORE PUSH1 0x40 DUP2 KECCAK256 DUP1 SLOAD DUP4 SWAP3 SWAP1 PUSH2 0x92E SWAP1 DUP5 SWAP1 PUSH2 0xF2D JUMP JUMPDEST SWAP3 POP POP DUP2 SWAP1 SSTORE POP DUP1 PUSH1 0x2 PUSH1 0x0 DUP3 DUP3 SLOAD PUSH2 0x947 SWAP2 SWAP1 PUSH2 0xF2D JUMP JUMPDEST SWAP1 SWAP2 SSTORE POP POP PUSH1 0x40 MLOAD DUP2 DUP2 MSTORE PUSH1 0x0 SWAP1 PUSH1 0x1 PUSH1 0x1 PUSH1 0xA0 SHL SUB DUP5 AND SWAP1 PUSH32 0xDDF252AD1BE2C89B69C2B068FC378DAA952BA7F163C4A11628F55A4DF523B3EF SWAP1 PUSH1 0x20 ADD JUMPDEST PUSH1 0x40 MLOAD DUP1 SWAP2 SUB SWAP1 LOG3 POP POP JUMP JUMPDEST PUSH1 0x1 PUSH1 0x1 PUSH1 0xA0 SHL SUB DUP4 AND PUSH2 0x9A5 JUMPI PUSH1 0x0 DUP1 REVERT JUMPDEST PUSH1 0x1 PUSH1 0x1 PUSH1 0xA0 SHL SUB DUP3 AND PUSH2 0x9B8 JUMPI PUSH1 0x0 DUP1 REVERT JUMPDEST PUSH1 0x1 PUSH1 0x1 PUSH1 0xA0 SHL SUB DUP4 DUP2 AND PUSH1 0x0 DUP2 DUP2 MSTORE PUSH1 0x1 PUSH1 0x20 SWAP1 DUP2 MSTORE PUSH1 0x40 DUP1 DUP4 KECCAK256 SWAP5 DUP8 AND DUP1 DUP5 MSTORE SWAP5 DUP3 MSTORE SWAP2 DUP3 SWAP1 KECCAK256 DUP6 SWAP1 SSTORE SWAP1 MLOAD DUP5 DUP2 MSTORE PUSH32 0x8C5BE1E5EBEC7D5BD14F71427D1E84F3DD0314C0F7B2291E5B200AC8C7C3B925 SWAP2 ADD JUMPDEST PUSH1 0x40 MLOAD DUP1 SWAP2 SUB SWAP1 LOG3 POP POP POP JUMP JUMPDEST PUSH1 0x1 PUSH1 0x1 PUSH1 0xA0 SHL SUB DUP4 AND PUSH2 0xA2D JUMPI PUSH1 0x0 DUP1 REVERT JUMPDEST PUSH1 0x1 PUSH1 0x1 PUSH1 0xA0 SHL SUB DUP3 AND PUSH2 0xA40 JUMPI PUSH1 0x0 DUP1 REVERT JUMPDEST PUSH2 0xA4B DUP4 DUP4 DUP4 PUSH2 0xB8D JUMP JUMPDEST PUSH1 0x1 PUSH1 0x1 PUSH1 0xA0 SHL SUB DUP4 AND PUSH1 0x0 SWAP1 DUP2 MSTORE PUSH1 0x20 DUP2 SWAP1 MSTORE PUSH1 0x40 DUP2 KECCAK256 DUP1 SLOAD DUP4 SWAP3 SWAP1 PUSH2 0xA73 SWAP1 DUP5 SWAP1 PUSH2 0xF2D JUMP JUMPDEST SWAP1 SWAP2 SSTORE POP POP PUSH1 0x1 PUSH1 0x1 PUSH1 0xA0 SHL SUB DUP3 AND PUSH1 0x0 SWAP1 DUP2 MSTORE PUSH1 0x20 DUP2 SWAP1 MSTORE PUSH1 0x40 DUP2 KECCAK256 DUP1 SLOAD DUP4 SWAP3 SWAP1 PUSH2 0xAA0 SWAP1 DUP5 SWAP1 PUSH2 0xF60 JUMP JUMPDEST SWAP3 POP POP DUP2 SWAP1 SSTORE POP DUP2 PUSH1 0x1 PUSH1 0x1 PUSH1 0xA0 SHL SUB AND DUP4 PUSH1 0x1 PUSH1 0x1 PUSH1 0xA0 SHL SUB AND PUSH32 0xDDF252AD1BE2C89B69C2B068FC378DAA952BA7F163C4A11628F55A4DF523B3EF DUP4 PUSH1 0x40 MLOAD PUSH2 0xA0D SWAP2 DUP2 MSTORE PUSH1 0x20 ADD SWAP1 JUMP JUMPDEST PUSH1 0x1 PUSH1 0x1 PUSH1 0xA0 SHL SUB DUP3 AND PUSH2 0xAFF JUMPI PUSH1 0x0 DUP1 REVERT JUMPDEST PUSH2 0xB0B PUSH1 0x0 DUP4 DUP4 PUSH2 0xB8D JUMP JUMPDEST DUP1 PUSH1 0x2 PUSH1 0x0 DUP3 DUP3 SLOAD PUSH2 0xB1D SWAP2 SWAP1 PUSH2 0xF60 JUMP JUMPDEST SWAP1 SWAP2 SSTORE POP POP PUSH1 0x1 PUSH1 0x1 PUSH1 0xA0 SHL SUB DUP3 AND PUSH1 0x0 SWAP1 DUP2 MSTORE PUSH1 0x20 DUP2 SWAP1 MSTORE PUSH1 0x40 DUP2 KECCAK256 DUP1 SLOAD DUP4 SWAP3 SWAP1 PUSH2 0xB4A SWAP1 DUP5 SWAP1 PUSH2 0xF60 JUMP JUMPDEST SWAP1 SWAP2 SSTORE POP POP PUSH1 0x40 MLOAD DUP2 DUP2 MSTORE PUSH1 0x1 PUSH1 0x1 PUSH1 0xA0 SHL SUB DUP4 AND SWAP1 PUSH1 0x0 SWAP1 PUSH32 0xDDF252AD1BE2C89B69C2B068FC378DAA952BA7F163C4A11628F55A4DF523B3EF SWAP1 PUSH1 0x20 ADD PUSH2 0x986 JUMP JUMPDEST PUSH1 0x7 SLOAD PUSH1 0x40 MLOAD PUSH4 0x3D70E7E5 PUSH1 0xE1 SHL DUP2 MSTORE PUSH32 0x75A31D1CE8E5F9892188BEFC328D3B9BD3FA5037457E881ABC21F388471B8D96 PUSH1 0x4 DUP3 ADD MSTORE PUSH1 0x1 PUSH1 0x1 PUSH1 0xA0 SHL SUB SWAP1 SWAP2 AND SWAP1 PUSH4 0x7AE1CFCA SWAP1 PUSH1 0x24 ADD PUSH1 0x20 PUSH1 0x40 MLOAD DUP1 DUP4 SUB DUP2 DUP7 DUP1 EXTCODESIZE ISZERO DUP1 ISZERO PUSH2 0xBF0 JUMPI PUSH1 0x0 DUP1 REVERT JUMPDEST POP GAS STATICCALL ISZERO DUP1 ISZERO PUSH2 0xC04 JUMPI RETURNDATASIZE PUSH1 0x0 DUP1 RETURNDATACOPY RETURNDATASIZE PUSH1 0x0 REVERT JUMPDEST POP POP POP POP PUSH1 0x40 MLOAD RETURNDATASIZE PUSH1 0x1F NOT PUSH1 0x1F DUP3 ADD AND DUP3 ADD DUP1 PUSH1 0x40 MSTORE POP DUP2 ADD SWAP1 PUSH2 0xC28 SWAP2 SWAP1 PUSH2 0xFBA JUMP JUMPDEST ISZERO PUSH2 0xC32 JUMPI PUSH1 0x0 DUP1 REVERT JUMPDEST PUSH1 0x7 SLOAD PUSH1 0x40 MLOAD PUSH1 0x1 PUSH1 0x1 PUSH1 0xA0 SHL SUB SWAP1 SWAP2 AND SWAP1 PUSH4 0x7AE1CFCA SWAP1 PUSH2 0xC7B SWAP1 PUSH32 0x1A7261D3A36C4CE4235D10859911C9444A6963A3591EC5725B96871D9810626B SWAP1 PUSH1 0x4 SWAP1 PUSH1 0x20 ADD PUSH2 0xFDC JUMP JUMPDEST PUSH1 0x40 MLOAD PUSH1 0x20 DUP2 DUP4 SUB SUB DUP2 MSTORE SWAP1 PUSH1 0x40 MSTORE DUP1 MLOAD SWAP1 PUSH1 0x20 ADD KECCAK256 PUSH1 0x40 MLOAD DUP3 PUSH4 0xFFFFFFFF AND PUSH1 0xE0 SHL DUP2 MSTORE PUSH1 0x4 ADD PUSH2 0xCAF SWAP2 DUP2 MSTORE PUSH1 0x20 ADD SWAP1 JUMP JUMPDEST PUSH1 0x20 PUSH1 0x40 MLOAD DUP1 DUP4 SUB DUP2 DUP7 DUP1 EXTCODESIZE ISZERO DUP1 ISZERO PUSH2 0xCC7 JUMPI PUSH1 0x0 DUP1 REVERT JUMPDEST POP GAS STATICCALL ISZERO DUP1 ISZERO PUSH2 0xCDB JUMPI RETURNDATASIZE PUSH1 0x0 DUP1 RETURNDATACOPY RETURNDATASIZE PUSH1 0x0 REVERT JUMPDEST POP POP POP POP PUSH1 0x40 MLOAD RETURNDATASIZE PUSH1 0x1F NOT PUSH1 0x1F DUP3 ADD AND DUP3 ADD DUP1 PUSH1 0x40 MSTORE POP DUP2 ADD SWAP1 PUSH2 0xCFF SWAP2 SWAP1 PUSH2 0xFBA JUMP JUMPDEST ISZERO PUSH2 0x5C8 JUMPI PUSH1 0x0 DUP1 REVERT JUMPDEST PUSH2 0x2A6 DUP1 PUSH2 0x1086 DUP4 CODECOPY ADD SWAP1 JUMP JUMPDEST PUSH1 0x0 JUMPDEST DUP4 DUP2 LT ISZERO PUSH2 0xD31 JUMPI DUP2 DUP2 ADD MLOAD DUP4 DUP3 ADD MSTORE PUSH1 0x20 ADD PUSH2 0xD19 JUMP JUMPDEST DUP4 DUP2 GT ISZERO PUSH2 0xD40 JUMPI PUSH1 0x0 DUP5 DUP5 ADD MSTORE JUMPDEST POP POP POP POP JUMP JUMPDEST PUSH1 0x20 DUP2 MSTORE PUSH1 0x0 DUP3 MLOAD DUP1 PUSH1 0x20 DUP5 ADD MSTORE PUSH2 0xD65 DUP2 PUSH1 0x40 DUP6 ADD PUSH1 0x20 DUP8 ADD PUSH2 0xD16 JUMP JUMPDEST PUSH1 0x1F ADD PUSH1 0x1F NOT AND SWAP2 SWAP1 SWAP2 ADD PUSH1 0x40 ADD SWAP3 SWAP2 POP POP JUMP JUMPDEST PUSH1 0x0 PUSH1 0x20 DUP3 DUP5 SUB SLT ISZERO PUSH2 0xD8B JUMPI PUSH1 0x0 DUP1 REVERT JUMPDEST POP CALLDATALOAD SWAP2 SWAP1 POP JUMP JUMPDEST DUP1 CALLDATALOAD PUSH1 0x1 PUSH1 0x1 PUSH1 0xA0 SHL SUB DUP2 AND DUP2 EQ PUSH2 0xDA9 JUMPI PUSH1 0x0 DUP1 REVERT JUMPDEST SWAP2 SWAP1 POP JUMP JUMPDEST PUSH1 0x0 DUP1 PUSH1 0x40 DUP4 DUP6 SUB SLT ISZERO PUSH2 0xDC1 JUMPI PUSH1 0x0 DUP1 REVERT JUMPDEST PUSH2 0xDCA DUP4 PUSH2 0xD92 JUMP JUMPDEST SWAP5 PUSH1 0x20 SWAP4 SWAP1 SWAP4 ADD CALLDATALOAD SWAP4 POP POP POP JUMP JUMPDEST PUSH1 0x0 DUP1 PUSH1 0x0 PUSH1 0x60 DUP5 DUP7 SUB SLT ISZERO PUSH2 0xDED JUMPI PUSH1 0x0 DUP1 REVERT JUMPDEST PUSH2 0xDF6 DUP5 PUSH2 0xD92 JUMP JUMPDEST SWAP3 POP PUSH2 0xE04 PUSH1 0x20 DUP6 ADD PUSH2 0xD92 JUMP JUMPDEST SWAP2 POP PUSH1 0x40 DUP5 ADD CALLDATALOAD SWAP1 POP SWAP3 POP SWAP3 POP SWAP3 JUMP JUMPDEST PUSH1 0x0 PUSH1 0x20 DUP3 DUP5 SUB SLT ISZERO PUSH2 0xE26 JUMPI PUSH1 0x0 DUP1 REVERT JUMPDEST PUSH2 0xE2F DUP3 PUSH2 0xD92 JUMP JUMPDEST SWAP4 SWAP3 POP POP POP JUMP JUMPDEST PUSH1 0x0 DUP1 PUSH1 0x0 DUP1 PUSH1 0x0 DUP1 PUSH1 0x0 PUSH1 0xE0 DUP9 DUP11 SUB SLT ISZERO PUSH2 0xE51 JUMPI PUSH1 0x0 DUP1 REVERT JUMPDEST PUSH2 0xE5A DUP9 PUSH2 0xD92 JUMP JUMPDEST SWAP7 POP PUSH2 0xE68 PUSH1 0x20 DUP10 ADD PUSH2 0xD92 JUMP JUMPDEST SWAP6 POP PUSH1 0x40 DUP9 ADD CALLDATALOAD SWAP5 POP PUSH1 0x60 DUP9 ADD CALLDATALOAD SWAP4 POP PUSH1 0x80 DUP9 ADD CALLDATALOAD PUSH1 0xFF DUP2 AND DUP2 EQ PUSH2 0xE8C JUMPI PUSH1 0x0 DUP1 REVERT JUMPDEST SWAP7 SWAP10 SWAP6 SWAP9 POP SWAP4 SWAP7 SWAP3 SWAP6 SWAP5 PUSH1 0xA0 DUP5 ADD CALLDATALOAD SWAP5 POP PUSH1 0xC0 SWAP1 SWAP4 ADD CALLDATALOAD SWAP3 SWAP2 POP POP JUMP JUMPDEST PUSH1 0x0 DUP1 PUSH1 0x40 DUP4 DUP6 SUB SLT ISZERO PUSH2 0xEBC JUMPI PUSH1 0x0 DUP1 REVERT JUMPDEST PUSH2 0xEC5 DUP4 PUSH2 0xD92 JUMP JUMPDEST SWAP2 POP PUSH2 0xED3 PUSH1 0x20 DUP5 ADD PUSH2 0xD92 JUMP JUMPDEST SWAP1 POP SWAP3 POP SWAP3 SWAP1 POP JUMP JUMPDEST PUSH1 0x1 DUP2 DUP2 SHR SWAP1 DUP3 AND DUP1 PUSH2 0xEF0 JUMPI PUSH1 0x7F DUP3 AND SWAP2 POP JUMPDEST PUSH1 0x20 DUP3 LT DUP2 EQ ISZERO PUSH2 0xF11 JUMPI PUSH4 0x4E487B71 PUSH1 0xE0 SHL PUSH1 0x0 MSTORE PUSH1 0x22 PUSH1 0x4 MSTORE PUSH1 0x24 PUSH1 0x0 REVERT JUMPDEST POP SWAP2 SWAP1 POP JUMP JUMPDEST PUSH4 0x4E487B71 PUSH1 0xE0 SHL PUSH1 0x0 MSTORE PUSH1 0x11 PUSH1 0x4 MSTORE PUSH1 0x24 PUSH1 0x0 REVERT JUMPDEST PUSH1 0x0 DUP3 DUP3 LT ISZERO PUSH2 0xF3F JUMPI PUSH2 0xF3F PUSH2 0xF17 JUMP JUMPDEST POP SUB SWAP1 JUMP JUMPDEST PUSH1 0x0 DUP3 MLOAD PUSH2 0xF56 DUP2 DUP5 PUSH1 0x20 DUP8 ADD PUSH2 0xD16 JUMP JUMPDEST SWAP2 SWAP1 SWAP2 ADD SWAP3 SWAP2 POP POP JUMP JUMPDEST PUSH1 0x0 DUP3 NOT DUP3 GT ISZERO PUSH2 0xF73 JUMPI PUSH2 0xF73 PUSH2 0xF17 JUMP JUMPDEST POP ADD SWAP1 JUMP JUMPDEST PUSH1 0x0 PUSH1 0x0 NOT DUP3 EQ ISZERO PUSH2 0xF8C JUMPI PUSH2 0xF8C PUSH2 0xF17 JUMP JUMPDEST POP PUSH1 0x1 ADD SWAP1 JUMP JUMPDEST PUSH1 0x0 DUP5 MLOAD PUSH2 0xFA5 DUP2 DUP5 PUSH1 0x20 DUP10 ADD PUSH2 0xD16 JUMP JUMPDEST SWAP2 SWAP1 SWAP2 ADD SWAP3 DUP4 MSTORE POP PUSH1 0x20 DUP3 ADD MSTORE PUSH1 0x40 ADD SWAP2 SWAP1 POP JUMP JUMPDEST PUSH1 0x0 PUSH1 0x20 DUP3 DUP5 SUB SLT ISZERO PUSH2 0xFCC JUMPI PUSH1 0x0 DUP1 REVERT JUMPDEST DUP2 MLOAD DUP1 ISZERO ISZERO DUP2 EQ PUSH2 0xE2F JUMPI PUSH1 0x0 DUP1 REVERT JUMPDEST DUP3 DUP2 MSTORE PUSH1 0x0 PUSH1 0x20 PUSH1 0x0 DUP5 SLOAD DUP2 PUSH1 0x1 DUP3 DUP2 SHR SWAP2 POP DUP1 DUP4 AND DUP1 PUSH2 0xFFE JUMPI PUSH1 0x7F DUP4 AND SWAP3 POP JUMPDEST DUP6 DUP4 LT DUP2 EQ ISZERO PUSH2 0x101C JUMPI PUSH4 0x4E487B71 PUSH1 0xE0 SHL DUP6 MSTORE PUSH1 0x22 PUSH1 0x4 MSTORE PUSH1 0x24 DUP6 REVERT JUMPDEST DUP1 DUP1 ISZERO PUSH2 0x1030 JUMPI PUSH1 0x1 DUP2 EQ PUSH2 0x1045 JUMPI PUSH2 0x1076 JUMP JUMPDEST PUSH1 0xFF NOT DUP6 AND DUP10 DUP9 ADD MSTORE DUP4 DUP10 ADD DUP8 ADD SWAP6 POP PUSH2 0x1076 JUMP JUMPDEST PUSH1 0x0 DUP11 DUP2 MSTORE PUSH1 0x20 SWAP1 KECCAK256 PUSH1 0x0 JUMPDEST DUP6 DUP2 LT ISZERO PUSH2 0x106C JUMPI DUP2 SLOAD DUP12 DUP3 ADD DUP11 ADD MSTORE SWAP1 DUP5 ADD SWAP1 DUP9 ADD PUSH2 0x1051 JUMP JUMPDEST POP POP DUP7 DUP5 DUP11 ADD ADD SWAP6 POP JUMPDEST POP SWAP4 SWAP10 SWAP9 POP POP POP POP POP POP POP POP POP JUMP INVALID PUSH1 0x80 PUSH1 0x40 MSTORE PUSH1 0x0 DUP1 SSTORE CALLVALUE DUP1 ISZERO PUSH2 0x14 JUMPI PUSH1 0x0 DUP1 REVERT JUMPDEST POP PUSH2 0x282 DUP1 PUSH2 0x24 PUSH1 0x0 CODECOPY PUSH1 0x0 RETURN INVALID PUSH1 0x80 PUSH1 0x40 MSTORE CALLVALUE DUP1 ISZERO PUSH2 0x10 JUMPI PUSH1 0x0 DUP1 REVERT JUMPDEST POP PUSH1 0x4 CALLDATASIZE LT PUSH2 0x35 JUMPI PUSH1 0x0 CALLDATALOAD PUSH1 0xE0 SHR DUP1 PUSH3 0xF55D9D EQ PUSH2 0x3A JUMPI DUP1 PUSH4 0x1CFF79CD EQ PUSH2 0x4F JUMPI JUMPDEST PUSH1 0x0 DUP1 REVERT JUMPDEST PUSH2 0x4D PUSH2 0x48 CALLDATASIZE PUSH1 0x4 PUSH2 0x138 JUMP JUMPDEST PUSH2 0x79 JUMP JUMPDEST STOP JUMPDEST PUSH2 0x62 PUSH2 0x5D CALLDATASIZE PUSH1 0x4 PUSH2 0x15A JUMP JUMPDEST PUSH2 0x97 JUMP JUMPDEST PUSH1 0x40 MLOAD PUSH2 0x70 SWAP3 SWAP2 SWAP1 PUSH2 0x1DD JUMP JUMPDEST PUSH1 0x40 MLOAD DUP1 SWAP2 SUB SWAP1 RETURN JUMPDEST PUSH1 0x0 SLOAD ISZERO PUSH2 0x86 JUMPI PUSH1 0x0 DUP1 REVERT JUMPDEST PUSH1 0x1 PUSH1 0x0 SSTORE PUSH1 0x1 PUSH1 0x1 PUSH1 0xA0 SHL SUB DUP2 AND SELFDESTRUCT JUMPDEST PUSH1 0x0 PUSH1 0x60 PUSH1 0x0 DUP1 SLOAD EQ PUSH2 0xA9 JUMPI PUSH1 0x0 DUP1 REVERT JUMPDEST PUSH1 0x1 PUSH1 0x0 SSTORE PUSH1 0x40 MLOAD PUSH1 0x1 PUSH1 0x1 PUSH1 0xA0 SHL SUB DUP7 AND SWAP1 PUSH2 0xC9 SWAP1 DUP7 SWAP1 DUP7 SWAP1 PUSH2 0x23C JUMP JUMPDEST PUSH1 0x0 PUSH1 0x40 MLOAD DUP1 DUP4 SUB DUP2 PUSH1 0x0 DUP7 GAS CALL SWAP2 POP POP RETURNDATASIZE DUP1 PUSH1 0x0 DUP2 EQ PUSH2 0x106 JUMPI PUSH1 0x40 MLOAD SWAP2 POP PUSH1 0x1F NOT PUSH1 0x3F RETURNDATASIZE ADD AND DUP3 ADD PUSH1 0x40 MSTORE RETURNDATASIZE DUP3 MSTORE RETURNDATASIZE PUSH1 0x0 PUSH1 0x20 DUP5 ADD RETURNDATACOPY PUSH2 0x10B JUMP JUMPDEST PUSH1 0x60 SWAP2 POP JUMPDEST POP PUSH1 0x0 DUP1 SSTORE SWAP1 SWAP7 SWAP1 SWAP6 POP SWAP4 POP POP POP POP JUMP JUMPDEST DUP1 CALLDATALOAD PUSH1 0x1 PUSH1 0x1 PUSH1 0xA0 SHL SUB DUP2 AND DUP2 EQ PUSH2 0x133 JUMPI PUSH1 0x0 DUP1 REVERT JUMPDEST SWAP2 SWAP1 POP JUMP JUMPDEST PUSH1 0x0 PUSH1 0x20 DUP3 DUP5 SUB SLT ISZERO PUSH2 0x14A JUMPI PUSH1 0x0 DUP1 REVERT JUMPDEST PUSH2 0x153 DUP3 PUSH2 0x11C JUMP JUMPDEST SWAP4 SWAP3 POP POP POP JUMP JUMPDEST PUSH1 0x0 DUP1 PUSH1 0x0 PUSH1 0x40 DUP5 DUP7 SUB SLT ISZERO PUSH2 0x16F JUMPI PUSH1 0x0 DUP1 REVERT JUMPDEST PUSH2 0x178 DUP5 PUSH2 0x11C JUMP JUMPDEST SWAP3 POP PUSH1 0x20 DUP5 ADD CALLDATALOAD PUSH8 0xFFFFFFFFFFFFFFFF DUP1 DUP3 GT ISZERO PUSH2 0x195 JUMPI PUSH1 0x0 DUP1 REVERT JUMPDEST DUP2 DUP7 ADD SWAP2 POP DUP7 PUSH1 0x1F DUP4 ADD SLT PUSH2 0x1A9 JUMPI PUSH1 0x0 DUP1 REVERT JUMPDEST DUP2 CALLDATALOAD DUP2 DUP2 GT ISZERO PUSH2 0x1B8 JUMPI PUSH1 0x0 DUP1 REVERT JUMPDEST DUP8 PUSH1 0x20 DUP3 DUP6 ADD ADD GT ISZERO PUSH2 0x1CA JUMPI PUSH1 0x0 DUP1 REVERT JUMPDEST PUSH1 0x20 DUP4 ADD SWAP5 POP DUP1 SWAP4 POP POP POP POP SWAP3 POP SWAP3 POP SWAP3 JUMP JUMPDEST DUP3 ISZERO ISZERO DUP2 MSTORE PUSH1 0x0 PUSH1 0x20 PUSH1 0x40 DUP2 DUP5 ADD MSTORE DUP4 MLOAD DUP1 PUSH1 0x40 DUP6 ADD MSTORE PUSH1 0x0 JUMPDEST DUP2 DUP2 LT ISZERO PUSH2 0x213 JUMPI DUP6 DUP2 ADD DUP4 ADD MLOAD DUP6 DUP3 ADD PUSH1 0x60 ADD MSTORE DUP3 ADD PUSH2 0x1F7 JUMP JUMPDEST DUP2 DUP2 GT ISZERO PUSH2 0x225 JUMPI PUSH1 0x0 PUSH1 0x60 DUP4 DUP8 ADD ADD MSTORE JUMPDEST POP PUSH1 0x1F ADD PUSH1 0x1F NOT AND SWAP3 SWAP1 SWAP3 ADD PUSH1 0x60 ADD SWAP5 SWAP4 POP POP POP POP JUMP JUMPDEST DUP2 DUP4 DUP3 CALLDATACOPY PUSH1 0x0 SWAP2 ADD SWAP1 DUP2 MSTORE SWAP2 SWAP1 POP JUMP INVALID LOG2 PUSH5 0x6970667358 0x22 SLT KECCAK256 0x5E 0xAE PUSH28 0xCAECFFBCD15E04F46B0CF953C1DF7D02AFC5DC8A3BBF36F7A563D810 SWAP14 PUSH5 0x736F6C6343 STOP ADDMOD MULMOD STOP CALLER LOG2 PUSH5 0x6970667358 0x22 SLT KECCAK256 0xBF 0xBF SIGNEXTEND CALLER PUSH30 0xEFE4D8011C1CF32DAE1C8522EFE8CF7A61187D15F7F28FCE193B1964736F PUSH13 0x63430008090033A26469706673 PC 0x22 SLT KECCAK256 0xA6 SWAP6 0xB3 PUSH1 0xFC SWAP4 PUSH17 0xA35BB551570D46FE9D048CD5BD924DBF9 0xC4 0xEC SWAP1 0xE3 0xA8 PUSH23 0x209964736F6C6343000809003300000000000000000000 "
    }
  }
}